:020000040800F2
:10000000E006002089010008C5140008390F000827
:10001000C1140008910200089519000800000000B2
:100020000000000000000000000000008919000826
:100030009502000800000000851900088D190008CD
:10004000A3010008A3010008A3010008A301000800
:10005000A3010008A3010008A3010008A3010008F0
:10006000A3010008A3010008A3010008A3010008E0
:10007000A3010008A3010008A3010008A3010008D0
:10008000A3010008A3010008A3010008A3010008C0
:10009000A3010008A3010008A3010008A3010008B0
:1000A000A3010008A3010008A3010008A3010008A0
:1000B000A3010008A3010008A3010008A301000890
:1000C000A3010008A3010008A3010008A301000880
:1000D000A3010008A3010008A3010008A301000870
:1000E000A3010008A3010008A301000800F002F822
:1000F00000F03AF80AA090E8000C82448344AAF188
:100100000107DA4501D100F02FF8AFF2090EBAE885
:100110000F0013F0010F18BFFB1A43F0010318473B
:10012000AC230000CC230000103A24BF78C878C16B
:10013000FAD8520724BF30C830C144BF04680C60ED
:10014000704700000023002400250026103A28BF35
:1001500078C1FBD8520728BF30C148BF0B60704739
:100160001FB51FBD10B510BD00F058F81146FFF7C0
:10017000F7FF01F041FD00F076F803B4FFF7F2FF5E
:1001800003BC00F07DF8000009488047094800479B
:10019000FEE7FEE7FEE7FEE7FEE7FEE7FEE7FEE737
:1001A000FEE7FEE704480549054A064B7047000094
:1001B00091190008ED000008E0000020E006002092
:1001C000E0020020E00200204FF0000200B51346DC
:1001D00094469646203922BFA0E80C50A0E80C5067
:1001E000B1F12001BFF4F7AF090728BFA0E80C5018
:1001F00048BF0CC05DF804EB890028BF40F8042B11
:1002000008BF704748BF20F8022B11F0804F18BF7D
:1002100000F8012B7047704770477047754600F033
:100220002BF8AE4605006946534620F00700854688
:1002300018B020B5FFF7B6FFBDE820404FF000062C
:100240004FF000074FF000084FF0000BAC46ACE851
:10025000C009ACE8C009ACE8C009ACE8C00921F0AD
:1002600007018D46704710B50446AFF30080204665
:10027000BDE81040FFF781BF00487047280000200C
:1002800001491820ABBEFEE72600020070470000BF
:10029000FEE7000070470000EFF3108072B600BF69
:1002A000FEE70000B0B5044600F01EF9054640F236
:1002B0000000C2F200000078611C18BF044400BFB7
:1002C00000F012F9401BA042FAD3B0BD2DE9F04F67
:1002D00082B00E68002E00F0038141F20042C4F2A9
:1002E0000102042340F2004E904208BF03234FF660
:1002F000FF7CC4F2010E009300240123C1F2100C14
:100300004FF0000A4FF0000949E000BF012704F058
:100310000C030F229A402BEA020207FA03F34FEA7A
:100320009A051A4346F82520D1F804B040F20C454E
:100330005FEACB22DEF8082054BF22EA080242EA34
:100340000802C4F20105CEF808202A685FEA8B2370
:1003500054BF22EA080242EA08022A605FEA8B33AD
:10036000DEF8042054BF22EA080242EA08025FEAEB
:10037000CB33CEF80420DEF800204FF0010354BF49
:1003800022EA080242EA0802CEF800200E680AF1CA
:10039000010A36FA0AF204F1040400F0A18003FA1B
:1003A0000AF816EA080FF1D04E68664512DC122EE4
:1003B00056D8DFE806F0350B454955555555555586
:1003C000555555555555554D510000BFD1F80C9018
:1003D00046E000BF4FF6FF72C1F2210296420FDCE9
:1003E0000022C1F2110296421AD00022C1F212027A
:1003F000964215D00022C1F22102964210D02FE081
:100400000022C1F2220296420AD00022C1F2310239
:10041000964205D00022C1F23202964220D100BF9E
:100420008A684AB1012A14BFC0F81480C0F810804D
:100430004FF0080914E000BF4FF0040910E000BFBE
:10044000CA6802F108090BE04FF0000908E000BF9C
:10045000CA6802F1040903E0CA6802F10C0900BF8E
:1004600022460646BAF1080F24BF203A0436376800
:100470000F25954027EA050509FA02F22A43326062
:10048000CA79D2067FF582AF41F21803C4F20203A3
:100490001A68AEF57E7642F001021A601A6802F020
:1004A00001020192019A2AF0030256F802B040F6C6
:1004B0000002C4F20102904210D040F60042C4F2A1
:1004C000010290423FF422AF41F20002C4F2010265
:1004D000009F904208BF022719E700BF002716E7D8
:1004E00002B0BDE8F08F000040F2DC00C2F2000074
:1004F0000068704770B5B8B3044690F83D0028B95D
:10050000002084F83C00204600F05CF9242084F8A8
:100510003D002068016821F001010160016841F49B
:1005200000410160016821F40041016000F000FB1E
:1005300048F28041C0F21E0140F60013D4F804E0F6
:1005400088424FF00001C0F23D0348F2A16C4FF029
:10055000000238BF01219842C0F2010C38BF0122CD
:10056000E64538BF0A460AB1012070BD4DF68361E9
:10057000C4F21B31A0FB01122168950C4B684FF4AB
:10058000967623F03F0343EA9243754344F6D356ED
:100590004B60C1F262060B6AA5FB0656B50923F053
:1005A0003F03E64538BF950C6A1C1A430A62CA69C4
:1005B00048F2A0664CF6FF73C0F20106B64522EA87
:1005C00003020BD801384FEA4E03B0FBF3F00130C1
:1005D0006FF31F30042898BF04201EE0A368013881
:1005E00063B119230EFB03F3B0FBF3F001306FF39B
:1005F0001F3078B100F5804008E000BF0EEB4E03DD
:10060000B0FBF3F001306FF31F3028B100F500406C
:1006100003E000BF012000E001201043C86108682A
:10062000D4E9072320F0C00010431843086088680D
:1006300048F2FF3204F10C0690434CCE18431043AD
:10064000A5698860C86820F0FF0030432843C8606F
:10065000086840F00100086000202021206484F830
:100660003D10206384F83E0070BD00002DE9F0438A
:1006700083B0994616460F460446FFF735FF94F8B7
:100680003D10202920D10546206800BF81698907D7
:1006900016D5FFF729FF411B20681A29F6D3816977
:1006A0008907F3D500202021206384F83D1084F8C9
:1006B0003E00216C41F02001216484F83C0003E0FD
:1006C00094F83C10012903D1022003B0BDE8F08367
:1006D000012284F83C200368DDE90B180A9ADB0745
:1006E00003D1036843F001030360036823F400634C
:1006F0000360212084F83D00402084F83E00002063
:10070000206462626185608D394620850020CFF6C5
:10071000FF70E062204632464B46CDF800800195DE
:1007200000F00CFC20B1012003B0BDE8F08300BF55
:10073000208D98B9204641462A4600F063FC88B3D4
:10074000206C0428EFD12068016841F40071016039
:10075000012003B0BDE8F0830004EBD02046414601
:100760002A4600F009FE0028EAD1616A226808469C
:1007700010F8013B1361238D6062581E2085678D40
:10078000013F678557697F07E6D50704E4D04878BD
:100790001061881C6062981E2085618D0139618519
:1007A000DAE700BF2068016841F400710160202091
:1007B00084F83D00002084F83E0084F83C0003B03B
:1007C000BDE8F08310B586B045F200410068C4F280
:1007D000000100228842049202D006B010BD00BF82
:1007E00041F21804C4F20204206840F008002060BE
:1007F000206800F0080001900198C02002901220AB
:1008000003900320059001F5384002A9FFF75EFD33
:10081000606840F400106060606800F400100190AF
:10082000019806B010BD000040F2000040F2DC016B
:10083000C2F20000C2F2000100780A6810440860A9
:100840007047000080B542F20000C4F20200016867
:1008500041F010010160032000F07AF80F2000F051
:1008600005F800F027F8002080BD000070B540F2C8
:100870000006C2F2000640F224013278C2F2000102
:100880004FF47A730968B3FBF2F20446B1FBF2F15C
:10089000084600F03BFB0F2C4FF0010508D838B993
:1008A0004FF0FF3021460022002500F025F874604B
:1008B000284670BD82B041F21800C4F202000168FF
:1008C000022241F001010160016801F00101019182
:1008D0000199416841F080514160406800F08050CA
:1008E000009000980420C4F20100016862F31A61CC
:1008F000016002B07047000010B54EF60C5CCEF2FD
:10090000000CDCF80030C3F3022E8EF00704042C38
:1009100028BF0424BEF103034FF0FF3E0EFA04F497
:1009200038BF0023A14399400EFA03F39A431143C1
:1009300000F00F0200F160430901043A03F564433B
:100940006244002848BF02F10C03197010BD00007A
:100950004EF60C51CEF200010A684FF6FF031A4022
:1009600060F30A2242F0806040F0FD70086070473A
:100970002DE9F04381B0002800F0858042F20008A4
:10098000C4F202080446D8F800000D4600F0070043
:1009900088420CD2D8F8000020F007002843C8F89D
:1009A0000000D8F8000000F00700A8426BD12068D2
:1009B00041F204098107C4F2020917D5410705D5A0
:1009C000D9F8001041F4E061C9F80010010705D51D
:1009D000D9F8001041F46051C9F80010D9F800109E
:1009E000A26821F0F0011143C9F80010C00741D1FD
:1009F000D8F8000000F00700A8420CD9D8F8000091
:100A000020F007002843C8F80000D8F8000000F0E4
:100A10000700A84237D12068410707D5D9F8001050
:100A2000E26821F4E0611143C9F80010000708D51D
:100A3000D9F80000216920F4605040EAC100C9F8EB
:100A40000000D9F8002002F00C00082841F2002034
:100A5000C0F27A0050D142F2BA43C2F38341C0F6E9
:100A60000003595CD2033BD440F60010C0F23D00B5
:100A7000484341E0606802280AD001282AD159F889
:100A8000041C890308D4012001B0BDE8F08300BF35
:100A900059F8041C8901F6D5D9F8001021F003019A
:100AA0000843C9F80000FFF71FFD064641F28837EA
:100AB000D9F80000616800F00C00B0EB810F97D00E
:100AC000FFF712FD801BB842F2D9032001B0BDE848
:100AD000F08300BF59F8041C8907D4D5DCE700BFB8
:100AE000D9F8002042F2B843C2F34042C0F60003F6
:100AF0009A5C4843B0FBF2F0D9F8001041F6884206
:100B0000C1F30311C0F60002515C40F2240220FA46
:100B100001F140F20400C2F200000068C2F20002DB
:100B20001160FFF7A3FE002001B0BDE8F0830000D4
:100B300040F2240041F20401C2F20000C4F20201BA
:100B40000068096841F69842C1F30221C0F600022C
:100B5000515CC840704700002DE9F04182B0002888
:100B600068D00446007841F20006C007C4F20206CD
:100B700025D0706800F00C0004281BD0706800F0CD
:100B80000C00082802D17068C00313D460680028E4
:100B900000F06881B0F5A02F00F07C81B0F5803FB7
:100BA00000F07C81306820F480303060306820F4C0
:100BB000802076E13068800301D56068D0B320786A
:100BC000800718D5706810F00C0F07D0706800F01F
:100BD0000C0008286ED17068C0036BD430688007A1
:100BE00002D52069012825D13068616920F0F8001C
:100BF00040EAC1003060207800071FD42078400709
:100C000032D4E56995B1706800F00C00082840F016
:100C10008F80012D0ED07068216A00F480328A42E4
:100C200008D1616A00F47010884203D1002002B03C
:100C3000BDE8F081012002B0BDE8F081A069002884
:100C400062D00020C4F242200121C0F88014FFF7D6
:100C50004BFC0546706A800700F18C80FFF744FC6E
:100C6000401B0228F6D92AE1F06910F0805808D11B
:100C7000F06940F08050F061F06900F08050009021
:100C8000009847F20007C4F200073868C00529D46D
:100C9000386840F480703860FFF726FC054600BFD6
:100CA0003868C0051ED4FFF71FFC401B6428F7D925
:100CB00005E100BF2069002840F20000C4F2422094
:100CC00000F0828001210160FFF70EFC054600BFA5
:100CD000306880073FF588AFFFF706FC401B02280D
:100CE000F6D9ECE0E068002800F08080052800F0EC
:100CF0009780012800F09880306A20F0010030626F
:100D0000306A20F0040092E00020C4F2422000216A
:100D1000C0F88014FFF7E8FB054600BF706A800743
:100D20007FF56CAFFFF7E0FB401B0228F6D9C6E069
:100D30000027C4F2422700203866FFF7D5FB022DBA
:100D400005460BD13068800140F1BE80FFF7CCFB37
:100D5000401B02284FF00300F4D968E73068800197
:100D60007FF564AFFFF7C0FB401B02284FF0030084
:100D7000F4D95CE740F22400C2F20000006844F6B7
:100D8000D351C1F26201A0FB0101480A019000BFEA
:100D900000BF0198411E002801913FF42FAF00BF12
:100DA0000198411E002801913FF428AF00BF01982F
:100DB000411E002801913FF421AF00BF0198411E60
:100DC00000280191E4D119E700210160FFF78CFBB5
:100DD000054600BF306880077FF50DAFFFF784FB45
:100DE000401B02284FF00300F4D920E7306A20F0BE
:100DF00001003062306A20F004003062FFF774FBBB
:100E0000054641F2883700BF306A800720D5FFF7DA
:100E10006BFB401BB8424FF00300F5D907E700BF5A
:100E2000306A40F004003062306A40F00100306205
:100E3000FFF75AFB054641F2883700BF306A80074A
:100E400006D4FFF751FB401BB842F7D937E000BF8B
:100E5000B8F1000F7FF4D5AEF06920F08050F0615A
:100E6000CFE600BF306820F480303060306820F476
:100E700080203060FFF738FB054600BF30688003F4
:100E80007FF59DAEFFF730FB401B64284FF0030059
:100E9000F4D9CCE6306840F480203060306840F40B
:100EA00080303060FFF720FB054600BF30688003CC
:100EB0003FF585AEFFF718FB401B6428F6D90320E9
:100EC00002B0BDE8F08100BF206AB0F5803F05D1D7
:100ED0007168A26821F40031114371607168626A1F
:100EE00021F4741111430843706001203866FFF744
:100EF000FBFA0446306880013FF598AEFFF7F4FA3C
:100F0000001B02284FF00300F4D990E6411E002098
:100F1000B0EB116F1CBF012070474EF21002CEF2F1
:100F2000000251604EF62351CEF20001F0230B7007
:100F30000721906011607047FEE700002DE9F04343
:100F400083B0044600680D4601680A9F0B9E41F479
:100F5000807199469046016020464FF001110022B1
:100F60003B46009600F0AEF850B120680068C0051E
:100F700044BF4FF400702064032003B0BDE8F08349
:100F8000206805F0FE0101610221C0F20101204646
:100F90003A46334600F080F920B1012003B0BDE8A5
:100FA000F08300BF00200290206832464169029120
:100FB0008069394602900298204600F0DDF958B168
:100FC000206C0428E9D12068016841F400710160B7
:100FD000012003B0BDE8F0832068B9F1010F0AD009
:100FE0004FEA1821016120463946324600F0C4F923
:100FF0000028E5D120685FFA88F10161002003B084
:10100000BDE8F08370B50368044653F8140F400739
:1010100011D40E46481C29D086BB00BF1868400575
:1010200027D4FFF761FA236853F8140F400739D526
:1010300018684007F2D5002070BD00BF186840074F
:10104000F9D41868400514D418684007F3D4186818
:1010500040050ED418684007EDD41868400508D440
:10106000186840074FF0000048BF70BD1868400581
:10107000E4D56FF480601860042014E0154603E0A6
:1010800053F8140F4007D6D418684005F1D4FFF781
:101090002BFA401B2368B042F2D958694007EFD4BD
:1010A000202000E0202000212022216384F83D2020
:1010B00084F83E10226C10432064012084F83C1018
:1010C00070BD00002DE9F041054600681E4614463B
:1010D00001F47F0201338FB242D0DDF81880B2F5FF
:1010E000803F40F0878040693840C01BB0FA80F0F4
:1010F0004009A04240F0C8804EB924E04069384021
:10110000C01BB0FA80F04009A04240F0BD80FFF75C
:10111000EBF9A0EB08012868B142EFD941693940E9
:10112000C91BB1FA81F14909A142E7D19BE000BF97
:1011300040693840C01BB0FA80F04009A0424FF02F
:10114000000040F0A680FFF7CFF9286841693940D8
:10115000C91BB1FA81F14909A142E9D183E000BF7D
:10116000B2F5803F24D100BF41693940C91BB1FAB3
:1011700081F14909A14240F0878041693940C91B8A
:10118000B1FA81F14909A14240F07E8041693940BC
:10119000C91BB1FA81F14909A14275D141693940B0
:1011A000C91BB1FA81F14909A142DDD06CE000BF51
:1011B00081693940C91BB1FA81F14909A14263D162
:1011C00081693940C91BB1FA81F14909A1425BD15A
:1011D00081693940C91BB1FA81F14909A14253D152
:1011E00081693940C91BB1FA81F14909A142DFD0B7
:1011F0004AE000BF80693840C01BB0FA80F0400967
:10120000A04241D146B923E080693840C01BB0FA02
:1012100080F04009A0423BD1FFF766F9A0EB08013E
:101220002868B142F0D981693940C91BB1FA81F10E
:101230004909A142E8D116E080693840C01BB0FAE4
:1012400080F04009A0424FF0000018BFBDE8F081D7
:10125000FFF74AF9286881693940C91BB1FA81F161
:101260004909A142E8D100202021286385F83D10DA
:1012700085F83E00296C41F02001296485F83C0086
:101280000120BDE8F08100BF0020BDE8F08100BF73
:101290000020BDE8F0810000F0B581B00446006890
:1012A0001D4643698FB203EA0701B94202D100200B
:1012B00001B0F0BD41691646013201F4806125D0CC
:1012C000002940D1CEB100BFFFF70EF9411B2068C5
:1012D000B14203D941693940B9424BD141693940E2
:1012E000B942E4D041694905EED52CE04169394065
:1012F000B942DCD04169490525D4FFF7F5F82068EB
:1013000041693940B942F1D0202024E0D9B941697E
:101310003940B942CBD04169490514D441693940BB
:10132000B942C4D0416949050DD441693940B94237
:10133000BDD04169490506D441693940B942B6D0AA
:1013400041694905E3D5016841F4007101606FF41A
:1013500080614161042000212022216384F83D2026
:1013600084F83E10226C1043206484F83C10012065
:1013700001B0F0BD2020EEE770B50368044653F8D5
:10138000140F000611D40E46481C29D086BB00BF9E
:101390001868400527D4FFF7A7F8236853F8140FFF
:1013A000000639D518680006F2D5002070BD00BFD0
:1013B00018680006F9D41868400514D418680006A7
:1013C000F3D4186840050ED418680006EDD41868E8
:1013D000400508D4186800064FF0000048BF70BDF3
:1013E00018684005E4D56FF480601860042014E0AC
:1013F000154603E053F8140F0006D6D418684005CC
:10140000F1D4FFF771F8401B2368B042F2D9586954
:101410000006EFD4202000E02020002120222163BC
:1014200084F83D2084F83E10226C10432064012093
:1014300084F83C1070BD000083B041F21800C4F283
:101440000200016841F020010160016801F0200103
:1014500002910299016841F004010160016801F004
:10146000040101910199016841F0080101600068DF
:1014700000F008000090009803B0704780B540F27B
:10148000880045F20041C2F20000C4F2000148F2B7
:10149000A06200234FF4804CC0F2010280E80E00ED
:1014A000C0E9033CC0E90533C0E90733FFF722F880
:1014B000002808BF80BDBDE88040FEF7EDBE0000FB
:1014C000FEE70000FEE700002DE9F04F85B040F296
:1014D000880400254FF480760127C2F200040DF144
:1014E000120B0DF113084FF0000900BF09F1B00015
:1014F0008DF8100004A8CDE90007204678210022CD
:1015000001230296FFF7B2F80DF11100CDE90007B3
:1015100020467821002201238DF811500296FFF712
:10152000A5F810208DF81200204678210022012312
:10153000CDE900B70296FFF799F84FF0000A00BF17
:1015400020467821402201238DF81350CDE90087F1
:101550000296FFF78BF80AF101004FFA80FABAF110
:10156000FF3FEDDCB9F1070F09F10109BED305B06A
:10157000BDE8F08F80B5C820FEF794FEBDE880403E
:1015800000F00ABA2DE9F04F89B040B20D46A2F141
:101590002001002820EAE0724FF0100748BF023512
:1015A000A5F1500047EA121402F00F07102BCEB23B
:1015B00040F03A8140F288088DF818004FF0010B96
:1015C00006A8C2F200084FF48079CDE9000B40462E
:1015D000782100220123CDF80890FFF747F80DF19C
:1015E0001900CDE9000B40467821002201238DF837
:1015F0001940CDF80890FFF739F80DF11A00CDE940
:10160000000B40467821002201238DF81A70CDF896
:1016100008904FF48079FFF729F841F6C86130014E
:10162000C0F60001085C01EB06168DF81B0005975B
:101630000DF11B074046782140220123CDE9007BB4
:10164000CDF80890FFF712F87078317996F802A07B
:10165000049496F8039003918DF81B00404678217E
:10166000402201234FF48074CDE9007B0294FEF701
:10167000FDFF40467821402201234FF480748DF80D
:101680001BA0CDE9007B0294FEF7F0FF40467821D5
:10169000402201238DF81B90CDE9007B0294FEF7D8
:1016A000E5FF039878218DF81B0040464022012376
:1016B000CDE9007B0294FEF7D9FF707978218DF88F
:1016C0001B00404640220123CDE9007B0294FEF737
:1016D000CDFFB07978218DF81B00404640220123D0
:1016E000CDE9007B0294FEF7C1FFF07978218DF8F7
:1016F0001B00404640220123CDE9007B0294FEF707
:10170000B5FFA5F14F008DF81C0007A8CDE9000B2F
:1017100040467821002201230294FEF7A7FF049897
:1017200078218DF81D000DF11D00CDE9000B40461C
:10173000002201230294FEF799FF059878218DF885
:101740001E000DF11E00CDE9000B404600220123D2
:101750000294FEF78BFF307A0DF11F058DF81F0004
:101760004046782140220123CDE9005B0294FEF738
:101770007DFF707A78218DF81F00404640220123BA
:10178000CDE9005B0294FEF771FFB07A78218DF805
:101790001F00404640220123CDE9005B0294FEF782
:1017A00065FFF07A78218DF81F0040464022012322
:1017B000CDE9005B0294FEF759FF307B78218DF86C
:1017C0001F00404640220123CDE9005B0294FEF752
:1017D0004DFF707B78218DF81F0040464022012389
:1017E000CDE9005B02944FF48074FEF73FFFB07BBD
:1017F00078218DF81F00404640220123CDE9005B8F
:1018000002944FF48074FEF731FFF07BCDE9005B6A
:101810008DF81F0040467821402201230294FEF7F4
:1018200025FF09B0BDE8F08F40F2880B8DF820004D
:101830004FF0010A08A8C2F2000B4FF48078CDE9FE
:10184000000A5846782100220123CDF80880FEF7CF
:101850000DFF0DF12100CDE9000A58467821002244
:1018600001238DF82140CDF80880FEF7FFFE0DF131
:101870002200CDE9000A58467821002201238DF884
:101880002270CDF80880FEF7F1FE41F6A04106EB8C
:101890004600C0F6000111F8102001EB40058DF85C
:1018A00023200DF123065846782140220123CDE95B
:1018B000006ACDF80880FEF7D9FE6878AF78EC783A
:1018C00095F804908DF82300584678214022012392
:1018D000CDE9006ACDF80880FEF7C8FE58467821A9
:1018E000402201238DF82370CDE9006ACDF80880ED
:1018F000FEF7BCFE58467821402201238DF8234094
:10190000CDE9006ACDF80880FEF7B0FE5846782190
:10191000402201238DF82390CDE9006ACDF808809C
:10192000FEF7A4FE687978218DF8230058464022FE
:101930000123CDE9006ACDF80880FEF797FE09B0D3
:10194000BDE8F08F2DE9F04115461278002A08BF56
:10195000BDE8F08198460E4607460024F8B2F1B281
:10196000D2B24346FFF70EFE0837F8B201347828AA
:10197000E0B288BF02362A5C88BF0027002AEDD17A
:10198000BDE8F0817047000070470000FEF74CBFD3
:1019900070470000FEE70000F0B583B040F2880415
:1019A00040F20807C2F200044FF480750126C2F22B
:1019B00000072046782100220123CDE90076029518
:1019C000FEF754FE781CCDE900062046782100225F
:1019D00001230295FEF74AFEB81CCDE90006204619
:1019E0007821002201230295FEF740FEF81CCDE984
:1019F000000620467821002201230295FEF736FEDC
:101A0000381DCDE9000620467821002201230295E9
:101A1000FEF72CFE781DCDE9000620467821002235
:101A200001230295FEF722FEB81DCDE900062046EF
:101A30007821002201230295FEF718FEF81DCDE95A
:101A4000000620467821002201230295FEF70EFEB3
:101A500007F10800CDE90006204678210022012385
:101A60000295FEF703FE07F10900CDE900062046C6
:101A70007821002201230295FEF7F8FD07F10A0004
:101A8000CDE9000620467821002201230295FEF7C9
:101A9000EDFD07F10B00CDE900062046782100227C
:101AA00001230295FEF7E2FD07F10C00CDE90006E7
:101AB00020467821002201230295FEF7D7FD07F189
:101AC0000D00CDE900062046782100220123029571
:101AD000FEF7CCFD07F10E00CDE900062046782187
:101AE000002201230295FEF7C1FD07F10F00CDE9A9
:101AF000000620467821002201230295FEF7B6FD5C
:101B000007F11000CDE900062046782100220123CC
:101B10000295FEF7ABFD07F11100CDE90006204666
:101B20007821002201230295FEF7A0FD07F11200A3
:101B3000CDE9000620467821002201230295FEF718
:101B400095FD07F11300CDE900062046782100221B
:101B500001230295FEF78AFD07F11400CDE9000686
:101B600020467821002201230295FEF77FFD07F130
:101B70001500CDE9000620467821002201230295B8
:101B8000FEF774FD07F11600CDE900062046782126
:101B9000002201230295FEF769FD07F11700CDE948
:101BA000000620467821002201230295FEF75EFD03
:101BB00007F11800CDE90006204678210022012314
:101BC0000295FEF753FD07F11900CDE90006204606
:101BD0007821002201230295FEF748FD07F11A0043
:101BE000CDE9000620467821002201230295FEF768
:101BF0003DFD03B0F0BD000090B0FEF723FEFFF7FF
:101C0000B9FC06AC201D2421FEF7DEFA0220069066
:101C100001200A9010200B90002520460D95FEF71C
:101C20009BFF28B1EFF3108072B600BFFEE700BF44
:101C30000F20CDE9010501A80021CDE90355059547
:101C4000FEF796FE20B1EFF3108072B6FEE700BFFC
:101C5000FFF7F2FBFFF712FCFFF736FC06A400BF0C
:101C60000A20142122461023FFF76CFE4FF47A70ED
:101C7000FEF718FBF4E700BF363332313037303629
:101C8000303332330000000000000000000000008C
:101C90000102030406070809000000000102030412
:101CA0000000000000000000002F000000000700FE
:101CB000070000147F147F1400242A7F2A12006278
:101CC0006408132300364955225000000503000024
:101CD00000001C224100000041221C000014083EAC
:101CE00008140008083E0808000000A06000000872
:101CF00008080808000060600000002010080402C6
:101D0000003E5149453E0000427F40000042615183
:101D10004946002141454B31001814127F1000271D
:101D200045454539003C4A494930000171090503E0
:101D300000364949493600064949291E0000363611
:101D40000000000056360000000814224100001474
:101D50001414141400004122140800020151090651
:101D600000324959513E007C1211127C007F4949D2
:101D70004936003E41414122007F4141221C007F03
:101D800049494941007F09090901003E4149497A11
:101D9000007F0808087F0000417F4100002040418B
:101DA0003F01007F08142241007F40404040007FF7
:101DB000020C027F007F0408107F003E4141413E3B
:101DC000007F09090906003E4151215E007F091983
:101DD00029460046494949310001017F0101003F80
:101DE0004040403F001F2040201F003F4038403F00
:101DF0000063140814630007087008070061514964
:101E0000454300007F41410000552A552A550000F6
:101E100041417F0000040201020400404040404074
:101E2000000001020400002054545478007F48440C
:101E3000443800384444442000384444487F003843
:101E40005454541800087E0901020018A4A4A47C6C
:101E5000007F080404780000447D40000040808436
:101E60007D00007F102844000000417F4000007C7E
:101E700004180478007C080404780038444444388A
:101E800000FC242424180018242418FC007C0804D6
:101E9000040800485454542000043F444020003CAF
:101EA0004040207C001C2040201C003C4030403C36
:101EB000004428102844001CA0A0A07C00446454C6
:101EC0004C4414141414141400000000000000000A
:101ED0000000000000000000000000F8000000000A
:101EE000000000333000000000100C06100C06004B
:101EF000000000000000000040C07840C0784000B2
:101F0000043F04043F040400007088FC0830000013
:101F1000001820FF211E0000F008F000E01800006B
:101F200000211C031E211E0000F008887000000024
:101F30001E2123241927211010160E000000000076
:101F40000000000000000000000000E01804020093
:101F5000000000071820400000020418E000000004
:101F60000040201807000000404080F08040400002
:101F70000202010F01020200000000F00000000058
:101F80000101011F0101010000000000000000002C
:101F900080B07000000000000000000000000000A1
:101FA000000101010101010100000000000000002A
:101FB00000303000000000000000000080601804C5
:101FC000006018060100000000E010080810E000A2
:101FD000000F102020100F00001010F8000000006B
:101FE0000020203F202000000070080808887000B2
:101FF0000030282422213000003008888848300032
:102000000018202020110E000000C02010F8000051
:1020100000070424243F240000F8088888080800EA
:102020000019212020110E0000E0108888180000FF
:10203000000F112020110E0000380808C8380800D1
:102040000000003F00000000007088080888700051
:10205000001C222121221C0000E010080810E000D2
:102060000000312222110F00000000C0C00000005B
:102070000000003030000000000000800000000080
:102080000000806000000000000080402010080078
:102090000001020408102000404040404040400041
:1020A000040404040404040000081020408000001C
:1020B0000020100804020100007048080808F00021
:1020C0000000003036010000C030C828E810E000F1
:1020D0000718272423140B000000C038E00000007C
:1020E000203C23020227382008F8888888700000E6
:1020F000203F202020110E00C030080808083800BA
:10210000071820202010080008F808080810E00030
:10211000203F202020100F0008F88888E8081000D1
:10212000203F20202320180008F88888E8081000A5
:10213000203F200003000000C030080808380000DD
:1021400007182020221E020008F808000008F808DE
:10215000203F210101213F20000808F80808000065
:102160000020203F2020000000000808F808080098
:10217000C08080807F00000008F888C02818080010
:10218000203F20012638200008F808000000000049
:10219000203F20202020300008F8F800F8F8080040
:1021A000203F003F003F200008F830C00008F8083A
:1021B000203F200007183F00E01008080810E0004A
:1021C0000F10202020100F0008F808080808F00061
:1021D000203F210101010000E01008080810E00084
:1021E0000F18242438504F0008F888888888700019
:1021F000203F2000030C30200070880808083800B9
:102200000038202121221C00180808F808081800AE
:102210000000203F2000000008F808000008F8082F
:10222000001F202020201F000878880000C83808E0
:10223000000007380E010000F80800F80008F80058
:10224000033C0700073C03000818688080681808F2
:1022500020302C03032C30200838C800C838080070
:102260000000203F2000000010080808C8380800BF
:102270002038262120201800000000FE0202020063
:102280000000007F40404000000C30C00000000013
:10229000000000010638C00000020202FE0000003B
:1022A000004040407F0000000000040202020400E1
:1022B000000000000000000000000000000000001E
:1022C0008080808080808080000202040000000006
:1022D00000000000000000000000808080800000FE
:1022E0000019242222223F2008F8008080000000EC
:1022F000003F112020110E000000008080800000AF
:10230000000E112020201100000000808088F800BD
:10231000000E112020103F200000808080800000EF
:10232000001F222222221300008080F08888881853
:102330000020203F2020000000008080808080005E
:10234000006B94949493600008F8008080800000F3
:10235000203F210000203F200080989800000000CE
:102360000020203F202000000000008098980000FE
:1023700000C08080807F000008F80000808080001E
:10238000203F24022D302000000808F80000000043
:102390000020203F202000008080808080808000FE
:1023A000203F20003F20003F808000808080000090
:1023B000203F210000203F2000008080808000001E
:1023C000001F202020201F0080800080800000004F
:1023D00080FFA12020110E0000000080808080007E
:1023E000000E112020A0FF8080808000808080006F
:1023F00020203F212000010000008080808080009C
:102400000033242424241900008080E08080000010
:102410000000001F2020000080800000008080005D
:10242000001F202020103F208080800000808080BE
:1024300000010E300806010080800080008080804E
:102440000F300C030C300F00008080008080800073
:102450000020312E0E31200080808000008080809E
:1024600080818E701806010000808080808080004E
:102470000021302C2221300000000000807C02026C
:1024800000000000003F404000000000FF0000008E
:1024900000000000FF0000000002027C800000003D
:1024A0000040403F00000000000601010202040459
:1024B00000000000000000000102020304050607FE
:1024C00008090A0B0C0D0E0F10100000F024000874
:1024D000000000202800000028010008182500083E
:1024E00028000020B8060000440100080000000099
:1024F0000100000010000000AE001040B081FFA1FC
:10250000A6A83FC8D300D580D805D9F1DA12D830B3
:082510008D14AF000024F4005B
:04000005080000ED02
:00000001FF
