:020000040800F2
:10000000E8130020B5010008251300089902000834
:100010002113000845050008F11300080000000046
:10002000000000000000000000000000C701000800
:1000300049050008000000002302000829130008F9
:10004000CF010008CF010008CF010008CF01000850
:10005000CF010008CF010008CF010008CF01000840
:10006000CF010008CF010008CF010008CF01000830
:10007000CF010008CF010008CF010008CF01000820
:10008000CF010008CF010008CF010008CF01000810
:10009000CF010008CF010008CF010008CF01000800
:1000A000CF010008CF010008CF010008CF010008F0
:1000B000CF010008CF010008CF010008CF010008E0
:1000C000CF010008CF010008CF010008CF010008D0
:1000D000CF010008CF010008CF010008CF010008C0
:1000E000CF010008CF010008CF01000800F002F89E
:1000F00000F050F814A696E8000CB244B344DA4578
:1001000001D100F047F8BAE80F000FA696E83000DA
:10011000A5EB040504EB0607AAEB0704A7F101070A
:100120004FEA15154FEA3414A4F10104AC4201D38F
:1001300000F030F813F0010F18BFFB1A43F0010371
:1001400000F001F8DBE71847C8500000E850000055
:10015000103A24BF78C878C1FAD8520724BF30C8F3
:1001600030C144BF04680C60704700007047000055
:100170000023002400250026103A28BF78C1FBD8B0
:10018000520728BF30C148BF0B6070471FB51FBD65
:1001900010B510BD00F066F91146FFF7F7FF00F04B
:1001A0009BF900F084F903B4FFF7F2FF03BC00F001
:1001B0008BF900000948804709480047FEE7FEE741
:1001C000FEE7FEE7FEE7FEE7FEE7FEE7FEE7FEE707
:1001D00004480549054A064B70470000ED13000826
:1001E000ED000008E80D0020E8130020E80F0020D3
:1001F000E80F0020EFF3108072B6704780F310888C
:100200007047324A1368012B04D04FF0010313608A
:100210002F4A10602F4A11602F484FF08051016023
:100220007047EFF3108272B62848016891B14FF021
:10023000000101602648016829B1EFF3098121E935
:10024000F00F00680160234909680968B1E8F00F00
:1002500081F3098882F310884EF0040E70471D491F
:1002600008601B494FF00000086018494FF001007A
:1002700008601A481A49D0F8002041EA02010160DA
:1002800015484FF08051016016480068006880F3FF
:10029000088861B662B670471EF0040F0CBFEFF31A
:1002A0000880EFF3098020E9F00F40F804ED1EF01C
:1002B000040F0CBF80F3088880F3098800B502F0B2
:1002C00073FF5DF804EB4EF0040E7047D80D00206C
:1002D000CC0B0020D40B002004ED00E020ED00E06A
:1002E0000000FFFF08ED00E010B5431C02E010F82D
:1002F000011B71B18107FAD14FF0013202C88C1A8B
:100300008C4314EAC211F9D0C01A0A0603D0C01EE9
:1003100010BDC01A10BD0A0401D0801E10BD090214
:10032000FCD0401E10BD40EA010370B59B072ED1E2
:100330004FF00136042A2AD308C810C99D1B9D43DB
:10034000121F15EAC61517D0D8B2E1B2401A50EA0A
:10035000056110D198B2A1B2401A50EA05410AD104
:1003600023F07F4024F07F41401A50EA052102D15A
:10037000180EA0EB146070BDA342DBD018BA21BAEE
:10038000884201D9012070BD4FF0FF3070BD0AB91D
:10039000002070BD10F8013B11F8014B63B1A3427E
:1003A0000AD1521E08D010F8013B11F8014B1BB1C5
:1003B000A34201D1521EEDD1181B70BD02F0FF0304
:1003C00043EA032242EA024200F002B84FF0000280
:1003D0000429C0F0128010F0030C00F01B80CCF157
:1003E000040CBCF1020F18BF00F8012BA8BF20F8C5
:1003F000022BA1EB0C0100F00DB85FEAC17C24BF19
:1004000000F8012B00F8012B48BF00F8012B7047C2
:100410004FF0000200B5134694469646203922BF9D
:10042000A0E80C50A0E80C50B1F12001BFF4F7AFE8
:10043000090728BFA0E80C5048BF0CC05DF804EBCA
:10044000890028BF40F8042B08BF704748BF20F838
:10045000022B11F0804F18BF00F8012B7047704736
:1004600070477047754600F02BF8AE4605006946A8
:10047000534620F00700854618B020B5FFF7A8FEC8
:10048000BDE820404FF000064FF000074FF0000895
:100490004FF0000BAC46ACE8C009ACE8C009ACE8D2
:1004A000C009ACE8C00921F007018D46704710B5BE
:1004B0000446AFF300802046BDE81040FFF773BE4E
:1004C000004870474000002001491820ABBEFEE7FD
:1004D000260002007047000010B584B0FFF78AFEC6
:1004E00002F006FE03F0CEFA03F032FC03F082FBCA
:1004F00040F250724FF48061C2F2000240F6503474
:100500000A20CDE90021C2F2000444F6E16142F282
:10051000A9424FF0140C0290C0F60001C0F6000290
:1005200020460023CDF80CC003F082FC204603F0E7
:1005300011FD03F015FC03F055FC03F0F1FB002066
:1005400004B010BDFEE7000070470000EFF310801C
:1005500072B600BFFEE700002DE9F04F82B00E68D2
:10056000002E00F0FD8041F20042C4F2010204239B
:1005700040F2004E904208BF03234FF6FF7CC4F2C6
:10058000010E009300240123C1F2100C4FF0000A69
:100590004FF0000944E000BF012704F00C030F22D4
:1005A0009A402BEA020207FA03F34FEA9A051A432C
:1005B00046F825204E6840F20C45F202DEF808208D
:1005C00054BF22EA080242EA0802C4F20105CEF84A
:1005D00008202A68B30254BF22EA080242EA08024D
:1005E0002A60B303DEF8042054BF22EA080242EA7C
:1005F0000802F303CEF80420DEF800204FF00103D8
:1006000054BF22EA080242EA0802CEF800200E682F
:100610000AF1010A36FA0AF204F1040400F0A0809B
:1006200003FA0AFB16EA0B08F1D04E68664511DCA6
:10063000122E55D8DFE806F0340A44485454545476
:100640005454545454545454544C5000D1F80C90B5
:1006500046E000BF4FF6FF72C1F2210296420FDC66
:100660000022C1F2110296421AD00022C1F21202F7
:10067000964215D00022C1F22102964210D02FE0FE
:100680000022C1F2220296420AD00022C1F23102B7
:10069000964205D00022C1F23202964220D100BF1C
:1006A0008A684AB1012A14BFC0F814B0C0F810B06B
:1006B0004FF0080914E000BF4FF0040910E000BF3C
:1006C000CA6802F108090BE04FF0000908E000BF1A
:1006D000CA6802F1040903E0CA6802F10C0900BF0C
:1006E00022460646B8F5807F24BF203A0436376894
:1006F0000F25954027EA050509FA02F22A433260E0
:10070000CA79D2067FF583AF41F21803C4F202031F
:100710001A68AEF57E7642F001021A601A6802F09D
:1007200001020192019A2AF0030256F802B040F643
:100730000002C4F20102904210D040F60042C4F21E
:10074000010290423FF428AF41F20002C4F20102DC
:10075000009F904208BF02271FE700BF00271CE749
:1007600002B0BDE8F08F000040F6E050C2F2000099
:100770000068704780B542F20000C4F202000168D0
:1007800041F010010160032000F07AF8002000F031
:1007900005F800F027F8002080BD000070B540F299
:1007A0000006C2F2000640F208013278C2F20001EF
:1007B0004FF47A730968B3FBF2F20446B1FBF2F12D
:1007C000084600F07DFB0F2C4FF0010508D838B922
:1007D0004FF0FF3021460022002500F025F874601C
:1007E000284670BD82B041F21800C4F202000168D0
:1007F000022241F001010160016801F00101019153
:100800000199416841F080514160406800F080509A
:10081000009000980420C4F20100016862F31A619C
:10082000016002B07047000010B54EF60C5CCEF2CD
:10083000000CDCF80030C3F3022E8EF00704042C09
:1008400028BF0424BEF103034FF0FF3E0EFA04F468
:1008500038BF0023A14399400EFA03F39A43114392
:1008600000F00F0200F160430901043A03F564430C
:100870006244002848BF02F10C03197010BD00004B
:100880004EF60C51CEF200010A684FF6FF031A40F3
:1008900060F30A2242F0806040F0FD70086070470B
:1008A000002804BF012070472DE9F04381B042F2D7
:1008B0000008C4F202080446D8F800000D4600F013
:1008C000070088420CD2D8F8000020F00700284327
:1008D000C8F80000D8F8000000F00700A8426CD16A
:1008E000206841F204098107C4F2020917D54107C3
:1008F00005D5D9F8001041F4E061C9F800100107EE
:1009000005D5D9F8001041F46051C9F80010D9F8A4
:100910000010A26821F0F0011143C9F80010C007CF
:1009200042D1D8F8000000F00700A8420CD9D8F84E
:10093000000020F007002843C8F80000D8F80000A5
:1009400000F00700A84238D12068410707D5D9F840
:100950000010E26821F4E0611143C9F800100007BB
:1009600008D5D9F80000216920F4605040EAC100A0
:10097000C9F80000D9F8002002F00C00082841F264
:100980000020C0F27A0051D144F63453C2F38341BF
:10099000C0F60003595CD2033CD440F60010C0F20C
:1009A0003D00484342E000BF606802280AD00128A9
:1009B0002AD159F8041C890308D4012001B0BDE8EC
:1009C000F08300BF59F8041C8901F6D5D9F800104E
:1009D00021F003010843C9F80000FFF7C5FE0646F1
:1009E00041F28837D9F80000616800F00C00B0EBE4
:1009F000810F96D0FFF7B8FE801BB842F2D90320D2
:100A000001B0BDE8F08300BF59F8041C8907D4D5B4
:100A1000DCE700BFD9F8002044F63243C2F340427D
:100A2000C0F600039A5C4843B0FBF2F0D9F800101E
:100A300044F61A42C1F30311C0F60002515C40F2C1
:100A4000080220FA01F140F20400C2F2000000683E
:100A5000C2F200021160FFF7A1FE002001B0BDE864
:100A6000F083000040F20800C2F200000068704706
:100A700040F2080041F20401C2F20000C4F2020197
:100A80000068096844F62A42C1F30221C0F6000258
:100A9000515CC8407047000040F2080041F2040178
:100AA000C2F20000C4F202010068096844F62A425A
:100AB000C1F3C221C0F60002515CC840704700007B
:100AC000002804BF012070472DE9F04182B00446A0
:100AD000007841F20006C007C4F202060CD070682C
:100AE00000F00C00042840F081803068800303D5BA
:100AF0006068002800F04E81207880071BD5706860
:100B000010F00C0F09D0706800F00C00082840F0BD
:100B10008B807068C00300F187803068800703D540
:100B20002069012840F036813068616920F0F800C2
:100B300040EAC10030602078000713D420784007D5
:100B40002CD4E569002D00F02081706800F00C00C5
:100B5000082840F0AF80012D40F00C81012002B048
:100B6000BDE8F081A069002800F08C800020C4F26C
:100B700042200121C0F88014FFF7F6FD054600BFB2
:100B8000706A800700F1BA80FFF7EEFD401B022873
:100B9000F6D9032002B0BDE8F08100BFF0695FEA3A
:100BA000C00808D4F06940F08050F061F06900F0AE
:100BB00080500090009847F20007C4F200073868A0
:100BC000C0054DD4386840F480703860FFF7CCFD24
:100BD000054600BF3868C00542D4FFF7C5FD401B7D
:100BE0006428F7D9032002B0BDE8F081706800F0F6
:100BF0000C00082803D17068C0033FF576AF606829
:100C0000002800F00981B0F5A02F00F01D81B0F59B
:100C1000803F00F01D81306820F480303060306803
:100C200020F4802017E100BF2069002840F2000076
:100C3000C4F2422000F08C8001210160FFF794FD96
:100C4000054600BF306880073FF56EAFFFF78CFDAB
:100C5000401B0228F6D9032002B0BDE8F08100BF96
:100C6000E068002800F09A80052800F0B180012893
:100C700000F0B280306A20F001003062306A20F06B
:100C80000400ACE00020C4F242200021C0F880142F
:100C9000FFF76AFD054600BF706A80077FF54EAF1B
:100CA000FFF762FD401B0228F6D9032002B0BDE821
:100CB000F08100BF0027C4F2422700203866FFF70A
:100CC00053FD022D05460DD13068800140F1D680DC
:100CD000FFF74AFD401B02284FF00300F4D902B091
:100CE000BDE8F081306880014FD5FFF73DFD401B26
:100CF00002284FF00300F5D9F1E700BF40F20800E9
:100D0000C2F20000006844F6D351C1F26201A0FBB8
:100D10000101480A019000BF00BF0198411E002850
:100D200001913FF40BAF00BF0198411E00280191D3
:100D30003FF404AF00BF0198411E002801913FF429
:100D4000FDAE00BF0198411E00280191E4D1F5E6F7
:100D500000210160FFF708FD054600BF30688007ED
:100D60007FF5E9AEFFF700FD401B02284FF00300BE
:100D7000F4D9B4E77068216A00F480328A4209D15C
:100D8000616A00F47010884204D1002002B0BDE80E
:100D9000F08100BF012002B0BDE8F081306A20F090
:100DA00001003062306A20F004003062FFF7DCFCA2
:100DB000054641F2883700BF306A800722D5FFF729
:100DC000D3FC401BB8424FF00300F5D987E700BFC2
:100DD000306A40F004003062306A40F00100306256
:100DE000FFF7C2FC054641F2883700BF306A800732
:100DF00008D4FFF7B9FC401BB842F7D9032002B072
:100E0000BDE8F081B8F1000F3FF59BAEF06920F02E
:100E10008050F06195E600BF306820F4803030608B
:100E2000306820F480203060FFF79EFC054600BF4C
:100E3000306880037FF560AEFFF796FC401B6428A6
:100E40004FF00300F4D94AE7306840F48020306066
:100E5000306840F480303060FFF786FC054600BF04
:100E6000306880033FF548AEFFF77EFC401B6428E6
:100E7000F6D9032002B0BDE8F08100BF206AB0F5CA
:100E8000803F05D17168A26821F40031114371607F
:100E90007168626A21F47411114308437060012083
:100EA0003866FFF761FC0446306880013FF56DAF9E
:100EB000FFF75AFC001B02284FF00300F4D90EE79D
:100EC000411E0020B0EB116F1CBF012070474EF295
:100ED0001002CEF2000251604EF62351CEF2000114
:100EE000F0230B700721906011607047002804BF49
:100EF0000120704710B5044690F8410028B9002041
:100F000084F84000204600F063F8242084F8410073
:100F10002068D4E90212C36823F40053C360036954
:100F200023F440531A430261D4E904231143C268F5
:100F3000194341F20C639A431143C1604169A269AC
:100F400021F44071114343F60002C4F201029042C1
:100F5000416103D0FFF78CFD02E000BFFFF79CFD6D
:100F6000D4E90023192148439900B0FBF1F048F27D
:100F70001F5CC5F2EB1CA0FB0C314FF69C734909BA
:100F8000C0F6FF7301FB0300322303EB0010A0FB4C
:100F90000C03F02000EA531000EB0110C3F34311DF
:100FA000084490601069202120F49040106150693D
:100FB00020F02A005061D06840F40050D06000203A
:100FC000606484F8411084F84210606310BD000032
:100FD00070B586B040F60004C4F20104006804F560
:100FE000405100268842049602D006B070BD00BF72
:100FF00041F21800C4F20200016802AD41F48041E0
:101000000160016801F4804101910199016841F09A
:10101000040101600068294600F004000190019875
:101020004FF40070029002200390032005902046A8
:10103000FFF792FA4FF48060CDE902062046294678
:101040000496FFF789FA06B070BD00002DE9F04361
:1010500081B0044690F84100202840F0B1808846D5
:1010600000294FF0010000F0D6801646002A00F05B
:10107000D2800020606421201D4684F84100FFF7E3
:1010800073FBA684E684A1680646B1F5805F03D1B0
:101090002069002800F0988047464FF00008E18C56
:1010A0002068002900F0968005F101090BE000BFDF
:1010B00047B317F8011B4160E18C0139E184E18CF1
:1010C000002900F0878001680906F1D4B9F1000F0A
:1010D0000AD0EDB1FFF748FB801BA84218D8206862
:1010E00001680906F6D5E3E701680906E0D401685E
:1010F00009065CBF01685FEA0161D9D4016809068D
:10110000F2D5D5E738F8021B00276FF35F21D2E74D
:10111000206850E8030F216820F4D07041E80302F2
:10112000BAB3206850E8030F216820F4D07041E87A
:10113000030272B3206850E8030F216820F4D070D6
:1011400041E803022AB3206850E8030F216820F425
:10115000D07041E80302002ADAD11AE0206850E892
:10116000050F216820F0010041E80502DAB120688E
:1011700050E8050F216820F0010041E8050292B116
:10118000206850E8050F216820F0010041E80502C1
:101190004AB1206850E8050F216820F0010041E8BD
:1011A0000502002ADAD1202084F8410084F84200A8
:1011B000002084F84000032001B0BDE8F08300BFA8
:1011C000022001B0BDE8F0830027E18C20680029EF
:1011D0007FF46AAF0168490619D4FDB1691C0DD1CD
:1011E0000168490613D4016849065CBF01685FEADB
:1011F00041610CD401684906F2D508E0FFF7B4FA62
:10120000801BA8420AD8206800684006F6D5202036
:1012100084F84100002001B0BDE8F083206850E868
:10122000030F216820F4D07041E80302002A3ED069
:10123000206850E8030F216820F4D07041E80302D1
:10124000AAB3206850E8030F216820F4D07041E869
:10125000030262B3206850E8030F216820F4D070C5
:1012600041E80302002AD9D121E000BF206850E8FC
:10127000050F216820F0010041E80502002A3FF433
:1012800092AF206850E8050F216820F0010041E886
:101290000502002A3FF487AF206850E8050F216857
:1012A00020F0010041E80502002A3FF47CAF2068ED
:1012B00050E8050F216820F0010041E80502002AEE
:1012C000D4D170E781B041F21800C4F20200016885
:1012D00041F004010160006800F0040000900098F3
:1012E00001B0704780B540F2906043F60001C2F251
:1012F0000000C4F2010100234FF00C0C4FF4E13266
:1013000080E80E00C0E90333C0E905C3C361FFF7FD
:10131000EDFD002808BF80BDBDE88040FFF716B98D
:10132000FEE70000FEE7000080B502F071F902F070
:101330008FFEBDE8804002F079B90000B0B590B0F2
:1013400006AC201D2421FFF763F80220069001203F
:101350000A9010200B90002520460D95FFF7B0FB5A
:1013600020B1EFF3108072B6FEE700BF0F20CDE989
:10137000010501A80021CDE903550595FFF790FA75
:1013800020B1EFF3108072B6FEE700BF10B0B0BD21
:1013900041F20400C4F20200016801F00C010829C6
:1013A00041F20021C0F27A010FD102680368C2F352
:1013B0008342DB0302F1020202D503689B0303D5DB
:1013C00040F60011C0F23D01514340F20802C2F262
:1013D00000021160006844F61A43C0F30310C0F61F
:1013E0000003185C21FA00F010607047704700009D
:1013F000FEE70000002804BF00207047C1B209B119
:1014000001200CE010F47F4102D0090A092006E017
:1014100010F47F0107BF010E1920090C112044F6BA
:101420003442C0F60002515C0844704780B500F0B9
:1014300015FC002080BD0000B0B584B040F2C005AE
:1014400045F2801045F21021C2F20005C0F60000FE
:10145000C0F60001C5E9000140F21C10C2F2000014
:1014600040F29022286115204FF48061C2F2000200
:10147000CDE90021029040F2182041F2DD420A2419
:10148000C2F2000011A1C0F600020023039402F092
:10149000CFFC2A6904460FA110460022002302F067
:1014A000E1FA286990F8211041F0020180F821103A
:1014B00014B1002004B0B0BD40F21820C2F2000008
:1014C00002F048FD002004B0B0BD00BF7473686531
:1014D0006C6C0000736872780000000040F2C00A73
:1014E000C2F2000ADAF8100040F2941490F82110C9
:1014F000C2F2000441F0010280F82120880703D4E1
:10150000002020701AE000BF01F0EAFA30B100209C
:10151000207147F26D30C2F2680009E046F67300B0
:10152000C0F22000C4F8030046F66610C7F26E3021
:1015300020602046FEF7D8FE3E212152204602F0D0
:1015400083F845F257164FF0010B4FF00008C0F634
:101550000006022702E000BF80F820B001F0DEFDA7
:101560008146DAF81000B9F11B0FF5D090F8201081
:10157000022909D0012940F07580B9F15B0F40F0D4
:101580006F8080F82070E9E7A9F14101022980F815
:101590002080E3D3B9F1440F00F29280DFE819F024
:1015A00046009700970097009700970097009700D4
:1015B000A000E0007000970097007000970097006F
:1015C0009700970097009700970097009700970063
:1015D0009700970097009700970097009700970053
:1015E0009700970097009700970097009700970043
:1015F0009700970097009700970097009700970033
:101600009700970097009700970097009700970022
:101610009700970097009700970097009700970012
:101620009700970097004800980100BF96E700BF19
:10163000B0F87410B0F872209142BFF48FAF084434
:1016400090F8221045F26510C0F6000001F0FCFF92
:10165000DAF81000B0F874100131A0F874107DE7CA
:1016600080F82080B9F10D0F2AD8DFE809F00730A3
:101670003030303030303979093030096EE700BF12
:1016800001F02EFA012812D1DAF8100090F821109A
:10169000C90707D044F6D870C0F6000001F0D4FFA7
:1016A000DAF81000B0F87210223000F0D9FFDAF842
:1016B000100090F82100800778D484F80080FDE0C5
:1016C000B9F17F0F0CD0B9F1FF0F3FF447AFB0F87D
:1016D0007220502A76D30022A0F87220A6E000BF24
:1016E000B0F8741000293FF439AFB0F872204D1EE5
:1016F000531E9AB2A0F87230ABB29A42A0F874505E
:1017000040F2B68000F12205E8182944D21A01F00F
:10171000B5FFDAF81000B0F87210084480F82280A3
:10172000DAF81000B0F87410084400F1220181A02A
:1017300001F08AFFDAF81010B1F87400B1F87210F5
:1017400088423FF60BAF451E304601F07DFFDAF8C8
:1017500010000135B0F872008542F5D3FEE600BFF7
:10176000B0F8741051B10025304601F06DFFDAF881
:1017700010000135B0F874108D42F5D300F1220548
:1017800044F6D870C0F6000001F05EFF01F0A8F941
:10179000012802D1284600F0A1FEDAF8100090F8E6
:1017A0002100800770D484F80080B1E001F098F93E
:1017B000002873D047F26D3084F80480C2F26800CC
:1017C00076E000BFB0F8743093422FD2C11801F117
:1017D00023002231D21A01F051FFDAF81000B0F8DC
:1017E0007410084480F82290DAF8100090F8211064
:1017F000C90709D0B0F87410084400F1220151A0C3
:1018000001F022FFDAF81000B0F87450B0F872104E
:101810008D421DD2304601F017FFDAF81000013575
:10182000B0F872108D42F5D312E000BF104480F87A
:101830002290DAF8100090F82110C90708D045F27C
:101840006510C0F60000494601F0FEFEDAF810000F
:10185000B0F87210B0F874200131A0F8721089B29B
:1018600001325029A0F8742028BFC0F8728075E6B4
:101870002FA001F0E9FEDAF81000B0F87210084469
:1018800080F822806AE600BF01F02AF980B347F2AF
:101890006D3084F80480C2F2680033E046F67300CD
:1018A000C0F22000C4F8030046F66610C7F26E309E
:1018B00020602046FEF718FD3E212152204601F00F
:1018C000C3FEDAF8100054212230FEF77FFD45E612
:1018D000B0F8740000283FF441AE304601F0B4FE89
:1018E000DAF81000B0F874100139A0F8741035E679
:1018F00046F67300C0F22000C4F8030046F66610F6
:10190000C7F26E3020602046FEF7EEFC3E212152E9
:101910000AA021462A4601F097FEDAF8105005F198
:101920002200FEF7E1FCA5F87200A5F8740015E6A8
:10193000082008000825732020080000257325735F
:10194000000000002573000080B502A001F07CFEBD
:10195000002080BD48656C6C6F2052542D54687215
:10196000656164210A0000002DE9F04381B016A0F2
:1019700001F06AFE40F2C00040F2C409C2F2000069
:10198000C2F200090768D9F80050AF4218D213A478
:101990000FF24C0803E000BF0C37AF4210D23E6894
:1019A000214630460222FEF7BEFC0028F4D07A68B9
:1019B0004046314601F048FED9F80050ECE700BF40
:1019C000002001B0BDE8F0832D2D46756E6374696B
:1019D0006F6E204C6973743A0A0000005F5F00006C
:1019E000252D313673202D2D2025730A000000008F
:1019F0002DE9F04F8DB0022001F04AFF00F10408FC
:101A00007BA082A2082101F01FFE45F21514C0F64A
:101A10000004204601F018FE204601F015FE204685
:101A200001F012FE204601F00FFE204601F00CFEF0
:101A3000204601F009FE204601F006FE204601F096
:101A400003FE75A001F000FE00250DF1140B7CA72C
:101A50007CA4CDF80C8005E0049DDDF80C80002D01
:101A600000F0C2802E46002D08BF4646FEF7C2FB9E
:101A700035B115F8041C01F07F01022940F0B28055
:101A80003168414500F0AE800A68059142451DD09D
:101A90001168069241451DD00A68079142451DD044
:101AA0001168089241451DD00A68099142451DD030
:101AB00011680A9241451DD00A680B9142451DD01C
:101AC0004FF00808114604920C921BE04FF00108F9
:101AD00016E000BF4FF0020812E000BF4FF003080D
:101AE0000EE000BF4FF004080AE000BF4FF0050809
:101AF00006E000BF4FF0060802E000BF4FF0070805
:101B000000210491FEF77AFB4FF0000907E000BFC7
:101B10004DA001F099FD09F10109C1459CD05BF888
:101B200029A0FEF767FB1AF8041C01F07F05FEF7F9
:101B300065FB022DEFD1AAF10C035AF8080F00251E
:101B4000BAF80860504511D0504600BF00685045B3
:101B500021D0006850451BD0006850451AD000685D
:101B600004355045F2D1013D15E000BF504600BF9D
:101B7000006850452DD00068504527D0006850457A
:101B800026D0006804355045F2D1013D21E000BF68
:101B9000013500E0023526A008210822CDE90065C4
:101BA00001F052FDDAF800505545B1D0A5F114010D
:101BB000384601F049FD28685045A9D0204601F07B
:101BC00043FD2D685545F1D1A2E700BF013500E086
:101BD00002351EA008210822CDE9006501F034FD80
:101BE00099E700BFFEF70AFB00200DB0BDE8F08FBB
:101BF000252D2A2E73207620202073757370656E34
:101C000064207468726561640A00000073656D6128
:101C100070686F7265000000202D2D2D202D2D2D58
:101C20002D2D2D2D2D2D2D2D2D2D2D0A00000000BB
:101C3000252D2A2E2A7320253033642025643A006E
:101C4000257300002F0000000A000000252D2A2E19
:101C50002A7320253033642025640A002DE9F04FD3
:101C60008DB0012001F014FE051D45F2A000C0F664
:101C7000000071A2082101F0E7FC45F21514C0F63E
:101C80000004204601F0E0FC204601F0DDFC204687
:101C900001F0DAFC204601F0D7FC204601F0D4FC2C
:101CA000204601F0D1FC204601F0CEFC204601F098
:101CB000CBFC63A001F0C8FC00240DF1140A0395CD
:101CC00005E000BF049C039D002C00F0B180264677
:101CD000002C08BF2E46FEF78DFA34B114F8041C10
:101CE00001F07F01012940F0A1803168A94200F094
:101CF0009D800A680591AA421ED011680692A942E9
:101D00001ED00A680791AA421ED011680892A94203
:101D10001ED00A680991AA421ED011680A92A942EF
:101D20001ED00A680B91AA421ED04FF00808114637
:101D300004920C921CE000BF4FF0010816E000BFB7
:101D40004FF0020812E000BF4FF003080EE000BFA2
:101D50004FF004080AE000BF4FF0050806E000BF9E
:101D60004FF0060802E000BF4FF007080021049181
:101D7000FEF744FA4FF0000906E000BFFEF73EFA16
:101D800009F10109C1459DD05AF829B0FEF732FA90
:101D90001BF8041C01F07F010129EFD1ABF10C0607
:101DA000FEF72CFA9BF8294035A00821082233467B
:101DB000009401F049FC9BF8280000F00F00042873
:101DC00004D832A151F8200001F03EFCDBF81C00E1
:101DD000014600BF0A78232A0FD14A78232A09D165
:101DE0008A78232A08D1CA780431232AF2D001390B
:101DF00003E000BF013100E00231DBE90824DBF839
:101E000010601718401A104464214843DBF834501E
:101E1000B0FBF2F3B91B22A0CDE9005401F014FC91
:101E200009F10109C145AFD14CE700BFFEF7E6F962
:101E300000200DB0BDE8F08F746872656164000029
:101E4000202D2D2D20202D2D2D2D2D2D2D202D2DF6
:101E50002D2D2D2D2D2D2D2D202D2D2D2D2D2D2DBF
:101E60002D2D2D20202D2D2D2D2D2D20202D2D2DD6
:101E70002D2D2D2D2D2D2D202D2D2D0A0000000076
:101E8000252D2A2E2A73202533642000E4500008D3
:101E9000F65000081751000820510008ED500008C6
:101EA0002030782530387820307825303878202058
:101EB0002020253032642525202020307825303818
:101EC0007820253033640A002DE9F04F8FB00A20C6
:101ED00001F0DEFC00F104080FF2F8400FF21C5292
:101EE000082101F0B1FB45F21514C0F600042046AC
:101EF00001F0AAFB204601F0A7FB204601F0A4FB5D
:101F0000204601F0A1FB204601F09EFB204601F097
:101F10009BFB204601F098FB204601F095FB0FF259
:101F2000E44001F091FB4FF0000925E0A4F10C0A18
:101F3000FEF764F93746D4E9066545F2FF00C0F6BE
:101F40000000082108225346CDE900653E4601F015
:101F50007BFB14F8030CC00707BF45F29300C0F6E3
:101F6000000045F29500C0F6000001F06DFB00BFD7
:101F7000B9F1000F00F024824C46B9F1000F08BF00
:101F80004446FEF737F9B9F1000F06D019F8041CE2
:101F900001F07F010A2940F011822468444500F0D5
:101FA0000D82D4F800B0C34524D0DBF800104145C1
:101FB00026D00A68424500F005811368434500F0C9
:101FC0000B811F68474500F04981D7F800C0C44520
:101FD00000F08881DCF80090C14500F093814FF05B
:101FE000000A5E46CDE904C7CDE906320891CDF876
:101FF0000C900AE04FF000094FF0000A05E000BF26
:102000004FF000094FF0010A5E4600210E910D913C
:102010000C910B910A91FEF7F1F8FEF7EBF814F82A
:10202000041C01F07F010A292CD1CDF82490C1466F
:10203000D046B246A4F10C07FEF7E0F8D4E9065604
:1020400045F2FF00C0F60000082108223B46CDE91A
:10205000005601F0F9FA14F8030CC00707BF45F267
:102060009300C0F6000045F29500C0F6000001F0B4
:10207000EBFA5646C246C846DDF82490C34506D161
:1020800076E700BFFEF7BAF8C3453FF471AFFEF73D
:10209000B1F816F8041C01F07F010A2926D1A6F137
:1020A0000C07FEF7ABF83546F469B66945F2FF0058
:1020B000C0F60000082108223B46CDE900642E4608
:1020C00001F0C2FA15F8030CC00707BF45F29300F0
:1020D000C0F6000045F29500C0F6000001F0B4FA29
:1020E000BAF1000F7FF444AF06E000BFFEF786F8B8
:1020F000BAF1000F7FF43CAFFEF77CF8089C14F8AF
:10210000041C01F07F010A2926D1B246A4F10C0774
:10211000FEF774F8D4E9066545F2FF00C0F600004A
:10212000082108223B46CDE9006501F08DFA14F83C
:10213000030CC00707BF45F29300C0F6000045F24C
:102140009500C0F6000001F07FFA56460E98002870
:102150007FF40EAF06E000BFFEF750F80E9800289F
:102160007FF406AFFEF746F8079C14F8041C01F054
:102170007F010A293CD1B246A4F10C07FEF73EF8D4
:10218000D4E9066545F2FF00C0F6000008210822E8
:102190003B46CDE9006501F057FA14F8030CC0077F
:1021A00007BF45F29300C0F6000045F29500C0F667
:1021B000000001F049FA56460D9800287FF4D8AE89
:1021C0001CE000BF01220E924FF0000908915E460C
:1021D0004FF0000A00211AE70123CDE90721002171
:1021E0000D934FF000095E464FF0000A0E910FE785
:1021F000FEF704F80D9800287FF4BAAEFDF7FAFF59
:10220000069C14F8041C01F07F010A2934D1B2465F
:10221000A4F10C07FDF7F2FFD4E9066545F2FF00D3
:10222000C0F60000082108223B46CDE9006501F018
:102230000BFA14F8030CC00707BF45F29300C0F671
:10224000000045F29500C0F6000001F0FDF9564689
:102250000C9800287FF48CAE14E000BF0127089191
:1022600000210C974FF00009CDE906325E464FF091
:10227000000ACDE90D11CCE6FDF7C0FF0C9800284F
:102280007FF476AEFDF7B6FF059C14F8041C01F050
:102290007F010A2948D1B246A4F10C07FDF7AEFF31
:1022A000D4E9066545F2FF00C0F6000008210822C7
:1022B0003B46CDE9006501F0C7F914F8030CC007EF
:1022C00007BF45F29300C0F6000045F29500C0F646
:1022D000000001F0B9F956460B9800287FF448AE8B
:1022E00028E000BF0126CDE9072100210B964FF021
:1022F0000009CDE905735E464FF0000A0E91CDE965
:102300000C1187E60126089100210A964FF000097A
:10231000CDE904C7CDE906325E464FF0000ACDE9AB
:102320000D11CDE90B1176E6FDF768FF0B9800283B
:102330007FF41EAEFDF75EFF049C14F8041C01F050
:102340007F010A2926D1B246A4F10C07FDF756FFFA
:10235000D4E9066545F2FF00C0F600000821082216
:102360003B46CDE9006501F06FF914F8030CC00796
:1023700007BF45F29300C0F6000045F29500C0F695
:10238000000001F061F956460A9800287FF4F0AD8C
:1023900006E000BFFDF732FF0A9800287FF4E8ADA1
:1023A000FDF728FF039C14F8041C01F07F010A29A3
:1023B0003FF4BCADFDF722FFDAE500BFFDF71EFFDD
:1023C00001F040FE014618A001F03EF900200FB0D8
:1023D000BDE8F08F252D2A2E732020706572696F5D
:1023E00064696320202074696D656F7574202020F6
:1023F00020202020666C61670A00000074696D650A
:1024000072000000202D2D2D2D2D2D2D2D2D2D2058
:102410002D2D2D2D2D2D2D2D2D2D202D2D2D2D2DF9
:102420002D2D2D2D2D2D0A0063757272656E742071
:102430007469636B3A3078253038780A0000000000
:1024400090B0FEF797F906AC201D2421FDF7E0FFC0
:102450000220069001200A9010200B9000252046B3
:102460000D95FEF72DFB28B1EFF3108072B600BF7B
:10247000FEE700BF0F20CDE9010501A80021CDE94D
:1024800003550595FEF70CFA20B1EFF3108072B6F4
:10249000FEE700BFFEF716FFFEF724FF4FF47A7049
:1024A00001F00EFDFAE70000B0B545F27C1445F2EC
:1024B0007410C0F60004C0F60000A04209D245F234
:1024C0007415C0F6000500BF55F8040B8047A542FF
:1024D000FAD3BDE8B040FFF7B3BF00002DE9F04FDD
:1024E00081B083460078A8B140F2C000C2F200007B
:1024F000056840F2C400C2F20000D0F800804545F3
:1025000080F0A88045F250194FF0000AC0F600098B
:1025100000264CE045F22910C0F6000001F094F8C6
:1025200040F2C00040F2C409C2F20000C2F2000949
:102530000768D9F80050AF421CD245F2501445F25A
:102540004418C0F60004C0F6000802E00C37AF42A1
:1025500010D23E68214630460622FDF7E4FE0028F0
:10256000F4D17A68B11D404601F06EF8D9F80050F8
:10257000ECE700BF44F6D870C0F6000001B0BDE83B
:10258000F04F01F061B800BF481C801B5045B8BF38
:10259000824632A0394601F057F840F2C400C2F238
:1025A0000000D0F8008000BF0C35454548D22F68A8
:1025B000494638460622FDF7B6FE0028F4D15846B3
:1025C0000637FDF791FE024658463946FDF7ABFE49
:1025D0000028E9D1BAF1000F04D03178304651B962
:1025E000D3E700BF3846FDF77FFE82463E4631788E
:1025F00030460029C9D000203A5CDAB1914219D1A5
:1026000031184B78002BBFD03A185478002CBBD02F
:10261000A342B9D18B787BB194786CB1A3420BD132
:10262000CB785BB1D2784AB1934207D109790430B3
:102630000029E1D13044A8E7881CA6E7C81CA4E71C
:1026400046B158463146524601B0BDE8F04F01F060
:102650008DBA00BF01B0BDE8F08F00BF25730A003E
:10266000002904BF002070472DE9F04F8DB0CF1E28
:102670008E1E4D1E002302E00433994220D0C25C1E
:10268000202A01D0092A1FD19D4219D0C41862788E
:10269000202A01D0092A1DD19E4211D0A278202AD9
:1026A00001D0092A1CD19F420AD0E278202AE3D027
:1026B000092AE1D0C81AA0F1030804F1030914E0C3
:1026C00000200DB0BDE8F08FA1EB030800EB03097B
:1026D0000BE000BFD84300EB010804F1010904E05E
:1026E000C81AA0F1020804F10209A8F10300C8F118
:1026F00000010025D2B2092A31D0202A2FD04B194F
:102700001CD009EB05025778092F1BD0202F19D0B8
:102710005F1C13D09778092F18D0202F16D00233C2
:102720001CD0D378092B15D0202B13D0A84205D06C
:1027300012790435D2B2092ADFD110E045468DB9AD
:1027400040E100BF01356DB93CE100BF02354DB934
:1027500038E100BF03352DB934E100BF4546002DF7
:1027600000F0308140F2C000C2F20000046840F284
:10277000C400C2F200000668B44280F0238145F232
:10278000501A05F1060BC0F6000A03E00C34B442FF
:1027900080F018812768514638460622FDF7C3FDB0
:1027A0000028F3D1B81D49462A46FDF7BCFD002894
:1027B000ECD117F80B000028E8D1A06800280190A0
:1027C00000F00081002200210025CE46CDE90B2239
:1027D000CDE90922CDE90722CDE90522C2460391C0
:1027E000454588BFAA46A5EB0A06701C0021734622
:1027F000049002951EF80100202801D0092837D145
:1028000016EB010B28D00EEB010460780EF80120C6
:10281000202801D009282DD1049A12EB010C1FD0D9
:10282000A07800222028627001D0092826D11BF14F
:10283000020719D0E078A270202801D0092821D100
:102840001BF1030712D0E2700433043504311EF883
:1028500001002028D2D1D3E70EEB010317E000BF1F
:10286000631C002213E000BFA31C10E003330EE042
:10287000AA460CE0013305F1010A08E0023305F134
:10288000020A04E0029FE31C394401F1030A039E9B
:10289000082E7BD2C24580F08D80222806F10100EF
:1028A00020D103F1010E05A941F826E05E780AF176
:1028B000010103E01EF8016F8A46013141454FF0E6
:1028C000000738BF0127222E40D041453ED25C2E62
:1028D000F0D1734613F8017F222F04BF9E460AF100
:1028E0000201E7E705A941F826304146C24588BF05
:1028F0005146AAEB010707F1010C00215D5C092D8F
:102900001ED0202D1CD07D1856D05C186678092E5C
:1029100022D0202E20D01CEB01064DD0A678092E07
:1029200020D0202E1ED0AE1C46D0E678092E1FD017
:10293000202E1DD0EE1C3FD004315D5C092DE0D16E
:1029400003EB010E0AEB010516E000BFA7B30EF87A
:10295000012B0AF1020513E0514404F1010E4D1C54
:102960000AE000BF514404F1020E8D1C04E000BFD8
:10297000514404F1030ECD1C45454FF000021BD21B
:1029800045450146FFF42AAF16E000BF26A000F03F
:102990005BFE05A8041F2CA554F8041F284600F070
:1029A00053FE013EF8D144F6D870C0F6000000F0A6
:1029B0004BFE039E30462EB1019A05A990470DB0FB
:1029C000BDE8F08F002019F8001041F02001202907
:1029D00017D009EB00014A7842F02002202A13D0D8
:1029E0008A7842F02002202A10D0CA7842F02002D1
:1029F000202A0DD0043019F8001041F020012029C0
:102A0000E7D1484405E000BF481C02E0881C00E014
:102A1000C81C002101700DA0494600F015FE4FF0C2
:102A2000FF300DB0BDE8F08F546F6F206D616E798F
:102A300020617267732021205765206F6E6C7920AA
:102A40005573653A0A0000002573200025733A206B
:102A5000636F6D6D616E64206E6F7420666F756E4E
:102A6000642E0A002DE9F04381B045F22910C0F62A
:102A7000000000F0E9FD40F2C00040F2C409C2F2DB
:102A80000000C2F200090768D9F80050AF421DD219
:102A900045F2501445F24418C0F60004C0F6000890
:102AA00003E000BF0C37AF4210D23E6821463046EB
:102AB0000622FDF738FC0028F4D17A68B11D4046A3
:102AC00000F0C2FDD9F80050ECE700BF44F6D87022
:102AD000C0F6000000F0B8FD002001B0BDE8F083B2
:102AE000012070472DE9F04F87B0DDE911C90FF2E1
:102AF000F8465FEA49670FF2045758BF37465FEA66
:102B0000C96648BF29F001095FEAC9764FF0300E67
:102B100008BF4FF0200E5FEA897663D40024029448
:102B200001244FF00008002A00F09A800A2B6DD192
:102B300049F69A16CDE900484FF0000B0DF10C084C
:102B4000C1F699164CF6CD43CCF6CC43A2FB033428
:102B5000E30803EB8304A2EB44043C5D0A2A08F873
:102B60000B40C0F08380A3FB064505EB8505A3EB76
:102B70004503FB5C08EB0B0C642A8CF8013079D31D
:102B800048F21F53C5F2EB13A2FB03346309A3FB06
:102B9000064505EB8504A3EB4403FB5CB2F57A7FA5
:102BA0008CF8023072D344F6D353C1F26203A2FB15
:102BB0000334A309A3FB064541F25974CDF2B714BF
:102BC000A2FB044A05EB8504A3EB440342F2107414
:102BD000FB5CA2424FEA5A320BF1040B8CF8033033
:102BE000B0D255E0B2F1FF3F08DD5FEA49762FD45D
:102BF0005FEA097692D54FF020082BE0012452427B
:102C0000029400244FF02D080A2B91D0A2464FF0D9
:102C1000000B03AE02F00F03FD5C130906F80B5026
:102C20002CD003F00F03FC5C06EB0B05130A6C7051
:102C300028D003F00F03FC5C130BAC702ED003F014
:102C40000F03FB5C120C0BF1040BEB70E2D127E0DD
:102C50004FF02B08002401250295002A7FF466AF6F
:102C600030228DF80C204FF0010B1AE00BF1010B14
:102C70000EE000BF0BF1020B0AE000BF0BF1010BED
:102C80000EE000BF0BF1020B0AE000BF0BF1030BDB
:102C9000DDF844C0DDE9004803E000BF0BF1030BA1
:102CA0005446109AE345E246C8BFDA4619F0110FC0
:102CB000A2EB0A0260D005462CB98D4238BF85F8D8
:102CC0000080013A01355FEAC96031D4571EC0F275
:102CD0008D8012F0030600F093808D4238BF85F896
:102CE00000E0012E05F1010040F09280971E05469C
:102CF000042AC0F08880381D8D4205F1010238BFDA
:102D000085F800E08A4238BF82F800E0AA1C8A42B7
:102D100038BF82F800E0EA1C8A42A0F1040038BF04
:102D200082F800E0032805F10405E5DC4FF0FF32EE
:102D30002846E3455EDAAAEB0B036FEA0B0713F0B4
:102D400003060AEB070457D088423CBF30230370C8
:102D5000AAF10107012E00F1010309D08B42AAF16B
:102D600002073CBF30251D70022E00F1020365D121
:102D70001846032C6CD283E00023002AC8BF01232D
:102D8000029D2B40D71A7A1E95DB17F003064DD013
:102D900088423CBF20220270012E00F1010540F064
:102DA000FD80BA1E2846042F42D30432202700BFDC
:102DB000884200F1010338BF07708B4238BF1F7093
:102DC000831C8B4238BF1F70C31C8B42A2F10402CC
:102DD00038BF1F70032A00F10400E9DC4FF0FF3216
:102DE0000546002C3FF469AF6DE700BF28463A4620
:102DF000E345A0DB034643E05746032C28D23FE0DF
:102E0000042ABFF478AF4FF0FF32E34593DBF1E7DC
:102E1000884238BF80F800E0022E05F1020040F041
:102E2000CB80D71E0546042AEDD364E7042FBCD21D
:102E30004FF0FF32002C3FF440AF44E703308B42A9
:102E4000AAF103073CBF30261E700346032C17D39C
:102E5000302603468B4203F1010038BF1E708842C2
:102E600038BF0670981C884238BF0670D81C88424C
:102E7000A7F1040738BF0670BB4503F10403E9DB83
:102E8000BCF1000F3DD003A8023807E0ABF1040B02
:102E90000BF10407042F03F1040332D98B4203D250
:102EA00000EB0B077F781F70BBF1020F03F10105E8
:102EB0001EDB8D423CBF10F80B702F70BBF1030F6F
:102EC00003F102061CD38E4204D200EB0B0717F865
:102ED000017C3770BBF1040F03F1030432D38C4241
:102EE000D4D200EB0B0717F8027C2770CEE700BFA7
:102EF0002B46012A07DA184607B0BDE8F08F00BF5D
:102F00003346012AF7DB12F0030717D08B423CBF90
:102F100020201870561E012F03F1010009D08842AD
:102F2000A2F102063CBF20250570022F03F102002A
:102F30000CD10346042A13D22DE000BF1646042A02
:102F400029D30DE02346012ADDDAD4E70333884292
:102F5000A2F103063CBF202707701846042A1AD3A3
:102F6000721E2027184600BF884200F1010338BFB7
:102F700007708B4238BF1F70831C8B4238BF1F7095
:102F8000C31C8B42A2F1040238BF1F7012F1020F62
:102F900000F10400E8D307B0BDE8F08F8D423CBFDC
:102FA00020222A70022E00F1020511D1FA1E2846B5
:102FB000042FFFF43DAFF8E60335884238BF80F8B0
:102FC00000E0171F2846042ABFF495AE1BE700BF98
:102FD0008D423CBF20222A7003303A1F0546042F41
:102FE000BFF4E3AE24E700BF303132333435363737
:102FF0003839616263646566000000003031323345
:1030000034353637383941424344454600000000E4
:10301000B0B545F2741445F26C10C0F60004C0F669
:103020000000A04228BFB0BD45F26C15C0F60005F7
:1030300055F8040B8047A542FAD3B0BD80B5FDF723
:10304000D9F840F2A001C2F200014A8801324A8058
:10305000BDE88040FDF7D2B8B0B5FDF7CBF840F23F
:10306000A005C2F2000569880446481E01B2002985
:10307000688005DD2046BDE8B040FDF7BFB800BF61
:10308000002068802046FDF7B9F86868002808BF6E
:10309000B0BDFDF7AFF8698804460029EAD1A868F9
:1030A000FEF7A8F9421E40F65840C2F2000050F860
:1030B00032106868A1F114038342DBD02A7040F615
:1030C000D0326B60C2F2000212781C3001F10801AC
:1030D00032B1FDF796F82046BDE8B040FDF78EB856
:1030E000FDF78FF82046BDE8B040FDF787B8000037
:1030F00080B5FDF73FFBFEF721F9FEF749F9FDF733
:10310000B1FC44F6D351C1F26201A0FB0101880970
:10311000FDF7D6FEBDE88040FFF77ABF40F2D4004D
:10312000C2F2000000680168890609D480B50A204F
:1031300000F0C6FEFF20BDE88040C0B2704700BF6F
:103140004068C0B270470000F0B581B004460D2061
:103150008DF8030040F2D400C2F20000002180F894
:103160004010204600F0EAFCE0B140F2D4060546EB
:10317000C2F200060DF103070AE000BF3046214607
:1031800001220123FDF762FF013D04F1010409D092
:1031900020780A28F2D13046394601220123FDF772
:1031A00055FFEBE701B0F0BD10B540F6C831C2F2F3
:1031B00000010968044621B120468847002808BF5D
:1031C00010BD216C44F6CD70C0F6000000F03CFA52
:1031D000616A44F68C70C0F6000000F035FAA16A0E
:1031E00044F69970C0F6000000F02EFAE16A44F649
:1031F000A670C0F6000000F027FA216B44F6B37009
:10320000C0F6000000F020FA616844F6C070C0F615
:10321000000000F019FAA168C4A000F015FAE168F6
:10322000C6A000F011FA2169C8A000F00DFA61698A
:10323000CAA000F009FAA169CCA000F005FAE16982
:10324000CEA000F001FA216AD0A000F0FDF9616B78
:10325000D2A000F0F9F9A16BD4A000F0F5F9E16B70
:10326000D6A000F0F1F92078400707D444F6E660D4
:10327000C0F6000000F0E8F90BE000BF00F028FE07
:10328000014644F60070C0F6000000F0DDF9FEF7DC
:10329000E5FC4EF62954CEF20004D4F80300800772
:1032A00005D544F66A70C0F6000000F0CDF9D4F8F8
:1032B0000300400040F1F880207830B344F63E70BF
:1032C000C0F6000000F0C0F9217845F25100C0F6C8
:1032D000000000F0B9F92078C00745D120788007B8
:1032E0004BD42078400751D42078000757D4207859
:1032F000C0065DD494F90000B0F1FF3F60DD44F6F4
:10330000D870C0F6000000F09FF914F8010C0028F6
:1033100000F0958044F61D70C0F6000000F094F9AE
:1033200014F8011C45F26700C0F6000000F08CF9AB
:1033300014F8010CC00751D114F8010C800757D4C0
:1033400014F8010C00075DD414F8010CC00663D416
:1033500014F9010CB0F1FF3F69DD44F6D870C0F6F6
:10336000000000F071F96AE045F23C00C0F6000090
:1033700000F06AF920788007B3D545F23100C0F635
:10338000000000F061F920784007ADD545F22F002C
:10339000C0F6000000F058F920780007A7D545F2E4
:1033A0002500C0F6000000F04FF92078C006A1D536
:1033B00086A000F049F994F90000B0F1FF3F9EDCCF
:1033C000D4F80F1044F64A70C0F6000000F03CF943
:1033D00014F8010C00289DD131E000BF45F2000037
:1033E000C0F6000000F030F914F8010C8007A7D5F2
:1033F00044F6F670C0F6000000F026F914F8010C4F
:103400000007A1D545F22400C0F6000000F01CF929
:1034100014F8010CC0069BD545F21B00C0F6000055
:1034200000F012F914F9010CB0F1FF3F95DCD4F86B
:103430000B1044F65A70C0F6000000F005F9B4F81D
:10344000010088B344F63070C0F6000000F0FCF8CC
:10345000B4F8011045F27D00C0F6000000F0F4F869
:10346000B4F80100C0072DD1B4F80100800733D4AF
:10347000B4F80100400739D4B4F8010000073FD484
:10348000B4F80100C00545D4B4F80100800505D5A5
:1034900045F20A00C0F6000000F0D6F844F6D870F5
:1034A000C0F6000000F0D0F8D4F80300B0F1FF3F00
:1034B00006DC44F67F70C0F6000000F0C5F800BFDF
:1034C000FEE700BF45F24500C0F6000000F0BCF882
:1034D000B4F801008007CBD544F6EC70C0F60000CC
:1034E00000F0B2F8B4F801004007C5D544F6DA7030
:1034F000C0F6000000F0A8F8B4F801000007BFD53E
:1035000045F21500C0F6000000F09EF8B4F8010086
:10351000C005B9D544F6E170C0F6000000F094F89B
:10352000B4F801008005B3D4B8E700BF7230353A73
:10353000203078253038780A000000007230363AA2
:10354000203078253038780A000000007230373A91
:10355000203078253038780A000000007230383A80
:10356000203078253038780A000000007230393A6F
:10357000203078253038780A000000007231303A67
:10358000203078253038780A000000007231313A56
:10359000203078253038780A000000007231323A45
:1035A000203078253038780A00000000206C723A0C
:1035B000203078253038780A000000002070633A07
:1035C000203078253038780A0000000053544B45ED
:1035D0005252200004324BF6EF6C22F00702CDF677
:1035E000AD6C42F840CDC2E901CCC2E903CCC2E9DE
:1035F00005CCC2E907C100214FF0807CC2E90D3043
:103600001046C2E90911C2E90B11C2F83CC070476B
:1036100080B5FCF7EFFD40F6D031C2F200010A7828
:1036200001320A70BDE88040FCF7E8BD80B5FCF7C8
:10363000E1FD40F6D031C2F200010A78013A0A7089
:10364000BDE88040FCF7DABD83B010B581B040F62C
:10365000D834844603A8C2F200040EC003AB20464F
:103660007F216246009300F0B9FE2046FFF76CFD13
:1036700001B0BDE8104003B070470000B0B5814212
:1036800014D28B18834211D9002A45D012F00301BD
:1036900000EB020C42D09E461EF8015D64460129F3
:1036A00004F8015D3ED1511EA4464DE0A2B312F0D4
:1036B000030309D08C461CF8014B8646012B0EF8FB
:1036C000014B05D1531E14E08C468646134610E08C
:1036D0004D78022B457005D1931E01F1020C00F1CB
:1036E000020E06E001F1030C8978D31E00F1030EEF
:1036F0008170042A38BFB0BDACF10401AEF1040200
:1037000011F8045F043B02F8045F4D7855708D7822
:103710009570CD78D570F3D1B0BD00BF9E461146EF
:1037200012E000BF9E461EF8025D6446022904F8BE
:10373000025D03D1911EA44606E000BF13F8035DAD
:10374000D11E0CF8035D9E46042AE5D3ACF10402B9
:10375000AEF102035D780439D5701D78957013F8C9
:10376000015C557013F8025CA3F1040302F80459DC
:10377000F0D1D1E770B5042A06461BD316F003003A
:1037800018D1C8B24FF00133102A00FB03F313D352
:10379000A2F1100C012000EB1C1010F003000DD062
:1037A0000128C6E90033B360F36009D106F11000C7
:1037B000624616E0304650E030462EE0304610E0DB
:1037C0000228C6E90433B361F36103D106F1200096
:1037D000203A06E006F13000303AC6E90833C6E97F
:1037E0000A33BCF1300F16D300F14004403AC0E96F
:1037F0000033C0E90233C0E90433C0E90633C0E94D
:103800000833C0E90A33C0E90C33C0E90E330F2A8C
:103810002046E9D82046042A1FD30446151F042D4C
:1038200040F8043B18D3A2F10805042D63600DD3C2
:10383000A2F10C05042DA3600CD304F11000103A82
:10384000E360032A0446E9D807E000BF04F108005A
:1038500002E000BF04F10C002A4622B1CBB21146AF
:103860001A46FCF7ABFD304670BD000010B50446AB
:1038700000202072FCF7BEFC54F80C1F62684A60FE
:1038800062681160C4E90044BDE81040FCF7B6BCB2
:1038900040F20C02C2F200021178814211460AD0B5
:1038A000114611F8103F834205D012F8201F8142C3
:1038B00018BF00221146084670470000F0B581B0DD
:1038C0000E4640F20C01C2F2000115460A78044689
:1038D000B2420F460AD00F4617F8100FB04205D07B
:1038E00011F8200FB04218BF00210F46FFF7A6FBCA
:1038F000043738460068B84208D00068B84205D09E
:103900000068B84202D00068B842F3D1FFF7A4FBC8
:1039100046F08000207220462946082200F026F951
:10392000FCF768FC396844F80C1F4C603C60676029
:1039300001B0BDE8F040FCF761BC0000007AC009AE
:1039400070470000B0B5FCF755FC40F2A005C2F28C
:1039500000056988044629B12046BDE8B040FCF75F
:103960004DBC00BFA868FDF745FD40F65841013841
:10397000C2F2000151F830106A68A1F114039342B9
:10398000EAD0287040F6D0306B60C2F200000378B5
:1039900002F11C0001F1080133B1FCF732FC2046B2
:1039A000BDE8B040FCF72ABCFCF72BFC2046BDE884
:1039B000B040FCF723BC000010B50446FCF71AFC2D
:1039C00094F8341094F8352001F0F001013184F8B6
:1039D000341040F65841C2F2000101EBC2014A68BE
:1039E00040F2A00C04F11403C2F2000C1360A261B7
:1039F0004B60A26BDCF80830616143EA0201CCF84D
:103A00000810BDE81040FCF7F9BB0000B0B5054652
:103A1000FCF7F0FB294651F8142F4B6853604B68B4
:103A200049601A6091F8212040F658430960C2F2BB
:103A3000000353F8324003EBC202944204D0BDE8C5
:103A4000B040FCF7DBBB00BF40F2A002C2F20002B4
:103A5000A96B936823EA01019160BDE8B040FCF7CF
:103A6000CDBB000070B515460A4602211C4606462D
:103A7000FFF724FF06F11400C6E905000020B58316
:103A8000747270BD80B582B00AA0FFF7DDFD0CA096
:103A9000FFF7DAFD0FF24C0C15A0032101220523DC
:103AA000CDF800C0FFF7D0FD19A002B0BDE88040FE
:103AB000FFF7CABD0A205C207C202F0A000000000E
:103AC0002D205254202D2020202020546872656122
:103AD00064204F7065726174696E672053797374E6
:103AE000656D0A004D617920323820323032340061
:103AF000202F207C205C202020202025642E25647F
:103B00002E2564206275696C642025730A0000000C
:103B10002032303036202D203230323020436F704A
:103B20007972696768742062792072742D74687282
:103B3000656164207465616D0A000000014600BF84
:103B40000A7862B14A784AB18A785AB1CA7804319F
:103B5000002AF5D10139081A704700BF0131081A4F
:103B6000704700BF0231081A704700002DE9F0418C
:103B70008046DAB3C2F1000C00234446CF5C08F85B
:103B80000370DFB10CEB0306771C2FD2CF187878C7
:103B900008EB03056870A8B1B01C27D0B878A870EE
:103BA000B0B1F01C22D0F878E870D8B104330434F6
:103BB0001CEB0300A2F10402E0D117E0601C511ECF
:103BC0000AD113E0A01C013A511E05D10EE000BF3E
:103BD000E01C023A511E09D0FCF7F8FB4046BDE854
:103BE000F08100BF033A281D511EF5D14046BDE8C3
:103BF000F081000010B540F65842C2F2000202F116
:103C00001800C2E9060002F1200002F1080302F1E7
:103C10001001C2E9080002F14000C2E90233C2E922
:103C2000041102F1280102F1300302F13804C2E963
:103C3000100002F16000C2E90A11C2E90C33C2E9C6
:103C40000E4402F1480102F1500302F15804C2E9A6
:103C5000180002F18000C2E91211C2E91433C2E96E
:103C6000164402F1680102F1700302F17804C2E91E
:103C7000200002F1A000C2E91A11C2E91C33C2E916
:103C80001E4402F1880102F1900302F19804C2E996
:103C9000280002F1C00040F2A00EC2E92211C2E9E0
:103CA0002433C2E9264402F1A80102F1B00302F173
:103CB000B804C2E9300002F1E000C2F2000EC2E92D
:103CC0002A11C2E92C33C2E92E4402F1C80102F1E3
:103CD000D00302F1D804C2E938001F204FF0000CD5
:103CE000C2E93211C2E93433C2E9364402F1E801D3
:103CF00002F1F00302F1F8048EF800000EF10C005E
:103D0000AEF802C0C2E90022C2E93A11C2E93C336E
:103D1000C2E93E44CEE901CCCEE9030010BD00006B
:103D200010B540F2A004C2F20004A068FDF762FBE7
:103D300040F65841C2F2000101EBC00050F8080CF7
:103D4000A0F1140108306160BDE81040FCF787BAAB
:103D500040F2B400C2F20000011DC0E90111704739
:103D60007047000070B540F2A400C2F20000056880
:103D7000FCF740FA0446FCF73DFA296F064609B104
:103D8000284688473046FCF739FA2846FFF73EFEBA
:103D9000042085F8340005F1440000F06BFA284651
:103DA000FFF7CCFD012809D12846FFF75FFDFFF79B
:103DB000C9FD2046BDE87040FCF720BA40F2AC00D7
:103DC000C2F20000016845F8141F4D60056068608C
:103DD000FFF7B8FD2046BDE87040FCF70FBA0000C1
:103DE000FEE7000010B584B040F658528021C2F2C0
:103DF000000240F2D8641F20CDE90021C2F2000485
:103E000043F6E1524FF0200C029007A1C0F60002E9
:103E100020460023CDF80CC000F00AF8204604B07C
:103E2000BDE8104000F096B87469646C650000004D
:103E30002DE9F04782B00DF1280A16460A46DDF852
:103E400034909AE8800501211D460446FFF736FDAF
:103E500004F11400C4E90500384623214246C4E9B0
:103E60000865C4E90A78FFF785FC04F120030FCB4D
:103E70001A4443F66553043AC0F60003FFF7AAFB61
:103E800043F6B172E061002704F14400C0F600027D
:103E90002146234684F836A084F835A0C4E90E797B
:103EA000C4F84090276384F83470C4E91C77009705
:103EB000019700F0F7F9002002B0BDE8F08700009C
:103EC00080B500F0BBF800F009F8002080BD0000CC
:103ED00040F2A400C2F2000000687047F0B581B063
:103EE0000090FCF787F940F2A401C2F200010C68CF
:103EF000054694F8341001F00F01012913D1FCF7A5
:103F000079F906462046FFF781FD94F8340000F069
:103F1000F000023084F8340004F1440000F042FA6A
:103F20003046FCF76BF904F144066A46304600213E
:103F3000002700F06BF9304600F0CEF92846FCF778
:103F40005DF9FFF7FFFC206B023008BF27630020FC
:103F500001B0F0BDB0B5044690F83600012184F8F8
:103F6000350001FA00F0A063022084F83400FCF769
:103F700041F92246A16952F8143F05465960A169EA
:103F800004F144000B60A261126000F00BFA2846B5
:103F9000FCF734F92046FFF70FFD40F2A400C2F20F
:103FA00000000068002818BFFFF7CCFC0020B0BD5F
:103FB00080B50246816952F8143F6FF0010C5960D8
:103FC0008169C0F830C00B6082611260FFF7F4FCB9
:103FD000BDE88040FFF7B6BC10B5FCF70BF940F226
:103FE000A401C2F20001096891F8342002F00F0226
:103FF000012A1FD10A4652F814CF53689C4519D0A4
:10400000CCF8043091F835E040F65843C2F2000392
:1040100003EBCE03D1F818E08A615C68CEF800C0EB
:1040200022608C615A604B61FCF7E8F8FFF78AFC6C
:10403000002010BDFCF7E2F8002010BD40EAE0705F
:104040007047000040F6DC50C2F200000068704784
:1040500080B540F6DC50C2F2000001680131016019
:10406000FFF736FF016C0139016403D0BDE88040E1
:1040700000F008B8C16B0164FFF7AEFFBDE88040F7
:10408000AFF300802DE9F04F85B003AFCDE90377A2
:10409000FFF7D8FF0546FCF7ADF840F2B404C2F2D2
:1040A0000004214651F8048F0190884500F0A88053
:1040B0004FF6FE79C7F6FF79201D6FF0004A029097
:1040C0001CE000BF0E6808462168C6F80480013174
:1040D000216018F80B1CC8F80060C0F80080C8F810
:1040E000040041F0010008F80B0C5846FCF786F874
:1040F000204650F8048F804500F08280D8F81400E4
:10410000281A48457CD8D8E900104860D8F804201F
:1041100018F80B0C11608107C8F800805CBF00F034
:10412000FE0008F80B0C0398C0F80480C8F80000E3
:10413000D8E90210CDF80C80C8F804708847FFF762
:1041400081FF03990546B942D2D0D8E900104860F2
:10415000D8F80400C8F80480016018F80B0CC8F8FF
:10416000008000F003010329C2D100F0FE0008F82E
:104170000B0CFCF73FF8D8E900218346516018F892
:104180000B0CD8F8041000F0FE000A60C8F800809C
:10419000C8F8048008F80B0CFFF754FFD8F810108B
:1041A000029B0A18A168C8F814208B428AD01868AC
:1041B0004669B61A01D056451CD388423FF482AFF7
:1041C00003685E69B61A01D0564517D38B423FF497
:1041D00079AF18684669B61A01D056450AD38842A5
:1041E0003FF470AF03685E69B61ADED04E451E46D6
:1041F000DBD869E70646184666E700BF1E4663E758
:104200000198FBF7FBFF05B0BDE8F08F70B51446D1
:104210000E460546FBF7EEFF042E07D8DFE806F052
:10422000040A1018200000BF21686962FBF7E6FF4E
:10423000002070BD696A2160FBF7E0FF002070BDBF
:10424000697A01F0FD016972FBF7D8FF002070BDAB
:10425000697A41F002016972FBF7D0FF002070BD5E
:10426000697AC9070CBF002101212160FBF7C6FF55
:10427000002070BD10B50446FBF7BCFF2246A169C3
:1042800052F8143F5960A169A2610B60617A126013
:1042900001F0FE016172FBF7B1FF2046FFF7E6FA7D
:1042A000002010BD2DE9F04115460A46DDE90687DC
:1042B0000A211C460646FFF701FB07F0FE0070725C
:1042C000002006F11401C6E90511C6E90754C6E944
:1042D0000980BDE8F08100002DE9F0410446FBF7BC
:1042E00089FF264656F8141F8046726816F80B0C94
:1042F0004A60726800F0FE0011603660766006F871
:104300000B0CFFF79FFE40F2B40E3169C2F2000EB3
:10431000DEF808304FF6FE7C0A180EF104076FF045
:104320000045C7F6FF7C72619F421FD0396848691B
:10433000801A01D0A8421DD3994217D00F6878691E
:10434000801A01D0A84219D39F420FD0396848691A
:10435000801A01D0A8420DD3994207D00F6878691E
:10436000801AE1D060453846DED808E01868194662
:1043700005E000BF0846394601E000BF3846466008
:104380006061607ADEF8002040F001000132607266
:104390004046CEF800200E60A161FBF72FFF002001
:1043A000BDE8F08110B50446407AC00704BF4FF065
:1043B000FF3010BDFBF71EFF54F8141F62684A60FF
:1043C00062686460116014F80B1C246001F0FE0147
:1043D00004F80B1CFBF712FF002010BD2DE9F04F75
:1043E00085B09B46144600EB010A4FF0200803916C
:1043F000002948BF4FF0FF3A049002E0411C01340D
:1044000008462178252907D0002900F0C7835045A8
:1044100038BF0170F2E700BF0234002114F8012C0C
:10442000A2F12007102F00F26D801023DFE807F0C3
:104430000A6A6A0C6A6A6A6A6A6A6A0E6A126A6A4E
:10444000100000BF082305E0202303E0042301E05F
:10445000012300BF22781943A2F12007102F00F298
:104460008D801023DFE807F00A8A8A0C8A8A8A8AFC
:104470008A8A8A0E8A128A8A100000BF082305E001
:10448000202303E0042301E0012300BF62781943E5
:10449000A2F12007102F00F297801023DFE807F029
:1044A0000A94940C949494949494940E94129494E6
:1044B000100000BF082305E0202303E0042301E0EF
:1044C000012300BFA2781943A2F12007102F00F2A8
:1044D00083801023DFE807F01080801280808080C6
:1044E0008080800E800A8080140000BF194304344D
:1044F00094E700BF0423F9E70823F7E72023F5E753
:104500000123F3E7A31E013CA2F13007092F3AD89B
:104510000234002606EB860302EB430314F8012C59
:10452000A3F13006A2F13007092F5DD806EB860310
:1045300002EB43032278A3F13006A2F13007092FE2
:1045400054D806EB860302EB43036278A3F13006EE
:10455000A2F13007092F00F28D8006EB860302EBF3
:104560004303A278A3F13006A2F130030A2B04F131
:104570000404CFD3023C2E2A3AD018E0631EA2F1E5
:104580003007092FC4D92A2A0CD15BF8046B9C1C74
:10459000B6F1FF3FDCBF764241F0100122782E2AAF
:1045A00026D004E022784FF0FF362E2A20D04FF09C
:1045B000FF3E42F004036C2B6CD094460022ACF119
:1045C0002505532D6DD9D3E023460134A2F13007E0
:1045D000092FD8D89CE700BF631C0234A2F1300732
:1045E000092F95D9CFE700BF013C00BF2E2ADED1AD
:1045F000234613F8012FA2F13007092F2ED8A31C50
:10460000002700BF07EB870702EB47071A78303F08
:10461000A2F13005092D35D807EB870702EB4707D4
:104620005A78303FA2F13005092D27D807EB8707CC
:1046300002EB47079A78303FA2F13005092D1FD8C9
:1046400007EB870702EB4707DA78303FA2F1300526
:104650000A2D03F10403D5D3013B13E02A2A05D127
:1046600014F8022F5BF8047B23460BE04FF0FF3772
:1046700008E000BF01342E2ABAD098E7013301E0E8
:10468000023300BF27EAE77E1C4642F004036C2B8E
:104690007FF493AF14F801CFACF12505532D00F250
:1046A00067800A23DFE815F05400640064006400AA
:1046B00064006400640064006400640064006400DA
:1046C00064006400640064006400640064006400CA
:1046D00064006400640064006400640064006400BA
:1046E00064006400640064006400640064006400AA
:1046F000640064006400640064006400640064009A
:104700006400640064006400640064006400760077
:104710006400640064006400640064006400640079
:10472000640064008A005A0064006400640064004D
:104730005A0064006400640064006400A200A600E3
:1047400064006400B80064007900640064007800CC
:1047500050453CBF2521017050E600BF41F00201E9
:10476000682A1CD1BBF800208F0748BF12B219E09D
:10477000504503D22521017094F800C0BCF1000F10
:1047800000F1010174D0514538BF81F800C0811C8F
:1047900035E600BF41F040011023682AE2D06C2AC0
:1047A000DBF800200BF1040BCFB25146CDE9006ECF
:1047B0000297FEF797F9014621E600BFC90655D4D6
:1047C000022EA6F1010357DB13F00307A6F1020244
:1047D00058D0504538BF80F80080012F00F101010A
:1047E00056D11346032A80F005811FE10823682A69
:1047F000D5D1B7E7721CB2FA82F24FEA521241EAFF
:10480000020108BF08265BF8042BCFB2CDE9006E89
:1048100051461023CCE700BF5BF8049B0FF2A03297
:10482000B9F1000F08BF914626B3A6F1030C7742F9
:10483000002219F80250002D3FD0BD186B1C13D078
:1048400009EB020898F8013083B3AB1C18D098F834
:1048500002306BB3944513D098F8033053B304324D
:10486000BB184FF02008E4D1324626E00146DEE0D6
:10487000013CC4E5002220E001461E46D7E000BF0F
:10488000324618E00146032A80F0B480CEE000BF33
:10489000514538BF81F80080022F00F1020140F03D
:1048A000A180F31E032A80F0A580BFE0013202E060
:1048B000023200E003324FF0200872459446C8BF30
:1048C000F446BEF1000FD8BF9446C90619D4664518
:1048D000A6F1010214DDA6EB0C0111F0030769D06B
:1048E000504538BF80F80080012F00F1010169D1E7
:1048F000B21E6FEA0C003044032880F0E080F9E03B
:104900001646BCF1010FC0F2FC80BCF1040F03D2CB
:104910001CF0030233D1F5E02CF00302002102E089
:1049200004318A4224D04718574507F101053CBF9E
:1049300019F801303B7055450AD209EB01035B7849
:104940002B70BD1C554506D303375745E8D209E007
:10495000BD1C5545F8D209EB01039B782B7003373A
:104960005745DDD209EB0103DB783B70D8E700BF88
:104970008944014408461CF0030200F0C3805045FE
:104980003CBF99F800100170012A00F1010100F00C
:10499000B98051453CBF99F801300B70022A00F1F3
:1049A000020100F0AF8051453CBF99F802200A7027
:1049B000C11CA7E001466FEA0C00304403287ED2F8
:1049C00098E000BF514538BF81F80080022F00F108
:1049D000020169D1F21E6FEA0C00304403286ED246
:1049E00088E000BF514538BF81F80080C11C331FEB
:1049F000032A1BD3181D00BF514501F1010238BF26
:104A000081F80080524538BF82F800808A1C5245E8
:104A100038BF82F80080CA1C5245A0F1040038BF9C
:104A200082F80080042801F10401E5DC00265145EC
:104A30003CBFDBF800000870022E0BF1040B2FDBEB
:104A4000043100BFC81E504538BF80F80080032ED7
:104A5000A1F10200FFF4AFAE504538BF80F80080EE
:104A6000301F10F1040FA1F1010277D85245A0F1D7
:104A7000010038BF82F8008010F1040F3FF6BFAC90
:104A80005145A0F1010238BF81F80080043112F1D4
:104A9000030F00F10106D5D30339FFF7B0BC00BF07
:104AA0000131FFF7ACBC00BF514538BF81F8008031
:104AB000C11C321F6FEA0C00304403281AD3501C6B
:104AC000514501F1010238BF81F80080524538BFDD
:104AD00082F800808A1C524538BF82F80080CA1CC8
:104AE0005245A0F1040038BF82F80080844501F1EE
:104AF0000401E5DBACF101060846BCF1010FBFF68D
:104B000004AF014666457FF77AACA6EB0C0010F0C7
:104B1000030009D0514538BF81F80080012801F118
:104B2000010205D1701E13E030460A4610E000BFB6
:104B3000524538BF82F80080022801F1020201D1FB
:104B4000B01E05E0524538BF82F80080F01ECA1C36
:104B50006FEA0C0131440329114603D21146FFF7D5
:104B60004EBC00BF514501F1010238BF81F8008001
:104B7000524538BF82F800808A1C524538BF82F8FF
:104B80000080CA1C5245A0F1040038BF82F80080A2
:104B9000844501F10401E5DBFFF731BC0399049B77
:104BA000002948BFD94331B101460022504528BFF2
:104BB000AAF101010A70C01A05B0BDE8F08F00BF6C
:104BC000284E554C4C2900000020704700207047AB
:104BD000002070470020704780B540F2D40044F2B6
:104BE0000041C2F20000C4F2000100234FF00C0C9F
:104BF0004FF4E13280E80E00C0E90333C0E905C399
:104C0000C361FCF773F908B1FEE700BF002080BD67
:104C100080B5FEF737FF002080BD000000000000D7
:104C20000000010203040607080900000000010259
:104C30000304010200000100020001000300010062
:104C40000200010004000100020001000300010055
:104C50000200010005000100020001000300010044
:104C60000200010004000100020001000300010035
:104C70000200010006000100020001000300010023
:104C80000200010004000100020001000300010015
:104C90000200010005000100020001000300010004
:104CA00002000100040001000200010003000100F5
:104CB00002000100070001000200010003000100E2
:104CC00002000100040001000200010003000100D5
:104CD00002000100050001000200010003000100C4
:104CE00002000100040001000200010003000100B5
:104CF00002000100060001000200010003000100A3
:104D00000200010004000100020001000300010094
:104D10000200010005000100020001000300010083
:104D20000200010004000100020001000300010074
:104D30000200010002030405060708090A0B0C0D16
:104D40000E0F101068656C6C6F00736179206865D8
:104D50006C6C6F20776F726C640076657273696F2C
:104D60006E0073686F772052542D546872656164C9
:104D70002076657273696F6E20696E666F726D6101
:104D800074696F6E005F5F636D645F7665727369EF
:104D90006F6E0073686F772052542D54687265618E
:104DA000642076657273696F6E20696E666F726DCE
:104DB0006174696F6E006C6973745F7468726561A9
:104DC00064006C69737420746872656164005F5F6D
:104DD000636D645F6C6973745F74687265616400AD
:104DE0006C69737420746872656164006C697374B3
:104DF0005F73656D006C6973742073656D617068B5
:104E00006F726520696E2073797374656D005F5FE2
:104E1000636D645F6C6973745F73656D006C697357
:104E2000742073656D6170686F726520696E2073A0
:104E3000797374656D006C6973745F74696D657204
:104E4000006C6973742074696D657220696E2073DB
:104E5000797374656D005F5F636D645F6C69737413
:104E60005F74696D6572006C6973742074696D6537
:104E70007220696E2073797374656D006C69737448
:104E8000006C69737420616C6C2073796D626F6C57
:104E900020696E2073797374656D005F5F636D6464
:104EA0005F68656C700052542D54687265616420AF
:104EB0007368656C6C2068656C702E005F5F636D55
:104EC000645F7073004C6973742074687265616408
:104ED0007320696E207468652073797374656D2E14
:104EE000006D61696E0068617264206661756C7442
:104EF000206F6E2068616E646C65720D0A0D0A0089
:104F000068617264206661756C74206F6E207468CD
:104F1000726561643A2025730D0A0D0A006D656D96
:104F2000206D616E616765206661756C743A0A0078
:104F30007573616765206661756C743A0A00627505
:104F400073206661756C743A0A005343422D3E42E9
:104F50004641523A253038580A005343422D3E4DBF
:104F60004D41523A253038580A006661696C6564D3
:104F700020766563746F722066657463680A0064E6
:104F800065627567206576656E740A007230303A26
:104F9000203078253038780A007230313A20307865
:104FA000253038780A007230323A2030782530388F
:104FB000780A007230333A203078253038780A0089
:104FC0007230343A203078253038780A00707372A5
:104FD0003A203078253038780A00494E5650432020
:104FE00000554E414C49474E45442000494E5653CA
:104FF0005441544520004441434356494F4C2000FE
:105000004941434356494F4C200044495642595A5E
:1050100045524F20004E4F435020004D53544B45B6
:10502000525220004D554E53544B45525220004988
:105030004D50524543495345525220004942555321
:105040004552522000554E444546494E5354522035
:10505000005343425F434653525F424653523A30F5
:10506000782530325820005343425F434653525F05
:105070004D4653523A30782530325820005343423F
:105080005F434653525F554653523A30782530328B
:1050900058200064656163746976617465640A0010
:1050A000252D2A2E73207072692020737461747507
:1050B0007320202020202073702020202020737453
:1050C00061636B2073697A65206D61782075736503
:1050D00064206C656674207469636B20206572724D
:1050E0006F720A0020696E69742020200020636CB2
:1050F0006F7365202000207265616479202000258F
:105100002D2A2E2A732030782530387820307825C3
:1051100030387820002D002073757370656E640040
:105120002072756E6E696E670052542D54687265F8
:105130006164207368656C6C20636F6D6D616E6473
:10514000733A0A00252D313673202D2025730A006D
:105150005F5F636D645F0008006D736820006669BF
:105160006E73682000256300D54B0008CD4B000806
:10517000D94B0008C94B000839140008D14B00086E
:10518000444D00084A4D0008491900085A4D0008CE
:10519000624D0008114C0008854D0008934D000831
:1051A000114C0008B64D0008C24D00085D1C0008F7
:1051B000CE4D0008E04D00085D1C0008EC4D0008D5
:1051C000F54D0008F11900080E4E00081D4E0008AC
:1051D000F1190008364E0008414E0008C91E0008AB
:1051E000564E0008674E0008C91E00087C4E000895
:1051F000814E0008691900089B4E0008A64E000861
:10520000652A0008BC4E0008C54E00082D14000891
:10521000305200080000002040000000500100084B
:105220007052000840000020A81300007001000820
:1052300001000000100000000024F4000100000044
:105240001000002010000020780000000200000084
:105250002000002020000020200000000A000000A4
:1052600030000020300000202C0000000000000072
:04000005080000ED02
:00000001FF
