:020000040800F2
:1000000058040020010100081D120008A511000875
:1000100019120008490100089512000800000000AC
:100020000000000000000000000000002512000891
:100030004D010008000000002112000829120008EC
:100040001B0100081B0100081B0100081B01000820
:100050001B0100081B0100081B0100081B01000810
:100060001B0100081B0100081B0100081B01000800
:100070001B0100081B0100081B0100081B010008F0
:100080001B0100081B0100081B0100081B010008E0
:100090001B0100081B0100081B0100081B010008D0
:1000A0001B0100081B0100081B0100081B010008C0
:1000B0001B0100081B0100081B0100081B010008B0
:1000C0001B0100081B0100081B0100081B010008A0
:1000D0001B010008891200081B0100081B01000811
:1000E0001B0100081B0100081B010008DFF80CD0F1
:1000F00000F018F800480047991200085804002042
:100100000648804706480047FEE7FEE7FEE7FEE7B1
:10011000FEE7FEE7FEE7FEE7FEE7FEE72D1200083A
:10012000ED000008064C074D06E0E06840F00103D2
:1001300094E8070098471034AC42F6D3FFF7DAFF93
:10014000A4130008C4130008FEE700007047000075
:10015000EFF3108072B600BFFEE7000080B590F8A4
:100160002110022924D10268116821F00E011160CA
:100170002F211368C4F202018A4240F20401C4F242
:10018000020123F00103136016DD3023C4F20203E1
:100190009A421DD04423C4F202039A421CD0582331
:1001A000C4F202039A421DD14FF4803322E000BF13
:1001B00004218163012080BD0823C4F202039A4216
:1001C0000ED01C23C4F202039A420BD1102311E07B
:1001D0004FF480730EE000BF4FF480530AE000BF7D
:1001E000012307E001F1680C4FF08073624508BFFE
:1001F0004FF480130B60416B4FF48072028401B1A5
:100200008847002080BD0000B0B5044600F01EF90C
:10021000054640F20000C2F200000078611C18BFE1
:10022000044400BF00F012F9401BA042FAD3B0BD55
:100230002DE9F04F82B00E68002E00F0038140F2ED
:100240000C4C41F200424FF6FF7EC4F2010CC4F2A6
:100250000102042700240123C1F2100E4FF0000A0E
:100260004FF00009904208BF0327009745E000BF08
:10027000012704F00C030F229A402BEA020207FA2E
:1002800003F34FEA9A051A4346F82520D1F804B043
:1002900040F20045C4F201055FEACB322A6854BF40
:1002A00022EA080242EA08022A606A685FEA8B339F
:1002B00054BF22EA080242EA08026A605FEACB23DE
:1002C000AA6854BF22EA080242EA08025FEA8B23C6
:1002D000AA60DCF800204FF0010354BF22EA0802B4
:1002E00042EA0802CCF800200E680AF1010A36FA48
:1002F0000AF204F1040400F0A58003FA0AF816EAF1
:10030000080FF1D04E68764512DC122E56D8DFE881
:1003100006F0350B454955555555555555555555C7
:100320005555554D510000BFD1F80C9046E000BF27
:100330004FF6FF72C1F2210296420FDC0022C1F299
:10034000110296421AD00022C1F21202964215D032
:100350000022C1F22102964210D02FE00022C1F209
:10036000220296420AD00022C1F23102964205D002
:100370000022C1F23202964220D100BF8A684AB1FF
:10038000012A14BFC0F81480C0F810804FF008098B
:1003900014E000BF4FF0040910E000BFCA6802F18A
:1003A00008090BE04FF0000908E000BFCA6802F13D
:1003B000040903E0CA6802F10C0900BF22460646A0
:1003C000BAF1080F24BF203A043637680F2595404C
:1003D00027EA050509FA02F22A433260CA79D206F1
:1003E0007FF582AF41F21803C4F202031A6842F0AB
:1003F00001021A601A6802F001020192019A40F2A9
:100400000042C4F20102A2F57E762AF0030256F8F9
:1004100002B040F60002C4F20102904210D040F651
:100420000042C4F2010290423FF422AF41F20002C6
:10043000C4F20102009F904208BF022719E700BFE3
:10044000002716E702B0BDE8F08F000040F254002C
:10045000C2F200000068704740F2000040F2540110
:10046000C2F20000C2F2000100780A68104408607D
:100470007047000080B542F20000C4F2020001683B
:1004800041F010010160032000F086F80F2000F019
:1004900005F800F027F8002080BD000070B540F29C
:1004A0000006C2F2000640F208013278C2F20001F2
:1004B0004FF47A730968B3FBF2F20446B1FBF2F130
:1004C000084600F05BFB0F2C4FF0010508D838B947
:1004D0004FF0FF3021460022002500F031F8746013
:1004E000284670BD82B041F21800C4F202000168D3
:1004F00041F001010160016801F0010101910199E0
:10050000416841F080514160406800F080500090A7
:10051000009802B070470000002848BF7047C1B281
:1005200000F01F00012202FA00F04EF20012CEF29B
:10053000000242EAD10121F0030108607047000087
:1005400010B54EF60C5CCEF2000CDCF80030C3F3B4
:10055000022E8EF00704042C28BF0424BEF10303EE
:100560004FF0FF3E0EFA04F438BF0023A143994038
:100570000EFA03F39A43114300F00F0200F16043B7
:100580000901043A03F564436244002848BF02F1BC
:100590000C03197010BD00004EF60C51CEF2000194
:1005A0000A684FF6FF031A4060F30A2242F08060A7
:1005B00040F0FD70086070472DE9F04381B00028DD
:1005C00000F0858042F20008C4F202080446D8F820
:1005D00000000D4600F0070088420CD2D8F8000059
:1005E00020F007002843C8F80000D8F8000000F009
:1005F0000700A8426BD1206841F204098107C4F2C8
:10060000020917D5410705D5D9F8001041F4E0617A
:10061000C9F80010010705D5D9F8001041F4605160
:10062000C9F80010D9F80010A26821F0F0011143B8
:10063000C9F80010C00741D1D8F8000000F0070049
:10064000A8420CD9D8F8000020F007002843C8F8C9
:100650000000D8F8000000F00700A84237D1206859
:10066000410707D5D9F80010E26821F4E061114391
:10067000C9F80010000708D5D9F80000216920F456
:10068000605040EAC100C9F80000D9F8002002F02B
:100690000C00082841F20020C0F27A0050D141F24B
:1006A0009433C2F38341C0F60003595CD2033BD4B8
:1006B00040F60010C0F23D00484341E06068022867
:1006C0000AD001282AD159F8041C890308D4012032
:1006D00001B0BDE8F08300BF59F8041C8901F6D5CC
:1006E000D9F8001021F003010843C9F80000FFF712
:1006F000ADFE064641F28837D9F80000616800F087
:100700000C00B0EB810F97D0FFF7A0FE801BB84222
:10071000F2D9032001B0BDE8F08300BF59F8041CF2
:100720008907D4D5DCE700BFD9F8002041F27A333D
:10073000C2F34042C0F600039A5C4843B0FBF2F0BB
:10074000D9F8001041F27C32C1F30311C0F6000267
:10075000515C40F2080220FA01F140F20400C2F2BA
:1007600000000068C2F200021160FFF797FE00204F
:1007700001B0BDE8F083000040F2080041F204013E
:10078000C2F20000C4F202010068096841F28C3232
:10079000C1F30221C0F60002515CC840704700005E
:1007A00040F2080041F20401C2F20000C4F202016A
:1007B0000068096841F28C32C1F3C221C0F6000220
:1007C000515CC840704700002DE9F04182B000281C
:1007D00068D00446007841F20006C007C4F2020661
:1007E00025D0706800F00C0004281BD0706800F061
:1007F0000C00082802D17068C00313D46068002878
:1008000000F06881B0F5A02F00F07C81B0F5803F4A
:1008100000F07C81306820F480303060306820F453
:10082000802076E13068800301D56068D0B32078FD
:10083000800718D5706810F00C0F07D0706800F0B2
:100840000C0008286ED17068C0036BD43068800734
:1008500002D52069012825D13068616920F0F800AF
:1008600040EAC1003060207800071FD4207840079C
:1008700032D4E56995B1706800F00C00082840F0AA
:100880008F80012D0ED07068216A00F480328A4278
:1008900008D1616A00F47010884203D1002002B0D0
:1008A000BDE8F081012002B0BDE8F081A069002818
:1008B00062D00020C4F242200121C0F88014FFF76A
:1008C000C5FD0546706A800700F18C80FFF7BEFD0C
:1008D000401B0228F6D92AE1F06910F0805808D1AF
:1008E000F06940F08050F061F06900F080500090B5
:1008F000009847F20007C4F200073868C00529D401
:10090000386840F480703860FFF7A0FD054600BFEE
:100910003868C0051ED4FFF799FD401B6428F7D93D
:1009200005E100BF2069002840F20000C4F2422027
:1009300000F0828001210160FFF788FD054600BFBD
:10094000306880073FF588AFFFF780FD401B022825
:10095000F6D9ECE0E068002800F08080052800F07F
:100960009780012800F09880306A20F00100306202
:10097000306A20F0040092E00020C4F242200021FE
:10098000C0F88014FFF762FD054600BF706A80075B
:100990007FF56CAFFFF75AFD401B0228F6D9C6E081
:1009A0000027C4F2422700203866FFF74FFD022DD2
:1009B00005460BD13068800140F1BE80FFF746FD4F
:1009C000401B02284FF00300F4D968E7306880012B
:1009D0007FF564AFFFF73AFD401B02284FF003009C
:1009E000F4D95CE740F20800C2F20000006844F667
:1009F000D351C1F26201A0FB0101480A019000BF7E
:100A000000BF0198411E002801913FF42FAF00BFA5
:100A10000198411E002801913FF428AF00BF0198C2
:100A2000411E002801913FF421AF00BF0198411EF3
:100A300000280191E4D119E700210160FFF706FDCC
:100A4000054600BF306880077FF50DAFFFF7FEFC5D
:100A5000401B02284FF00300F4D920E7306A20F051
:100A600001003062306A20F004003062FFF7EEFCD3
:100A7000054641F2883700BF306A800720D5FFF76E
:100A8000E5FC401BB8424FF00300F5D907E700BF73
:100A9000306A40F004003062306A40F00100306299
:100AA000FFF7D4FC054641F2883700BF306A800763
:100AB00006D4FFF7CBFC401BB842F7D937E000BFA4
:100AC000B8F1000F7FF4D5AEF06920F08050F061EE
:100AD000CFE600BF306820F480303060306820F40A
:100AE00080203060FFF7B2FC054600BF306880030D
:100AF0007FF59DAEFFF7AAFC401B64284FF0030072
:100B0000F4D9CCE6306840F480203060306840F49E
:100B100080303060FFF79AFC054600BF30688003E4
:100B20003FF585AEFFF792FC401B6428F6D9032001
:100B300002B0BDE8F08100BF206AB0F5803F05D16A
:100B40007168A26821F40031114371607168626AB2
:100B500021F4741111430843706001203866FFF7D7
:100B600075FC0446306880013FF598AEFFF76EFCD7
:100B7000001B02284FF00300F4D990E6411E00202C
:100B8000B0EB116F1CBF012070474EF21002CEF285
:100B9000000251604EF62351CEF20001F0230B709B
:100BA000072190601160704770470000B0B505469E
:100BB00000680168C368446901F02F02202A03F02D
:100BC000200213D192B195F83A10222940F0DE802C
:100BD000A968B1F5805F41D12A69A96A4068002AF5
:100BE00062D0C0B221F8010B62E000BF5FEA017C75
:100BF0001EBF04F0010E03F4907414EB0E0439D1FF
:100C00000A0617D513F0800214D095F8391021295F
:100C100040F0BC80AA68296AB2F5805F32D10A88A8
:100C20006FF35F2242602A69002A14BF013102314A
:100C300029622BE0490640F1A98013F0400108BF6A
:100C4000B0BDC16821F04001C1602021284685F86F
:100C50003910BDE8B04000F0A3BA00BF2969406870
:100C60000029A96A18BF00F07F004A1CAA62087018
:100C70001FE000BFCC0718BF13F4807334D14B07BB
:100C800038D43EE04A1C2A6209784160E98C013977
:100C90000A04E9847AD1C16821F08001C160C16889
:100CA00041F04001C160B0BD6FF35F2021F8020B3D
:100CB000A962E88D01380104E88567D12868C16818
:100CC00021F02001C160C16821F48071C1604169D7
:100CD00021F0010141612021284685F83A10BDE844
:100CE000B04000F07BB900BFEB6B43F00103EB6356
:100CF0004B0706D5BEF1000F03D0EB6B43F00203A8
:100D0000EB638B0706D5BEF1000F03D0EB6B43F00E
:100D10000403EB63BCF1000F06D5BEF1000F03D056
:100D2000EB6B43F00803EB63EB6B7BB311F020013B
:100D300018BF002A38D128684169EA6B01F04001E8
:100D400002F00802891823D0C16821F49071C160B3
:100D5000416921F001014161202185F83A10416982
:100D600049061BD5416921F040014161686BA8B17A
:100D700041F27D21C0F600014163FFF7EFF928B190
:100D8000686B416BBDE8B040084700BFB0BD00BF15
:100D90002846FFF709FF0020E863B0BD2846BDE8FC
:100DA000B040FFF701BF00BF95F83A102229C2D129
:100DB000A968B1F5805F07D12A69A96A40687AB14C
:100DC000C0B221F8010B0FE0296940680029A96A27
:100DD00018BF00F07F004A1CAA62087005E000BF3F
:100DE0006FF35F2021F8020BA962E88D013801043E
:100DF000E885A0D12868C16821F02001C160C168E0
:100E000021F48071C160416921F00101416120201C
:100E100085F83A00284600F0E1F88CE7002804BF86
:100E20000120704710B5044690F8390028B9002019
:100E300084F83800204600F061F8242084F8390056
:100E40002068D4E90212C36823F40053C360036925
:100E500023F440531A430261D4E904231143C268C6
:100E6000194341F20C639A431143C1604169A2697D
:100E700021F44071114343F60002C4F20102904292
:100E8000416103D0FFF778FC02E000BFFFF788FC68
:100E90006268192148439100B0FBF1F048F21F51FC
:100EA000C5F2EB11A0FB01235A094FF69C73C0F663
:100EB000FF7302FB0300322303EB0010A0FB0101D0
:100EC000F02303EA5113206803EB0212C1F343112C
:100ED00011448160016921F490410161416921F06F
:100EE0002A014161C16841F40051C1600020202104
:100EF000E06384F8391084F83A1010BD70B586B0FC
:100F000040F60004C4F20104006804F540510026D4
:100F10008842049602D006B070BD00BF41F21800AE
:100F2000C4F20200016802AD41F480410160016831
:100F300001F4804101910199016841F004010160CF
:100F40000068294600F00400019001984FF40070F9
:100F5000029002200390032005902046FFF768F9D5
:100F60004FF48060CDE90206204629460496FFF73B
:100F70005FF9252000210022FFF7E2FA2520FFF784
:100F8000CBFA06B070BD0000034690F83A00202866
:100F90000AD100294FF0010018BF002A00D1704784
:100FA00093F83800012801D102207047996200208F
:100FB00022219A85DA85D86383F83A10196883F874
:100FC0003800CA6842F48072CA604A6942F001027D
:100FD0004A61CA6842F02002CA607047026840F263
:100FE0001000C2F2000043F600034178C4F201038E
:100FF0009A4208BF232905D09A4208BF2A2903D163
:10100000002100E001210170411C40F21400C2F2F5
:1010100000000122FFF7B8BF2DE9F041044690F827
:10102000390020280ED10F4600294FF0010000F0B2
:10103000B4801646002A08BFBDE8F08194F8380055
:10104000012803D10220BDE8F08100BF012084F80F
:1010500038000020E06321201D4684F83900FFF7A6
:10106000F5F9A684E684E18C0646002960D005F1F6
:10107000010805E017F8011B4160E18C002958D0F8
:10108000E08C0138E0842068A1680268B1F5805FD7
:1010900002F080011ED179B9B8F1000F2CD0002DDB
:1010A0006AD000BFFFF7D2F9811B2068A94263D83C
:1010B00001680906F6D500BF39886FF35F214160EA
:1010C0002169002914BF01370237E18C0029D7D1EB
:1010D0002FE000BF0029CDD1B8F1000F1AD0002DAC
:1010E0004AD000BFFFF7B2F9811B2068A94243D85C
:1010F00001680906F6D5BDE701680906DCD4016878
:1011000009065CBF01685FEA0161D5D40168090680
:10111000F2D5D1E701680906ACD4016809065CBFC5
:1011200001685FEA0161A5D401680906F2D5A1E76B
:101130002068016849061AD4F5B1691C0ED101680E
:10114000490614D4016849065CBF01685FEA416141
:101150000DD401684906F2D509E000BFFFF776F922
:10116000811B2068A94207D800684006F6D52020D8
:1011700084F8390000200DE0C16821F4D071C1600D
:10118000416921F001014161202084F8390084F88F
:101190003A000320002184F83810BDE8F0810000F7
:1011A00070470000FEE7000082B041F21800C4F270
:1011B0000200016841F020010160016801F0200196
:1011C00001910199016841F004010160006800F09B
:1011D00004000090009802B07047000080B540F213
:1011E000140043F60001C2F20000C4F20101002322
:1011F0004FF00C0C4FF4E13280E80E00C0E90333ED
:10120000C0E905C3C361FFF709FE002808BF80BD20
:10121000BDE88040FEF79CBFFEE70000FEE700004F
:101220007047000070470000FFF716B941F2000058
:10123000C4F202000168002241F00101016041682E
:10124000CFF6FF021140416001684FF6FF72CFF602
:10125000F66211400160016821F48021016041685B
:1012600021F4FE0141604FF41F0181604EF60850E9
:10127000CEF200004FF0006101607047406A00212B
:10128000C185C184FFF790BC40F21400C2F2000097
:10129000FFF78CBCFEE7000090B0FFF7EBF80024EE
:1012A0000120CDE90B44CDE9094406900A904FF4A2
:1012B000E0104FF4803102250F9006A8CDE9071405
:1012C000CDE90D51FFF780FA20B1EFF3108072B62F
:1012D000FEE700BF0F20CDE901054FF48060CDE9A6
:1012E000040401A802210394FFF766F920B1EFF38B
:1012F000108072B6FEE700BFFFF756FFFFF76EFFE4
:1013000040F21006C2F2000640F21400711CC2F254
:1013100000000122FFF738FE307808B1FEE700BF79
:1013200040F214040020C2F2000408A50028FDD1F8
:101330002046294610224FF6FF73FFF76DFE4FF44B
:101340007A70FEF761FF3078F0E700BF68656C6C7B
:101350006F2077696E646F7773210A0002E008C816
:10136000121F08C1002AFAD170477047002001E01F
:1013700001C1121F002AFBD17047010200000000CA
:101380000000000001020304060708090000000035
:101390000102030402030405060708090A0B0C0DE9
:1013A0000E0F1010C81300080000002010000000ED
:1013B0005C130008D8130008100000204804000047
:1013C0006C13000800000000010000001000000085
:0813D0000024F40000000000FD
:04000005080000ED02
:00000001FF
