:020000040800F2
:100000002807002089010008D5200008451B0008AA
:10001000D120000825060008E920000800000000A3
:10002000000000000000000000000000DD200008CB
:100030002906000800000000D9200008E12000087F
:10004000A3010008A3010008A3010008A301000800
:10005000A3010008A3010008A3010008A3010008F0
:10006000A3010008A3010008A3010008A3010008E0
:10007000A3010008A3010008A3010008A3010008D0
:10008000A3010008A3010008A3010008A3010008C0
:10009000A3010008A3010008A3010008A3010008B0
:1000A000A3010008A3010008A3010008A3010008A0
:1000B000A3010008A3010008A3010008A301000890
:1000C000A3010008A3010008A3010008A301000880
:1000D000A3010008A3010008A3010008A301000870
:1000E000A3010008A3010008A301000800F002F822
:1000F00000F03AF80AA090E8000C82448344AAF188
:100100000107DA4501D100F02FF8AFF2090EBAE885
:100110000F0013F0010F18BFFB1A43F0010318473B
:100120001829000038290000103A24BF78C878C187
:10013000FAD8520724BF30C830C144BF04680C60ED
:10014000704700000023002400250026103A28BF35
:1001500078C1FBD8520728BF30C148BF0B60704739
:100160001FB51FBD10B510BD00F058F81146FFF7C0
:10017000F7FF01F0BBFF00F076F803B4FFF7F2FFE2
:1001800003BC00F07DF8000009488047094800479B
:10019000FEE7FEE7FEE7FEE7FEE7FEE7FEE7FEE737
:1001A000FEE7FEE704480549054A064B7047000094
:1001B000E5200008ED0000082801002028070020A5
:1001C00028030020280300204FF0000200B513464A
:1001D00094469646203922BFA0E80C50A0E80C5067
:1001E000B1F12001BFF4F7AF090728BFA0E80C5018
:1001F00048BF0CC05DF804EB890028BF40F8042B11
:1002000008BF704748BF20F8022B11F0804F18BF7D
:1002100000F8012B7047704770477047754600F033
:100220002BF8AE4605006946534620F00700854688
:1002300018B020B5FFF7B6FFBDE820404FF000062C
:100240004FF000074FF000084FF0000BAC46ACE851
:10025000C009ACE8C009ACE8C009ACE8C00921F0AD
:1002600007018D46704710B50446AFF30080204665
:10027000BDE81040FFF781BF004870471000002024
:1002800001491820ABBEFEE72600020070470000BF
:10029000F0B581B00446043000F032F910B101B07D
:1002A000F0BD00BFD4E9010702F094F80023C4F2C6
:1002B0005903002202F0A2F80026C3F6B06600221D
:1002C000334602F09BF801F0ABFF0546E06038468C
:1002D00002F080F80023C4F26903002202F08EF8D5
:1002E0000022334602F08AF80023CCF249030022B0
:1002F00001F0C8FF01F094FF44F2000106462061BE
:10030000C4F21C61284602F073FA00210546CCF2C3
:100310007A51304602F081FA4DF200010543C4F2F1
:100320000461304602F064FA284318BF012060706F
:1003300001B0F0BDF0B583B0282000F07DF940F2A7
:10034000840000244FF6FF76C2F200000DF109028E
:10035000702101238DF80940009600F051FB9DF8B3
:100360000900000700F1C880012000F065F940F2A3
:100370008405C2F20005BE270DF10A02284670214D
:1003800001238DF80A70009600F038FD282000F057
:1003900053F90DF109022846702101238DF8094017
:1003A000009600F02DFB9DF80900000700F1A480E5
:1003B000012000F041F940F28405C2F200054FF639
:1003C000FF760DF10A022846702101238DF80A708C
:1003D000009600F013FD282000F02EF900240DF106
:1003E00009022846702101238DF80940009600F08B
:1003F00007FB9DF8090000077ED440F28405BA206F
:10040000C2F200058DF80B000DF10B022846702199
:100410000123009600F0F2FC142000F00DF92820D2
:1004200000F00AF90DF109022846702101238DF828
:100430000940009600F0E4FA9DF8090000075BD43B
:10044000012000F0F9F840F28405C2F20005BE2751
:100450004FF6FF760DF10A022846702101238DF830
:100460000A70009600F0CAFC282000F0E5F800248D
:100470000DF109022846702101238DF809400096EC
:1004800000F0BEFA9DF80900000735D4012000F005
:10049000D3F840F28405C2F200050DF10A022846A5
:1004A000702101238DF80A70009600F0A7FC282027
:1004B00000F0C2F80DF109022846702101238DF8E1
:1004C0000940009600F09CFA9DF80900000713D43B
:1004D000BA208DF80B004FF6FF70009040F28400B8
:1004E000C2F200000DF10B0270210123012400F083
:1004F00085FC142000F0A0F8204603B0F0BD0000F9
:10050000F0B583B040F28405C2F2000540F2080263
:1005100004464FF6FF76C2F20002284670210323FC
:10052000009600F06BFC4B2000F086F800270DF1E0
:100530000B022846702101238DF80B70009600F005
:100540005FFA9DF90B00B0F1FF3F41DC4B2000F05A
:1005500073F840F28400C2F200000DF10B0270212A
:1005600001238DF80B70009600F04AFA9DF90B00FC
:10057000B0F1FF3F2CDC4B2000F05EF840F284002D
:1005800000254FF6FF77C2F200000DF10B0270213B
:1005900001238DF80B50009700F032FA9DF90B0003
:1005A000B0F1FF3F14DC4B2000F046F840F284002D
:1005B000C2F200000DF10B02702101238DF80B50E7
:1005C0000097012500F01CFA9DF90B00002826D4A5
:1005D000052000F031F840F28400C2F200000DF175
:1005E000050270210623009600F00AFA9DF8071014
:1005F0009DF806009DF8082009029DF8093041EA9F
:1006000000404FF4702710449DF80A1007EA024298
:1006100042EA0322000911440025C4E900012846EA
:1006200003B0F0BDFEE7000070470000EFF310805C
:1006300072B600BFFEE70000B0B5044600F01EF938
:10064000054640F20000C2F200000078611C18BFAD
:10065000044400BF00F012F9401BA042FAD3B0BD21
:100660002DE9F04F82B00E68002E00F0038141F2B8
:100670000042C4F20102042340F2004E904208BF3F
:1006800003234FF6FF7CC4F2010E009300240123E4
:10069000C1F2100C4FF0000A4FF0000949E000BF12
:1006A000012704F00C030F229A402BEA020207FAFA
:1006B00003F34FEA9A051A4346F82520D1F804B00F
:1006C00040F20C455FEACB22DEF8082054BF22EA54
:1006D000080242EA0802C4F20105CEF808202A689E
:1006E0005FEA8B2354BF22EA080242EA08022A602A
:1006F0005FEA8B33DEF8042054BF22EA080242EAA4
:1007000008025FEACB33CEF80420DEF800204FF079
:10071000010354BF22EA080242EA0802CEF8002090
:100720000E680AF1010A36FA0AF204F1040400F034
:10073000A18003FA0AF816EA080FF1D04E68664560
:1007400012DC122E56D8DFE806F0350B4549555518
:1007500055555555555555555555554D510000BF95
:10076000D1F80C9046E000BF4FF6FF72C1F22102B3
:1007700096420FDC0022C1F2110296421AD00022EA
:10078000C1F21202964215D00022C1F22102964215
:1007900010D02FE00022C1F2220296420AD000229D
:1007A000C1F23102964205D00022C1F232029642D5
:1007B00020D100BF8A684AB1012A14BFC0F8148052
:1007C000C0F810804FF0080914E000BF4FF0040992
:1007D00010E000BFCA6802F108090BE04FF0000901
:1007E00008E000BFCA6802F1040903E0CA6802F128
:1007F0000C0900BF22460646BAF1080F24BF203A72
:10080000043637680F25954027EA050509FA02F2F4
:100810002A433260CA79D2067FF582AF41F21803CB
:10082000C4F202031A68AEF57E7642F001021A6045
:100830001A6802F001020192019A2AF0030256F8A6
:1008400002B040F60002C4F20102904210D040F61D
:100850000042C4F2010290423FF422AF41F2000292
:10086000C4F20102009F904208BF022719E700BFAF
:10087000002716E702B0BDE8F08F000040F220101C
:10088000C2F200000068704770B5B8B3044690F833
:100890003D0028B9002084F83C00204600F098FB79
:1008A000242084F83D002068016821F001010160E6
:1008B000016841F400410160016821F400410160D8
:1008C00000F03CFD48F28041C0F21E0140F60013EA
:1008D000D4F804E088424FF00001C0F23D0348F232
:1008E000A16C4FF0000238BF01219842C0F2010C08
:1008F00038BF0122E64538BF0A460AB1012070BD63
:100900004DF68361C4F21B31A0FB01122168950CE6
:100910004B684FF4967623F03F0343EA92437543C6
:1009200044F6D3564B60C1F262060B6AA5FB06562D
:10093000B50923F03F03E64538BF950C6A1C1A43FE
:100940000A62CA6948F2A0664CF6FF73C0F201065B
:10095000B64522EA03020BD801384FEA4E03B0FB3A
:10096000F3F001306FF31F30042898BF04201EE01D
:10097000A368013863B119230EFB03F3B0FBF3F056
:1009800001306FF31F3078B100F5804008E000BF00
:100990000EEB4E03B0FBF3F001306FF31F3028B1C4
:1009A00000F5004003E000BF012000E001201043FB
:1009B000C8610868D4E9072320F0C0001043184339
:1009C0000860886848F2FF3204F10C0690434CCE70
:1009D00018431043A5698860C86820F0FF003043C1
:1009E0002843C860086840F001000860002020210A
:1009F000206484F83D10206384F83E0070BD000040
:100A00002DE9F04784B0044600201F46164689466B
:100A10000290FFF733FF94F83D10202920D10546BE
:100A2000206800BF8169890716D5FFF727FF411BA2
:100A300020681A29F6D381698907F3D5002020217F
:100A4000206384F83D1084F83E00216C41F02001C1
:100A5000216484F83C0003E094F83C10012903D1A0
:100A6000022004B0BDE8F087012184F83C10016841
:100A7000C90703D1016841F0010101600168DDF897
:100A8000308021F400610160222184F83D101021A2
:100A900084F83E100021216466626785618D02271B
:100AA000C0F201072185A7F10211E162E16A026843
:100AB00011F5803F42F48062026018BF01293DD1E8
:100AC000016841F48071016020464FF0011100225D
:100AD0004346009501F098F850B120680068C005C1
:100AE00044BF4FF400702064012004B0BDE8F087DB
:100AF0002069B0F5804F27D149F00100C0B22168CC
:100B000042460861204639462B4601F067F9002825
:100B1000EAD1208D02284BD001285FD0002840F078
:100B200073800020039020684169039181690391DB
:100B30000399016841F40071016071E00829BFD098
:100B4000216B1129BCD0BFE7062000EAD916206826
:100B500006F1F0010161B91D204642462B4601F025
:100B60003DF90028C0D120685FFA89F10161204673
:100B7000394642462B4601F031F90028B4D1002015
:100B800003902068002241694346039181690391E3
:100B90000399016841F48071016020464FF0011112
:100BA000009501F031F8002897D146F0F100A6E752
:100BB0002068016841F400610160EFF3108072B6B3
:100BC0000020039020684169039181690391039992
:100BD000016821F48061016062B621E0206801684B
:100BE00021F480610160EFF3108072B60020039061
:100BF000206841690391816903910399016841F477
:100C00000071016062B60BE02068016841F4806108
:100C10000160002103914169039180690390039869
:100C2000208D002800F0CC8040F20C094BF2895A4C
:100C30000237C2F20009C1F2F84A23260EE000BFD3
:100C400010690870606A218D01306062481E20853D
:100C5000618D01396185010400F0B28080B2032802
:100C60000CD802282CD001284AD1204641462A46D9
:100C700001F024F9002800F09F8035E72046414626
:100C80002A4601F01BF900287FF42EAF2068616A24
:100C900000690870606A2268411C208D6162013819
:100CA0002085638D013B638553695B07D3D580B293
:100CB0000328C5D1106820F480601060C0E700BF31
:100CC0002046394600224346009500F09DFF00284B
:100CD0007FF40AAFEFF3108072B62068616A026891
:100CE00042F40072026000690870606A218D013070
:100CF0006062481E2085608D0138608562B65BE0C9
:100D00002046394600224346009500F07DFF00282A
:100D10007FF4EAAE2068016821F480610160EFF39E
:100D2000108072B62068616A00690870606A218D5F
:100D30000130013960622185618D01396185D9F801
:100D40000010C908A1FB0A12110A7143029102990D
:100D500001390291029900293ED021684A6952075F
:100D60001AD40299013902910299A9B321684A69FA
:100D7000520711D4029901390291029961B3216895
:100D80004A69520708D4029901390291029919B3AC
:100D900021684A695207DAD50A6842F400720A608B
:100DA00009690170606A218D01306062481E2085EA
:100DB000608D0138608562B62068616A006940E72D
:100DC000202084F83D00002084F83E0084F83C0098
:100DD00004B0BDE8F08700BF00202021206384F824
:100DE0003D1084F83E00216C41F02001216462B680
:100DF00084F83C00012004B0BDE8F0872DE9F04301
:100E000083B01E46174689460446FFF737FD94F81F
:100E10003D10202920D10546206800BF816989073F
:100E200016D5FFF72BFD411B20681A29F6D38169DF
:100E30008907F3D500202021206384F83D1084F831
:100E40003E00216C41F02001216484F83C0003E065
:100E500094F83C10012903D1022003B0BDE8F083CF
:100E6000012184F83C100168C90703D1016841F0F1
:100E700001010160016840F2020821F40061016093
:100E8000212184F83D10102184F83E1000212164B6
:100E900067626685618DC0F201082185A8F10211A3
:100EA000E162E16A0A9E11F5803F18BF01291DD158
:100EB000016841F48071016020464FF00111002269
:100EC0003346009500F0A0FE50B120680068C005D0
:100ED00044BF4FF400702064012003B0BDE8F083EC
:100EE0002069B0F5804F07D1FE2015E00829DFD03A
:100EF000216B1229DCD0DFE7062000EAD910216837
:100F0000F030086108F10601204632462B4600F019
:100F100065FF0028E0D1FF20216800EA0900086190
:100F20002046414632462B4600F058FF0028D3D1D8
:100F30000020029020684169029180690290029825
:100F400006E000BF204631462A4600F0FDFD18BBF2
:100F5000208D68B3204631462A4600F0F7FFD8B905
:100F6000606A2168024612F8013B0B616262628D81
:100F7000013A6285228D531E23854F697F07E1D593
:100F80001B04DFD0437802300B616062608D013852
:100F90006085901E2085D5E7206C04289CD12068B0
:100FA000016841F400710160012003B0BDE8F083E5
:100FB0002068016841F400710160202084F83D0040
:100FC000002084F83E0084F83C0003B0BDE8F083C4
:100FD00010B586B045F200410068C4F2000100225D
:100FE0008842049202D006B010BD00BF41F218043E
:100FF000C4F20204206840F008002060206800F07D
:10100000080001900198C020029012200390032054
:10101000059001F5384002A9FFF722FB606840F413
:1010200000106060606800F400100190019806B044
:1010300010BD000040F2000040F22011C2F200009A
:10104000C2F2000100780A6810440860704700008E
:1010500080B542F20000C4F20200016841F01001C4
:101060000160032000F07AF80F2000F005F800F08E
:1010700027F8002080BD000070B540F20006C2F2E3
:10108000000640F20C013278C2F200014FF47A738C
:101090000968B3FBF2F20446B1FBF2F1084600F036
:1010A0004FFB0F2C4FF0010508D838B94FF0FF3037
:1010B00021460022002500F025F87460284670BD06
:1010C00082B041F21800C4F202000168022241F02D
:1010D00001010160016801F001010191019941687C
:1010E00041F080514160406800F0805000900098CD
:1010F0000420C4F20100016862F31A61016002B0C9
:101100007047000010B54EF60C5CCEF2000CDCF817
:101110000030C3F3022E8EF00704042C28BF0424F1
:10112000BEF103034FF0FF3E0EFA04F438BF002374
:10113000A14399400EFA03F39A43114300F00F02C2
:1011400000F160430901043A03F564436244002856
:1011500048BF02F10C03197010BD00004EF60C518F
:10116000CEF200010A684FF6FF031A4060F30A222C
:1011700042F0806040F0FD70086070472DE9F04358
:1011800081B0002800F0858042F20008C4F2020815
:101190000446D8F800000D4600F0070088420CD243
:1011A000D8F8000020F007002843C8F80000D8F85D
:1011B000000000F00700A8426BD1206841F204094A
:1011C0008107C4F2020917D5410705D5D9F80010E7
:1011D00041F4E061C9F80010010705D5D9F8001005
:1011E00041F46051C9F80010D9F80010A26821F04C
:1011F000F0011143C9F80010C00741D1D8F8000030
:1012000000F00700A8420CD9D8F8000020F0070031
:101210002843C8F80000D8F8000000F00700A842F2
:1012200037D12068410707D5D9F80010E26821F4CA
:10123000E0611143C9F80010000708D5D9F8000093
:10124000216920F4605040EAC100C9F80000D9F8D3
:10125000002002F00C00082841F20020C0F27A00C1
:1012600050D142F62823C2F38341C0F60003595CF3
:10127000D2033BD440F60010C0F23D00484341E0A9
:10128000606802280AD001282AD159F8041C890371
:1012900008D4012001B0BDE8F08300BF59F8041C58
:1012A0008901F6D5D9F8001021F003010843C9F8E7
:1012B0000000FFF7E3FA064641F28837D9F800004C
:1012C000616800F00C00B0EB810F97D0FFF7D6FA01
:1012D000801BB842F2D9032001B0BDE8F08300BF03
:1012E00059F8041C8907D4D5DCE700BFD9F80020E1
:1012F00042F62623C2F34042C0F600039A5C4843FC
:10130000B0FBF2F0D9F8001042F60E22C1F303113F
:10131000C0F60002515C40F20C0220FA01F140F2EA
:101320000400C2F200000068C2F200021160FFF780
:10133000A3FE002001B0BDE8F083000040F20C00E5
:1013400041F20401C2F20000C4F20201006809681F
:1013500042F61E22C1F30221C0F60002515CC840D1
:101360007047000040F20C0041F20401C2F200009C
:10137000C4F202010068096842F61E22C1F3C221CC
:10138000C0F60002515CC840704700002DE9F041F2
:1013900082B0002868D00446007841F20006C007F9
:1013A000C4F2020625D0706800F00C0004281BD09F
:1013B000706800F00C00082802D17068C00313D4D4
:1013C0006068002800F06881B0F5A02F00F07C81F3
:1013D000B0F5803F00F07C81306820F480303060D0
:1013E000306820F4802076E13068800301D56068A1
:1013F000D0B32078800718D5706810F00C0F07D094
:10140000706800F00C0008286ED17068C0036BD4BF
:101410003068800702D52069012825D130686169CC
:1014200020F0F80040EAC1003060207800071FD4A7
:101430002078400732D4E56995B1706800F00C005F
:10144000082840F08F80012D0ED07068216A00F4CA
:1014500080328A4208D1616A00F47010884203D158
:10146000002002B0BDE8F081012002B0BDE8F081AB
:10147000A069002862D00020C4F242200121C0F8F7
:101480008014FFF7FBF90546706A800700F18C8035
:10149000FFF7F4F9401B0228F6D92AE1F06910F0B1
:1014A000805808D1F06940F08050F061F06900F098
:1014B00080500090009847F20007C4F20007386897
:1014C000C00529D4386840F480703860FFF7D6F939
:1014D000054600BF3868C0051ED4FFF7CFF9401B92
:1014E0006428F7D905E100BF2069002840F2000018
:1014F000C4F2422000F0828001210160FFF7BEF9B2
:10150000054600BF306880073FF588AFFFF7B6F9A2
:10151000401B0228F6D9ECE0E068002800F080804B
:10152000052800F09780012800F09880306A20F0AC
:1015300001003062306A20F0040092E00020C4F222
:1015400042200021C0F88014FFF798F9054600BF3B
:10155000706A80077FF56CAFFFF790F9401B022897
:10156000F6D9C6E00027C4F2422700203866FFF70C
:1015700085F9022D05460BD13068800140F1BE800F
:10158000FFF77CF9401B02284FF00300F4D968E70D
:10159000306880017FF564AFFFF770F9401B0228C7
:1015A0004FF00300F4D95CE740F20C00C2F20000F7
:1015B000006844F6D351C1F26201A0FB0101480A60
:1015C000019000BF00BF0198411E002801913FF427
:1015D0002FAF00BF0198411E002801913FF428AFB2
:1015E00000BF0198411E002801913FF421AF00BFC8
:1015F0000198411E00280191E4D119E70021016002
:10160000FFF73CF9054600BF306880077FF50DAF56
:10161000FFF734F9401B02284FF00300F4D920E70C
:10162000306A20F001003062306A20F0040030623D
:10163000FFF724F9054641F2883700BF306A80077A
:1016400020D5FFF71BF9401BB8424FF00300F5D936
:1016500007E700BF306A40F004003062306A40F0B3
:1016600001003062FFF70AF9054641F2883700BFF2
:10167000306A800706D4FFF701F9401BB842F7D95A
:1016800037E000BFB8F1000F7FF4D5AEF06920F06D
:101690008050F061CFE600BF306820F480303060C9
:1016A000306820F480203060FFF7E8F8054600BF7E
:1016B000306880037FF59DAEFFF7E0F8401B64289B
:1016C0004FF00300F4D9CCE6306840F4802030605D
:1016D000306840F480303060FFF7D0F8054600BF36
:1016E000306880033FF585AEFFF7C8F8401B6428DB
:1016F000F6D9032002B0BDE8F08100BF206AB0F542
:10170000803F05D17168A26821F4003111437160F6
:101710007168626A21F474111143084370600120FA
:101720003866FFF7ABF80446306880013FF598AEA5
:10173000FFF7A4F8001B02284FF00300F4D990E64D
:10174000411E0020B0EB116F1CBF012070474EF20C
:101750001002CEF2000251604EF62351CEF200018B
:10176000F0230B700721906011607047002804BFC0
:101770000120704710B5044690F8410028B90020B8
:1017800084F84000204600F063F8242084F84100EB
:101790002068D4E90212C36823F40053C3600369CC
:1017A00023F440531A430261D4E904231143C2686D
:1017B000194341F20C639A431143C1604169A26924
:1017C00021F44071114343F60002C4F20102904239
:1017D000416103D0FFF7B2FD02E000BFFFF7C2FD99
:1017E0006268192148439100B0FBF1F048F21F51A3
:1017F000C5F2EB11A0FB01235A094FF69C73C0F60A
:10180000FF7302FB0300322303EB0010A0FB010176
:10181000F02303EA5113206803EB0212C1F34311D2
:1018200011448160016921F490410161416921F015
:101830002A014161C16841F40051C16000202021AA
:10184000606484F8411084F84210606310BD0000A9
:1018500070B586B040F60004C4F20104006804F5D7
:10186000405100268842049602D006B070BD00BFE9
:1018700041F21800C4F20200016802AD41F4804157
:101880000160016801F4804101910199016841F012
:10189000040101600068294600F0040001900198ED
:1018A0004FF4007002900220039003200590204620
:1018B000FEF7D6FE4FF48060CDE9020620462946A9
:1018C0000496FEF7CDFE06B070BD00002DE9F04392
:1018D00081B0044690F84100202840F0B18088464D
:1018E00000294FF0010000F0D6801646002A00F0D3
:1018F000D2800020606421201D4684F84100FEF75C
:10190000BDFFA684E684A1680646B1F5805F03D1D9
:101910002069002800F0988047464FF00008E18CCD
:101920002068002900F0968005F101090BE000BF56
:1019300047B317F8011B4160E18C0139E184E18C68
:10194000002900F0878001680906F1D4B9F1000F81
:101950000AD0EDB1FEF792FF801BA84218D820688C
:1019600001680906F6D5E3E701680906E0D40168D5
:1019700009065CBF01685FEA0161D9D40168090604
:10198000F2D5D5E738F8021B00276FF35F21D2E7C5
:10199000206850E8030F216820F4D07041E803026A
:1019A000BAB3206850E8030F216820F4D07041E8F2
:1019B000030272B3206850E8030F216820F4D0704E
:1019C00041E803022AB3206850E8030F216820F49D
:1019D000D07041E80302002ADAD11AE0206850E80A
:1019E000050F216820F0010041E80502DAB1206806
:1019F00050E8050F216820F0010041E8050292B18E
:101A0000206850E8050F216820F0010041E8050238
:101A10004AB1206850E8050F216820F0010041E834
:101A20000502002ADAD1202084F8410084F842001F
:101A3000002084F84000032001B0BDE8F08300BF1F
:101A4000022001B0BDE8F0830027E18C2068002966
:101A50007FF46AAF0168490619D4FDB1691C0DD144
:101A60000168490613D4016849065CBF01685FEA52
:101A700041610CD401684906F2D508E0FEF7FEFE8C
:101A8000801BA8420AD8206800684006F6D52020AE
:101A900084F84100002001B0BDE8F083206850E8E0
:101AA000030F216820F4D07041E80302002A3ED0E1
:101AB000206850E8030F216820F4D07041E8030249
:101AC000AAB3206850E8030F216820F4D07041E8E1
:101AD000030262B3206850E8030F216820F4D0703D
:101AE00041E80302002AD9D121E000BF206850E874
:101AF000050F216820F0010041E80502002A3FF4AB
:101B000092AF206850E8050F216820F0010041E8FD
:101B10000502002A3FF487AF206850E8050F2168CE
:101B200020F0010041E80502002A3FF47CAF206864
:101B300050E8050F216820F0010041E80502002A65
:101B4000D4D170E7FEE7000070B50368044653F88F
:101B5000140F400711D40E46481C29D086BB00BF85
:101B60001868400527D4FEF789FE236853F8140F40
:101B7000400739D518684007F2D5002070BD00BF76
:101B800018684007F9D41868400514D4186840074D
:101B9000F3D4186840050ED418684007EDD41868CF
:101BA000400508D4186840074FF0000048BF70BDDA
:101BB00018684005E4D56FF480601860042014E0D4
:101BC000154603E053F8140F4007D6D418684005B3
:101BD000F1D4FEF753FE401B2368B042F2D9586996
:101BE0004007EFD4202000E02020002120222163A4
:101BF00084F83D2084F83E10226C104320640120BC
:101C000084F83C1070BD00002DE9F04105460068E5
:101C10001E46144601F47F0201338FB242D0DDF834
:101C20001880B2F5803F40F0878040693840C01B83
:101C3000B0FA80F04009A04240F0C8804EB924E0DC
:101C400040693840C01BB0FA80F04009A04240F023
:101C5000BD80FEF713FEA0EB08012868B142EFD962
:101C600041693940C91BB1FA81F14909A142E7D163
:101C70009BE000BF40693840C01BB0FA80F04009CB
:101C8000A0424FF0000040F0A680FEF7F7FD286864
:101C900041693940C91BB1FA81F14909A142E9D131
:101CA00083E000BFB2F5803F24D100BF41693940D5
:101CB000C91BB1FA81F14909A14240F0878041690D
:101CC0003940C91BB1FA81F14909A14240F07E8037
:101CD00041693940C91BB1FA81F14909A14275D165
:101CE00041693940C91BB1FA81F14909A142DDD0EE
:101CF0006CE000BF81693940C91BB1FA81F1490923
:101D0000A14263D181693940C91BB1FA81F1490906
:101D1000A1425BD181693940C91BB1FA81F14909FE
:101D2000A14253D181693940C91BB1FA81F14909F6
:101D3000A142DFD04AE000BF80693840C01BB0FA42
:101D400080F04009A04241D146B923E08069384083
:101D5000C01BB0FA80F04009A0423BD1FEF78EFDD7
:101D6000A0EB08012868B142F0D981693940C91B4C
:101D7000B1FA81F14909A142E8D116E08069384001
:101D8000C01BB0FA80F04009A0424FF0000018BF1D
:101D9000BDE8F081FEF772FD286881693940C91BF2
:101DA000B1FA81F14909A142E8D10020202128633C
:101DB00085F83D1085F83E00296C41F0200129642A
:101DC00085F83C000120BDE8F08100BF0020BDE89F
:101DD000F08100BF0020BDE8F0810000F0B581B0C7
:101DE000044600681D4643698FB203EA0701B94201
:101DF00002D1002001B0F0BD41691646013201F464
:101E0000806125D0002940D1CEB100BFFEF736FD5C
:101E1000411B2068B14203D941693940B9424BD1D5
:101E200041693940B942E4D041694905EED52CE019
:101E300041693940B942DCD04169490525D4FEF7F2
:101E40001DFD206841693940B942F1D0202024E0CD
:101E5000D9B941693940B942CBD04169490514D457
:101E600041693940B942C4D0416949050DD441693D
:101E70003940B942BDD04169490506D4416939406C
:101E8000B942B6D041694905E3D5016841F4007112
:101E900001606FF4806141610420002120222163F0
:101EA00084F83D2084F83E10226C1043206484F8AE
:101EB0003C10012001B0F0BD2020EEE770B50446D3
:101EC0000068154650F8143F5A063DD40E4629B90D
:101ED00026E000BF50F8141F490635D40168C90632
:101EE00021D4FEF7CBFC411B2068B142F2D94169F5
:101EF0004906EFD400202021206384F83D1084F8A7
:101F00003E00206C40F0200018E000BFFEF7B6FC59
:101F1000206850F8141F4906ECD50168490613D40F
:101F20000168C906F2D56FF0100101600020202180
:101F3000206384F83D1084F83E00206C206400206B
:101F400084F83C00012070BD002070BD70B50368AE
:101F5000044653F8140F000611D40E46481C29D02D
:101F600086BB00BF1868400527D4FEF787FC2368AE
:101F700053F8140F000639D518680006F2D5002072
:101F800070BD00BF18680006F9D41868400514D465
:101F900018680006F3D4186840050ED418680006C7
:101FA000EDD41868400508D4186800064FF000000A
:101FB00048BF70BD18684005E4D56FF480601860B4
:101FC000042014E0154603E053F8140F0006D6D49D
:101FD00018684005F1D4FEF751FC401B2368B0425D
:101FE000F2D958690006EFD4202000E0202000211B
:101FF0002022216384F83D2084F83E10226C104397
:102000002064012084F83C1070BD000083B041F2D0
:102010001800C4F20200016841F02001016001686B
:1020200001F0200102910299016841F00401016070
:10203000016801F0040101910199016841F0080172
:102040000160006800F008000090009803B070473D
:1020500080B540F2840045F20041C2F20000C4F2B3
:10206000000148F2A06200234FF4804CC0F201024C
:1020700080E80E00C0E9033CC0E90533C0E907333E
:10208000FEF702FC002808BF80BDBDE88040FEF7D7
:10209000CDBA000080B540F2D80043F60001C2F28C
:1020A0000000C4F2010100234FF00C0C4FF4E132A8
:1020B00080E80E00C0E90333C0E905C3C361FFF740
:1020C00055FB002808BF80BDBDE88040FEF7AEBAD2
:1020D000FEE70000FEE700007047000070470000C8
:1020E000FEF7A8BF70470000FEE7000090B0FEF7C3
:1020F000AFFF06AC201D2421FEF766F802200690F3
:1021000001200A9010200B90002520460D95FFF726
:102110003DF928B1EFF3108072B600BFFEE700BFB3
:102120000F20CDE9010501A80021CDE90355059552
:10213000FFF724F820B1EFF3108072B6FEE700BF7E
:102140004FF6FF74C0F20F04FFF760FFFFF780FF48
:10215000FFF7A0FFFEF7EEF860B140F27000C2F2A8
:1021600000000021017040F2D800C2F2000016A168
:102170001D220BE040F27000C2F20000012101704C
:1021800040F2D800C2F2000017A120222346FFF738
:102190009DFB4FF47A70FEF74FFA40F2700540F263
:1021A000D806C2F20005C2F2000618A72846FEF7BC
:1021B0006FF83046394612222346FFF787FB4FF46B
:1021C000FA60FEF739FAF1E7414854323020496E9F
:1021D000697469616C697A6174696F6E206661699E
:1021E0006C65640D0A000000414854323020496E8D
:1021F000697469616C697A6174696F6E2073756363
:102200006365656465640D0A00000000776F6361B3
:102210006F6E696D616D61696D6170690D0A0000B5
:1022200021F0004201F00043A2F16052B2F5801F9C
:1022300028BFD2F17F6C0BD95FEA001C43EAC202CF
:1022400042EB507018BF704728BF20F00100704764
:10225000B2F5801FBCBF184670474FEA410C1CF511
:10226000001F02D2084600F0CDBB70B500F070F937
:1022700000000089FFF7F6BF4FF00040A0F5800096
:102280007047000010B591EA030F48BF83F0004388
:1022900000F1BA81841A71EB030C05D2121943EBD9
:1022A0000C03001B61EB0C014FEA1154A4EB135C0F
:1022B000DFF81CE11EEA430F18BF9EEA445F00F0FE
:1022C000748021EA045123EA0E0343F48013DCF105
:1022D000200E32D322FA0CFE10EB0E0023FA0CFE75
:1022E00041EB0E01CCF1200E03FA0EFE10EB0E00B6
:1022F000CCF1200E51F10001B1F5801F32D201EB7B
:10230000045112FA0EF2BDE8104058BF7047401C4D
:1023100038BF5FEA420218BF7047002814BF20F0A0
:10232000010041F100014FEA410313F5001F38BFDE
:102330007047A1F1C04100F059B9012A43EB0302F3
:10234000ACF1200CDCF11F0E32BF4FF0000E23FA6F
:102350000CF310EB030041EB0451B4EB115FD0D050
:10236000A1EB045101F58011490801EB04515FEA2A
:1023700030000ED350F1000038BF12FA0EFE08D123
:10238000BDE81040C9E7401C38BF5FEA4202CAD12D
:10239000C3E7BDE810404FEA410313F5001F38BF03
:1023A0007047A1F1C04100F021B99EEA445F08D016
:1023B00011EA5E0FBDE8104004BF01F000410020AB
:1023C0007047BDE8104070B500F0C2F864FBBE3E37
:1023D0000000E0FFB0FA80F310FA03F10AD0C3F175
:1023E0001D0303F580634FEA03524FEA415002EBAD
:1023F000D12170474FF000007047000070B5DFF842
:1024000048C11CEA111E1EBF1CEA13159EEA0C0FE0
:1024100095EA0C0F00F06F8081EA03044EEAD47E47
:10242000AE4421EA4C1123EA4C1341F4801143F4E9
:102430008013AEF17F7EA1FB024CA0FB0365361931
:1024400055EB0C05A1FB034C4CF10003A0FB021C57
:1024500016EB0C06654153F10003094218BF46F024
:10246000010613F4007F0BD14FEA03314FEA053028
:1024700041EA155140EA165034036FF003020AE0B6
:102480004FEAC3214FEAC52041EA555140EA565070
:10249000F4026FF0020202EB2E4201EB025585EAD4
:1024A000CE710AD05FEA440C18BF24F0004450F10A
:1024B000000041F1000120EAD47040F2FE7C624548
:1024C00000D270BDA84214BF4FF080444FF040448A
:1024D000002E08BF0024BEF1806FA8BFA1F1C0414B
:1024E000BDE8704080F2828001F1C04101F00041FE
:1024F0004FF0000070470CEA13159EEA0C0F18BF4E
:1025000095EA0C0F06D081EA030E4FF000000EF0A2
:10251000004170BD00F01CF88900013E00F007B8D2
:1025200000F009B84FEA430C5FEA5C5C08D081EA2E
:10253000030100F05BB84FEA410C5FEA5C5CF6D146
:1025400002494FF0000070470000FF070000F87FCD
:102550000EF1020E2EF0030E5EF8046B364205D427
:10256000012A43EB030515F5001F12D8012841EBA2
:10257000010C1CF5001F0CD80ED14FEAD17C0CEBDE
:102580004C0C0CF1020C15F5001F08BF4CEBD37C72
:1025900004E04FF0080C01E04FEAD37C0CEB4C0553
:1025A00026FA05F606F00706B6F1040C06D20EEB85
:1025B000860CBDE870404CF0010C6047DFE80CF081
:1025C000090B02024FF00041A1F500214FF000007D
:1025D00070BD19461046012851EB010418BFD4F50F
:1025E000001484BF002001F0004170BD0808A0F570
:1025F00000114FEA3101704710B591EA030F48BF4F
:1026000083F000433FF546AE841A71EB030C07D20A
:102610008CF0004C121943EB0C03001B61EB0C0116
:102620004FEA1154A4EB135CDFF8A4E11EEA430F58
:1026300018BF9EEA445F00F0B48021EA045123EA07
:102640006E035242C3EB6E0338BF5B1EDCF1200EFB
:1026500025D322FA0CFE10EB0E0043FA0CFE41EBE0
:102660000E01CCF1200E03FA0EFE10EB0E00CCF1A1
:10267000200E51F1000129D401EB045112FA0EF29F
:10268000BDE8104058BF7047401C1CBFB2F1004F5E
:10269000704700280CBF491C20F00100704712EB66
:1026A000020E43EB030218BF4FF0010E4EEA420246
:1026B000ACF1200CDCF11E0E56D943FA0CFE10EBE7
:1026C0000E00CCF11E0E51F1FF31D5D50EF1010EE9
:1026D00012FA0EFE404141EB010101EB445C5FEA5E
:1026E0005C5C10D901EB045110EBDE7038BFBEF119
:1026F000004FBDE8104018BF704700280CBF491CB0
:1027000020F00100704734D24FEAD42C24F4006446
:1027100011F500111BD0B1FA81F20B3AA41AA41ED4
:10272000D2F12003914030FA03F31943904001EBBA
:10273000CC7101EB0451002CBDE81040A8BF7047DC
:1027400001F1C04101F000414FF000007047B0FAC4
:1027500080F310FA03F102D1BDE810407047E41A8B
:10276000173C4805C90AE2E701EB0451BDE81040F7
:10277000704749104FEA300001EB0451BDE81040AA
:1027800002E04FF0000170474A0008BF0042F8D055
:10279000B2F5001F28BF704701F000414FF0000064
:1027A00070479EEA445F07D011EA5E0FBDE8104013
:1027B00004BF002100207047BDE8104070B5FFF74E
:1027C000C7FE00BF40DFF63E104683F00041704771
:1027D0000000E0FF10B500F033F80CBF012000202E
:1027E00010BD10B500F02CF814BF0120002010BD62
:1027F00010B500F059F88CBF0120002010BD10B5B5
:1028000000F052F82CBF0120002010BD10B500F0E0
:102810007FF894BF0120002010BD10B500F078F8BB
:1028200034BF0120002010BD401058BFC0F140400F
:10283000491058BFC1F140418142EFF30080704719
:1028400050EA010C00F113801CF5000F58BFBCF5D5
:10285000000F01D48842704707D710F5000F58BF0A
:1028600011F5000F15D488427047894270471CF556
:10287000000F04D5BCF5000FF7D5814270474FF02B
:10288000807C1CEB400F38BF1CEB410F01D2814212
:10289000704710B500F070F8922449004FF00050D6
:1028A0004FF08051FFF7C0BF50EA010C00F11380D8
:1028B0001CF5000F58BFBCF5000F01D488427047CB
:1028C00007D710F5000F58BF11F5000F15D4884237
:1028D0007047894270471CF5000F04D5BCF5000F06
:1028E000F7D5814270474FF0807C1CEB400F38BF1A
:1028F0001CEB410F01D28142704710B500F03CF84B
:10290000922449004FF080504FF00051FFF78CBFE8
:1029100050EA010C00F113801CF5000F58BFBCF504
:10292000000F01D48842704707D710F5000F58BF39
:1029300011F5000F15D488427047894270471CF585
:10294000000F04D5BCF5000FF7D5814270474FF05A
:10295000807C1CEB400F38BF1CEB410F01D2814241
:10296000704710B500F008F8922449004FF000506D
:102970004FF08051FFF758BF0EF1020E2EF0030EFC
:102980005EF8044B244204D44FEA4102B2F17F4F77
:1029900011D84FEA4003B3F17F4F0CD80ED14FEA64
:1029A000D07C0CEB4C0C0CF1020CB2F17F4F08BF49
:1029B0004CEBD17C04E04FF0080C01E04FEAD17CF5
:1029C0000CEB4C0324FA03F404F00704B4F1040CF8
:1029D00006D20EEB840CBDE810404CF0010C6047B1
:1029E000DFE80CF0070802024FF00040A0F580007D
:1029F00010BD0846420018BFD2F1807288BF00F0B7
:102A0000004010BDFF2141EAD050C00570470000D2
:102A1000000000000000010203040607080900008E
:102A2000000001020304010202030405060708096D
:102A30000A0B0C0D0E0F1010582A00080000002081
:102A40001000000028010008682A0008100000207B
:102A500018070000440100080100000010000000F9
:082A6000AC3300000024F40077
:04000005080000ED02
:00000001FF
