:020000040800F2
:10000000D8090020C10100089927000839210008FB
:1000100095270008650E0008B530000800000000B4
:10002000000000000000000000000000A9300008EF
:10003000690E000800000000A5300008AD3000087F
:10004000DB010008DB010008DB010008DB01000820
:10005000DB010008DB010008DB010008DB01000810
:10006000DB010008DB010008DB010008DB01000800
:10007000DB010008DB010008DB010008DB010008F0
:10008000DB010008DB010008DB010008DB010008E0
:10009000DB010008DB010008DB010008DB010008D0
:1000A000DB010008DB010008DB010008DB010008C0
:1000B000DB010008DB010008DB010008DB010008B0
:1000C000DB010008DB010008DB010008DB010008A0
:1000D000DB010008DB010008DB010008DB01000890
:1000E000DB010008DB010008DB01000800F002F87A
:1000F00000F057F80AA090E8000C82448344AAF16B
:100100000107DA4501D100F04CF8AFF2090EBAE868
:100110000F0013F0010F18BFFB1A43F0010318473B
:10012000784C0000984C00000A4410F8014B14F081
:100130000F0508BF10F8015B240908BF10F8014B38
:100140006D1E05D010F8013B6D1E01F8013BF9D181
:10015000641E03D0641E01F8015BFBD19142E4D31D
:10016000704700000023002400250026103A28BF15
:1001700078C1FBD8520728BF30C148BF0B60704719
:10018000662904F09881002070471FB500F02AFB13
:1001900004000020002103F055FDE0601FBD10B5F4
:1001A00010BD00F01FFC1146FFF7EFFF03F0B4F89D
:1001B00000F03DFC03B4FFF7F2FF03BC00F080FC4D
:1001C0000948804709480047FEE7FEE7FEE7FEE7EB
:1001D000FEE7FEE7FEE7FEE7FEE7FEE70448054927
:1001E000054A064B70470000B1300008ED000008DA
:1001F000D8030020D8090020D8050020D805002009
:100200000FB41CB5074B06AA7B44694600900598BD
:1002100000F0CFFA0020694600F0DEFA1CBC5DF861
:1002200014FB0000CD0500002DE9F0474FF0000A57
:1002300089460446C0F820A02046E1688847002887
:1002400076D0252806D0D4E901219047206A401CA9
:100250002062F1E7E168204600258847C4F81CA029
:1002600006460027C4F818A02A2E09D0304603F00D
:10027000E1FC38B304EB8708303EC8F8186019E099
:1002800059F8041B204604EB87029161E168884716
:10029000012F064618D1E069002820DA25F0200554
:1002A0001DE0D8F8180000EB800006EB4000303865
:1002B000C8F818002046E1688847064603F0BAFCF3
:1002C0000028EED1012F0AD02E2E08D12046E16859
:1002D00088477F1C0646022F45F02005C4DBA06935
:1002E000002803DA404245F00105A061E80701D08B
:1002F00025F01005B6B1A6F14100192802D8203624
:1003000045F400654A463146204625604D46FFF7D4
:1003100037FF58B1012806D0ED1D25F0070000F188
:10032000080989E704E005F1040985E730468AE712
:10033000206ABDE8F0874FF0000200B513469446EE
:100340009646203922BFA0E80C50A0E80C50B1F12D
:100350002001BFF4F7AF090728BFA0E80C5048BF41
:100360000CC05DF804EB890028BF40F8042B08BFDF
:10037000704748BF20F8022B11F0804F18BF00F8DB
:10038000012B70477047704770472DE9FF4F0C46AF
:100390001E464FF0FF378BB0D2E90001DDF86080D8
:1003A0000A908A46C1F30A5505B93D460021084620
:1003B0004FF00000BAF1000F00F4400005DA00EB46
:1003C00080004FF4400101EA50004FEA9059B9F122
:1003D000010F00DDB9460A9850EA4A000ED044F6F3
:1003E0001050A5F2FF3545432F14B8F1000F1ED071
:1003F0007542291E1EDDC9F100021CE0B8F1010F93
:100400004FF0000001D0302103E0F24305E0215419
:10041000401CB042FBDB30460022002121540B99E6
:10042000C1F80880C1E900200FB0BDE8F08FBD1B06
:100430006D1CDEE74A4600DA694206A800F05CFA65
:1004400006AB93E8070003AB83E8070050460A9920
:1004500003F014F88DE80700A0F500501F38009055
:100460000398002D0ADD42F21F014A46084400238A
:1004700003A90390684603F07DFA09E0A0F5005057
:100480004A461F38002303A90390684603F087FA01
:100490008DE807000004000C03D04FF0FF30410846
:1004A00000E01046B8F1000F03D00022009215467C
:1004B0001EE0751E05D400F099F9303262556D1EAC
:1004C000F9D5B3460122084302D000227F1C04E084
:1004D0002078302801D100227F1E002A099784D07D
:1004E0001DE0112D07DA00F081F9303262556D1CE4
:1004F00050EA0102F5D1084302D00098C8B10EE0DD
:100500000021681E05E0235C625C63542254401E97
:10051000491C8142F7DBAB46A81B401E0990002016
:1005200004F80B000B98099AC0F80880C0E9002B6A
:100530007AE711264FF0000857E72DE9F04F88467B
:100540000446D21D22F0070191B0D1E90001CDE9A6
:100550000A0103F05BFB02460B98C00F01D02D206F
:1005600007E02068810701D52B2002E0202101EA65
:10057000C000032A099001D0072A05DB0346414643
:10058000204600F079F90BE12078800601D5E0697A
:1005900000E00620B8F1650F814606D0B8F1660F7D
:1005A00018D0B8F1670F70D131E00020B9F1110F08
:1005B000009001DB112301E009F101030AAA01A95E
:1005C0000CA8FFF7E2FEDDE90C70002609F1010539
:1005D000834647E001204B4600904FF000470AAAAF
:1005E00001A90CA8FFF7D1FEDDE90DB00C995D461D
:1005F000002610B909F101000D18B9EB050003D46C
:10060000C0F1FF3609F10105A5EB09002BE0B9F1B6
:10061000010F01DA4FF001090020B9F1110F00902C
:10062000484601DD112300E003460AAA01A90CA8EF
:10063000FFF7ABFEDDE90C704D46002683462078BF
:1006400000070AD4AB4500DA5D4601A8012D04DDA0
:10065000411911F8011C302907D04F4502DA17F172
:10066000040F04DA012082460FE06D1EEEE7002F32
:1006700002DCED1B3E4403E0781CA84200DD7D1C3B
:10068000B81B00F1010A4FF000472078000703D49F
:10069000AA4501DB4FF0FF3A0021B7F1004F0DF101
:1006A00043088DF8431024D002202B23002F01DAB9
:1006B0007F422D230A21021EA0F1010000DC5FB160
:1006C00097FBF1FC97FBF1F201FB1C7C17460CF148
:1006D000300C08F801CDEEE7A8F101000370218885
:1006E000090501D5452100E06521A0F1010800F8C8
:1006F000011C09980FA9A1EB0807FF1D00B10120FB
:10070000411901EBEA70A1693844081A401EA06142
:100710002078C00602D42046AFF30080099828B1A3
:10072000D4E901219047206A401C20622078C0064D
:1007300022D52046AFF300801EE0002E04DBB34537
:1007400002DD01A8805D00E03020D4E9012190475E
:10075000206A401C2062761CAAF101005FEA000AB0
:100760000AD100F03FF8C0680168405CD4E901217B
:100770009047206A401C2062281EA5F10105DCDCA0
:1007800007E0D4E9012118F8010B9047206A401CCA
:100790002062381EA7F10107F3DC2046AFF300808A
:1007A000032011B041E6000001694A1C026108788B
:1007B000704700B58FB0CDE90131002105910549A1
:1007C0007944CDE9031011466846FFF72DFD0FB0BF
:1007D00000BD0000E5FFFFFF0A6802F8010B0A6098
:1007E00070470000004870471002002030B5B0F19B
:1007F0000A0271F100034FEA900E4EEA817EB0EBDF
:100800000E0061EB91014FEA101E4EEA017E10EBE3
:100810000E0041EB11114FEA102E4EEA016E10EB63
:100820000E0041EB11214FEA104E4EEA014E10EB43
:100830000E0041EB1141401841F100014FEAD00098
:1008400040EA41704FEAD1014FEA810444EA9074D2
:1008500010EB800544EB01046D1944EB0404521BBA
:10086000A3414FF0000348BF0A3200D530BD401C01
:1008700041F1000130BD00002DE9F0411F46044662
:1008800003260168072A01F4006004DB08B116A5FD
:1008900005E016A503E008B115A500E015A521F0B7
:1008A00010002060A069C01EA0610FB1401EA061B1
:1008B0002046AFF300804FB1D4E90121384690477C
:1008C000206A401C2062C01C206206E0206AFAE711
:1008D000D4E9012115F8010B9047761EF8D2204685
:1008E000AFF30080BDE8F0814E414E006E616E00B6
:1008F000494E4600696E66002DE9F047814616466E
:100900008AB0354878440DC88DE80D0032487844E7
:10091000801C03AC0DC884E80D0041F69B300844F0
:10092000372190FBF1F290FBF1F5A5F1800501FB79
:1009300012041B3C02D56442012000E00020DFF8D5
:1009400098A080460027FA44AAF1BE0A0EE0E0070C
:100950000AD03246684607EB470101230AEB8101C2
:1009600003F01DF88DE8070064107F1C002CEED109
:10097000194F7F44AE3F19E0E80715D007EB04108C
:100980000DF1180A90E80E008AE80E00C068F042E7
:1009900001D1981908903246012306A903A802F054
:1009A000FEFF03AB83E807006D10641C002DE3D14C
:1009B0004FF0010332466946B8F1000F03A802D098
:1009C00002F0D8FF01E002F0EAFFC9E90001C9F82E
:1009D00008200AB0BDE8F087303C000000487047AE
:1009E000F00100207546FFF7F9FFAE4605006946A5
:1009F000534620F00700854618B020B5FFF7EEFB00
:100A0000BDE820404FF000064FF000074FF000080F
:100A10004FF0000BAC46ACE8C009ACE8C009ACE84C
:100A2000C009ACE8C00921F007018D46704710B538
:100A30000446AFF300802046BDE81040FFF7BABB84
:100A40004FF0013C50F8042B51F8043B9A4221D15D
:100A5000A2EB0C03934313EACC1317D150F8042BE9
:100A600051F8043B9A4215D1A2EB0C03934313EACD
:100A7000CC130BD150F8042B51F8043B9A4209D106
:100A8000A2EB0C03934313EACC13DBD04FF000002E
:100A9000704700BFD01A01BAB1FA81F101F0180114
:100AA00022FA01F0CB40DBB2C0B2C01AC1F1200182
:100AB0002CFA01F3D11A914311EAC311E6D1704720
:100AC00001491820ABBEFEE7260002007047000077
:100AD000F0B581B00446043000F032F910B101B035
:100AE000F0BD00BFD4E9010703F09CF90023C4F274
:100AF0005903002203F0AAF90026C3F6B0660022CB
:100B0000334603F0A3F903F0B3F80546E060384636
:100B100003F088F90023C4F26903002203F096F978
:100B20000022334603F092F90023CCF2490300225D
:100B300003F0D0F803F09CF844F20001064620616F
:100B4000C4F21C61284603F0A6FB00210546CCF246
:100B50007A51304603F0B4FB4DF200010543C4F274
:100B60000461304603F097FB284318BF01206070F2
:100B700001B0F0BDF0B583B0282000F07DF940F25F
:100B80001C3000244FF6FF76C2F200000DF109027E
:100B9000702101238DF80940009600F051FB9DF86B
:100BA0000900000700F1C880012000F065F940F25B
:100BB0001C35C2F20005BE270DF10A02284670213D
:100BC00001238DF80A70009600F038FD282000F00F
:100BD00053F90DF109022846702101238DF80940CF
:100BE000009600F02DFB9DF80900000700F1A4809D
:100BF000012000F041F940F21C35C2F200054FF629
:100C0000FF760DF10A022846702101238DF80A7043
:100C1000009600F013FD282000F02EF900240DF1BD
:100C200009022846702101238DF80940009600F042
:100C300007FB9DF8090000077ED440F21C35BA205E
:100C4000C2F200058DF80B000DF10B022846702151
:100C50000123009600F0F2FC142000F00DF928208A
:100C600000F00AF90DF109022846702101238DF8E0
:100C70000940009600F0E4FA9DF8090000075BD4F3
:100C8000012000F0F9F840F21C35C2F20005BE2741
:100C90004FF6FF760DF10A022846702101238DF8E8
:100CA0000A70009600F0CAFC282000F0E5F8002445
:100CB0000DF109022846702101238DF809400096A4
:100CC00000F0BEFA9DF80900000735D4012000F0BD
:100CD000D3F840F21C35C2F200050DF10A02284695
:100CE000702101238DF80A70009600F0A7FC2820DF
:100CF00000F0C2F80DF109022846702101238DF899
:100D00000940009600F09CFA9DF80900000713D4F2
:100D1000BA208DF80B004FF6FF70009040F21C30A7
:100D2000C2F200000DF10B0270210123012400F03A
:100D300085FC142000F0A0F8204603B0F0BD0000B0
:100D4000F0B583B040F21C35C2F2000540F2080253
:100D500004464FF6FF76C2F20002284670210323B4
:100D6000009600F06BFC4B2000F086F800270DF198
:100D70000B022846702101238DF80B70009600F0BD
:100D80005FFA9DF90B00B0F1FF3F41DC4B2000F012
:100D900073F840F21C30C2F200000DF10B0270211A
:100DA00001238DF80B70009600F04AFA9DF90B00B4
:100DB000B0F1FF3F2CDC4B2000F05EF840F21C301D
:100DC00000254FF6FF77C2F200000DF10B027021F3
:100DD00001238DF80B50009700F032FA9DF90B00BB
:100DE000B0F1FF3F14DC4B2000F046F840F21C301D
:100DF000C2F200000DF10B02702101238DF80B509F
:100E00000097012500F01CFA9DF90B00002826D45C
:100E1000052000F031F840F21C30C2F200000DF164
:100E2000050270210623009600F00AFA9DF80710CB
:100E30009DF806009DF8082009029DF8093041EA56
:100E400000404FF4702710449DF80A1007EA024250
:100E500042EA0322000911440025C4E900012846A2
:100E600003B0F0BDFEE7000070470000EFF3108014
:100E700072B600BFFEE70000B0B5044600F01EF9F0
:100E8000054640F20000C2F200000078611C18BF65
:100E9000044400BF00F012F9401BA042FAD3B0BDD9
:100EA0002DE9F04F82B00E68002E00F0038141F270
:100EB0000042C4F20102042340F2004E904208BFF7
:100EC00003234FF6FF7CC4F2010E0093002401239C
:100ED000C1F2100C4FF0000A4FF0000949E000BFCA
:100EE000012704F00C030F229A402BEA020207FAB2
:100EF00003F34FEA9A051A4346F82520D1F804B0C7
:100F000040F20C455FEACB22DEF8082054BF22EA0B
:100F1000080242EA0802C4F20105CEF808202A6855
:100F20005FEA8B2354BF22EA080242EA08022A60E1
:100F30005FEA8B33DEF8042054BF22EA080242EA5B
:100F400008025FEACB33CEF80420DEF800204FF031
:100F5000010354BF22EA080242EA0802CEF8002048
:100F60000E680AF1010A36FA0AF204F1040400F0EC
:100F7000A18003FA0AF816EA080FF1D04E68664518
:100F800012DC122E56D8DFE806F0350B45495555D0
:100F900055555555555555555555554D510000BF4D
:100FA000D1F80C9046E000BF4FF6FF72C1F221026B
:100FB00096420FDC0022C1F2110296421AD00022A2
:100FC000C1F21202964215D00022C1F221029642CD
:100FD00010D02FE00022C1F2220296420AD0002255
:100FE000C1F23102964205D00022C1F2320296428D
:100FF00020D100BF8A684AB1012A14BFC0F814800A
:10100000C0F810804FF0080914E000BF4FF0040949
:1010100010E000BFCA6802F108090BE04FF00009B8
:1010200008E000BFCA6802F1040903E0CA6802F1DF
:101030000C0900BF22460646BAF1080F24BF203A29
:10104000043637680F25954027EA050509FA02F2AC
:101050002A433260CA79D2067FF582AF41F2180383
:10106000C4F202031A68AEF57E7642F001021A60FD
:101070001A6802F001020192019A2AF0030256F85E
:1010800002B040F60002C4F20102904210D040F6D5
:101090000042C4F2010290423FF422AF41F200024A
:1010A000C4F20102009F904208BF022719E700BF67
:1010B000002716E702B0BDE8F08F000040F2D43000
:1010C000C2F200000068704770B5B8B3044690F8EB
:1010D0003D0028B9002084F83C00204600F044FC84
:1010E000242084F83D002068016821F0010101609E
:1010F000016841F400410160016821F40041016090
:1011000000F016FE48F28041C0F21E0140F60013C6
:10111000D4F804E088424FF00001C0F23D0348F2E9
:10112000A16C4FF0000238BF01219842C0F2010CBF
:1011300038BF0122E64538BF0A460AB1012070BD1A
:101140004DF68361C4F21B31A0FB01122168950C9E
:101150004B684FF4967623F03F0343EA924375437E
:1011600044F6D3564B60C1F262060B6AA5FB0656E5
:10117000B50923F03F03E64538BF950C6A1C1A43B6
:101180000A62CA6948F2A0664CF6FF73C0F2010613
:10119000B64522EA03020BD801384FEA4E03B0FBF2
:1011A000F3F001306FF31F30042898BF04201EE0D5
:1011B000A368013863B119230EFB03F3B0FBF3F00E
:1011C00001306FF31F3078B100F5804008E000BFB8
:1011D0000EEB4E03B0FBF3F001306FF31F3028B17C
:1011E00000F5004003E000BF012000E001201043B3
:1011F000C8610868D4E9072320F0C00010431843F1
:101200000860886848F2FF3204F10C0690434CCE27
:1012100018431043A5698860C86820F0FF00304378
:101220002843C860086840F00100086000202021C1
:10123000206484F83D10206384F83E0070BD0000F7
:101240002DE9F04784B0044600201F461646894623
:101250000290FFF733FF94F83D10202920D1054676
:10126000206800BF8169890716D5FFF727FF411B5A
:1012700020681A29F6D381698907F3D50020202137
:10128000206384F83D1084F83E00216C41F0200179
:10129000216484F83C0003E094F83C10012903D158
:1012A000022004B0BDE8F087012184F83C100168F9
:1012B000C90703D1016841F0010101600168DDF84F
:1012C000308021F400610160222184F83D1010215A
:1012D00084F83E100021216466626785618D0227D3
:1012E000C0F201072185A7F10211E162E16A0268FB
:1012F00011F5803F42F48062026018BF01293DD1A0
:10130000016841F48071016020464FF00111002214
:101310004346009500F0D6FF50B120680068C00534
:1013200044BF4FF400702064012004B0BDE8F08792
:101330002069B0F5804F27D149F00100C0B2216883
:1013400042460861204639462B4601F0A5F80028A0
:10135000EAD1208D02284BD001285FD0002840F030
:101360007380002003902068416903918169039193
:101370000399016841F40071016071E00829BFD050
:10138000216B1129BCD0BFE7062000EAD9162068DE
:1013900006F1F0010161B91D204642462B4601F0DD
:1013A0007BF80028C0D120685FFA89F101612046EE
:1013B000394642462B4601F06FF80028B4D1002090
:1013C000039020680022416943460391816903919B
:1013D0000399016841F48071016020464FF00111CA
:1013E000009500F06FFF002897D146F0F100A6E7C6
:1013F0002068016841F400610160EFF3108072B66B
:101400000020039020684169039181690391039949
:10141000016821F48061016062B621E02068016802
:1014200021F480610160EFF3108072B60020039018
:10143000206841690391816903910399016841F42E
:101440000071016062B60BE02068016841F48061C0
:101450000160002103914169039180690390039821
:10146000208D002800F0CC8040F2E8194BF2895A18
:101470000237C2F20009C1F2F84A23260EE000BF8B
:1014800010690870606A218D01306062481E2085F5
:10149000618D01396185010400F0B28080B20328BA
:1014A0000CD802282CD001284AD1204641462A4691
:1014B00001F062F8002800F09F8035E720464146A1
:1014C0002A4601F059F800287FF42EAF2068616A9F
:1014D00000690870606A2268411C208D61620138D1
:1014E0002085638D013B638553695B07D3D580B24B
:1014F0000328C5D1106820F480601060C0E700BFE9
:101500002046394600224346009500F0DBFE0028C5
:101510007FF40AAFEFF3108072B62068616A026848
:1015200042F40072026000690870606A218D013027
:101530006062481E2085608D0138608562B65BE080
:101540002046394600224346009500F0BBFE0028A5
:101550007FF4EAAE2068016821F480610160EFF356
:10156000108072B62068616A00690870606A218D17
:101570000130013960622185618D01396185D9F8B9
:101580000010C908A1FB0A12110A714302910299C5
:1015900001390291029900293ED021684A69520717
:1015A0001AD40299013902910299A9B321684A69B2
:1015B000520711D4029901390291029961B321684D
:1015C0004A69520708D4029901390291029919B364
:1015D00021684A695207DAD50A6842F400720A6043
:1015E00009690170606A218D01306062481E2085A2
:1015F000608D0138608562B62068616A006940E7E5
:10160000202084F83D00002084F83E0084F83C004F
:1016100004B0BDE8F08700BF00202021206384F8DB
:101620003D1084F83E00216C41F02001216462B637
:1016300084F83C00012004B0BDE8F0872DE9F043B8
:1016400083B01E46174689460446FFF737FD94F8D7
:101650003D10202920D10546206800BF81698907F7
:1016600016D5FFF72BFD411B20681A29F6D3816997
:101670008907F3D500202021206384F83D1084F8E9
:101680003E00216C41F02001216484F83C0003E01D
:1016900094F83C10012903D1022003B0BDE8F08387
:1016A000012184F83C100168C90703D1016841F0A9
:1016B00001010160016840F2020821F4006101604B
:1016C000212184F83D10102184F83E10002121646E
:1016D00067626685618DC0F201082185A8F102115B
:1016E000E162E16A0A9E11F5803F18BF01291DD110
:1016F000016841F48071016020464FF00111002221
:101700003346009500F0DEFD50B120680068C0054A
:1017100044BF4FF400702064012003B0BDE8F083A3
:101720002069B0F5804F07D1FE2015E00829DFD0F1
:10173000216B1229DCD0DFE7062000EAD9102168EE
:10174000F030086108F10601204632462B4600F0D1
:10175000A3FE0028E0D1FF20216800EA090008610B
:101760002046414632462B4600F096FE0028D3D153
:1017700000200290206841690291806902900298DD
:1017800006E000BF204631462A4600F03BFD18BB6C
:10179000208D68B3204631462A4600F035FFD8B97F
:1017A000606A2168024612F8013B0B616262628D39
:1017B000013A6285228D531E23854F697F07E1D54B
:1017C0001B04DFD0437802300B616062608D01380A
:1017D0006085901E2085D5E7206C04289CD1206868
:1017E000016841F400710160012003B0BDE8F0839D
:1017F0002068016841F400710160202084F83D00F8
:10180000002084F83E0084F83C0003B0BDE8F0837B
:101810002DE9F04383B0994616460F460446FFF77C
:101820004DFC94F83D10202920D10546206800BFCA
:101830008169890716D5FFF741FC411B20681A29E9
:10184000F6D381698907F3D500202021206384F82D
:101850003D1084F83E00216C41F02001216484F8A1
:101860003C0003E094F83C10012903D1022003B0AE
:10187000BDE8F083012284F83C200368DDE90B1801
:101880000A9ADB0703D1036843F00103036003688E
:1018900023F400630360212084F83D00402084F895
:1018A0003E000020206462626185608D394620859B
:1018B0000020CFF6FF70E062204632464B46CDF85E
:1018C0000080019500F03AFC20B1012003B0BDE892
:1018D000F08300BF208D98B9204641462A4600F08B
:1018E00091FC88B3206C0428EFD12068016841F492
:1018F00000710160012003B0BDE8F0830004EBD06B
:10190000204641462A4600F07FFE0028EAD1616A5F
:101910002268084610F8013B1361238D6062581E4F
:101920002085678D013F678557697F07E6D50704E6
:10193000E4D048781061881C6062981E2085618D13
:1019400001396185DAE700BF2068016841F4007160
:101950000160202084F83D00002084F83E0084F8D7
:101960003C0003B0BDE8F08310B586B0006845F6D2
:101970000001C4F2000188424FF00001CDE90411DA
:10198000CDE902112AD045F20041C4F2000188429B
:1019900048D141F21804C4F20204206802A940F0C0
:1019A00008002060206800F0080001900198C02025
:1019B0000290122003900320059040F60040C4F2EC
:1019C0000100FFF76DFA606840F400106060606825
:1019D00000F400100190019806B010BD41F2180407
:1019E000C4F20204206802A940F0080020602068C8
:1019F00000F00800019001984FF44060029012201E
:101A000003900320059040F60040C4F20100FFF768
:101A100047FA606840F480006060606800F480000D
:101A20000190019806B010BD40F2000040F2D431A0
:101A3000C2F20000C2F2000100780A681044086097
:101A40007047000080B542F20000C4F20200016855
:101A500041F010010160032000F07AF80F2000F03F
:101A600005F800F027F8002080BD000070B540F2B6
:101A70000006C2F2000640F2E8113278C2F200011C
:101A80004FF47A730968B3FBF2F20446B1FBF2F14A
:101A9000084600F03BFB0F2C4FF0010508D838B981
:101AA0004FF0FF3021460022002500F025F8746039
:101AB000284670BD82B041F21800C4F202000168ED
:101AC000022241F001010160016801F00101019170
:101AD0000199416841F080514160406800F08050B8
:101AE000009000980420C4F20100016862F31A61BA
:101AF000016002B07047000010B54EF60C5CCEF2EB
:101B0000000CDCF80030C3F3022E8EF00704042C26
:101B100028BF0424BEF103034FF0FF3E0EFA04F485
:101B200038BF0023A14399400EFA03F39A431143AF
:101B300000F00F0200F160430901043A03F5644329
:101B40006244002848BF02F10C03197010BD000068
:101B50004EF60C51CEF200010A684FF6FF031A4010
:101B600060F30A2242F0806040F0FD700860704728
:101B70002DE9F04381B0002800F0858042F2000892
:101B8000C4F202080446D8F800000D4600F0070031
:101B900088420CD2D8F8000020F007002843C8F88B
:101BA0000000D8F8000000F00700A8426BD12068C0
:101BB00041F204098107C4F2020917D5410705D58E
:101BC000D9F8001041F4E061C9F80010010705D50B
:101BD000D9F8001041F46051C9F80010D9F800108C
:101BE000A26821F0F0011143C9F80010C00741D1EB
:101BF000D8F8000000F00700A8420CD9D8F800007F
:101C000020F007002843C8F80000D8F8000000F0D2
:101C10000700A84237D12068410707D5D9F800103E
:101C2000E26821F4E0611143C9F80010000708D50B
:101C3000D9F80000216920F4605040EAC100C9F8D9
:101C40000000D9F8002002F00C00082841F2002022
:101C5000C0F27A0050D144F68253C2F38341C0F6F9
:101C60000003595CD2033BD440F60010C0F23D00A3
:101C7000484341E0606802280AD001282AD159F877
:101C8000041C890308D4012001B0BDE8F08300BF23
:101C900059F8041C8901F6D5D9F8001021F0030188
:101CA0000843C9F80000FFF709FA064641F28837F1
:101CB000D9F80000616800F00C00B0EB810F97D0FC
:101CC000FFF7FCF9801BB842F2D9032001B0BDE850
:101CD000F08300BF59F8041C8907D4D5DCE700BFA6
:101CE000D9F8002044F68053C2F34042C0F6000306
:101CF0009A5C4843B0FBF2F0D9F8001044F250521D
:101D0000C1F30311C0F60002515C40F2E81220FA60
:101D100001F140F20400C2F200000068C2F20002C9
:101D20001160FFF7A3FE002001B0BDE8F0830000C2
:101D300040F2E81041F20401C2F20000C4F20201D4
:101D40000068096844F26052C1F30221C0F6000243
:101D5000515CC840704700002DE9F04182B0002876
:101D600068D00446007841F20006C007C4F20206BB
:101D700025D0706800F00C0004281BD0706800F0BB
:101D80000C00082802D17068C00313D460680028D2
:101D900000F06881B0F5A02F00F07C81B0F5803FA5
:101DA00000F07C81306820F480303060306820F4AE
:101DB000802076E13068800301D56068D0B3207858
:101DC000800718D5706810F00C0F07D0706800F00D
:101DD0000C0008286ED17068C0036BD4306880078F
:101DE00002D52069012825D13068616920F0F8000A
:101DF00040EAC1003060207800071FD420784007F7
:101E000032D4E56995B1706800F00C00082840F004
:101E10008F80012D0ED07068216A00F480328A42D2
:101E200008D1616A00F47010884203D1002002B02A
:101E3000BDE8F081012002B0BDE8F081A069002872
:101E400062D00020C4F242200121C0F88014FFF7C4
:101E500035F90546706A800700F18C80FFF72EF98E
:101E6000401B0228F6D92AE1F06910F0805808D109
:101E7000F06940F08050F061F06900F0805000900F
:101E8000009847F20007C4F200073868C00529D45B
:101E9000386840F480703860FFF710F9054600BFDD
:101EA0003868C0051ED4FFF709F9401B6428F7D92C
:101EB00005E100BF2069002840F20000C4F2422082
:101EC00000F0828001210160FFF7F8F8054600BFAD
:101ED000306880073FF588AFFFF7F0F8401B022815
:101EE000F6D9ECE0E068002800F08080052800F0DA
:101EF0009780012800F09880306A20F0010030625D
:101F0000306A20F0040092E00020C4F24220002158
:101F1000C0F88014FFF7D2F8054600BF706A80074A
:101F20007FF56CAFFFF7CAF8401B0228F6D9C6E070
:101F30000027C4F2422700203866FFF7BFF8022DC1
:101F400005460BD13068800140F1BE80FFF7B6F83E
:101F5000401B02284FF00300F4D968E73068800185
:101F60007FF564AFFFF7AAF8401B02284FF003008B
:101F7000F4D95CE740F2E810C2F20000006844F6D1
:101F8000D351C1F26201A0FB0101480A019000BFD8
:101F900000BF0198411E002801913FF42FAF00BF00
:101FA0000198411E002801913FF428AF00BF01981D
:101FB000411E002801913FF421AF00BF0198411E4E
:101FC00000280191E4D119E700210160FFF776F8BC
:101FD000054600BF306880077FF50DAFFFF76EF84C
:101FE000401B02284FF00300F4D920E7306A20F0AC
:101FF00001003062306A20F004003062FFF75EF8C2
:10200000054641F2883700BF306A800720D5FFF7C8
:1020100055F8401BB8424FF00300F5D907E700BF61
:10202000306A40F004003062306A40F001003062F3
:10203000FFF744F8054641F2883700BF306A800751
:1020400006D4FFF73BF8401BB842F7D937E000BF92
:10205000B8F1000F7FF4D5AEF06920F08050F06148
:10206000CFE600BF306820F480303060306820F464
:1020700080203060FFF722F8054600BF30688003FB
:102080007FF59DAEFFF71AF8401B64284FF0030060
:10209000F4D9CCE6306840F480203060306840F4F9
:1020A00080303060FFF70AF8054600BF30688003D3
:1020B0003FF585AEFFF702F8401B6428F6D90320F0
:1020C00002B0BDE8F08100BF206AB0F5803F05D1C5
:1020D0007168A26821F40031114371607168626A0D
:1020E00021F4741111430843706001203866FEF733
:1020F000E5FF0446306880013FF598AEFEF7DEFF4D
:10210000001B02284FF00300F4D990E6411E002086
:10211000B0EB116F1CBF012070474EF21002CEF2DF
:10212000000251604EF62351CEF20001F0230B70F5
:102130000721906011607047FEE700002DE9F04331
:1021400083B0044600680D4601680A9F0B9E41F467
:10215000807199469046016020464FF0011100229F
:102160003B46009600F0AEF850B120680068C0050C
:1021700044BF4FF400702064032003B0BDE8F08337
:10218000206805F0FE0101610221C0F20101204634
:102190003A46334600F080F920B1012003B0BDE893
:1021A000F08300BF0020029020683246416902910E
:1021B0008069394602900298204600F025FA58B10D
:1021C000206C0428E9D12068016841F400710160A5
:1021D000012003B0BDE8F0832068B9F1010F0AD0F7
:1021E0004FEA1821016120463946324600F00CFAC8
:1021F0000028E5D120685FFA88F10161002003B072
:10220000BDE8F08370B50368044653F8140F400727
:1022100011D40E46481C29D086BB00BF1868400563
:1022200027D4FEF74BFF236853F8140F400739D526
:1022300018684007F2D5002070BD00BF186840073D
:10224000F9D41868400514D418684007F3D4186806
:1022500040050ED418684007EDD41868400508D42E
:10226000186840074FF0000048BF70BD186840056F
:10227000E4D56FF480601860042014E0154603E094
:1022800053F8140F4007D6D418684005F1D4FEF770
:1022900015FF401B2368B042F2D958694007EFD4BC
:1022A000202000E0202000212022216384F83D200E
:1022B00084F83E10226C10432064012084F83C1006
:1022C00070BD00002DE9F041054600681E46144629
:1022D00001F47F0201338FB242D0DDF81880B2F5ED
:1022E000803F40F0878040693840C01BB0FA80F0E2
:1022F0004009A04240F0C8804EB924E0406938400F
:10230000C01BB0FA80F04009A04240F0BD80FEF74B
:10231000D5FEA0EB08012868B142EFD941693940E8
:10232000C91BB1FA81F14909A142E7D19BE000BF85
:1023300040693840C01BB0FA80F04009A0424FF01D
:10234000000040F0A680FEF7B9FE286841693940D8
:10235000C91BB1FA81F14909A142E9D183E000BF6B
:10236000B2F5803F24D100BF41693940C91BB1FAA1
:1023700081F14909A14240F0878041693940C91B78
:10238000B1FA81F14909A14240F07E8041693940AA
:10239000C91BB1FA81F14909A14275D1416939409E
:1023A000C91BB1FA81F14909A142DDD06CE000BF3F
:1023B00081693940C91BB1FA81F14909A14263D150
:1023C00081693940C91BB1FA81F14909A1425BD148
:1023D00081693940C91BB1FA81F14909A14253D140
:1023E00081693940C91BB1FA81F14909A142DFD0A5
:1023F0004AE000BF80693840C01BB0FA80F0400955
:10240000A04241D146B923E080693840C01BB0FAF0
:1024100080F04009A0423BD1FEF750FEA0EB08013E
:102420002868B142F0D981693940C91BB1FA81F1FC
:102430004909A142E8D116E080693840C01BB0FAD2
:1024400080F04009A0424FF0000018BFBDE8F081C5
:10245000FEF734FE286881693940C91BB1FA81F161
:102460004909A142E8D100202021286385F83D10C8
:1024700085F83E00296C41F02001296485F83C0074
:102480000120BDE8F08100BF0020BDE8F08100BF61
:102490000020BDE8F0810000F0B581B0044600687E
:1024A0001D4643698FB203EA0701B94202D10020F9
:1024B00001B0F0BD41691646013201F4806125D0BA
:1024C000002940D1CEB100BFFEF7F8FD411B2068C6
:1024D000B14203D941693940B9424BD141693940D0
:1024E000B942E4D041694905EED52CE04169394053
:1024F000B942DCD04169490525D4FEF7DFFD2068EB
:1025000041693940B942F1D0202024E0D9B941696C
:102510003940B942CBD04169490514D441693940A9
:10252000B942C4D0416949050DD441693940B94225
:10253000BDD04169490506D441693940B942B6D098
:1025400041694905E3D5016841F4007101606FF408
:1025500080614161042000212022216384F83D2014
:1025600084F83E10226C1043206484F83C10012053
:1025700001B0F0BD2020EEE770B5044600681546B6
:1025800050F8143F5A063DD40E4629B926E000BF44
:1025900050F8141F490635D40168C90621D4FEF746
:1025A0008DFD411B2068B142F2D941694906EFD443
:1025B00000202021206384F83D1084F83E00206C28
:1025C00040F0200018E000BFFEF778FD206850F8CA
:1025D000141F4906ECD50168490613D40168C906E1
:1025E000F2D56FF01001016000202021206384F8F3
:1025F0003D1084F83E00206C2064002084F83C00EC
:10260000012070BD002070BD70B50368044653F80A
:10261000140F000611D40E46481C29D086BB00BFFB
:102620001868400527D4FEF749FD236853F8140FB6
:10263000000639D518680006F2D5002070BD00BF2D
:1026400018680006F9D41868400514D41868000604
:10265000F3D4186840050ED418680006EDD4186845
:10266000400508D4186800064FF0000048BF70BD50
:1026700018684005E4D56FF480601860042014E009
:10268000154603E053F8140F0006D6D41868400529
:10269000F1D4FEF713FD401B2368B042F2D958690C
:1026A0000006EFD4202000E020200021202221631A
:1026B00084F83D2084F83E10226C104320640120F1
:1026C00084F83C1070BD000083B041F21800C4F2E1
:1026D0000200016841F020010160016801F0200161
:1026E00002910299016841F008010160016801F05E
:1026F000080101910199016841F00401016000683D
:1027000000F004000090009803B0704780B540F2DC
:10271000C82045F20041C2F20000C4F2000148F2B4
:10272000A06200234FF4804CC0F2010280E80E004A
:10273000C0E9033CC0E90533C0E90733FEF7C4FC38
:10274000002808BF80BDBDE88040FEF78FBB0000B9
:1027500080B540F21C3045F60001C2F20000C4F220
:10276000000148F2A06200234FF4804CC0F2010245
:1027700080E80E00C0E9033CC0E90533C0E9073337
:10278000FEF7A2FC002808BF80BDBDE88040FEF730
:102790006DBB0000FEE70000FEE700002DE9F04FF2
:1027A00085B040F2C82400254FF480760127C2F29C
:1027B00000040DF1120B0DF113084FF0000900BFDA
:1027C00009F1B0008DF8100004A8CDE900072046FB
:1027D0007821002201230296FFF71AF80DF111006B
:1027E000CDE9000720467821002201238DF8115001
:1027F0000296FFF70DF810208DF812002046782180
:1028000000220123CDE900B70296FFF701F84FF04F
:10281000000A00BF20467821402201238DF8135082
:10282000CDE900870296FEF7F3FF0AF101004FFAA7
:1028300080FABAF1FF3FEDDCB9F1070F09F10109A8
:10284000BED305B0BDE8F08F80B5C820FEF714FBFD
:10285000BDE8804000F030BC2DE9F04F85B0074660
:10286000A1F1500040F2C8248DF80C00012503A806
:10287000C2F20004164688464FF48079CDE900057F
:102880002046782100220123CDF80890FEF7C0FFF2
:10289000380900F1100A0DF10D00CDE900052046C0
:1028A0007821002201238DF80DA0CDF80890FEF7C5
:1028B000AFFF0DF10E0007F00F0BCDE9000520462C
:1028C0007821002201238DF80EB0CDF80890FEF794
:1028D0009FFF40F22600C2F20000B101415C00EB14
:1028E00086168DF80F100DF10F0720467821402233
:1028F0000123CDE90075CDF80890FEF789FF7078C7
:1029000078218DF80F00204640220123CDE9007583
:10291000CDF80890FEF77CFFB07878218DF80F0095
:10292000204640220123CDE90075CDF80890FEF73E
:102930006FFFF07878218DF80F00204640220123A8
:10294000CDE90075CDF80890FEF762FF3079782167
:102950008DF80F00204640220123CDE90075CDF807
:102960000890FEF755FF707978218DF80F0020460A
:1029700040220123CDE90075CDF80890FEF748FF0D
:10298000B07978218DF80F00204640220123CDE94F
:102990000075CDF80890FEF73BFFF07978218DF8AF
:1029A0000F00204640220123CDE90075CDF80890A4
:1029B000FEF72EFF307A78218DF80F002046402256
:1029C0000123CDE90075CDF80890FEF721FF707A5C
:1029D00078218DF80F00204640220123CDE90075B3
:1029E000CDF80890FEF714FFB07A78218DF80F002B
:1029F000204640220123CDE90075CDF80890FEF76E
:102A000007FFF07A78218DF80F002046402201233D
:102A1000CDE90075CDF80890FEF7FAFE307B7821FD
:102A20008DF80F00204640220123CDE90075CDF836
:102A30000890FEF7EDFE707B78218DF80F002046A0
:102A400040220123CDE90075CDF80890FEF7E0FEA5
:102A5000B07B78218DF80F00204640220123CDE97C
:102A60000075CDF80890FEF7D3FEF07B78218DF845
:102A70000F00204640220123CDE90075CDF80890D3
:102A8000FEF7C6FEA8F14F008DF8100004A8CDE9AE
:102A900000052046782100220123CDF80890FEF79A
:102AA000B7FE0DF11100CDE9000520467821002286
:102AB00001238DF811A0CDF80890FEF7A9FE0DF1C5
:102AC0001200CDE9000520467821002201238DF86F
:102AD00012B0CDF80890FEF79BFE96F820000DF19D
:102AE00013078DF813002046782140220123CDE9F9
:102AF0000075CDF80890FEF78BFE96F8210078213E
:102B00008DF81300204640220123CDE90075CDF851
:102B10000890FEF77DFE96F8220078218DF81300CC
:102B2000204640220123CDE90075CDF80890FEF73C
:102B30006FFE96F8230078218DF81300204640227E
:102B40000123CDE90075CDF80890FEF761FE96F8F7
:102B5000240078218DF81300204640220123CDE97E
:102B60000075CDF80890FEF753FE96F82500782101
:102B70008DF81300204640220123CDE90075CDF8E1
:102B80000890FEF745FE96F8260078218DF8130090
:102B9000204640220123CDE90075CDF80890FEF7CC
:102BA00037FE96F8270078218DF813002046402242
:102BB0000123CDE90075CDF80890FEF729FE96F8BF
:102BC000280078218DF81300204640220123CDE90A
:102BD0000075CDF80890FEF71BFE96F829007821C5
:102BE0008DF81300204640220123CDE90075CDF871
:102BF0000890FEF70DFE96F82A0078218DF8130054
:102C0000204640220123CDE90075CDF80890FEF75B
:102C1000FFFD96F82B0078218DF813002046402206
:102C20000123CDE90075CDF80890FEF7F1FD96F887
:102C30002C0078218DF81300204640220123CDE995
:102C40000075CDF80890FEF7E3FD96F82D00782189
:102C50008DF81300204640220123CDE90075CDF800
:102C60000890FEF7D5FD96F82E0078218DF8130018
:102C7000204640220123CDE90075CDF80890FEF7EB
:102C8000C7FD96F82F0078218DF8130020464022CA
:102C90000123CDE90075CDF80890FEF7B9FD05B028
:102CA000BDE8F08F2DE9F04F89B040B20D46A2F19A
:102CB0002001002820EAE0724FF0100748BF0235DB
:102CC000A5F1500047EA121402F00F07102BCEB204
:102CD00040F03A8140F2C8288DF818004FF0010BFF
:102CE00006A8C2F200084FF48079CDE9000B4046F7
:102CF000782100220123CDF80890FEF789FD0DF11F
:102D00001900CDE9000B40467821002201238DF8FF
:102D10001940CDF80890FEF77BFD0DF11A00CDE9C2
:102D2000000B40467821002201238DF81A70CDF85F
:102D300008904FF48079FEF76BFD44F290713001FA
:102D4000C0F60001085C01EB06168DF81B00059724
:102D50000DF11B074046782140220123CDE9007B7D
:102D6000CDF80890FEF754FD7078317996F802A0FE
:102D7000049496F8039003918DF81B004046782147
:102D8000402201234FF48074CDE9007B0294FEF7CA
:102D90003FFD40467821402201234FF480748DF896
:102DA0001BA0CDE9007B0294FEF732FD404678215E
:102DB000402201238DF81B90CDE9007B0294FEF7A1
:102DC00027FD039878218DF81B00404640220123FF
:102DD000CDE9007B0294FEF71BFD707978218DF818
:102DE0001B00404640220123CDE9007B0294FEF700
:102DF0000FFDB07978218DF81B0040464022012359
:102E0000CDE9007B0294FEF703FDF07978218DF87F
:102E10001B00404640220123CDE9007B0294FEF7CF
:102E2000F7FCA5F14F008DF81C0007A8CDE9000BB9
:102E300040467821002201230294FEF7E9FC049821
:102E400078218DF81D000DF11D00CDE9000B4046E5
:102E5000002201230294FEF7DBFC059878218DF80F
:102E60001E000DF11E00CDE9000B4046002201239B
:102E70000294FEF7CDFC307A0DF11F058DF81F008E
:102E80004046782140220123CDE9005B0294FEF701
:102E9000BFFC707A78218DF81F0040464022012344
:102EA000CDE9005B0294FEF7B3FCB07A78218DF88F
:102EB0001F00404640220123CDE9005B0294FEF74B
:102EC000A7FCF07A78218DF81F00404640220123AC
:102ED000CDE9005B0294FEF79BFC307B78218DF8F6
:102EE0001F00404640220123CDE9005B0294FEF71B
:102EF0008FFC707B78218DF81F0040464022012313
:102F0000CDE9005B02944FF48074FEF781FCB07B46
:102F100078218DF81F00404640220123CDE9005B57
:102F200002944FF48074FEF773FCF07BCDE9005BF4
:102F30008DF81F0040467821402201230294FEF7BD
:102F400067FC09B0BDE8F08F40F2C82B8DF8200077
:102F50004FF0010A08A8C2F2000B4FF48078CDE9C7
:102F6000000A5846782100220123CDF80880FEF798
:102F70004FFC0DF12100CDE9000A584678210022CE
:102F800001238DF82140CDF80880FEF741FC0DF1BA
:102F90002200CDE9000A58467821002201238DF84D
:102FA0002270CDF80880FEF733FC44F2685106EB3E
:102FB0004600C0F6000111F8102001EB40058DF825
:102FC00023200DF123065846782140220123CDE924
:102FD000006ACDF80880FEF71BFC6878AF78EC78C3
:102FE00095F804908DF8230058467821402201235B
:102FF000CDE9006ACDF80880FEF70AFC5846782132
:10300000402201238DF82370CDE9006ACDF80880B5
:10301000FEF7FEFB58467821402201238DF823401D
:10302000CDE9006ACDF80880FEF7F2FB584678211A
:10303000402201238DF82390CDE9006ACDF8088065
:10304000FEF7E6FB687978218DF823005846402288
:103050000123CDE9006ACDF80880FEF7D9FB09B05D
:10306000BDE8F08F2DE9F04115461278002A08BF1F
:10307000BDE8F08198460E4607460024F8B2F1B24A
:10308000D2B24346FFF70EFE0837F8B20134782873
:10309000E0B288BF02362A5C88BF0027002AEDD143
:1030A000BDE8F0817047000070470000FEF7BCBC2F
:1030B00070470000FEE70000F0B583B040F2C8247E
:1030C00040F20B07C2F200044FF480750126C2F2F1
:1030D00000072046782100220123CDE900760295E1
:1030E000FEF796FB781CCDE90006204678210022E9
:1030F00001230295FEF78CFBB81CCDE900062046A3
:103100007821002201230295FEF782FBF81CCDE90D
:10311000000620467821002201230295FEF778FB65
:10312000381DCDE9000620467821002201230295B2
:10313000FEF76EFB781DCDE90006204678210022BF
:1031400001230295FEF764FBB81DCDE90006204679
:103150007821002201230295FEF75AFBF81DCDE9E4
:10316000000620467821002201230295FEF750FB3D
:1031700007F10800CDE9000620467821002201234E
:103180000295FEF745FB07F10900CDE90006204650
:103190007821002201230295FEF73AFB07F10A008D
:1031A000CDE9000620467821002201230295FEF792
:1031B0002FFB07F10B00CDE9000620467821002205
:1031C00001230295FEF724FB07F10C00CDE9000670
:1031D00020467821002201230295FEF719FB07F112
:1031E0000D00CDE90006204678210022012302953A
:1031F000FEF70EFB07F10E00CDE900062046782110
:10320000002201230295FEF703FB07F10F00CDE931
:10321000000620467821002201230295FEF7F8FAE5
:1032200007F11000CDE90006204678210022012395
:103230000295FEF7EDFA07F11100CDE900062046F0
:103240007821002201230295FEF7E2FA07F112002D
:10325000CDE9000620467821002201230295FEF7E1
:10326000D7FA07F11300CDE90006204678210022A5
:1032700001230295FEF7CCFA07F11400CDE9000610
:1032800020467821002201230295FEF7C1FA07F1BA
:103290001500CDE900062046782100220123029581
:1032A000FEF7B6FA07F11600CDE9000620467821B0
:1032B000002201230295FEF7ABFA07F11700CDE9D2
:1032C000000620467821002201230295FEF7A0FA8D
:1032D00007F11800CDE900062046782100220123DD
:1032E0000295FEF795FA07F11900CDE90006204690
:1032F0007821002201230295FEF78AFA07F11A00CD
:10330000CDE9000620467821002201230295FEF730
:103310007FFA03B0F0BD000090B0FEF793FB06AC5F
:10332000201D2421FDF707F80220069001200A90B5
:1033300010200B90002520460D95FEF70DFD28B1BD
:10334000EFF3108072B600BFFEE700BF0F20CDE99B
:10335000010501A80021CDE903550595FEF708FCFC
:1033600020B1EFF3108072B6FEE700BFFFF7ACF9B3
:10337000FFF7CCF9FFF7ECF9FFF766FAFFF70EFA63
:10338000FDF7F8FB40F25024C2F2000460B30025C0
:10339000FFF704FA0020002100222570FFF75CFAF5
:1033A000122000210122FFF757FA242000210222D7
:1033B000FFF752FA362000210322FFF74DFA48208A
:1033C00000210422FFF748FA5A2000210522FFF7C6
:1033D00043FA6C2000210622FFF73EFA4FF4FA6010
:1033E000FDF74AFDD4E700BF40F2703544F692562F
:1033F00040F264274FF00108C2F20005C0F6000653
:10340000C2F20007204684F80080FDF761FB00202F
:1034100000210022FFF720FA122000210222FFF7EC
:103420001BFA002002210122FFF716FA12200221C6
:103430000222FFF711FA206900F0F4FE02460B4663
:1034400028463146FCF7DCFE242000212A461023C2
:10345000FFF708FEE06800F0E5FE02460B4638463E
:103460003146FCF7CDFE242002213A461023FFF717
:10347000F9FD4FF4FA60FDF7FFFCC3E75FEA400C8B
:1034800008BF91F0000F4FEA8C234FEAC12243EAB4
:1034900051514FEA1C5018BF00F5F0404FEA300080
:1034A00018BF41F000415FEA6C5C00F02980BCF17C
:1034B000FF3F08BF40F080407047130C06BF120466
:1034C0004FF0100C4FF0000C130E04BF12020CF161
:1034D000080C130F04BF12010CF1040C930F04BF6E
:1034E00092000CF1020CD30F04BF52000CF1010C3E
:1034F00011464FF00002A0F11F00A0EB0C00704736
:1035000011F0004F08BF704731F000413FF4D5AFD4
:103510000B0C06BF09044FF0100C4FF0000C0B0E03
:1035200004BF09020CF1080C0B0F04BF09010CF1D8
:10353000040C8B0F04BF89000CF1020CCB0F04BFED
:1035400049000CF1010CCCF1200322FA03F341EA0B
:10355000030102FA0CF2A0EB0C0000F1010070472D
:1035600023F07F4720F07F4C80EA030000F000400A
:10357000ACEB070303F57C5303F1FF032DE980490E
:1035800009B44FEA144324EA03484FEA154B25EAED
:103590000B4E0FF2042606EB13273E7803FB06675B
:1035A000C7F5000707FB06F64FEAD64606F1020606
:1035B0004FEA543707FB066CCCF1005C4FEA1C471E
:1035C0002CEA074C0CFB06F507FB06F404EB15464A
:1035D0004FEA961649085FEA320234BF00204FF0E6
:1035E00000404FEAD13706FB07FC4FEA1C4C0CFBAE
:1035F0000BF7D21B03FB0CF761EB07010CFB0EF77B
:10360000B0EB074072EB17420CFB08F734BFA2EB9C
:103610000742B2EB074261EB17414FEA0C444FEA15
:10362000910706FB07FC4FEA1C4C0CFB0BF7B0EBB9
:10363000C74072EB573203FB0CF734BFA2EBC74213
:10364000B2EBC74261EB57310CFB0EF7B0EBC70092
:1036500072EB57720CFB08F734BFA2EBC702B2EB58
:10366000C70261EB57714FEA816141EA92114FEA5B
:10367000826242EA90124FEA806004EBCC04039F1E
:103680004FEAD13706FB07FC4FEA1C4C0CFB0BF74B
:10369000D21B03FB0CF761EB07010CFB0EF7B0EB41
:1036A000074072EB17420CFB08F734BFA2EB07424E
:1036B000B2EB074261EB17414FEA8C5504EB9C24B7
:1036C0004FEA910706FB07FC4FEA1C4C0CFB0BF77B
:1036D000B0EBC74072EB573203FB0CF734BFA2EBE1
:1036E000C742B2EBC74261EB57310CFB0EF7B0EBB0
:1036F000C70072EB57720CFB08F734BFA2EBC7028E
:10370000B2EBC70261EB57714FEA816141EA921156
:103710004FEA826242EA90124FEA806015EB4C2534
:1037200044F100044FEAD13706FB07FC4FEA1C4C7A
:103730000CFB0BF7D21B03FB0CF761EB07010CFB37
:103740000EF7B0EB074072EB17420CFB08F734BFE3
:10375000A2EB0742B2EB074261EB17414FEA81311E
:1037600041EA92414FEA823242EA90424FEA803087
:103770004FEA0C7615EB1C1544F1000448EA0343AC
:103780004EEA0B484FF0000EB2EB080C71EB03074A
:1037900024BF624639464EEB0E0E4FF0000B001868
:1037A000524149414BEB0B0BB2EB080C71EB030799
:1037B0007BF1000B24BF624639464EEB0E0E4FF0F4
:1037C000000B0018524149414BEB0B0BB2EB080CBC
:1037D00071EB03077BF1000B24BF624639464EEBC9
:1037E0000E0E51EA020718BF46F0010616EB0E76E0
:1037F00055F1000254F1000103D5BDE88901BDE88F
:103800000088BDE88901BDE80048B619524141EB86
:103810000101A3F10103704780807F7E7D7C7B7A6C
:103820007978777676757473727171706F6E6E6D6C
:103830006C6C6B6A6A696868676666656464636312
:1038400062616160605F5F5E5E5D5D5C5C5B5B5A98
:103850005A59595858575756565555555454535305
:1038600052525251515050504F4F4F4E4E4D4D4D60
:103870004C4C4C4B4B4B4A4A4A49494948484847AB
:1038800047474746464645454544444444434343E9
:1038900043424242424141419C46002B30D4770092
:1038A0002BD04FEA37071CB503B44FF010004FF090
:1038B0001001BAF1000F06D0BCF1000FDCBF40F0E0
:1038C000080040F008014FF000000FBCBDE81040B8
:1038D0000BF1010BBBF1010F08BF5FEA170722BF15
:1038E00012F1010211F101014FF0004143F1000317
:1038F00000F0004043EA00007047F9D35708D0E7D2
:1039000046EA06464FEA164613F1400F1FDD13F153
:10391000200FDFBF16430A46002120335B42BED092
:10392000C3F1200746EA06464FEA164602FA07F7B1
:1039300046EA070622FA03F2C3F1200701FA07F765
:1039400042EA070221FA03F14FF00003A7E746EA33
:10395000020646EA06464FEA164646EA0106BCBF9C
:1039600046EA0646360C4FF000034FF000024FF0D7
:10397000000194E72DE9804C70B49A46934691E893
:10398000380007C831EA400C48BF34EA430C03D57D
:10399000FFF7E6FDFFF780FFF0BCBDE8008C2DE9E6
:1039A000804C70B49A46934691E8380007C810F0EE
:1039B000804F08BF13F0804F03D100F005F8FFF7E8
:1039C0006BFFF0BCBDE8008C20F07F4723F07F4CFC
:1039D00080EA030000F0004007EB0C03A3F57C53E2
:1039E000A3F1FE0392F0000F00F0B38095F0000FFA
:1039F00000F077802DE901494FEA114021EA0048A3
:103A00004FEA144624EA064700FB06FC08FB06F6CC
:103A100007FB08F818EB06484CEB164C00FB07F7C1
:103A200018EB07484CEB17404FEA124B22EA0B4EBB
:103A30004FEA154625EA06470BFB06FC0EFB06F689
:103A400007FB0EFE1EEB064E4CEB164C0BFB07F76E
:103A50001EEB074E4CEB174B18EB0B0840F1000028
:103A600018EB0E0B58EB000840F100008F1A4FF0D6
:103A700000014FF000063CBFC943661B14BFB5EB05
:103A8000040C00213CBFC943F61B4FEA174427EA48
:103A900004454FEA1C472CEA074C04FB076205FB70
:103AA00007F70CFB05F616EB074642EB174204FB43
:103AB0000CFC16EB0C4642EB1C421BEB060658EBCB
:103AC000020241414EEA8E0E46EA9E0601D5BDE84D
:103AD0000189B619524141EB0101A3F10103BDE88F
:103AE00001894FEA144524EA05464FEA114721EAC5
:103AF000074C05FB07F406FB07F70CFB06F111EB7F
:103B0000074144EB174405FB0CFC11EB0C4144EB63
:103B10001C444FEA124722EA074C05FB07F206FB5A
:103B200007F70CFB06F616EB074642EB174205FBC0
:103B30000CFC16EB0C4642EB1C456A1854F10001D4
:103B400048BF7047B619524141EB0101A3F101038F
:103B5000704795F0000F37D04FEA114221EA024634
:103B60004FEA144724EA074C02FB07F106FB07F76C
:103B70000CFB06F414EB074441EB174102FB0CFC71
:103B800014EB0C4441EB1C414FEA154725EA074C66
:103B900002FB07F506FB07F70CFB06F616EB0746DC
:103BA00045EB174502FB0CFC16EB0C4645EB1C42A3
:103BB000121951F1000148BF7047B619524141EB4B
:103BC0000101A3F1010370474FEA144524EA0546B9
:103BD0004FEA114721EA074C05FB07F106FB07F7FF
:103BE0000CFB06F212EB074241EB174105FB0CFC04
:103BF00012EB0C4251EB1C414FF0000648BF7047DE
:103C0000921841EB0101A3F101037047490050EA0A
:103C1000C12018BF04204A0D18BF40F0010040F237
:103C2000FF72B2EB515F08BF40F00200012808BFED
:103C30000520704730380A2801D201207047002043
:103C40007047000010B500290AD00878002807D076
:103C500005487844FCF7F4FE002801D0002010BD90
:103C60000248784410BD0000661100005E1100009B
:103C700021F0004201F00043A2F16052B2F5801F32
:103C800028BFD2F17F6C0BD95FEA001C43EAC20265
:103C900042EB507018BF704728BF20F001007047FA
:103CA000B2F5801FBCBF184670474FEA410C1CF5A7
:103CB000001F02D2084600F0F9BB70B500F070F9A1
:103CC00000000089FFF7F6BF4FF00040A0F580002C
:103CD0007047000010B591EA030F48BF83F000431E
:103CE00000F1BA81841A71EB030C05D2121943EB6F
:103CF0000C03001B61EB0C014FEA1154A4EB135CA5
:103D0000DFF81CE11EEA430F18BF9EEA445F00F093
:103D1000748021EA045123EA0E0343F48013DCF19A
:103D2000200E32D322FA0CFE10EB0E0023FA0CFE0A
:103D300041EB0E01CCF1200E03FA0EFE10EB0E004B
:103D4000CCF1200E51F10001B1F5801F32D201EB10
:103D5000045112FA0EF2BDE8104058BF7047401CE3
:103D600038BF5FEA420218BF7047002814BF20F036
:103D7000010041F100014FEA410313F5001F38BF74
:103D80007047A1F1C04100F059B9012A43EB030289
:103D9000ACF1200CDCF11F0E32BF4FF0000E23FA05
:103DA0000CF310EB030041EB0451B4EB115FD0D0E6
:103DB000A1EB045101F58011490801EB04515FEAC0
:103DC00030000ED350F1000038BF12FA0EFE08D1B9
:103DD000BDE81040C9E7401C38BF5FEA4202CAD1C3
:103DE000C3E7BDE810404FEA410313F5001F38BF99
:103DF0007047A1F1C04100F021B99EEA445F08D0AC
:103E000011EA5E0FBDE8104004BF01F00041002040
:103E10007047BDE8104070B500F0C2F864FBBE3ECC
:103E20000000E0FFB0FA80F310FA03F10AD0C3F10A
:103E30001D0303F580634FEA03524FEA415002EB42
:103E4000D12170474FF000007047000070B5DFF8D7
:103E500048C11CEA111E1EBF1CEA13159EEA0C0F76
:103E600095EA0C0F00F06F8081EA03044EEAD47EDD
:103E7000AE4421EA4C1123EA4C1341F4801143F47F
:103E80008013AEF17F7EA1FB024CA0FB03653619C7
:103E900055EB0C05A1FB034C4CF10003A0FB021CED
:103EA00016EB0C06654153F10003094218BF46F0BA
:103EB000010613F4007F0BD14FEA03314FEA0530BE
:103EC00041EA155140EA165034036FF003020AE04C
:103ED0004FEAC3214FEAC52041EA555140EA565006
:103EE000F4026FF0020202EB2E4201EB025585EA6A
:103EF000CE710AD05FEA440C18BF24F0004450F1A0
:103F0000000041F1000120EAD47040F2FE7C6245DD
:103F100000D270BDA84214BF4FF080444FF040441F
:103F2000002E08BF0024BEF1806FA8BFA1F1C041E0
:103F3000BDE8704080F2828001F1C04101F0004193
:103F40004FF0000070470CEA13159EEA0C0F18BFE3
:103F500095EA0C0F06D081EA030E4FF000000EF038
:103F6000004170BD00F01CF88900013E00F007B868
:103F700000F009B84FEA430C5FEA5C5C08D081EAC4
:103F8000030100F05BB84FEA410C5FEA5C5CF6D1DC
:103F900002494FF0000070470000FF070000F87F63
:103FA0000EF1020E2EF0030E5EF8046B364205D4BD
:103FB000012A43EB030515F5001F12D8012841EB38
:103FC000010C1CF5001F0CD80ED14FEAD17C0CEB74
:103FD0004C0C0CF1020C15F5001F08BF4CEBD37C08
:103FE00004E04FF0080C01E04FEAD37C0CEB4C05E9
:103FF00026FA05F606F00706B6F1040C06D20EEB1B
:10400000860CBDE870404CF0010C6047DFE80CF016
:10401000090B02024FF00041A1F500214FF0000012
:1040200070BD19461046012851EB010418BFD4F5A4
:10403000001484BF002001F0004170BD0808A0F505
:1040400000114FEA3101704710B591EA030F48BFE4
:1040500083F000433FF546AE841A71EB030C07D2A0
:104060008CF0004C121943EB0C03001B61EB0C01AC
:104070004FEA1154A4EB135CDFF8A4E11EEA430FEE
:1040800018BF9EEA445F00F0B48021EA045123EA9D
:104090006E035242C3EB6E0338BF5B1EDCF1200E91
:1040A00025D322FA0CFE10EB0E0043FA0CFE41EB76
:1040B0000E01CCF1200E03FA0EFE10EB0E00CCF137
:1040C000200E51F1000129D401EB045112FA0EF235
:1040D000BDE8104058BF7047401C1CBFB2F1004FF4
:1040E000704700280CBF491C20F00100704712EBFC
:1040F000020E43EB030218BF4FF0010E4EEA4202DC
:10410000ACF1200CDCF11E0E56D943FA0CFE10EB7C
:104110000E00CCF11E0E51F1FF31D5D50EF1010E7E
:1041200012FA0EFE404141EB010101EB445C5FEAF3
:104130005C5C10D901EB045110EBDE7038BFBEF1AE
:10414000004FBDE8104018BF704700280CBF491C45
:1041500020F00100704734D24FEAD42C24F40064DC
:1041600011F500111BD0B1FA81F20B3AA41AA41E6A
:10417000D2F12003914030FA03F31943904001EB50
:10418000CC7101EB0451002CBDE81040A8BF704772
:1041900001F1C04101F000414FF000007047B0FA5A
:1041A00080F310FA03F102D1BDE810407047E41A21
:1041B000173C4805C90AE2E701EB0451BDE810408D
:1041C000704749104FEA300001EB0451BDE8104040
:1041D00002E04FF0000170474A0008BF0042F8D0EB
:1041E000B2F5001F28BF704701F000414FF00000FA
:1041F00070479EEA445F07D011EA5E0FBDE81040A9
:1042000004BF002100207047BDE8104070B5FFF7E3
:10421000C7FE00BF40DFF63E104683F00041704706
:104220000000E0FF43004FEAD30C4FEA3C0C434050
:104230001FBF40070CF1605113F0FE4F70471CF098
:10424000006F03D10CF00041002070470CF00043D8
:1042500043EA507040EACC0010B500F0E1F800BF2E
:10426000000000924FEA0001FFF7E8BE4FF0004166
:10427000A1F500214FF00000704710B500F034F8B0
:104280000CBF0120002010BD10B500F02DF814BFA8
:104290000120002010BD10B500F05AF88CBF01209D
:1042A000002010BD10B500F053F82CBF01200020F5
:1042B00010BD10B500F080F894BF0120002010BDA3
:1042C00010B500F079F834BF0120002010BD401077
:1042D00058BFC0F14040491058BFC1F14041814230
:1042E000EFF300807047000050EA010C00F11380EA
:1042F0001CF5000F58BFBCF5000F01D48842704771
:1043000007D710F5000F58BF11F5000F15D48842DC
:104310007047894270471CF5000F04D5BCF5000FAB
:10432000F7D5814270474FF0807C1CEB400F38BFBF
:104330001CEB410F01D28142704710B500F070F8BC
:10434000922449004FF000504FF08051FFF7BFBF5B
:1043500050EA010C00F113801CF5000F58BFBCF5AA
:10436000000F01D48842704707D710F5000F58BFDF
:1043700011F5000F15D488427047894270471CF52B
:10438000000F04D5BCF5000FF7D5814270474FF000
:10439000807C1CEB400F38BF1CEB410F01D28142E7
:1043A000704710B500F03CF8922449004FF080505F
:1043B0004FF00051FFF78BBF50EA010C00F1138062
:1043C0001CF5000F58BFBCF5000F01D488427047A0
:1043D00007D710F5000F58BF11F5000F15D488420C
:1043E0007047894270471CF5000F04D5BCF5000FDB
:1043F000F7D5814270474FF0807C1CEB400F38BFEF
:104400001CEB410F01D28142704710B500F008F853
:10441000922449004FF000504FF08051FFF757BFF2
:104420000EF1020E2EF0030E5EF8044B244204D46B
:104430004FEA4102B2F17F4F11D84FEA4003B3F186
:104440007F4F0CD80ED14FEAD07C0CEB4C0C0CF10A
:10445000020CB2F17F4F08BF4CEBD17C04E04FF06F
:10446000080C01E04FEAD17C0CEB4C0324FA03F476
:1044700004F00704B4F1040C06D20EEB840CBDE882
:1044800010404CF0010C6047DFE80CF00708020216
:104490004FF00040A0F5800010BD0846420018BF54
:1044A000D2F1807288BF00F0004010BDFF2141EAC8
:1044B000D050C0057047FCF740B800000240000033
:1044C000000000A00000000005400000000000C83F
:1044D000000000000C4000000000409C00000000B4
:1044E000194000000020BCBE000000003440000065
:1044F000BFC91B8E00000004B5400000504BCFD058
:104500006607E2CF010000006C4100003E8251AA24
:10451000DFEEA73401000000D9420000DCB5A0E2C4
:104520003A301F97FFFFFFFFB4450000FD25A0C8EC
:10453000E9A3C14FFFFFFFFFFF3F00000000008025
:1045400000000000FF3F00000000008000000000AD
:104550000000000000000000010203040607080933
:104560000000000001020304000000000000000041
:10457000002F000000000700070000147F147F14C4
:1045800000242A7F2A12006264081323003649554A
:10459000225000000503000000001C224100000022
:1045A00041221C000014083E08140008083E0808B8
:1045B000000000A060000008080808080000606013
:1045C0000000002010080402003E5149453E000052
:1045D000427F4000004261514946002141454B3134
:1045E000001814127F10002745454539003C4A4900
:1045F0004930000171090503003649494936000672
:104600004949291E000036360000000056360000D9
:104610000008142241000014141414140000412254
:10462000140800020151090600324959513E007C2C
:104630001211127C007F49494936003E4141412216
:10464000007F4141221C007F49494941007F0909FF
:104650000901003E4149497A007F0808087F0000AF
:10466000417F4100002040413F01007F081422416A
:10467000007F40404040007F020C027F007F040822
:10468000107F003E4141413E007F09090906003E7E
:104690004151215E007F09192946004649494931A7
:1046A0000001017F0101003F4040403F001F2040CA
:1046B000201F003F4038403F006314081463000788
:1046C0000870080700615149454300007F414100DF
:1046D00000552A552A55000041417F00000402017F
:1046E000020400404040404000000102040000205D
:1046F00054545478007F484444380038444444209B
:1047000000384444487F00385454541800087E0947
:1047100001020018A4A4A47C007F0804047800000F
:10472000447D4000004080847D00007F10284400CC
:104730000000417F4000007C04180478007C0804DD
:10474000047800384444443800FC24242418001819
:10475000242418FC007C0804040800485454542005
:1047600000043F444020003C4040207C001C20408E
:10477000201C003C4030403C004428102844001CD1
:10478000A0A0A07C004464544C44141414141414C9
:104790000000000000000000000000000000000019
:1047A000000000F8000000000000003330000000AE
:1047B00000100C06100C06000000000000000000B5
:1047C00040C07840C0784000043F04043F04040027
:1047D000007088FC08300000001820FF211E000037
:1047E000F008F000E018000000211C031E211E004C
:1047F00000F00888700000001E21232419272110D2
:1048000010160E0000000000000000000000000074
:10481000000000E01804020000000007182040001B
:1048200000020418E000000000402018070000000B
:10483000404080F0804040000202010F010202006F
:10484000000000F0000000000101011F0101010053
:10485000000000000000000080B0700000000000B8
:104860000000000000000000000101010101010141
:1048700000000000000000000030300000000000D8
:1048800000000000806018040060180601000000AD
:1048900000E010080810E000000F102020100F00AA
:1048A000001010F8000000000020203F2020000031
:1048B0000070080808887000003028242221300089
:1048C00000300888884830000018202020110E0091
:1048D0000000C02010F8000000070424243F24003A
:1048E00000F80888880808000019212020110E000F
:1048F00000E0108888180000000F112020110E0021
:1049000000380808C83808000000003F0000000018
:104910000070880808887000001C222121221C00D9
:1049200000E010080810E0000000312222110F0002
:10493000000000C0C0000000000000303000000097
:104940000000008000000000000080600000000007
:104950000000804020100800000102040810200020
:10496000404040404040400004040404040404006B
:104970000008102040800000002010080402010000
:10498000007048080808F000000000303601000000
:10499000C030C828E810E0000718272423140B00B3
:1049A0000000C038E0000000203C2302022738202D
:1049B00008F8888888700000203F202020110E0011
:1049C000C030080808083800071820202010080008
:1049D00008F808080810E000203F202020100F00F1
:1049E00008F88888E8081000203F202023201800BD
:1049F00008F88888E8081000203F20000300000025
:104A0000C03008080838000007182020221E0200C5
:104A100008F808000008F808203F210101213F2084
:104A2000000808F8080800000020203F20200000AF
:104A300000000808F8080800C08080807F0000009F
:104A400008F888C028180800203F200126382000D8
:104A500008F8080000000000203F2020202030003F
:104A600008F8F800F8F80800203F003F003F200059
:104A700008F830C00008F808203F200007183F0061
:104A8000E01008080810E0000F10202020100F0090
:104A900008F808080808F000203F21010101000083
:104AA000E01008080810E0000F18242438504F00C8
:104AB00008F8888888887000203F2000030C302088
:104AC00000708808080838000038202121221C00C6
:104AD000180808F8080818000000203F200000000F
:104AE00008F808000008F808001F202020201F00F8
:104AF0000878880000C83808000007380E01000058
:104B0000F80800F80008F800033C0700073C030021
:104B1000081868808068180820302C03032C302087
:104B20000838C800C83808000000203F20000000F6
:104B300010080808C838080020382621202018004E
:104B4000000000FE020202000000007F4040400022
:104B5000000C30C000000000000000010638C0005A
:104B600000020202FE000000004040407F00000002
:104B70000000040202020400000000000000000027
:104B80000000000000000000808080808080808025
:104B9000000202040000000000000000000000000D
:104BA00000008080808000000019242222223F2003
:104BB00008F8008080000000003F112020110E0046
:104BC0000000008080800000000E112020201100D5
:104BD000000000808088F800000E112020103F2087
:104BE0000000808080800000001F2222222213000B
:104BF000008080F0888888180020203F2020000056
:104C00000000808080808000006B9494949360000A
:104C100008F8008080800000203F210000203F2015
:104C200000809898000000000020203F2020000015
:104C3000000000809898000000C08080807F000005
:104C400008F8000080808000203F24022D302000E2
:104C5000000808F8000000000020203F202000008D
:104C60008080808080808000203F20003F20003FA7
:104C70008080008080800000203F210000203F20B5
:104C80000000808080800000001F202020201F0066
:104C9000808000808000000080FFA12020110E0095
:104CA0000000008080808000000E112020A0FF8086
:104CB000808080008080800020203F212000010033
:104CC0000000808080808000003324242424190088
:104CD000008080E0808000000000001F2020000095
:104CE0008080000000808000001F202020103F20D6
:104CF000808080000080808000010E300806010066
:104D000080800080008080800F300C030C300F000A
:104D100000808000808080000020312E0E31200035
:104D2000808080000080808080818E701806010065
:104D300000808080808080000021302C2221300083
:104D400000000000807C020200000000003F4040A4
:104D500000000000FF00000000000000FF00000055
:104D60000002027C800000000040403F0000000084
:104D7000000601010202040400000000000000001F
:104D8000010202030405060708090A0B0C0D0E0FA9
:104D900010103A252E326600D84D00080000002081
:104DA000F001000028010008E84E0008F001002092
:104DB000E8070000640100081C0000004300000038
:104DC000F8FFFFFF0C0000000E0000000F000000C5
:104DD0002E000000000000004201421025AC33000C
:104DE000AE301E1040B081FFA1A6A83FC8D300D5A9
:104DF00080D805D9F1DA12D8308D14AF1060028C4A
:104E00000814FE9292929292FE00101204047E0107
:104E1000407E42427E427E42427E400E141060023C
:104E20008C00FE929292929292FE00101404047EE4
:104E3000014448507F40407F504844400E12FC24BB
:104E40002424FC252624FC242424040010124030B1
:104E50008F80844C55252525554C8080800010126C
:104E60000414A444AF14040404F40F244404040000
:104E70001012124984423F8141310D030D314181AD
:104E8000810F130202FE929292FE0206FC040404B9
:104E9000FC00101308180F080804FF0484402718AA
:104EA0002740800D1440301E101010FF10101010FD
:104EB0001000101381814121110D0301030D1121F7
:104EC0004181810F12FE02FA02FE4020D817101015
:104ED000F010100010158047300F10678040211629
:084EE00008162140806324F450
:04000005080000ED02
:00000001FF
