:020000040800F2
:10000000804500200101000841270008C9010008BF
:100010003D2700089109000895290008000000000C
:1000200000000000000000000000000013010008B4
:1000300095090008000000005301000891280008FD
:100040001B0100081B0100081B0100081B01000820
:100050001B0100081B0100081B0100081B01000810
:100060001B0100081B0100081B0100081B01000800
:100070001B0100081B0100081B0100081B010008F0
:100080001B0100081B0100081B0100081B010008E0
:100090001B0100081B0100081B0100081B010008D0
:1000A0001B0100081B0100081B0100081B010008C0
:1000B0007D290008892900081B0100081B01000890
:1000C0001B0100081B0100081B0100081B010008A0
:1000D0001B0100081B0100081B0100081B01000890
:1000E0001B0100081B0100081B010008DFF80CD0F1
:1000F00000F002FC004800473D0900088045002050
:100100000648804706480047FEE7FEE7FEE7FEE7B1
:10011000FEE7FEE7FEE7FEE7FEE7FEE779290008D7
:10012000ED000008EFF3108072B6704780F310887E
:100130007047324A1368012B04D04FF0010313605B
:100140002F4A10602F4A11602F484FF080510160F4
:100150007047EFF3108272B62848016891B14FF0F2
:10016000000101602648016829B1EFF3098121E906
:10017000F00F00680160234909680968B1E8F00FD1
:1001800081F3098882F310884EF0040E70471D49F0
:1001900008601B494FF00000086018494FF001004B
:1001A00008601A481A49D0F8002041EA02010160AB
:1001B00015484FF08051016016480068006880F3D0
:1001C000088861B662B670471EF0040F0CBFEFF3EB
:1001D0000880EFF3098020E9F00F40F804ED1EF0ED
:1001E000040F0CBF80F3088880F3098800B504F081
:1001F0008FFC5DF804EB4EF0040E70477441002054
:10020000E83E0020F03E002004ED00E020ED00E09C
:100210000000FFFF08ED00E0D2B201E000F8012B82
:10022000491EFBD270470022F6E710B513460A4676
:1002300004461946FFF7F0FF204610BD10B50446EE
:1002400004E00B7800F8013B03B1491C521EF8D2C0
:10025000204610BD421C10F8011B0029FBD1801A5A
:10026000704730B505460020034600E05B1C934212
:1002700005D2EC5CC85C201A01D1002CF6D130BD4F
:1002800080EA010210B502F00043400022D04A008B
:100290001FD0010E01EB1261C0F35600C2F35602EB
:1002A00040F4000042F40002A0FB022000047F3969
:1002B000140400D0401C50EA124001D44000491EF2
:1002C000C2B20C0604EBD010401C4008802A02D0B9
:1002D00003E0002010BD20F00100002900DA00201A
:1002E000184310BD2DE9FE4F804681EA0300C00F80
:1002F0000C46009021F0004123F00045B8EB0200CD
:10030000A94105D24046214690461C460B4602466E
:1003100023F00040104347D0270DC7F30A00C3F372
:100320000A510290401A019040286BDAC3F313007F
:1003300040F4801B0098924620B10023D2EB030AC0
:1003400063EB0B0B01985946C0F14002504600F098
:10035000EDF906460D4650465946019A00F0F5F96A
:1003600010EB08006141002487EA115284EAE77328
:100370001A4340D0009A62B3019A012A4FEA075209
:1003800015DC001B61EB02014FF0004202EA07524C
:10039000CDE90042001C41F5801132462B4600F0A9
:1003A0002CFA03B0BDE8F08F40462146F9E7001B68
:1003B00061EB0201001C41F5801300185B4120181D
:1003C000A2F5001747EB030140EAD570B6196D415D
:1003D00011E06D084FEA360645EAC0754FEA07524C
:1003E000001B61EB0201001C41F5801149084FEA36
:1003F00030000019514132462B4603B0BDE8F04FA2
:1004000000F0ECB90098012240000023D0EB02027A
:1004100063EBE073009821464FEAE074B8EB00000C
:1004200061EB0401E9E783F000435BE781F0004101
:1004300058E72DE9FE4F81EA030404F0004421F05F
:10044000004100944FF0000B23F0004350EA0104F8
:100450005ED052EA03045BD0C3F30A54C1F30A55D9
:100460002C44A4F2F3340194A0FB0254C1F3130111
:1004700041F48011C3F3130343F4801301FB0244DE
:1004800000FB034E840A970A44EA815447EA8357E3
:10049000A4FB076802958D0A05FB07854FEA932C9C
:1004A00004FB0C542705029D4FEA065847EA16370D
:1004B000B5EB08056EEB070C870E920E47EA811725
:1004C00042EA8312A7FB0201B6EB0B0164EB0004C6
:1004D0002B0D43EA0C335E1844EB1C50DA465146B0
:1004E000E7FB0201C5F313044FEA0B3343EA14534D
:1004F0004FEA0432019C43EA0603A4F10C0402947F
:10050000009CCDE900B400F078F903B0BDE8F08FAD
:1005100000200146F9E72DE9F04D81EA030404F0DB
:10052000004B21F0004514464FF0000A23F0004133
:1005300050EA050220D054EA01021DD0C5F30A5743
:100540000246C5F31303C1F31300C1F30A5640F486
:10055000801543F48013A7EB0608101BD64608F25B
:10056000FD3873EB050002D308F1010801E0921891
:100570005B41B8F1000F03DA00200146BDE8F08DC1
:1005800000204FF48011064684460EE0171B73EBE3
:10059000050705D3121B63EB050306434CEA010C68
:1005A00049084FEA300092185B4150EA0107EDD14B
:1005B00052EA030012D082EA040083EA05010843EC
:1005C00005D0101BAB4106D20122002306E0002219
:1005D0004FF0004302E06FF0010253101AEB0600E7
:1005E0004CEB085110EB0A0041EB0B01BDE8F04D5C
:1005F00000F0F4B80EB540F2334102910021CDE98C
:1006000000110A460B4600F0F8F803B000BD00F0F8
:10061000004220F00040C10DC0F3160040F400007D
:100620007F2901DA00207047962903DCC1F1960189
:10063000C84001E096398840002AF4D04042704713
:1006400000F0004230F000400AD0C10D01F56071A9
:10065000C0F3160042EA0151C20840071143704737
:1006600000200146704701F0004330B421F0004102
:1006700050EA010206D00A0DA2F56072C1F313011F
:10068000002A02DC30BC00207047440F44EAC10459
:10069000C100E01830BC00EBC25000F068B830B5C3
:1006A0000B46014600202022012409E021FA02F530
:1006B0009D4205D303FA02F5491B04FA02F52844CA
:1006C000151EA2F10102F1DC30BD2DE9F05F0546F7
:1006D000002092469B4688460646814640241BE001
:1006E000284641464746224600F018F953465A46E6
:1006F000C01A914110D311461846224600F016F850
:100700002D1A67EB01084F4622460120002100F018
:100710000DF817EB00094E41201EA4F10104DFDCA7
:10072000484631462A464346BDE8F09F202A04DB6E
:10073000203A00FA02F1002070479140C2F12003F4
:1007400020FA03F3194390407047202A06DBCB17A9
:10075000203A41FA02F043EAE07306E041FA02F37C
:10076000D040C2F120029140084319467047002949
:10077000A8BF7047401C490008BF20F00100704727
:1007800010B4B0FA80FC00FA0CF050EA010404BF87
:1007900010BC704749B1CCF1200421FA04F411FADD
:1007A0000CF118BF012121430843A3EB0C01CB1D21
:1007B0004FEA00614FEA102042BF002010BC704792
:1007C00000EBC35010440029A4BF10BC7047401C6C
:1007D000490008BF20F0010010BC704710B5141E7E
:1007E00073F1000408DA401C41F1000192185B41EA
:1007F0001A4301D120F0010010BD2DE9F04D9246C1
:100800009B4611B1B1FA81F202E0B0FA80F22032D7
:100810009046FFF78BFF04460F4640EA0A0041EA84
:100820000B0153465A46084313D0114653EA0100C0
:1008300019D0C8F14002504600F070F805460E4647
:10084000504659464246FFF771FF084305D0012044
:1008500004E020463946BDE8F08D0020054346EA15
:10086000E0762C4337430A986305E40AA0EB0800BE
:100870000022FD0A44EA47540A3002D5002001460E
:10088000E9E7010510196941DDE9084500196941E9
:10089000BDE8F04DA2E7C1F30A52C1F3130140F2E3
:1008A000FF3341F480119A4202DA0020014670477A
:1008B00040F233439A42A2F2334202DC524200F049
:1008C0002DB8FFF733BF000030B5041E71F10004EE
:1008D00004DB4FF00044404264EB0101141E73F14D
:1008E000000405DB1C464FF00043524263EB040357
:1008F000994208BF904230BD064C074D06E0E068C3
:1009000040F0010394E8070098471034AC42F6D356
:10091000FFF7F0FB787B0008987B0008202A04DBB7
:10092000203A21FA02F00021704721FA02F3D04068
:10093000C2F12002914008431946704780B582B049
:10094000FFF7F0FB04F080F804F024FF05F0E8F86E
:1009500005F038F80A20009047F6340043F6A1412C
:100960004FF0140CC0F60000C0F6000100224FF456
:100970008063CDF804C005F0DDF805F06FFA05F0EE
:10098000D7F805F08DF905F0B3F8002002B080BD6E
:10099000FEE7000070470000EFF3108072B600BF62
:1009A000FEE700002DE9F04F82B041F20042C4F2B0
:1009B00001020E680423904208BF0323002E009317
:1009C00000F0F68040F2004C4FF6FF7E0022C4F2A9
:1009D000010C0124C1F2100E4FF0000A4FF0000983
:1009E00047E000BF012502F00C040F27A7402BEAC7
:1009F000070705FA04F43C4343F82640D1F804B055
:100A000040F20C455FEACB23DCF8083054BF23EA00
:100A1000080343EA0803C4F20105CCF808302B6848
:100A20005FEA8B2454BF23EA080343EA08032B60E0
:100A30005FEA8B34DCF8043054BF23EA080343EA4E
:100A400008035FEACB34CCF80430DCF800304FF018
:100A5000010454BF23EA080343EA0803CCF800303A
:100A60000E680AF1010A36FA0AF302F1040200F0F4
:100A70009F8004FA0AF816EA080FF1D04B68734514
:100A800012DC122B56D8DFE803F0350B45495555DB
:100A900055555555555555555555554D510000BF52
:100AA000D1F80C9046E000BF4FF6FF75C1F221056A
:100AB000AB420FDC0025C1F21105AB421AD0002574
:100AC000C1F21205AB4215D00025C1F22105AB429F
:100AD00010D02FE00025C1F22205AB420AD000253C
:100AE000C1F23105AB4205D00025C1F23205AB425F
:100AF00020D100BF8B684BB1012B14BFC0F814800C
:100B0000C0F810804FF0080914E000BF4FF004094E
:100B100010E000BFCB6803F108090BE04FF00009BB
:100B200008E000BFCB6803F1040903E0CB6803F1E0
:100B30000C0900BF13460546BAF1080F24BF203B3D
:100B400004352E680F279F40BE4309FA03F3334351
:100B50002B60CB79DB067FF583AF41F21804C4F23A
:100B6000020423684FEA9A0643F0010323602368D6
:100B700040F6000403F001030193019BACF57E7382
:100B800053F826B0C4F20104A0420FD040F600444E
:100B9000C4F20104A0423FF425AF41F20004C4F2C4
:100BA0000104009DA04208BF02251CE700251AE7AA
:100BB00002B0BDE8F08F0000002A08BF09040161FF
:100BC0007047000044F27C10C2F2000000687047D9
:100BD00080B542F20000C4F20200016841F0100149
:100BE0000160032000F08AF8002000F005F800F012
:100BF00027F8002080BD000070B540F20406C2F264
:100C0000000640F20C013278C2F200014FF47A7310
:100C10000968B3FBF2F20446B1FBF2F1084600F0BA
:100C200065FB0F2C4FF0010508D838B94FF0FF30A5
:100C300021460022002500F035F87460284670BD7A
:100C400082B041F21800C4F202000168022241F0B1
:100C500001010160016801F0010101910199416800
:100C600041F080514160406800F080500090009851
:100C70000420C4F20100016862F31A61016002B04D
:100C800070470000002848BF704700F01F01012294
:100C900002FA01F14EF200124009CEF2000242F8CF
:100CA0002010704710B54EF60C5CCEF2000CDCF84C
:100CB0000030C3F3022E8EF00704042C28BF042456
:100CC000BEF103034FF0FF3E0EFA04F438BF0023D9
:100CD000A14399400EFA03F39A43114300F00F0227
:100CE000043A624409010C3200F16043B0F1FF3F65
:100CF000C8BF03F56442117010BD00004EF60C51E0
:100D0000CEF200010A684FF6FF031A4060F30A2290
:100D100042F0806040F0FD70086070472DE9F043BC
:100D200081B0002800F0858042F20008C4F2020879
:100D30000446D8F800000D4600F0070088420CD2A7
:100D4000D8F8000020F007002843C8F80000D8F8C1
:100D5000000000F00700A8426BD1206841F20409AE
:100D60008107C4F2020917D5410705D5D9F800104B
:100D700041F4E061C9F80010010705D5D9F8001069
:100D800041F46051C9F80010D9F80010A26821F0B0
:100D9000F0011143C9F80010C00741D1D8F8000094
:100DA00000F00700A8420CD9D8F8000020F0070096
:100DB0002843C8F80000D8F8000000F00700A84257
:100DC00037D12068410707D5D9F80010E26821F42F
:100DD000E0611143C9F80010000708D5D9F80000F8
:100DE000216920F4605040EAC100C9F80000D9F838
:100DF000002002F00C00082841F20020C0F27A0026
:100E000050D147F2D253C2F38341C0F60003595C7C
:100E1000D2033BD440F60010C0F23D00484341E00D
:100E2000606802280AD001282AD159F8041C8903D5
:100E300008D4012001B0BDE8F08300BF59F8041CBC
:100E40008901F6D5D9F8001021F003010843C9F84B
:100E50000000FFF7B7FE064641F28837D9F80000D8
:100E6000616800F00C00B0EB810F97D0FFF7AAFE8D
:100E7000801BB842F2D9032001B0BDE8F08300BF67
:100E800059F8041C8907D4D5DCE700BFD9F8002045
:100E900047F2D043C2F34042C0F600039A5C484395
:100EA000B0FBF2F0D9F8001047F2B842C1F30311D9
:100EB000C0F60002515C40F20C0220FA01F140F24F
:100EC0000800C2F200000068C2F200021160FFF7E1
:100ED00093FE002001B0BDE8F083000040F20C005A
:100EE000C2F200000068704740F20C0041F20401B9
:100EF000C2F20000C4F202010068096847F2C84269
:100F0000C1F30221C0F60002515CC84070470000E6
:100F100040F20C0041F20401C2F20000C4F20201EE
:100F20000068096847F2C842C1F3C221C0F6000256
:100F3000515CC840704700002DE9F04182B00028A4
:100F400068D00446007841F20006C007C4F20206E9
:100F500025D0706800F00C0004281BD0706800F0E9
:100F60000C00082802D17068C00313D46068002800
:100F700000F06881B0F5A02F00F07C81B0F5803FD3
:100F800000F07C81306820F480303060306820F4DC
:100F9000802076E13068800301D56068D0B3207886
:100FA000800718D5706810F00C0F07D0706800F03B
:100FB0000C0008286ED17068C0036BD430688007BD
:100FC00002D52069012825D13068616920F0F80038
:100FD00040EAC1003060207800071FD42078400725
:100FE00032D4E56995B1706800F00C00082840F033
:100FF0008F80012D0ED07068216A00F480328A4201
:1010000008D1616A00F47010884203D1002002B058
:10101000BDE8F081012002B0BDE8F081A0690028A0
:1010200062D00020C4F242200121C0F88014FFF7F2
:10103000C9FD0546706A800700F18C80FFF7C2FD8C
:10104000401B0228F6D92AE1F06910F0805808D137
:10105000F06940F08050F061F06900F0805000903D
:10106000009847F20007C4F200073868C00529D489
:10107000386840F480703860FFF7A4FD054600BF73
:101080003868C0051ED4FFF79DFD401B6428F7D9C2
:1010900005E100BF2069002840F20000C4F24220B0
:1010A00000F0828001210160FFF78CFD054600BF42
:1010B000306880073FF588AFFFF784FD401B0228AA
:1010C000F6D9ECE0E068002800F08080052800F008
:1010D0009780012800F09880306A20F0010030628B
:1010E000306A20F0040092E00020C4F24220002187
:1010F000C0F88014FFF766FD054600BF706A8007E0
:101100007FF56CAFFFF75EFD401B0228F6D9C6E005
:101110000027C4F2422700203866FFF753FD022D56
:1011200005460BD13068800140F1BE80FFF74AFDD3
:10113000401B02284FF00300F4D968E730688001B3
:101140007FF564AFFFF73EFD401B02284FF0030020
:10115000F4D95CE740F20C00C2F20000006844F6EB
:10116000D351C1F26201A0FB0101480A019000BF06
:1011700000BF0198411E002801913FF42FAF00BF2E
:101180000198411E002801913FF428AF00BF01984B
:10119000411E002801913FF421AF00BF0198411E7C
:1011A00000280191E4D119E700210160FFF70AFD51
:1011B000054600BF306880077FF50DAFFFF702FDE1
:1011C000401B02284FF00300F4D920E7306A20F0DA
:1011D00001003062306A20F004003062FFF7F2FC58
:1011E000054641F2883700BF306A800720D5FFF7F7
:1011F000E9FC401BB8424FF00300F5D907E700BFF8
:10120000306A40F004003062306A40F00100306221
:10121000FFF7D8FC054641F2883700BF306A8007E7
:1012200006D4FFF7CFFC401BB842F7D937E000BF28
:10123000B8F1000F7FF4D5AEF06920F08050F06176
:10124000CFE600BF306820F480303060306820F492
:1012500080203060FFF7B6FC054600BF3068800391
:101260007FF59DAEFFF7AEFC401B64284FF00300F6
:10127000F4D9CCE6306840F480203060306840F427
:1012800080303060FFF79EFC054600BF3068800369
:101290003FF585AEFFF796FC401B6428F6D9032086
:1012A00002B0BDE8F08100BF206AB0F5803F05D1F3
:1012B0007168A26821F40031114371607168626A3B
:1012C00021F4741110430843706001203866FFF761
:1012D00079FC0446306880013FF598AEFFF772FC58
:1012E000001B02284FF00300F4D990E6411E0020B5
:1012F000B0EB116F1CBF012070474EF21002CEF20E
:10130000000251604EF62351CEF20001F0230B7023
:10131000072190601160704770470000704700001F
:1013200010B590F83C20012A4FF0020233D080F82B
:101330003D200268D2F804E0D2F808C00C682EF014
:101340007003234340F2FF74C4F20004A2425360CE
:101350000ADCB2F1804F13D040F20043C4F2000324
:101360009A420DD011E000BF42F60043C4F20103DF
:101370009A4205D040F60003C4F200039A4204D119
:1013800049682CF08003194391600121002280F804
:101390003D1080F83C20104610BD0000002804BF1E
:1013A0000120704710B5044690F83D0028B9002090
:1013B00084F83C00204600F067F8022084F83D00E5
:1013C000206840F2FF730268C4F2000342F6004C4A
:1013D0009842C4F2010C15DCB0F1804F1AD040F2F3
:1013E0000041C4F20001884214D0984218DCB0F1E8
:1013F000804F1DD040F20041C4F20001884217D056
:101400001AE000BF604505D040F60001C4F20001BB
:101410008842EAD1A16822F070020A439842E6DDD0
:10142000604505D040F60001C4F20001884203D1B6
:10143000216922F440720A43A36922F08001D4F8A2
:1014400004E0E268194360450160C262C0F828E028
:1014500002D16169CCF8301001214161002084F88B
:10146000461084F83E1084F83F1084F8401084F849
:10147000411084F8421084F8431084F8441084F832
:10148000451084F83D1010BD80B586B0006840F26C
:101490000042C4F2000200219042059132D0B0F126
:1014A000804F2CD141F21C00C4F20200016841F0CF
:1014B00001010160016801F001010191019950F8F9
:1014C000041C41F0040140F8041C50F8040C02A96B
:1014D00000F0040001900198012002900020CDE965
:1014E000030040F60000C4F20100FFF75BFA1C2085
:1014F00000210022FFF7D6FB1C20FFF7C3FB06B03C
:1015000080BD00BF41F21C00C4F20200016800224D
:1015100041F0020101600068002100F0020001902A
:1015200001981D20FFF7BEFB1D2006B0BDE88040DE
:10153000FFF7A8BB80B590F83C20012A4FF00202CB
:1015400000F0C28080F83D20D0F800C04FF67772DE
:10155000DCF8083023EA0202CCF808200B684F2B95
:1015600028DC1F2B44DD202B45D0302B43D0402BD3
:1015700040F0AC80D1F804E0C968DCF82030DCF839
:10158000202022F00102CCF82020DCF8182022F0E4
:10159000F00242EA011123F00A0242EA0E02CCF8FC
:1015A0001810CCF82020DCF8081041F0470121F099
:1015B000300180E06F2B27DDB3F5005F48D0B3F535
:1015C000805F7AD0702B40F08180D1E901E3C96857
:1015D000DCF8082043EA0E0322F47F4243EA0121AB
:1015E0001143CCF80810DCF8081041F0770162E0F4
:1015F0000BB1102B6AD1DCF8081021F070011943EF
:1016000041F0070157E000BF502B35D0602B5DD172
:10161000D1F804E0C968DCF82030DCF8202022F0A2
:101620001002CCF82020DCF8182022F4704242EAA4
:10163000013123F0A00242EA0E12CCF81810CCF8C7
:101640002020DCF8081041F0670121F0100132E0A1
:10165000D1E901E3C968DCF8082043EA0E0322F46B
:101660007F4243EA01211143CCF80810DCF808104E
:1016700041F480411FE000BFD1F804E0C968DCF804
:101680002030DCF8202022F00102CCF82020DCF809
:10169000182022F0F00242EA011123F00A0242EA85
:1016A0000E02CCF81810CCF82020DCF8081041F01D
:1016B000570121F02001CCF808100022012180F808
:1016C0003D10002180F83C10104680BD0122F5E756
:1016D000B0B50068B0F1804F00D0B0BD40F2400519
:1016E000C2F200052878022818D0012818BFB0BD22
:1016F00040F29414C2F200042046002100F0E8FCFD
:101700002168E860086A20F00A000862086A40F070
:1017100002000862287801302870B0BD40F29414AD
:10172000C2F200042046002100F0D2FC28612046CD
:10173000002100F0D5F9287801302870B0BD0000F4
:10174000F0B590F83C30012B04BF0220F0BD4FEA09
:10175000B202032A22D8DFE802F00327476500BF60
:101760000368D1E900C5D1F80CE01C6A1A6A40F29E
:10177000FF7722F001021A621A4652F8186FC4F27B
:101780000007BB4272DCB3F1804F7BD040F20047D0
:10179000C4F20007BB4275D08EE000BF01210022D9
:1017A00080F83C200846F0BD0368D1E900E6D1E9A5
:1017B00002C11C6A1A6A360222F010021A621A4624
:1017C00052F8185F4FF2FF07BE4325F4734561F3EB
:1017D0000F3624F0A0040EF00A0746EA050144EA99
:1017E000071711601F623AE00768D1E900C5D1E927
:1017F00002313C6A3A6A61F3071522F480723A6258
:101800003A4652F81C6F26F0F30645EA0601CCF37F
:10181000560666F3492411603C62116821F00C0100
:10182000116040E00368D1E900E6D1E902C11C6A19
:101830001A6A360222F480521A621A4652F81C5F63
:101840004FF2FF07BE4325F4734561F30F36CEF325
:10185000520746EA050167F34D3411601C621168B6
:101860004FEA0C2321F4406111601CE042F600476E
:10187000C4F20107BB4205D040F60007C4F20007DE
:10188000BB4219D126F00306354324F00A070CF0B9
:101890000A066EF3071537449D611F629F6927F0A2
:1018A0000C079F618B6811681943116000210022A9
:1018B00080F83C200846F0BD46F00105E5E7000051
:1018C000002804BF0120704710B5044690F83D0081
:1018D00028B9002084F83C00204600F067F8022078
:1018E00084F83D00206840F2FF730268C4F20003F0
:1018F00042F6004C9842C4F2010C15DCB0F1804F66
:101900001AD040F20041C4F20001884214D098423B
:1019100018DCB0F1804F1DD040F20041C4F200014C
:10192000884217D01AE000BF604505D040F600019C
:10193000C4F200018842EAD1A16822F070020A4391
:101940009842E6DD604505D040F60001C4F2000192
:10195000884203D1216922F440720A43A36922F02C
:101960008001D4F804E0E268194360450160C26276
:10197000C0F828E002D16169CCF830100121416142
:10198000002084F8461084F83E1084F83F1084F854
:10199000401084F8411084F8421084F8431084F811
:1019A000441084F8451084F83D1010BD70470000C5
:1019B00061B1082916D0042919BF00F1410200F1D4
:1019C000450300F13F0200F143030FE090F83E2091
:1019D00090F84230012A4FF0010208BF012B1DD0C0
:1019E0001046704700F1400200F1440312781B7862
:1019F000012A4FF0010208BF012BF1D10222082970
:101A000018D0042922D180F83F2080F843204FEAE3
:101A1000B103032B4FF00102E2D821E0022280F84B
:101A20003E2080F842204FEAB103032B4FF0010221
:101A3000D6D815E080F8402080F844204FEAB10362
:101A4000032B4FF00102CBD80AE000BF80F8412001
:101A500080F845204FEAB103032B4FF00102BFD8B5
:101A600047F2E45C0068C0F6000C5CF823C0C36871
:101A700001F01F0143EA0C03C360036A02FA01F19B
:101A800023EA01020262026A114340F2FF72C4F2C9
:101A900000029042016209DCB0F1804F12D040F2A6
:101AA0000041C4F2000188420CD012E042F600412D
:101AB000C4F20101884205D040F60001C4F20001E1
:101AC000884206D1816801F00701062904BF002081
:101AD00070470168002241F0010101601046704723
:101AE00010B54FEAB102032A4FF0010C45D847F276
:101AF000F45E0368C0F6000E5EF822E0DA6802EADF
:101B00000E02DA6001F01F0E1C6A0CFA0EF224EAD3
:101B100002021A621A6A41F211141A621A6A224205
:101B200008D11A6A40F24444224203D11A6822F0D2
:101B300001021A6051B1082910D0042916D10121DF
:101B400080F83F1080F84310002010BD012180F87C
:101B50003E1080F84210002010BD00BF012180F827
:101B6000401080F84410002010BD00BF01214FF04C
:101B7000000C80F8411080F84510604610BD000050
:101B800010B5016804460869800744BFC8685FEA69
:101B9000807039D40869400744BFC8685FEA407064
:101BA0003ED40869000744BFC8685FEA007045D4A6
:101BB0000869C00644BFC8685FEAC0604AD40869C3
:101BC000C0071CBFC8685FEAC07051D10869000631
:101BD00044BFC8685FEA006052D40869400644BF49
:101BE000C8685FEA406053D40869800646BFC86889
:101BF0005FEA806010BD6FF0200220460A61BDE8F8
:101C00001040FFF78BBB00BF6FF00200086101209E
:101C100020778869800743D02046FFF759FD45E0CB
:101C20006FF00400086102202077886910F4407F7B
:101C300040D02046FFF74CFD42E000BF6FF00800A7
:101C4000086104202077C86980073DD02046FFF74F
:101C50003FFD3FE06FF01000086108202077C86961
:101C600010F4407F3AD02046FFF732FD3CE000BF41
:101C70006FF001000861204600F028FA2168A5E70E
:101C80006FF0800008612046FFF746FB2168A4E75B
:101C90006FF040000861204600F034FA2168A3E7A5
:101CA000204600F025F8204600F09EF9216800202B
:101CB00020776FE7204600F01BF8204600F094F9EB
:101CC0002168002020776CE7204600F011F82046BC
:101CD00000F08AF921680020207769E7204600F0AB
:101CE00007F8204600F080F921680020207766E799
:101CF000704700002DE9F04390F83C30012B04BF01
:101D00000220BDE8F0834FEAB202032A3CD8DFE8A4
:101D100002F003437FB900BF036842F600461D6A24
:101D20001A6AC4F2010622F001021A621A465C68BD
:101D300052F818CFB3428E68D1F800E025F00205C2
:101D400045EA06050CD1CE68D1E9057824F4407443
:101D500025F00C0526F004063C43354344EA08040C
:101D60002CF0730747EA0E075C609F614F680969B2
:101D70005F631D629F6947F008079F619F6927F0B5
:101D800004079F61AEE000BF0121002280F83C20E3
:101D90000846BDE8F08300BF036842F600461D6AAE
:101DA0001A6AC4F2010622F010021A621A46D3F827
:101DB00004C052F8184FB3428E68D1F800E025F005
:101DC000200545EA06150FD1CE68D1E905986FF0D8
:101DD000400707EA06162CF4406725F0C00547EADD
:101DE0008907354347EA880C24F4E64444EA0E2781
:101DF000C3F804C09F614F6809699F631D629F69B2
:101E000047F400679F619F6927F480679F6168E0DE
:101E1000036842F600461D6A1A6AC4F2010622F4FB
:101E200080721A621A46D3F804C052F81CEFB3420B
:101E30008E680C6825F4007545EA06250FD1CE683A
:101E4000D1E90598360240F2FF47BE432CF44057D3
:101E500025F4406547EA0917354347EA081C2EF088
:101E600073072743C3F804C0DF614F680969DF6364
:101E70001D62DF6947F00807DF61DF6927F00407AB
:101E8000DF612FE0036842F60047D3F820C01A6AEA
:101E9000C4F2010722F480521A621A465C6852F8B2
:101EA0001C5FD1F800E08E68BB4204D14F6924F476
:101EB000804444EA87142CF4005747EA063725F497
:101EC000E64646EA0E265C60DE614E6809691E64DD
:101ED0001F62DF6947F40067DF61DF6927F480670D
:101EE000DF6109021368194311600021002280F8A4
:101EF0003C200846BDE8F083002804BF012070475D
:101F000010B5044690F83D0028B9002084F83C0044
:101F1000204600F067F8022084F83D00206840F277
:101F2000FF730268C4F2000342F6004C9842C4F208
:101F3000010C15DCB0F1804F1AD040F20041C4F220
:101F40000001884214D0984218DCB0F1804F1DD0B7
:101F500040F20041C4F20001884217D01AE000BFED
:101F6000604505D040F60001C4F200018842EAD184
:101F7000A16822F070020A439842E6DD604505D070
:101F800040F60001C4F20001884203D1216922F425
:101F900040720A43A36922F08001D4F804E0E268A9
:101FA000194360450160C262C0F828E002D161694E
:101FB000CCF8301001214161002084F8461084F8EB
:101FC0003E1084F83F1084F8401084F8411084F8E3
:101FD000421084F8431084F8441084F8451084F8C3
:101FE0003D1010BD704700007047000041B1082946
:101FF00010D0042914BF00F1410200F13F020BE0B0
:1020000090F83E20012A1CBF01207047022280F870
:102010003E2013E000F140021278012A1CBF01208B
:1020200070470222082907D0042914BF80F84120F4
:1020300080F83F2002E000BF80F84020006801F0F7
:102040001F010122036A8A4023EA02010162036A36
:1020500042F64441C4F201011A43A1F144039842FB
:1020600002620FD040F2FF71C4F20001884213DC1B
:10207000B0F1804F1CD040F20041C4F20001884210
:1020800016D01CE00A6842F400420A6040F2FF7178
:10209000C4F200018842EBDD42F60041C4F20101C6
:1020A000884205D040F60001C4F20001884206D102
:1020B000816801F00701062904BF0020704701680C
:1020C00041F00101016000207047000070470000EE
:1020D0004FEAB101032984BF00207047DFE801F017
:1020E000020E060A006834300068704700683C3011
:1020F00000687047006840300068704700683830FA
:102100000068704770470000002804BF0120704736
:1021100010B5044690F8410028B9002084F840002A
:10212000204600F061F8242084F841002068D4E9BA
:102130000212C36823F40053C360036923F44053BD
:102140001A430261D4E904231143C268194341F2DE
:102150000C639A431143C1604169A26921F4407143
:10216000114343F60002C4F201029042416103D0E0
:10217000FEF7BAFE02E000BFFEF7CAFE6268192150
:1021800048439100B0FBF1F048F21F51C5F2EB114A
:10219000A0FB01235A096FF0630302FB0300322303
:1021A00003EB0010A0FB0101F02303EA51132068A8
:1021B00003EB0212C1F3431111448160016921F460
:1021C00090410161416921F02A014161C16841F4F6
:1021D0000051C16000202021606484F8411084F81F
:1021E0004210606310BD000070B586B040F6000478
:1021F000C4F20104006804F54051002688420496A8
:1022000002D006B070BD00BF41F21800C4F2020057
:10221000016802AD41F480410160016801F4804130
:1022200001910199016841F00401016000682946AB
:1022300000F00400019001984FF400700290022019
:102240000390032005902046FEF7ACFB4FF480601E
:10225000CDE90206204629460496FEF7A3FB06B008
:1022600070BD00002DE9F04381B0044690F84100B4
:10227000202840F0B1800F4600294FF0010000F007
:10228000D0801646002A00F0CC804FF000082120B4
:102290001D46C4F8448084F84100FEF793FCA684F0
:1022A000E684A1680646B1F5805F05D12069002863
:1022B00014BF3846B8460746E18C2068002900F074
:1022C0008F8005F101090AE047B317F8011B41604F
:1022D000E18C0139E184E18C002900F08180016802
:1022E0000906F1D4B9F1000F0AD0EDB1FEF76AFC8E
:1022F000801BA84218D8206801680906F6D5E3E7D4
:1023000001680906E0D4016809065CBF01685FEA5C
:102310000161D9D401680906F2D5D5E738F8021B66
:1023200000276FF35F21D2E7206850E8030F216890
:1023300020F4D07041E80302BAB3206850E8030FDC
:10234000216820F4D07041E8030272B3206850E89D
:10235000030F216820F4D07041E803022AB32068FB
:1023600050E8030F216820F4D07041E80302002AEE
:10237000DAD11AE0206850E8050F216820F001004A
:1023800041E80502DAB1206850E8050F216820F025
:10239000010041E8050292B1206850E8050F21686C
:1023A00020F0010041E805024AB1206850E8050F1D
:1023B000216820F0010041E80502002ADAD120203E
:1023C00084F8410084F84200002084F84000032093
:1023D00001B0BDE8F08300BF022001B0BDE8F0838A
:1023E0000168490619D4FDB1691C0DD1016849067F
:1023F00013D4016849065CBF01685FEA41610CD4EF
:1024000001684906F2D508E0FEF7DCFB801BA84214
:102410000AD8206800684006F6D5202084F84100DC
:10242000002001B0BDE8F083206850E8030F216868
:1024300020F4D07041E80302E2B3206850E8030FB3
:10244000216820F4D07041E803029AB3206850E874
:10245000030F216820F4D07041E8030252B32068D2
:1024600050E8030F216820F4D07041E80302002AED
:10247000DAD11FE0206850E8050F216820F0010044
:1024800041E80502002A9AD0206850E8050F21682B
:1024900020F0010041E80502002A3FF490AF2068D7
:1024A00050E8050F216820F0010041E80502002AEC
:1024B0003FF485AF206850E8050F216820F0010047
:1024C00041E80502002AD5D179E700002DE9F04165
:1024D00084B041F21800C4F20200016840F6000422
:1024E00041F0200101600168C4F2010401F0200103
:1024F000009100990168002241F004010160006828
:1025000040F6020100F004000090009820464FF0D1
:102510000008FEF751FB03206D46022701260390B9
:10252000204629460097CDE90166FEF73BFA4FF4B5
:1025300000608DE84101204629460397FEF732FAF4
:1025400004B0BDE8F081000010B58AB040F29410EC
:102550000021C2F200004FF6FF740991CDE9071186
:10256000CDE90411CDE90211CDE900114FF080420F
:102570004723C0E9021401618021C0E90023816181
:10258000FEF70CFF002818BFFEF706FA4FF4805044
:10259000069040F29410C2F2000006A9FEF7CAFFAE
:1025A000002818BFFEF7F8F940F29410C2F20000BC
:1025B000FFF786F9002818BFFEF7EEF940F29410F5
:1025C0000024C2F2000004A9CDE90444FEF7A8FEED
:1025D000002818BFFEF7E0F90120CDE9010440F220
:1025E0009410C2F200006946002200940394FFF7A1
:1025F000A7F8002818BFFEF7CFF90AB010BD0000F9
:10260000B0B594B040F2004540F2DC10C4F20005D1
:102610000021C2F2000041F61F4240F2CF730E913A
:10262000CDE90C110991CDE90711CDE90511CDE9ED
:102630000311CDE90111C0E90052C0E902130161A3
:102640008161FEF7ABFE002818BFFEF7A5F94FF435
:1026500080500B9040F2DC10C2F200000BA9FEF794
:1026600069FF002818BFFEF797F940F2DC10C2F2AC
:102670000000FFF741FC002818BFFEF78DF940F27B
:10268000DC100024C2F2000008A9CDE90844FEF7DE
:1026900047FE002818BFFEF77FF96020CDE901044E
:1026A0000394059440F2DC14C2F2000401A9204610
:1026B0000022FFF71FFB002818BFFEF76DF9206806
:1026C0000021A842129101D014B0B0BD41F218000F
:1026D000C4F20200016841F004010160006810A921
:1026E00000F004000F900F984020109002201190ED
:1026F000139005F58230FEF755F914B0B0BD000017
:1027000080B540F2242043F60001C2F20000C4F27A
:10271000010100234FF00C0C4FF4E13280E80E0071
:10272000C0E90333C0E905C3C361FFF7EDFC00282E
:1027300008BF80BDBDE88040FEF72EB9FEE700006F
:10274000FEE70000F0B581B040F24005C2F200059E
:102750002878032834D000285CD140F60007C4F262
:1027600001074EF21806384602210122CEF2000679
:10277000FEF722FA56F8040C44F6D352C0EB0011CF
:102780004900C1F26202A1FB0212346891090022E1
:1027900008E000BF2244D21A9C4298BF02448A42F9
:1027A0001C4639D233689C42F4D133689C42F1D143
:1027B00033689C42EED133689C42F3D0EAE700BF15
:1027C000D5E90301091A21A0696004F0E9F96868F4
:1027D000FDF710FF4CF29C4246F67203CBF220024A
:1027E000C3F6A173FDF725FE0023C3F6E0730022B4
:1027F0000024FDF71EFEFDF736FFA860FDF720FF61
:1028000002461BA00B4604F0CBF92420C4F20000C2
:102810002C70046001B0F0BD384602210022FEF7A2
:10282000CBF92878411C40F29410C2F200000268F3
:102830002970116A21F00A011162136A00211362E2
:1028400001B0BDE8F040FFF7B3B800BF0D0A2D2D71
:102850002D2DE9AB98E794B5E5B9B3E697B6E997BE
:10286000B42D25642D75732D2D2D2D0D0A0000001E
:102870000D0A2DE6A380E6B58BE8B79DE7A6BBE47D
:10288000B8BA2D252E32662D636D2D0D0A0000007D
:1028900080B502F071FB03F097FBBDE8804002F0C9
:1028A00079BB0000B0B590B000240120CDE90B4405
:1028B000CDE9094406900A904FF4E0104FF48031BE
:1028C00002250F9006A8CDE90714CDE90D51FEF7BA
:1028D00033FB28B1EFF3108072B600BFFEE700BFF4
:1028E0000F20CDE901054FF48060CDE9040401A873
:1028F00002210394FEF712FA20B1EFF3108072B6B2
:10290000FEE700BF10B0B0BD41F20400C4F2020007
:10291000016801F00C01082941F20021C0F27A019E
:1029200019D102680368C2F38342DB0302F1020299
:1029300006D440F60011C0F23D0151430BE000BF48
:1029400003689B0302D4514305E000BF40F6001129
:10295000C0F23D01514340F20C02C2F2000211608C
:10296000006847F2B843C0F30310C0F60003185CD8
:1029700021FA00F0106070477047000040F2941098
:10298000C2F20000FFF7FCB840F2DC10C2F2000017
:10299000FFF7F6B8FEE70000002804BF00207047EC
:1029A000C1B209B101200CE010F47F4102D0090A44
:1029B000092006E010F47F0107BF010E1920090C61
:1029C000112047F2D242C0F60002515C0844704721
:1029D00040F6000440F24806C4F20104C2F20006C8
:1029E000642700BF3068FDF712FE054620464FF40D
:1029F00000610022FEF7E0F87D43284603F0C0F9AD
:102A000020464FF400610122FEF7D6F8284603F075
:102A1000B7F9E7E780B500F041FB002080BD00007A
:102A200080B500F0A7FC002080BD000070B582B02A
:102A300040F2B00647F6D02047F67831C2F20006E1
:102A4000C0F60000C0F60001C6E9000101207821AF
:102A500001F0DAFE706128B30A201521CDE90010DB
:102A600042F6DD2113A0C0F6000100224FF480637E
:102A7000002403F05FF87269054610A11046002299
:102A8000002302F0CFFD706990F8211041F002019F
:102A900080F821101DB1284603F0E0F900242046FB
:102AA00002B070BD07A002F083FA4FF0FF34204659
:102AB00002B070BD747368656C6C000073687278E6
:102AC000000000006E6F206D656D6F727920666F7B
:102AD00072207368656C6C0A0000000040F2B00A56
:102AE000C2F2000ADAF8140040F2101490F8211033
:102AF000C2F2000441F0010280F82120880703D4CB
:102B00000020207026E000BFDAF8101041B140F23A
:102B10001010C2F200008022FDF790FB1AE000BF07
:102B200001F0ECFB30B10020207147F26D30C2F2B1
:102B3000680009E046F67300C0F22000C4F8030004
:102B400046F66610C7F26E3020602046FDF782FB25
:102B50003E212152204602F02BFA47F6B1264FF0D3
:102B6000010B4FF00008C0F60006022702E000BF8C
:102B700080F820B001F088FF8146DAF81400B9F13E
:102B80001B0FF5D090F82010022909D0012940F040
:102B90007580B9F15B0F40F06F8080F82070E9E735
:102BA000A9F14101022980F82080E3D3B9F1440F53
:102BB00000F29280DFE819F0460097009700970036
:102BC0009700970097009700A000E0007000970022
:102BD0009700700097009700970097009700970064
:102BE000970097009700970097009700970097002D
:102BF000970097009700970097009700970097001D
:102C0000970097009700970097009700970097000C
:102C100097009700970097009700970097009700FC
:102C200097009700970097009700970097009700EC
:102C3000970097009700970097009700970048002B
:102C4000840100BF96E700BFB0F87410B0F872209E
:102C50009142BFF48FAF084490F8221047F6B3209A
:102C6000C0F6000002F0A4F9DAF81400B0F874100D
:102C70000131A0F874107DE780F82080B9F10D0FC4
:102C80002AD8DFE809F00730303030303030397979
:102C9000093030096EE700BF01F030FB012812D186
:102CA000DAF8140090F82110C90707D047F632105F
:102CB000C0F6000002F07CF9DAF81400B0F87210E7
:102CC000223001F0C9F8DAF8140090F821008007EA
:102CD00078D484F800801DE1B9F17F0F0CD0B9F1F0
:102CE000FF0F3FF447AFB0F87220502A74D3002290
:102CF000A0F87220A4E000BFB0F8741000293FF4DF
:102D000039AFB0F872200139531E9AB2A0F8723070
:102D10008BB29A42A0F8741040F2B480C11801F14D
:102D200022002331D21A02F03FFADAF81400B0F888
:102D30007210084480F82280DAF81400B0F8741099
:102D4000084400F1220189A002F032F9DAF81410E7
:102D5000B1F87400B1F8721088423FF60BAF451E0F
:102D6000304602F025F9DAF814000135B0F87200A7
:102D70008542F5D3FEE600BFB0F8741051B10025CE
:102D8000304602F015F9DAF814000135B0F8741085
:102D90008D42F5D300F1220547F63210C0F600004F
:102DA00002F006F901F0AAFA012802D1284600F043
:102DB00091FFDAF8140090F8210080076ED484F8AF
:102DC0000080C1E0DAF8101000296FD02046802280
:102DD000FDF734FA9EE000BFB0F874309A422FD964
:102DE000C11801F123002231D21A02F0DDF9DAF81C
:102DF0001400B0F87410084480F82290DAF8140037
:102E000090F82110C90709D0B0F87410084400F1F7
:102E100022015AA002F0CCF8DAF81400B0F874508D
:102E2000B0F872108D421DD2304602F0C1F8DAF8C7
:102E300014000135B0F872108D42F5D312E000BFD6
:102E4000104480F82290DAF8140090F82110C90795
:102E500008D047F6B320C0F60000494602F0A8F8B3
:102E6000DAF81400B0F87210B0F874200131A0F84C
:102E7000721089B201325029A0F8742028BFC0F81E
:102E8000728077E638A002F093F8DAF81400B0F810
:102E90007210084480F822806CE600BFDAF8101047
:102EA000F1B120468022FDF7C9F94DE001F026FA84
:102EB00000B347F26D3084F80480C2F2680023E06A
:102EC000B0F8740000283FF455AE304602F070F8B8
:102ED000DAF81400B0F874100139A0F8741049E65B
:102EE00001F00CFA00B347F26D3084F80480C2F2AE
:102EF000680023E046F67300C0F22000C4F8030027
:102F000046F66610C7F26E3020602046FDF7A2F943
:102F10003E212152204602F04BF8DAF814005421E9
:102F20002230FDF780F925E646F67300C0F2200056
:102F3000C4F8030046F66610C7F26E3020602046E3
:102F4000FDF788F93E2121520AA021462A4602F0C7
:102F50002FF8DAF8145005F12200FDF77BF9A5F8F7
:102F60007200A5F8740005E6082008000825732003
:102F70002008000025732573000000002573000061
:102F800080B582B0019040F22420C2F2000001A975
:102F900001224FF0FF33FFF765F9019802B080BDC1
:102FA00080B502A002F004F8002080BD48656C6C7A
:102FB0006F2052542D546872656164210A0000002C
:102FC00040F248060024002540F2DC17C2F2000659
:102FD000C4F23404C4F2FA35C2F200073068FDF7D7
:102FE0002FFB02460B4600202146FDF71CFA00226B
:102FF0002346FDF790FAFDF736FB2946FDF740F929
:10300000FDF705FB396848634FF47A7002F0B8FEAB
:10301000E4E700002DE9F04381B016A001F0C8FFFD
:1030200040F2B00040F2B409C2F20000C2F200095E
:103030000768D9F80050AF4218D213A40FF24C0819
:1030400003E000BF0C37AF4210D23E682146304645
:103050000222FDF706F90028F4D07A68404631468E
:1030600001F0A6FFD9F80050ECE700BF002001B046
:10307000BDE8F0832D2D46756E6374696F6E204C2C
:103080006973743A0A0000005F5F0000252D313635
:1030900073202D2D2025730A0000000010B540F28A
:1030A0005804C2F20004216806A001F081FF2169E2
:1030B00009A001F07DFF61690CA0BDE8104001F09E
:1030C00077BF00BF746F74616C206D656D6F72792E
:1030D0003A2025640A00000075736564206D656DF3
:1030E0006F7279203A2025640A0000006D617869CA
:1030F0006D756D20616C6C6F6361746564206D65C6
:103100006D6F72793A2025640A0000002DE9F04FB6
:103110008DB0022002F09CF900F104087AA081A28F
:10312000082101F045FF47F66F24C0F60004204651
:1031300001F03EFF204601F03BFF204601F038FF42
:10314000204601F035FF204601F032FF204601F015
:103150002FFF204601F02CFF204601F029FF74A02C
:1031600001F026FF00260DF1140B7BA77BA4CDF800
:103170000C8005E0049EDDF80C80002E00F0C0807D
:103180003546002E08BF4546FCF7CCFF36B115F892
:10319000041C01F07F01022940F0B08029684145FC
:1031A00000F0AC800A68059142451DD01168069276
:1031B00041451DD00A68079142451DD0116808920B
:1031C00041451DD00A68099142451DD011680A92F7
:1031D00041451DD00A680B9142451DD04FF00808AB
:1031E000114604920C921BE04FF0010816E000BF5C
:1031F0004FF0020812E000BF4FF003080EE000BFDE
:103200004FF004080AE000BF4FF0050806E000BFD9
:103210004FF0060802E000BF4FF0070800210491BC
:1032200050A5FCF783FF4FF0000905E0FCF77EFF97
:1032300009F10109C1459DD05BF829A0FCF772FF97
:103240001AF8041C01F07F010229EFD1FCF76EFF90
:103250005AF8081F0026BAF808005145AAF11403CD
:1032600051460FD0096851451FD00968514519D002
:103270000968514518D0096804365145F2D1013E1C
:1032800013E000BF096851452FD00968514529D086
:103290000968514528D0096804365145F2D1013EEC
:1032A00023E000BF013600E00236009026A008218E
:1032B0000822019601F07CFEDAF8006056450DD038
:1032C000A6F11401384601F073FE3068504505D070
:1032D000204601F06DFE36685645F1D120A001F080
:1032E00067FEA5E7013600E0023600902846082177
:1032F0000822019601F05CFE9AE700BFFCF716FF7A
:1033000000200DB0BDE8F08F252D2A2E73207620E9
:10331000202073757370656E6420746872656164D3
:103320000A00000073656D6170686F7265000000CF
:10333000202D2D2D202D2D2D2D2D2D2D2D2D2D2DD7
:103340002D2D2D0A00000000252D2A2E2A73202560
:103350003033642025643A00257300002F000000FC
:103360000A000000252D2A2E2A73202530336420E0
:1033700025640A002DE9F04F8DB0012002F068F8B5
:10338000051D47F6FA10C0F6000073A2082101F0EF
:103390000FFE47F66F24C0F60004204601F008FE39
:1033A000204601F005FE204601F002FE204601F015
:1033B000FFFD204601F0FCFD204601F0F9FD20460E
:1033C00001F0F6FD204601F0F3FD65A001F0F0FDEF
:1033D00000240DF1140A039505E000BF049C039D31
:1033E000002C00F0B5802646002C08BF2E46FCF7C6
:1033F00099FE34B116F8041C01F07F01012940F058
:10340000A5803168A94200F0A1800A680591AA420E
:103410001ED011680692A9421ED00A680791AA42DE
:103420001ED011680892A9421ED00A680991AA42CA
:103430001ED011680A92A9421ED00A680B91AA42B6
:103440001ED04FF00808114604920C921CE000BFF9
:103450004FF0010816E000BF4FF0020812E000BF75
:103460004FF003080EE000BF4FF004080AE000BF71
:103470004FF0050806E000BF4FF0060802E000BF6D
:103480004FF0070800210491FCF750FE4FF00009AF
:1034900006E000BFFCF74AFE09F10109C1459DD0D5
:1034A0005AF829B0FCF73EFE1BF8041C01F07F011E
:1034B0000129EFD1ABF10C06FCF738FE9BF829404F
:1034C00037A0082108223346009401F071FD9BF8D3
:1034D000280000F00F00042804D834A151F820007F
:1034E00001F066FDDBF81C00C11C00BF11F8032CC5
:1034F000232A0DD111F8022C232A0BD111F8012C0B
:10350000232A09D111F8042B232AEFD0043904E02F
:10351000033902E0023900E00139DBE90824DBF875
:1035200010601718401A104464214843DBF83450E7
:10353000B0FBF2F3B91B22A00095019401F038FD15
:1035400009F10109C145ABD148E700BFFCF7EEFD29
:1035500000200DB0BDE8F08F7468726561640000F2
:10356000202D2D2D20202D2D2D2D2D2D2D202D2DBF
:103570002D2D2D2D2D2D2D2D202D2D2D2D2D2D2D88
:103580002D2D2D20202D2D2D2D2D2D20202D2D2D9F
:103590002D2D2D2D2D2D2D202D2D2D0A000000003F
:1035A000252D2A2E2A732025336420003E7A000818
:1035B000507A0008717A00087A7A0008477A000881
:1035C0002030782530387820307825303878202021
:1035D00020202530326425252020203078253038E1
:1035E0007820253033640A002DE9F04F8FB00A208F
:1035F00001F02EFF00F104090FF2B0400FF2D442A7
:10360000082101F0D5FC47F66F24C0F600042046DF
:1036100001F0CEFC204601F0CBFC204601F0C8FCB6
:10362000204601F0C5FC204601F0C2FC204601F016
:10363000BFFC204601F0BCFC204601F0B9FC0FF2B3
:103640009C4001F0B5FC002623E000BFA4F10C076C
:10365000FCF76CFDD4E906050821009047F65920D7
:10366000C0F6000008223B46019501F0A1FC14F8C9
:10367000030CC00707BF47F6ED10C0F6000047F681
:10368000EF10C0F6000001F093FC00BF002E00F028
:1036900003823446002E08BF4C46FCF743FD36B18A
:1036A00014F8041C01F07F010A2940F0F38121681D
:1036B000494500F0EF810A6807914A4520D011681A
:1036C0000892494522D00A6809914A4500F0C28013
:1036D00011680A92494500F0F9800A680B914A4541
:1036E00000F0328111680C92494500F039810E6872
:1036F0000D914E4500F0768100240E9602E000BF49
:10370000002601244FF0000B04E000BF4FF0010B36
:10371000002600244FF0000A0021069100210591A7
:103720000021049100210391FCF700FDDDF81C80CD
:10373000FCF7F8FC18F8041C01F07F010A2923D1DA
:10374000A8F10C07FCF7F2FCD8E906050821009067
:1037500047F65920C0F6000008223B46019501F0CB
:1037600027FC18F8030CC00707BF47F6ED10C0F69A
:10377000000047F6EF10C0F6000001F019FC002C25
:103780007FF484AF05E000BFFCF7D0FC002C7FF491
:103790007DAF089CFCF7C6FC14F8041C01F07F0107
:1037A0000A2923D1A4F10C07FCF7C0FCD4E90605D3
:1037B0000821009047F65920C0F6000008223B4639
:1037C000019501F0F5FB14F8030CC00707BF47F69D
:1037D000ED10C0F6000047F6EF10C0F6000001F053
:1037E000E7FBBBF1000F7FF451AF05E0FCF79EFC57
:1037F000BBF1000F7FF44AAF099CFCF793FC14F86F
:10380000041C01F07F010A292CD1A4F10C07FCF75C
:103810008DFCD4E906050821009047F65920C0F632
:10382000000008223B46019501F0C2FB14F8030C8E
:10383000C00707BF47F6ED10C0F6000047F6EF10CF
:10384000C0F6000001F0B4FBBAF1000F7FF41EAF28
:103850000EE000BF4FF0010A002600244FF0000BDD
:103860005AE700BFFCF762FCBAF1000F7FF40EAF1D
:103870000A9CFCF757FC14F8041C01F07F010A298C
:103880002ED1A4F10C07FCF751FCD4E90605082160
:10389000009047F65920C0F6000008223B460195EB
:1038A00001F086FB14F8030CC00707BF47F6ED10C4
:1038B000C0F6000047F6EF10C0F6000001F078FBFC
:1038C000069800287FF4E2AE10E000BF01210691C7
:1038D000002600244FF0000B4FF0000A1EE700BF47
:1038E000FCF724FC069800287FF4D0AE0B9CFCF774
:1038F00019FC14F8041C01F07F010A293ED1A4F13F
:103900000C07FCF713FCD4E906050821009047F6E4
:103910005920C0F6000008223B46019501F048FB03
:1039200014F8030CC00707BF47F6ED10C0F60000FF
:1039300047F6EF10C0F6000001F03AFB05980028AA
:103940007FF4A4AE20E000BF0121059100210026F4
:1039500000244FF0000B4FF0000A0691E0E600BF94
:1039600001210491002106910021002600244FF03E
:10397000000B4FF0000A0591D4E600BFFCF7D6FB20
:10398000059800287FF482AE0C9CFCF7CBFB14F862
:10399000041C01F07F010A2934D1A4F10C07FCF7C3
:1039A000C5FBD4E906050821009047F65920C0F66A
:1039B000000008223B46019501F0FAFA14F8030CC6
:1039C000C00707BF47F6ED10C0F6000047F6EF103E
:1039D000C0F6000001F0ECFA049800287FF456AE1F
:1039E00016E000BF012103910021069100210591FD
:1039F0000021002600244FF0000B4FF0000A049134
:103A000092E600BFFCF792FB049800287FF43EAEDC
:103A10000D9CFCF787FB14F8041C01F07F010A29B8
:103A200024D1A4F10C07FCF781FBD4E90605082199
:103A3000009047F65920C0F6000008223B46019549
:103A400001F0B6FA14F8030CC00707BF47F6ED10F3
:103A5000C0F6000047F6EF10C0F6000001F0A8FA2B
:103A6000039800287FF412AE06E000BFFCF75EFB6F
:103A7000039800287FF40AAE0E9CFCF753FB14F861
:103A8000041C01F07F010A293FF4E0ADFCF74EFB76
:103A9000FCE500BFFCF74AFB02F090FA014618A0D3
:103AA00001F086FA00200FB0BDE8F08F252D2A2EF8
:103AB000732020706572696F6469632020207469C7
:103AC0006D656F757420202020202020666C616752
:103AD0000A00000074696D6572000000202D2D2D14
:103AE0002D2D2D2D2D2D2D202D2D2D2D2D2D2D2D13
:103AF0002D2D202D2D2D2D2D2D2D2D2D2D2D0A0053
:103B000063757272656E74207469636B3A307825E0
:103B10003038780A0000000092B0FDF759F8002410
:103B20000120CDE90D44CDE90B4408900C904FF4F1
:103B3000E0104FF480310225119008A8CDE9091456
:103B4000CDE90F51FDF7F8F920B1EFF3108072B60F
:103B5000FEE700BF0F20CDE903054FF48060CDE9FB
:103B6000060403A802210594FDF7D8F820B1EFF36D
:103B7000108072B6FEE700BFFEF7A8FCFEF7E4FC7B
:103B8000FEF7BEFDFEF73CFD40F2DC10C2F2000085
:103B90000021FEF72BFA42F6D1110A2403251DA0BD
:103BA000C0F6000100224FF480630095019401F0FB
:103BB000C1FF18B102F052F925A000E019A001F0F0
:103BC000F7F947F6280042F6C171C0F60000C0F6CA
:103BD000000100224FF480630095019401F0AAFFD8
:103BE00030B102F03BF947F2F870C0F6000000E097
:103BF00021A001F0DDF947F61D00C0F6000003F03A
:103C000049FC00BFFEF79EFD4FF47A7002F0B8F851
:103C1000F8E700BF626565705F636F6E74726F6C0A
:103C200000000000626565705F636F6E74726F6C98
:103C30005F7461736B2074687265616420697320BE
:103C40006E6F7420737461727465640A0000000002
:103C5000626565705F636F6E74726F6C5F746173C1
:103C60006B20697320616C72656164792073746183
:103C7000727465640A0000006C65645F636F6E7443
:103C8000726F6C5F7461736B20746872656164201D
:103C90006973206E6F7420737461727465640A00B6
:103CA000B0B547F6CC2447F6C420C0F60004C0F6F1
:103CB0000000A04209D247F6C425C0F6000500BFA7
:103CC00055F8040B8047A542FAD3BDE8B040FFF792
:103CD00023BF00002DE9F04F81B083460078A8B1E2
:103CE00040F2B000C2F20000056840F2B400C2F237
:103CF0000000D0F80080454580F0A88047F6AA294A
:103D00004FF0000AC0F6000900264CE047F6832079
:103D1000C0F6000001F04CF940F2B00040F2B409E6
:103D2000C2F20000C2F200090768D9F80050AF42A1
:103D30001CD247F6AA2447F69E28C0F60004C0F617
:103D4000000802E00C37AF4210D23E6821463046F0
:103D50000622FCF786FA0028F4D17A68B11D4046A5
:103D600001F026F9D9F80050ECE700BF47F6321011
:103D7000C0F6000001B0BDE8F04F01F019B900BF76
:103D8000481C801B5045B8BF824632A0394601F01E
:103D90000FF940F2B400C2F20000D0F8008000BF7A
:103DA0000C35454548D22F68494638460622FCF76F
:103DB00058FA0028F4D158460637FCF74BFA024669
:103DC00058463946FCF74DFA0028E9D1BAF1000F00
:103DD00004D03178304651B9D3E700BF3846FCF7FC
:103DE00039FA82463E46317830460029C9D0002053
:103DF0003A5CDAB1914219D131184B78002BBFD01F
:103E00003A185478002CBBD0A342B9D18B787BB13F
:103E100094786CB1A3420BD1CB785BB1D2784AB124
:103E2000934207D1097904300029E1D13044A8E751
:103E3000881CA6E7C81CA4E746B15846314652463E
:103E400001B0BDE8F04F01F01FBD00BF01B0BDE8FB
:103E5000F08F00BF25730A002DE9F04F8BB069B3D6
:103E60000D464A420023834607E000BF04330BF1AE
:103E7000040BD118A5F1040520D0C15C202901D084
:103E8000092926D1D618711C18D2C718797820298B
:103E900001D0092916D1B11C10D0B978202901D040
:103EA000092913D1F11C09D0F9782029DED009297C
:103EB000DCD0033D07F1030B0BE000BF00200BB08B
:103EC000BDE8F08F0BF1010B013D02E00BF1020B9D
:103ED000023D68426A1E4FF00009C9B2092933D079
:103EE000202931D04D4521D00BEB09014B78092B0E
:103EF00022D0202B20D04A4518D08B78092B21D0F6
:103F0000202B1FD000EB09039F1C0FD0CF78092F67
:103F100000F04281202F00F03F81033306D0097961
:103F200009F10409C9B20929DAD10DE0A946B9F1AC
:103F3000000F0DD136E100BF09F10109B9F1000F01
:103F400006D12FE109F10209B9F1000F00F02A8131
:103F500040F2B000C2F20000066840F2B400C2F2C3
:103F600000000468A64280F01D8147F6AA2809F1E6
:103F7000060AC0F6000803E00C36A64280F0128163
:103F80003768414638460622FCF76BF90028F3D122
:103F9000B81D59464A46FCF764F90028ECD117F8D9
:103FA0000A000028E8D1B0680028009000F0FA80EC
:103FB0004FF0000C4FF0000800275A46CDE909CC1D
:103FC000CDE907CCCDE905CCCDE903CC2946CDF828
:103FD0000880AF4288BF39467B1A03F101080020F0
:103FE00096460197165C202E01D0092E46D113EB80
:103FF000000A2FD002EB000999F8016002F800C016
:10400000202E01D0092E3BD118EB000C26D099F8B8
:1040100002604FF0000C202E89F801C001D0092E5B
:1040200032D11AF1020421D099F8036089F802C054
:10403000202E01D0092E2BD11AF103041AD089F8B1
:1040400003C00EF1040E04370430165C202ECCD1D0
:10405000CDE700BF02EB000E1FE000BFDDF80880D7
:1040600009F1010E4FF0000C19E000BF09F1020E3A
:1040700013E000BF0EF1030E0FE000BF39460CE065
:104080000EF1010E791C08E00EF1020EB91C04E0DD
:10409000019909F1030E0844C11CDDF80880B8F14C
:1040A000080F80F0B180A94280F0C280222E21D179
:1040B0000EF1010203A840F828209EF80170481C68
:1040C00004E000BF12F8017F01460130A8424FF022
:1040D000000338BF0123222F44D0A84242D25C2FD4
:1040E000F0D1134613F8017F222F04BF1A46881C13
:1040F000E8E700BF03A840F828E02846A94288BFA7
:1041000008460A1A08F10108541C00201EF8007025
:10411000092F22D0202F20D0171800F08C800EEB12
:1041200000067378092B25D0202B23D0231800F00C
:104130008280B378092B21D0202B1FD0BB1C00F02C
:104140007A80F378092B1DD0202B1BD0FB1C72D05A
:1041500004301EF80070092FDCD10EEB00020F189E
:1041600013E000BF002B08F1010864D002F801CB76
:104170008F1C0CE00844721C471C06E00844B21C6B
:10418000871C02E00844F21CC71CAF4253D2AF4266
:10419000FFF41CAF4FE000BF09F10309B9F1000FB4
:1041A0007FF4D6AE00201BF8001041F0200120293A
:1041B00017D00BEB00014A7842F02002202A13D0DE
:1041C0008A7842F02002202A10D0CA7842F02002D9
:1041D000202A0DD004301BF8001041F020012029C6
:1041E000E7D1584405E000BF481C02E0881C00E00D
:1041F000C81C002101701CA0594600F0D9FE4FF0E8
:10420000FF300BB0BDE8F08F0EA000F0D1FE03A888
:10421000041F14A5464654F8041F284600F0C8FEA3
:10422000013EF8D147F63210C0F6000000F0C0FEA3
:10423000B8F1000FB6D0009A03A9404690470BB0E2
:10424000BDE8F08F546F6F206D616E7920617267E9
:10425000732021205765206F6E6C79205573653A65
:104260000A0000002573200025733A20636F6D6DEE
:10427000616E64206E6F7420666F756E642E0A0026
:104280002DE9F04381B047F68320C0F6000000F02E
:104290008FFE40F2B00040F2B409C2F20000C2F258
:1042A00000090768D9F80050AF421DD247F6AA248A
:1042B00047F69E28C0F60004C0F6000803E000BFE1
:1042C0000C37AF4210D23E68214630460622FBF73B
:1042D000C8FF0028F4D17A68B11D404600F068FE9E
:1042E000D9F80050ECE700BF47F63210C0F60000E6
:1042F00000F05EFE002001B0BDE8F08301207047B1
:104300002DE9F04F8AB0059115990FF2D4464F066A
:104310000FF2E04858BFB046CE06DDE9134948BF6A
:1043200021F00101CE074FF0300A08BF4FF0200AFC
:104330008E070DD400270197002701250097002A3A
:1043400000F09A80CDE90251CDF810A013E000BF33
:10435000B2F1FF3F06DD4E0700F186800E07E9D57A
:10436000202782E001270197002702972D27CDE91A
:10437000031A524200974CF6CD494FF0000BCCF691
:10438000CC490DF1180A00BFA2FB09561409F50823
:1043900002F00F0705EB850C25460A2B04BFF50834
:1043A000A2EB4C0718F80770002D0AF80B7049D0E3
:1043B000A5FB097C04F00F07140ACE464FEADC0681
:1043C000A14606EB86060A2B04BF4FEADC09A5EBE3
:1043D000460718F807500AEB0B0CB9F1000F5946C5
:1043E0008CF8015032D0A9FB0E5604F00F05140BC7
:1043F0005146F708A24607EB87070A2B04BF4FEA8E
:10440000D60AA9EB470518F80550BAF1000F8CF849
:1044100002501FD0AAFB0E5604F00F04120CF50830
:1044200005EB85050A2B04BFF208AAEB450418F832
:104430000440F1460BF1040B002A8A468CF8034035
:10444000A2D109E00BF1010B06E000BF0BF1020B5A
:1044500002E000BF0BF1030BDDF810A0DDE9025113
:10446000DDE913490DE000BF2B2700970025012748
:104470000197002A7FF466AF30228DF818204FF0A4
:10448000010BDDF814E0CB454B46C8BF5B4611F08D
:10449000110FA4EB03025FD006462DB976453CBF51
:1044A00000983070013A0136C80631D4551EC0F26A
:1044B0008D8012F0030700F09580764538BF86F8AE
:1044C00000A0012F06F1010040F09680023A064656
:1044D000032DC0F08B80101D764506F1010238BF18
:1044E00086F800A0724538BF82F800A0B21C724561
:1044F00038BF82F800A0F21C7245A0F1040038BF5A
:1045000082F800A0032806F10406E5DC4FF0FF3234
:104510003046CB455EDAA3EB0B076FEA0B0617F0CC
:10452000030703EB060C57D070453CBF30240470E2
:104530005D1E012F00F1010409D07445A3F10205AD
:104540003CBF30262670022F00F102046CD12046B9
:10455000BCF1030F73D28BE00027002AC8BF0127EC
:10456000019E3740D71B7A1E96DB17F0030C51D003
:1045700070453CBF20240470BCF1010F00F101061E
:1045800040F00481023F3046032A46D33A1D2026DC
:10459000704500F1010738BF0670774538BF3E709F
:1045A000871C774538BF3E70C71C7745A2F10402CF
:1045B00038BF3E70032A00F10400E9DC4FF0FF32FF
:1045C0000646002D3FF46AAF6EE700BF30462A462C
:1045D000CB45A0DB04464BE01D46BCF1030F2ED2B9
:1045E00046E000BF2A46032DBFF475AF4FF0FF32FF
:1045F000CB45FFF690AFEDE7704538BF80F800A0DF
:10460000022F06F1020040F0D180033A0646032D46
:10461000ECD360E71746032AB8D24FF0FF32002DE3
:104620003FF43CAF40E700BF03307445A3F10305FE
:104630003CBF302323700446BCF1030F18D3302352
:10464000044600BF744504F1010038BF2370704573
:1046500038BF0370A01C704538BF0370E01C704564
:10466000A5F1040538BF0370AB4504F10404E9DB90
:10467000B9F1000F35D006A8023807E0ABF1040B02
:104680000BF10403042B04F104042AD9744503D26A
:1046900000EB0B035B782370BBF1020F04F1010305
:1046A0001EDB73453CBF10F80B701F70BBF1030F8E
:1046B00004F1020314D3734504D200EB0B0717F87F
:1046C000017C1F70BBF1040F04F1030308D3734591
:1046D000D4D200EB0B0717F8027C1F70CEE700BFA7
:1046E0001C46012A12DB12F00307A2F1010311D0CC
:1046F00074453CBF20202070012F04F101000DD132
:104700001A460446032B3ED322E000BF20460AB0DF
:10471000BDE8F08F032B36D31AE000BF7045A2F13D
:1047200002063CBF20250570022F04F1020005D1CE
:1047300032460446032B26D30AE000BF03347045FB
:10474000A2F103023CBF202707702046032B1AD397
:10475000013A2023204600BF704500F1010738BF11
:104760000370774538BF3B70871C774538BF3B7077
:10477000C71C7745A2F1040238BF3B7012F1020F4B
:1047800000F10400E8D30AB0BDE8F08F76453CBFE5
:1047900020243470BCF1020F00F1020612D1033F55
:1047A0003046032AFFF439AFF0E600BF0336704508
:1047B00038BF80F800A0043A3046032DBFF48BAE1A
:1047C00014E700BF764503D22C46202535702546D8
:1047D0000330043F0646032ABFF4D8AE1DE700BFEE
:1047E0003031323334353637383961626364656667
:1047F0000000000030313233343536373839414229
:104800004344454600000000B0B501FB00F42046DB
:1048100000F0E8FB054620B128460021224600F0C2
:1048200039FD2846B0BD0000B0B547F6C42447F6B0
:10483000BC20C0F60004C0F60000A04228BFB0BDF6
:1048400047F6BC25C0F6000555F8040B8047A54285
:10485000FAD3B0BD80B5FBF765FC40F29001C2F21F
:1048600000014A8801324A80BDE88040FBF75EBC07
:10487000B0B5FBF757FC40F29005C2F2000569881D
:104880000446481E01B20029688005DD2046BDE8C7
:10489000B040FBF74BBC00BF002068802046FBF710
:1048A00045FC6868002808BFB0BDFBF73BFC698881
:1048B00004460029EAD1A868FEF76EF8421E43F6C6
:1048C0007470C2F2000050F832106868A1F114034D
:1048D0009842DBD02A7043F6EC626B60C2F20002B1
:1048E00012781C3001F1080132B1FBF722FC20469E
:1048F000BDE8B040FBF71ABCFBF71BFC2046BDE847
:10490000B040FBF713BC00002DE9F041002857D060
:1049100040F25807C2F2000704467868A0424FD818
:10492000B868A04298BFBDE8F08107F1180840467A
:104930004FF0FF31A4F10C0600F0AEFE34F80A0C83
:1049400018B13088B0F5F55F0AD025A000F030FB33
:1049500034F80A2C34F80C3C28A0314600F028FB2F
:104960004FF4F55044F80C0CD7F80CC0B44584BF94
:10497000FE60B44654F8082C78683D691318F11AA3
:10498000294439610FD0598869B9B9688B420AD076
:104990009C4504BFFE60B4465A6844F8082C596828
:1049A000331A01448B6054F8043CC518B54201D059
:1049B000698839B14046BDE8F04100F043BE00BF10
:1049C000BDE8F081B44508BFFD606A6054F8081C7A
:1049D000084483604046BDE8F04100F033BE00BFAC
:1049E000746F206672656520612062616420646175
:1049F000746120626C6F636B3A0A00006D656D3AFA
:104A0000203078253038782C207573656420666CEA
:104A100061673A2025642C206D6167696320636FAC
:104A200064653A203078253034780A0040F2E82076
:104A3000C2F200007047000040F2E820C2F200001D
:104A400000F570507047000010B5FCF7C1F8FDF795
:104A500029FFFDF759FFFCF741FA44F6D351C1F2A3
:104A60006201A0FB01018809FCF740FCFFF7DCFEB6
:104A7000FFF7DCFF0446FFF7DFFF01462046BDE8F5
:104A8000104000F045BF000080B540F2C800C2F2FF
:104A9000000000680168890606D40A2001F070F958
:104AA000FF20C0B280BD00BF4068C0B280BD000022
:104AB000F0B581B004460D208DF8030040F2C80027
:104AC000C2F20000002180F84010204600F0BEFE37
:104AD000E0B140F2C8060546C2F200060DF1030738
:104AE0000AE000BF3046214601220123FDF7BAFB50
:104AF000013D04F1010409D020780A28F2D13046A2
:104B0000394601220123FDF7ADFBEBE701B0F0BD13
:104B100010B540F2E421C2F200010968044621B157
:104B200020468847002808BF10BD216C47F6271093
:104B3000C0F6000000F03CFA616A47F6E600C0F6F5
:104B4000000000F035FAA16A47F6F300C0F6000055
:104B500000F02EFAE16A47F60010C0F6000000F0FF
:104B600027FA216B47F60D10C0F6000000F020FA7E
:104B7000616847F61A10C0F6000000F019FAA16843
:104B8000C4A000F015FAE168C6A000F011FA21698E
:104B9000C8A000F00DFA6169CAA000F009FAA16985
:104BA000CCA000F005FAE169CEA000F001FA216A7C
:104BB000D0A000F0FDF9616BD2A000F0F9F9A16B73
:104BC000D4A000F0F5F9E16BD6A000F0F1F920785F
:104BD000400707D447F64000C0F6000000F0E8F9AF
:104BE0000BE000BF01F0F8F8014647F65A00C0F6A6
:104BF000000000F0DDF9FEF7BDFB4EF62954CEF2C1
:104C00000004D4F80300800705D547F6C400C0F6B9
:104C1000000000F0CDF9D4F80300400040F1F88026
:104C2000207830B347F69800C0F6000000F0C0F9D5
:104C3000217847F6AB10C0F6000000F0B9F92078F3
:104C4000C00745D1207880074BD42078400751D445
:104C50002078000757D42078C0065DD494F900006E
:104C6000B0F1FF3F60DD47F63210C0F6000000F003
:104C70009FF914F8010C002800F0958047F67700A2
:104C8000C0F6000000F094F914F8011C47F6C110BA
:104C9000C0F6000000F08CF914F8010CC00751D1E7
:104CA00014F8010C800757D414F8010C00075DD4E8
:104CB00014F8010CC00663D414F9010CB0F1FF3FE5
:104CC00069DD47F63210C0F6000000F071F96AE0C5
:104CD00047F69610C0F6000000F06AF920788007C9
:104CE000B3D547F68B10C0F6000000F061F92078CC
:104CF0004007ADD547F68910C0F6000000F058F91E
:104D000020780007A7D547F67F10C0F6000000F016
:104D10004FF92078C006A1D586A000F049F994F992
:104D20000000B0F1FF3F9EDCD4F80F1047F6A4005E
:104D3000C0F6000000F03CF914F8010C00289DD1E9
:104D400031E000BF47F65A10C0F6000000F030F91D
:104D500014F8010C8007A7D547F65010C0F60000E4
:104D600000F026F914F8010C0007A1D547F67E10D3
:104D7000C0F6000000F01CF914F8010CC0069BD529
:104D800047F67510C0F6000000F012F914F9010C96
:104D9000B0F1FF3F95DCD4F80B1047F6B400C0F635
:104DA000000000F005F9B4F8010088B347F68A0066
:104DB000C0F6000000F0FCF8B4F8011047F6D71078
:104DC000C0F6000000F0F4F8B4F80100C0072DD1DF
:104DD000B4F80100800733D4B4F80100400739D497
:104DE000B4F8010000073FD4B4F80100C00545D471
:104DF000B4F80100800505D547F66410C0F6000040
:104E000000F0D6F847F63210C0F6000000F0D0F8F7
:104E1000D4F80300B0F1FF3F06DC47F6D900C0F636
:104E2000000000F0C5F800BFFEE700BF47F69F1086
:104E3000C0F6000000F0BCF8B4F801008007CBD544
:104E400047F64610C0F6000000F0B2F8B4F80100D2
:104E50004007C5D547F63410C0F6000000F0A8F8AA
:104E6000B4F801000007BFD547F66F10C0F6000088
:104E700000F09EF8B4F80100C005B9D547F63B1024
:104E8000C0F6000000F094F8B4F801008005B3D437
:104E9000B8E700BF7230353A203078253038780ACC
:104EA000000000007230363A203078253038780A19
:104EB000000000007230373A203078253038780A08
:104EC000000000007230383A203078253038780AF7
:104ED000000000007230393A203078253038780AE6
:104EE000000000007231303A203078253038780ADE
:104EF000000000007231313A203078253038780ACD
:104F0000000000007231323A203078253038780ABB
:104F100000000000206C723A203078253038780A82
:104F2000000000002070633A203078253038780A7D
:104F30000000000053544B455252200004324BF6FF
:104F4000EF6C22F00702CDF6AD6C42F840CDC2E91D
:104F500001CCC2E903CCC2E905CCC2E907C10021FA
:104F60004FF0807CC2E90D301046C2E90911C2E958
:104F70000B11C2F83CC0704780B5FBF7D3F843F67D
:104F8000EC61C2F200010A7801320A70BDE880408B
:104F9000FBF7CCB880B5FBF7C5F843F6EC61C2F27D
:104FA00000010A78013A0A70BDE88040FBF7BEB8FC
:104FB00083B010B581B043F6F464844603A8C2F20E
:104FC00000040EC003AB20467F216246009301F02F
:104FD000A9F92046FFF76CFD01B0BDE8104003B011
:104FE000704700002DE9F04F81B0002800F0838069
:104FF00040F25809C2F200090330D9F8001020F03D
:105000000308884577D809F1180B58464FF0FF314F
:10501000B8F10C0F98BF4FF00C0800F03DFBD9F829
:105020000CE0D9E900CAAEEB0A02ACEB0807BA42C1
:105030005ED20AEB02052B4633F8020F2E4656F8D5
:10504000044F20B902F10C00211A414558D2BC424C
:105050004ED20AEB04052B4633F8020F2E4656F8C3
:10506000042F20B904F10C00111A414520D2BA4294
:105070003ED20AEB02052B4633F8020F2E4656F8B5
:10508000044F20B902F10C00211A414538D2BC422C
:105090002ED20AEB04052B4633F8020F2E4656F8A3
:1050A000042F0028C3D104F10C00111A4145BED3CE
:1050B000CDF800B0A346144608F11802914226D359
:1050C00040440AEB00024FF4F5574AF80070C2E979
:1050D000014B3060526801240CF10C07BA421C806D
:1050E0001CBF52449060D9F8100008F10C0114E084
:1050F000584600F0A7FA002001B0BDE8F08F00BFCD
:10510000CDF800B0934608F118029142D8D20120A0
:10511000D9F810101880A4EB0B00D9F81420014422
:105120008A420098C9F8101038BFC9F814104FF41B
:10513000F551AE45298030D1BEF8021069B3D9F8D7
:105140000820724529D0DEF804100AEB010EBEF8E3
:105150000210002918BF72451DD0DEF804100AEBBA
:10516000010EBEF80210002918BF724513D0DEF8F8
:1051700004100AEB010EBEF80210002918BF724598
:1051800009D0DEF804100AEB010EBEF80210002967
:1051900018BF7245D7D1C9F80CE000F053FA05F1F9
:1051A0000C0001B0BDE8F08FB0B5814214D28B186D
:1051B000834211D9002A47D000EB020E12F00301FE
:1051C000A2F1010C4FD013F8014D01290EF8014D49
:1051D0003CD1624647E000BFB2B312F00304A2F133
:1051E000010C09D08E461EF8015B0346012C03F822
:1051F000015B05D1624613E08E46034610E000BF16
:105200004B78022C437005D1023A01F1020E831C47
:1052100006E000BF01F1030E8978033AC31C8170D8
:10522000BCF1030F38BFB0BDAEF10401043B00BFB9
:1052300011F8045F043A03F8045F4D785D708D78CF
:105240009D70CD78DD70F3D1B0BD00BF13F8014D76
:1052500002290EF8014D01D1023A04E013F8011DB4
:10526000033A0EF8011DBCF1030FEDD3AEF10401BA
:10527000023B00BF5C78043ACC701C788C7013F849
:10528000014C4C7013F8024CA3F1040301F80449DB
:10529000F0D1D9E770B5042A06461BD316F00300F7
:1052A00018D1C8B24FF00133102A00FB03F313D317
:1052B000A2F1100C012000EB1C1010F003000DD027
:1052C0000128C6E90033B360F36009D106F110008C
:1052D000624616E0304650E030462EE0304610E0A0
:1052E0000228C6E90433B361F36103D106F120005B
:1052F000203A06E006F13000303AC6E90833C6E944
:105300000A33BCF1300F16D300F14004403AC0E933
:105310000033C0E90233C0E90433C0E90633C0E911
:105320000833C0E90A33C0E90C33C0E90E330F2A51
:105330002046E9D82046042A1FD30446151F042D11
:1053400040F8043B18D3A2F10805042D63600DD387
:10535000A2F10C05042DA3600CD304F11000103A47
:10536000E360032A0446E9D807E000BF04F108001F
:1053700002E000BF04F10C002A4622B1CBB2114674
:105380001A46FAF749FF304670BD00002DE9F0419A
:10539000884640F21001C2F200010A7805468242B6
:1053A0000C460AD00C4614F8100FA84205D011F88C
:1053B000200FA84218BF00210C46E068FFF712FE3C
:1053C0004FF00007C0B1E26800210646FFF762FF18
:1053D0003046414608223572777200F055FAFAF7E6
:1053E000A1FE54F8041F324642F80C1F4A602260A6
:1053F0003461FAF79BFE37463846BDE8F08100007D
:1054000010B5044600202072FAF78CFE224621696E
:1054100052F80C3F5960216922610B601260FAF763
:1054200085FE2046BDE81040FFF76EBA10B5044671
:1054300000202072FAF776FE54F80C1F62684A606A
:1054400062681160C4E90044BDE81040FAF76EBE1E
:1054500040F21002C2F200021178814211460AD0D5
:10546000114611F8103F834205D012F8201F8142E7
:1054700018BF00221146084670470000F0B581B001
:105480000E4640F21001C2F2000115460A780446A9
:10549000B2420F460AD00F4617F8100FB04205D09F
:1054A00011F8200FB04218BF00210F46FFF7D2F9C4
:1054B000043738460068B84208D00068B84205D0C2
:1054C0000068B84202D00068B842F3D1FFF7D0F9C3
:1054D00046F08000207220462946082200F0D4F9C8
:1054E000FAF720FE396844F80C1F4C603C60676096
:1054F00001B0BDE8F040FAF719BE0000007AC0091B
:1055000070470000B0B5FAF70DFE40F29005C2F208
:1055100000056988044629B12046BDE8B040FAF785
:1055200005BE00BFA868FDF737FA43F6747101386D
:10553000C2F2000151F830106A68A1F114039A42D6
:10554000EAD0287043F6EC606B60C2F2000003788A
:1055500002F11C0001F1080133B1FAF7EAFD20461F
:10556000BDE8B040FAF7E2BDFAF7E3FD2046BDE83A
:10557000B040FAF7DBBD000010B50446FAF7D2FDE3
:1055800094F8341094F8352001F0F001013184F8DA
:10559000341043F67471C2F2000101EBC2014A6893
:1055A00040F2900C04F11403C2F2000C1360A261EB
:1055B0004B60A26BDCF80830616143EA0201CCF871
:1055C0000810BDE81040FAF7B1BD0000B0B50546BF
:1055D000FAF7A8FD294651F8142F4B6853604B6821
:1055E00049601A6091F8212043F674730960C2F291
:1055F000000353F8324003EBC202944204D0BDE8EA
:10560000B040FAF793BD00BF40F29002C2F2000230
:10561000A96B936823EA01019160BDE8B040FAF7F5
:1056200085BD000070B515460A4602211C46064697
:10563000FFF724FF06F11400C6E905000020B5833A
:10564000747270BDB0B50546FAF76CFD2A4652F883
:10565000141F044691420BD0A1F1140000F098FBF6
:105660002046FAF763FDFFF74DFF0020B0BD00BFF5
:10567000A88B4FF6FF71884206D12046FAF756FDF7
:105680006FF00200B0BD00BF0130A8832046FAF7DA
:105690004DFD0020B0BD00002DE9F04381B08946EA
:1056A00007460091FAF73EFDB98B804641B1481E8E
:1056B000B8834046FAF73AFD002001B0BDE8F08318
:1056C000B9F1000F3ED000F087FB054600202863AB
:1056D0007E7A284607F1140400F0EEFBD6B3012EC3
:1056E0003FD120460068A04234D095F8351090F89C
:1056F000212091421AD30068A0422BD095F8351092
:1057000090F82120914211D30068A04222D095F850
:10571000351090F82120914208D30068A04219D09A
:1057200095F8351090F821209142DBD21438826927
:1057300000F1140105F114031360AA61836169612A
:105740000FE000BF4046FAF7F1FC6FF0010001B036
:10575000BDE8F083B86905F114010160A861B96181
:105760006C61B9F1010F09DB05F144066A46304668
:10577000002100F0EFFC304600F052FD4046FAF701
:10578000D5FCFFF7BFFE286B002808BF002001B042
:10579000BDE8F08380B582B00AA0FFF709FC0CA039
:1057A000FFF706FC0FF24C0C15A003210122052384
:1057B000CDF800C0FFF7FCFB19A002B0BDE88040A7
:1057C000FFF7F6BB0A205C207C202F0A00000000B7
:1057D0002D205254202D20202020205468726561F5
:1057E00064204F7065726174696E672053797374B9
:1057F000656D0A004A756E20323220323032340034
:10580000202F207C205C202020202025642E256451
:105810002E2564206275696C642025730A000000DF
:105820002032303036202D203230323020436F701D
:105830007972696768742062792072742D74687255
:10584000656164207465616D0A000000C11C00BFC1
:1058500011F8032C62B111F8022C6AB111F8012C75
:1058600072B111F8042B002AF2D10439081A7047DA
:105870000339081A704700BF0239081A704700BF81
:105880000139081A704700002DE9F0418046DAB36B
:10589000C2F1000C00234446CF5C08F80370DFB16E
:1058A0000CEB0306771C2FD2CF18787808EB030592
:1058B0006870A8B1B01C27D0B878A870B0B1F01C3F
:1058C00022D0F878E870D8B1043304341CEB03001C
:1058D000A2F10402E0D117E0601C511E0AD113E0CE
:1058E000A01C013A511E05D10EE000BFE01C023A97
:1058F000511E09D0FAF797FC4046BDE8F08100BF81
:10590000033A281D511EF5D14046BDE8F081000044
:1059100021F003038C46192B01462DD3C81C20F01F
:105920000300A3F11802824226D310B5191A40F2DF
:105930005804A1F11802C2F20004C4E900204FF497
:10594000F5520C394FF0000CC0E90021C0F808C036
:1059500041F6A060C0F201001A4642F80C0DA260A8
:1059600043E9021104F1180005A101220023FFF709
:1059700059FE6068E06010BD03A06246FFF718BBE7
:1059800068656170000000006D656D20696E697466
:105990002C206572726F7220626567696E20616487
:1059A000647265737320307825782C20616E6420D2
:1059B000656E642061646472657373203078257845
:1059C0000A00000010B543F67472C2F2000202F140
:1059D0001800C2E9060002F1200002F1080302F1FA
:1059E0001001C2E9080002F14000C2E90233C2E935
:1059F000041102F1280102F1300302F13804C2E976
:105A0000100002F16000C2E90A11C2E90C33C2E9D8
:105A10000E4402F1480102F1500302F15804C2E9B8
:105A2000180002F18000C2E91211C2E91433C2E980
:105A3000164402F1680102F1700302F17804C2E930
:105A4000200002F1A000C2E91A11C2E91C33C2E928
:105A50001E4402F1880102F1900302F19804C2E9A8
:105A6000280002F1C00040F2900EC2E92211C2E902
:105A70002433C2E9264402F1A80102F1B00302F185
:105A8000B804C2E9300002F1E000C2F2000EC2E93F
:105A90002A11C2E92C33C2E92E4402F1C80102F1F5
:105AA000D00302F1D804C2E938001F204FF0000CE7
:105AB000C2E93211C2E93433C2E9364402F1E801E5
:105AC00002F1F00302F1F8048EF800000EF10C0070
:105AD000AEF802C0C2E90022C2E93A11C2E93C3381
