:020000040800F2
:100000008045002001010008A5270008C90100085B
:10001000A12700089D090008E5290008000000004C
:1000200000000000000000000000000013010008B4
:10003000A10900080000000053010008F52800088D
:100040001B0100081B0100081B0100081B01000820
:100050001B0100081B0100081B0100081B01000810
:100060001B0100081B0100081B0100081B01000800
:100070001B0100081B0100081B0100081B010008F0
:100080001B0100081B0100081B0100081B010008E0
:100090001B0100081B0100081B0100081B010008D0
:1000A0001B0100081B0100081B0100081B010008C0
:1000B000CD290008D92900081B0100081B010008F0
:1000C0001B0100081B0100081B0100081B010008A0
:1000D0001B0100081B0100081B0100081B01000890
:1000E0001B0100081B0100081B010008DFF80CD0F1
:1000F00000F002FC00480047490900088045002044
:100100000648804706480047FEE7FEE7FEE7FEE7B1
:10011000FEE7FEE7FEE7FEE7FEE7FEE7C929000887
:10012000ED000008EFF3108072B6704780F310887E
:100130007047324A1368012B04D04FF0010313605B
:100140002F4A10602F4A11602F484FF080510160F4
:100150007047EFF3108272B62848016891B14FF0F2
:10016000000101602648016829B1EFF3098121E906
:10017000F00F00680160234909680968B1E8F00FD1
:1001800081F3098882F310884EF0040E70471D49F0
:1001900008601B494FF00000086018494FF001004B
:1001A00008601A481A49D0F8002041EA02010160AB
:1001B00015484FF08051016016480068006880F3D0
:1001C000088861B662B670471EF0040F0CBFEFF3EB
:1001D0000880EFF3098020E9F00F40F804ED1EF0ED
:1001E000040F0CBF80F3088880F3098800B504F081
:1001F000DBFC5DF804EB4EF0040E70477441002008
:10020000E83E0020F03E002004ED00E020ED00E09C
:100210000000FFFF08ED00E0D2B201E000F8012B82
:10022000491EFBD270470022F6E710B513460A4676
:1002300004461946FFF7F0FF204610BD10B50446EE
:1002400004E00B7800F8013B03B1491C521EF8D2C0
:10025000204610BD421C10F8011B0029FBD1801A5A
:10026000704730B505460020034600E05B1C934212
:1002700005D2EC5CC85C201A01D1002CF6D130BD4F
:1002800080EA010210B502F00043400022D04A008B
:100290001FD0010E01EB1261C0F35600C2F35602EB
:1002A00040F4000042F40002A0FB022000047F3969
:1002B000140400D0401C50EA124001D44000491EF2
:1002C000C2B20C0604EBD010401C4008802A02D0B9
:1002D00003E0002010BD20F00100002900DA00201A
:1002E000184310BD2DE9FE4F804681EA0300C00F80
:1002F0000C46009021F0004123F00045B8EB0200CD
:10030000A94105D24046214690461C460B4602466E
:1003100023F00040104347D0270DC7F30A00C3F372
:100320000A510290401A019040286BDAC3F313007F
:1003300040F4801B0098924620B10023D2EB030AC0
:1003400063EB0B0B01985946C0F14002504600F098
:10035000EDF906460D4650465946019A00F0F5F96A
:1003600010EB08006141002487EA115284EAE77328
:100370001A4340D0009A62B3019A012A4FEA075209
:1003800015DC001B61EB02014FF0004202EA07524C
:10039000CDE90042001C41F5801132462B4600F0A9
:1003A0002CFA03B0BDE8F08F40462146F9E7001B68
:1003B00061EB0201001C41F5801300185B4120181D
:1003C000A2F5001747EB030140EAD570B6196D415D
:1003D00011E06D084FEA360645EAC0754FEA07524C
:1003E000001B61EB0201001C41F5801149084FEA36
:1003F00030000019514132462B4603B0BDE8F04FA2
:1004000000F0ECB90098012240000023D0EB02027A
:1004100063EBE073009821464FEAE074B8EB00000C
:1004200061EB0401E9E783F000435BE781F0004101
:1004300058E72DE9FE4F81EA030404F0004421F05F
:10044000004100944FF0000B23F0004350EA0104F8
:100450005ED052EA03045BD0C3F30A54C1F30A55D9
:100460002C44A4F2F3340194A0FB0254C1F3130111
:1004700041F48011C3F3130343F4801301FB0244DE
:1004800000FB034E840A970A44EA815447EA8357E3
:10049000A4FB076802958D0A05FB07854FEA932C9C
:1004A00004FB0C542705029D4FEA065847EA16370D
:1004B000B5EB08056EEB070C870E920E47EA811725
:1004C00042EA8312A7FB0201B6EB0B0164EB0004C6
:1004D0002B0D43EA0C335E1844EB1C50DA465146B0
:1004E000E7FB0201C5F313044FEA0B3343EA14534D
:1004F0004FEA0432019C43EA0603A4F10C0402947F
:10050000009CCDE900B400F078F903B0BDE8F08FAD
:1005100000200146F9E72DE9F04D81EA030404F0DB
:10052000004B21F0004514464FF0000A23F0004133
:1005300050EA050220D054EA01021DD0C5F30A5743
:100540000246C5F31303C1F31300C1F30A5640F486
:10055000801543F48013A7EB0608101BD64608F25B
:10056000FD3873EB050002D308F1010801E0921891
:100570005B41B8F1000F03DA00200146BDE8F08DC1
:1005800000204FF48011064684460EE0171B73EBE3
:10059000050705D3121B63EB050306434CEA010C68
:1005A00049084FEA300092185B4150EA0107EDD14B
:1005B00052EA030012D082EA040083EA05010843EC
:1005C00005D0101BAB4106D20122002306E0002219
:1005D0004FF0004302E06FF0010253101AEB0600E7
:1005E0004CEB085110EB0A0041EB0B01BDE8F04D5C
:1005F00000F0F4B80EB540F2334102910021CDE98C
:1006000000110A460B4600F0F8F803B000BD00F0F8
:10061000004220F00040C10DC0F3160040F400007D
:100620007F2901DA00207047962903DCC1F1960189
:10063000C84001E096398840002AF4D04042704713
:1006400000F0004230F000400AD0C10D01F56071A9
:10065000C0F3160042EA0151C20840071143704737
:1006600000200146704701F0004330B421F0004102
:1006700050EA010206D00A0DA2F56072C1F313011F
:10068000002A02DC30BC00207047440F44EAC10459
:10069000C100E01830BC00EBC25000F068B830B5C3
:1006A0000B46014600202022012409E021FA02F530
:1006B0009D4205D303FA02F5491B04FA02F52844CA
:1006C000151EA2F10102F1DC30BD2DE9F05F0546F7
:1006D000002092469B4688460646814640241BE001
:1006E000284641464746224600F01EF953465A46E0
:1006F000C01A914110D311461846224600F016F850
:100700002D1A67EB01084F4622460120002100F018
:100710000DF817EB00094E41201EA4F10104DFDCA7
:10072000484631462A464346BDE8F09F202A04DB6E
:10073000203A00FA02F1002070479140C2F12003F4
:1007400020FA03F3194390407047202A06DBCB17A9
:10075000203A41FA02F043EAE07306E041FA02F37C
:10076000D040C2F120029140084319467047002949
:10077000A8BF7047401C490008BF20F00100704727
:1007800010B4B0FA80FC00FA0CF050EA010404BF87
:1007900010BC704749B1CCF1200421FA04F411FADD
:1007A0000CF118BF012121430843A3EB0C01CB1D21
:1007B0004FEA00614FEA102042BF002010BC704792
:1007C00000EBC35010440029A4BF10BC7047401C6C
:1007D000490008BF20F0010010BC704710B5141E7E
:1007E00073F1000408DA401C41F1000192185B41EA
:1007F0001A4301D120F0010010BD2DE9F04D9246C1
:100800009B4611B1B1FA81F202E0B0FA80F22032D7
:100810009046FFF78BFF04460F4640EA0A0041EA84
:100820000B0153465A46084313D0114653EA0100C0
:1008300019D0C8F14002504600F076F805460E4641
:10084000504659464246FFF771FF084305D0012044
:1008500004E020463946BDE8F08D0020054346EA15
:10086000E0762C4337430A986305E40AA0EB0800BE
:100870000022FD0A44EA47540A3002D5002001460E
:10088000E9E7010510196941DDE9084500196941E9
:10089000BDE8F04DA2E7C1F30A52C1F3130140F2E3
:1008A000FF3341F480119A4202DA0020014670477A
:1008B00040F233439A42A2F2334202DC524200F049
:1008C00033B8FFF733BF000030B5041E71F10004E8
:1008D00004DB4FF00044404264EB0101141E73F14D
:1008E000000405DB1C464FF00043524263EB040357
:1008F000994208BF904230BD1CB509480090094894
:1009000001900546009C06E0E06840F0010394E891
:10091000070098471034AC42F6D3FFF7EBFB00001A
:100920009C7B0008BC7B0008202A04DB203A21FACB
:1009300002F00021704721FA02F3D040C2F12002F8
:10094000914008431946704780B582B0FFF7EAFB33
:1009500004F0C4F804F04CFF05F00EF905F05EF861
:1009600047F6540043F635514FF0140C4FF00A0E81
:10097000C0F60000C0F6000100224FF48063CDE90C
:1009800000EC05F003F905F095FA05F0FDF805F027
:10099000B3F905F0D9F8002002B080BDFEE70000F1
:1009A00070470000EFF3108072B600BFFEE7000052
:1009B0002DE9F04F82B00E68002E00F0FD8041F26C
:1009C0000042C4F20102042340F2004E904208BFEC
:1009D00003234FF6FF7CC4F2010E00930024012391
:1009E000C1F2100C4FF0000A4FF0000944E000BFC4
:1009F000012704F00C030F229A402BEA020207FAA7
:100A000003F34FEA9A051A4346F825204E6840F250
:100A10000C45F202DEF8082054BF22EA080242EA3E
:100A20000802C4F20105CEF808202A68B30254BFB8
:100A300022EA080242EA08022A60B303DEF8042030
:100A400054BF22EA080242EA0802F303CEF8042067
:100A5000DEF800204FF0010354BF22EA080242EA08
:100A60000802CEF800200E680AF1010A36FA0AF2EE
:100A700004F1040400F0A08003FA0AFB16EA0B0854
:100A8000F1D04E68664511DC122E55D8DFE806F02D
:100A9000340A44485454545454545454545454549C
:100AA000544C5000D1F80C9046E000BF4FF6FF7256
:100AB000C1F2210296420FDC0022C1F211029642DD
:100AC0001AD00022C1F21202964215D00022C1F2C1
:100AD0002102964210D02FE00022C1F2220296425B
:100AE0000AD00022C1F23102964205D00022C1F2A2
:100AF0003202964220D100BF8A684AB1012A14BF4F
:100B0000C0F814B0C0F810B04FF0080914E000BFEE
:100B10004FF0040910E000BFCA6802F108090BE0B9
:100B20004FF0000908E000BFCA6802F1040903E0C1
:100B3000CA6802F10C0900BF22460646B8F5807F5C
:100B400024BF203A043637680F25954027EA05056B
:100B500009FA02F22A433260CA79D2067FF583AFDE
:100B600041F21803C4F202031A68AEF57E7642F031
:100B700001021A601A6802F001020192019A2AF039
:100B8000030256F802B040F60002C4F2010290429D
:100B900010D040F60042C4F2010290423FF428AF68
:100BA00041F20002C4F20102009F904208BF0227F6
:100BB0001FE700BF00271CE702B0BDE8F08F000070
:100BC000002A08BF090401617047000044F27C104C
:100BD000C2F200000068704780B542F20000C4F223
:100BE0000200016841F010010160032000F08CF860
:100BF000002000F005F800F027F8002080BD00007C
:100C000070B540F20406C2F2000640F20C013278E0
:100C1000C2F200014FF47A730968B3FBF2F20446A2
:100C2000B1FBF2F1084600F08FFB0F2C4FF00105ED
:100C300008D838B94FF0FF3021460022002500F0D7
:100C400037F87460284670BD82B041F21800C4F2D3
:100C500002000168022241F001010160016801F017
:100C6000010101910199416841F080514160406862
:100C700000F08050009000980420C4F20100016848
:100C800062F31A61016002B070470000002848BF9B
:100C9000704700F01F01012202FA01F11C2202EA52
:100CA000D0004EF20012CEF20002815070470000D8
:100CB00010B54EF60C5CCEF2000CDCF80030C3F33D
:100CC000022E8EF00704042C28BF0424BEF1030377
:100CD0004FF0FF3E0EFA04F438BF0023A1439940C1
:100CE0000EFA03F39A43114300F00F0200F1604340
:100CF0000901043A03F564436244002848BF02F145
:100D00000C03197010BD00004EF60C51CEF200011C
:100D10000A684FF6FF031A4060F30A2242F080602F
:100D200040F0FD7008607047002804BF0120704744
:100D30002DE9F04381B042F20008C4F202080446F3
:100D4000D8F800000D4600F0070088420CD2D8F811
:100D5000000020F007002843C8F80000D8F8000081
:100D600000F00700A8426CD1206841F20409810715
:100D7000C4F2020917D5410705D5D9F8001041F48E
:100D8000E061C9F80010010705D5D9F8001041F459
:100D90006051C9F80010D9F80010A26821F0F001E4
:100DA0001143C9F80010C00742D1D8F8000000F084
:100DB0000700A8420CD9D8F8000020F0070028430B
:100DC000C8F80000D8F8000000F00700A84238D1A9
:100DD0002068410707D5D9F80010E26821F4E061E6
:100DE0001143C9F80010000708D5D9F8000021699F
:100DF00020F4605040EAC100C9F80000D9F8002092
:100E000002F00C00082841F20020C0F27A0051D113
:100E100047F2F253C2F38341C0F60003595CD20398
:100E20003CD440F60010C0F23D00484342E000BF11
:100E3000606802280AD001282AD159F8041C8903C5
:100E400008D4012001B0BDE8F08300BF59F8041CAC
:100E50008901F6D5D9F8001021F003010843C9F83B
:100E60000000FFF7B3FE064641F28837D9F80000CC
:100E7000616800F00C00B0EB810F96D0FFF7A6FE82
:100E8000801BB842F2D9032001B0BDE8F08300BF57
:100E900059F8041C8907D4D5DCE700BFD9F8002035
:100EA00047F2F043C2F34042C0F600039A5C484365
:100EB000B0FBF2F0D9F8001047F2D842C1F30311A9
:100EC000C0F60002515C40F20C0220FA01F140F23F
:100ED0000800C2F200000068C2F200021160FFF7D1
:100EE0008FFE002001B0BDE8F083000040F20C004E
:100EF000C2F200000068704740F20C0041F20401A9
:100F0000C2F20000C4F202010068096847F2E84238
:100F1000C1F30221C0F60002515CC84070470000D6
:100F200040F20C0041F20401C2F20000C4F20201DE
:100F30000068096847F2E842C1F3C221C0F6000226
:100F4000515CC84070470000002804BF0120704772
:100F50002DE9F04182B00446007841F20006C00756
:100F6000C4F202060CD0706800F00C00042840F0B7
:100F700081803068800303D56068002800F04E81CE
:100F8000207880071BD5706810F00C0F09D07068AE
:100F900000F00C00082840F08B807068C00300F15E
:100FA00087803068800703D52069012840F03681AA
:100FB0003068616920F0F80040EAC10030602078B4
:100FC000000713D4207840072CD4E569002D00F0E9
:100FD0002081706800F00C00082840F0AF80012DDF
:100FE00040F00C81012002B0BDE8F081A06900282A
:100FF00000F08C800020C4F242200121C0F880144F
:10100000FFF7E4FD054600BF706A800700F1BA8073
:10101000FFF7DCFD401B0228F6D9032002B0BDE833
:10102000F08100BFF0695FEAC00808D4F06940F0C1
:101030008050F061F06900F080500090009847F215
:101040000007C4F200073868C0054DD4386840F482
:1010500080703860FFF7BAFD054600BF3868C005EC
:1010600042D4FFF7B3FD401B6428F7D9032002B038
:10107000BDE8F081706800F00C00082803D17068AA
:10108000C0033FF576AF6068002800F00981B0F535
:10109000A02F00F01D81B0F5803F00F01D81306869
:1010A00020F480303060306820F4802017E100BFE9
:1010B0002069002840F20000C4F2422000F08C8039
:1010C00001210160FFF782FD054600BF30688007FF
:1010D0003FF56EAFFFF77AFD401B0228F6D90320DB
:1010E00002B0BDE8F08100BFE068002800F09A80FF
:1010F000052800F0B180012800F0B280306A20F0AD
:1011000001003062306A20F00400ACE00020C4F23C
:1011100042200021C0F88014FFF758FD054600BFAB
:10112000706A80077FF54EAFFFF750FD401B022825
:10113000F6D9032002B0BDE8F08100BF0027C4F259
:10114000422700203866FFF741FD022D05460DD1EC
:101150003068800140F1D680FFF738FD401B02283F
:101160004FF00300F4D902B0BDE8F081306880018F
:101170004FD5FFF72BFD401B02284FF00300F5D998
:10118000F1E700BF40F20C00C2F20000006844F634
:10119000D351C1F26201A0FB0101480A019000BFD6
:1011A00000BF0198411E002801913FF40BAF00BF22
:1011B0000198411E002801913FF404AF00BF01983F
:1011C000411E002801913FF4FDAE00BF0198411E71
:1011D00000280191E4D1F5E600210160FFF7F6FC5B
:1011E000054600BF306880077FF5E9AEFFF7EEFCEB
:1011F000401B02284FF00300F4D9B4E77068216A5D
:1012000000F480328A4209D1616A00F47010884289
:1012100004D1002002B0BDE8F08100BF012002B07F
:10122000BDE8F081306A20F001003062306A20F0C1
:1012300004003062FFF7CAFC054641F2883700BF60
:10124000306A800722D5FFF7C1FC401BB8424FF03F
:101250000300F5D987E700BF306A40F00400306230
:10126000306A40F001003062FFF7B0FC054641F201
:10127000883700BF306A800708D4FFF7A7FC401BFF
:10128000B842F7D9032002B0BDE8F081B8F1000FF1
:101290003FF59BAEF06920F08050F06195E600BF0D
:1012A000306820F480303060306820F48020306076
:1012B000FFF78CFC054600BF306880037FF560AE09
:1012C000FFF784FC401B64284FF00300F4D94AE781
:1012D000306840F480203060306840F48030306006
:1012E000FFF774FC054600BF306880033FF548AE49
:1012F000FFF76CFC401B6428F6D9032002B0BDE860
:10130000F08100BF206AB0F5803F05D17168A26806
:1013100021F40031114371607168626A21F4741123
:1013200011430843706001203866FFF74FFC044604
:10133000306880013FF56DAFFFF748FC001B0228C5
:101340004FF00300F4D90EE7411E0020B0EB116FFF
:101350001CBF012070474EF21002CEF20002516015
:101360004EF62351CEF20001F0230B70072190605E
:1013700011607047704700007047000090F83C20F3
:10138000012A4FF0020236D010B580F83D200268E5
:10139000D2F804E0D2F808C00C682EF070032343A2
:1013A00040F2FF74C4F20004A24253600ADCB2F1BE
:1013B000804F13D040F20043C4F200039A420DD094
:1013C00011E000BF42F60043C4F201039A4205D087
:1013D00040F60003C4F200039A4204D149682CF09D
:1013E0008003194391600121002280F83D1080F8AC
:1013F0003C20BDE81040104670470000002804BFA4
:101400000120704710B5044690F83D0028B900202F
:1014100084F83C00204600F067F8022084F83D0084
:10142000206840F2FF730268C4F2000342F6004CE9
:101430009842C4F2010C15DCB0F1804F1AD040F292
:101440000041C4F20001884214D0984218DCB0F187
:10145000804F1DD040F20041C4F20001884217D0F5
:101460001AE000BF604505D040F60001C4F200015B
:101470008842EAD1A16822F070020A439842E6DD70
:10148000604505D040F60001C4F20001884203D156
:10149000216922F440720A43A36922F08001D4F842
:1014A00004E0E268194360450160C262C0F828E0C8
:1014B00002D16169CCF8301001214161002084F82B
:1014C000461084F83E1084F83F1084F8401084F8E9
:1014D000411084F8421084F8431084F8441084F8D2
:1014E000451084F83D1010BD80B586B0006840F20C
:1014F0000042C4F2000200219042059132D0B0F1C6
:10150000804F2CD141F21C00C4F20200016841F06E
:1015100001010160016801F001010191019950F898
:10152000041C41F0040140F8041C50F8040C02A90A
:1015300000F0040001900198012002900020CDE904
:10154000030040F60000C4F20100FFF731FA1C204E
:1015500000210022FFF7ACFB1C20FFF797FB06B031
:1015600080BD00BF41F21C00C4F2020001680022ED
:1015700041F0020101600068002100F002000190CA
:1015800001981D20FFF794FB1D2006B0BDE88040A8
:10159000FFF77CBB90F83C20012A4FF0020200F0DC
:1015A000C58080B580F83D20D0F800C04FF6777236
:1015B000DCF8083023EA0202CCF808200B684F2B35
:1015C00028DC1F2B44DD202B45D0302B43D0402B73
:1015D00040F0AE80D1F804E0C968DCF82030DCF8D7
:1015E000202022F00102CCF82020DCF8182022F084
:1015F000F00242EA011123F00A0242EA0E02CCF89C
:101600001810CCF82020DCF8081041F0470121F038
:10161000300180E06F2B27DDB3F5005F48D0B3F5D4
:10162000805F7AD0702B40F08380D1E901E3C968F4
:10163000DCF8082043EA0E0322F47F4243EA01214A
:101640001143CCF80810DCF8081041F0770162E093
:101650000BB1102B6CD1DCF8081021F0700119438C
:1016600041F0070157E000BF502B35D0602B5FD110
:10167000D1F804E0C968DCF82030DCF8202022F042
:101680001002CCF82020DCF8182022F4704242EA44
:10169000013123F0A00242EA0E12CCF81810CCF867
:1016A0002020DCF8081041F0670121F0100132E041
:1016B000D1E901E3C968DCF8082043EA0E0322F40B
:1016C0007F4243EA01211143CCF80810DCF80810EE
:1016D00041F480411FE000BFD1F804E0C968DCF8A4
:1016E0002030DCF8202022F00102CCF82020DCF8A9
:1016F000182022F0F00242EA011123F00A0242EA25
:101700000E02CCF81810CCF82020DCF8081041F0BC
:10171000570121F02001CCF808100022012180F8A7
:101720003D10002180F83C10BDE880401046704715
:101730000122F3E70068B0F1804F18BF7047B0B5E1
:1017400040F24005C2F200052878022814D0012892
:1017500022D140F29414C2F200042046002100F08D
:10176000DFFC2168E860086A20F00A000862086A65
:1017700040F0020008620CE040F29414C2F200044F
:101780002046002100F0CCFC28612046002100F01A
:10179000D7F9287801302870BDE8B04070470000C4
:1017A00090F83C30012B04BF022070474FEAB20290
:1017B000032A23D8F0B5DFE802F00327476500BF0E
:1017C0000368D1E900C5D1F80CE01C6A1A6A40F23E
:1017D000FF7722F001021A621A4652F8186FC4F21B
:1017E0000007BB4272DCB3F1804F7BD040F2004770
:1017F000C4F20007BB4275D090E000BF0121002277
:1018000080F83C20084670470368D1E900E6D1E93A
:1018100002C11C6A1A6A360222F010021A621A46C3
:1018200052F8185F4FF2FF07BE4325F4734561F38A
:101830000F3624F0A0040EF00A0746EA050144EA38
:10184000071711601F623AE00768D1E900C5D1E9C6
:1018500002313C6A3A6A61F3071522F480723A62F7
:101860003A4652F81C6F26F0F30645EA06014FEAA5
:101870005C0666F3492411603C62116821F00C019A
:10188000116040E00368D1E900E6D1E902C11C6AB9
:101890001A6A360222F480521A621A4652F81C5F03
:1018A0004FF2FF07BE4325F4734561F30F364FEA4D
:1018B0005E0746EA050167F34D3411601C6211684A
:1018C0004FEA0C2321F4406111601CE042F600470E
:1018D000C4F20107BB4205D040F60007C4F200077E
:1018E000BB421BD126F00306354324F00A070CF057
:1018F0000A066EF3071537449D611F629F6927F042
:101900000C079F618B681168194311600021BDE8C5
:10191000F040002280F83C200846704746F0010560
:10192000E3E70000002804BF0120704710B504461B
:1019300090F83D0028B9002084F83C00204600F0D3
:1019400067F8022084F83D00206840F2FF730268C7
:10195000C4F2000342F6004C9842C4F2010C15DCBC
:10196000B0F1804F1AD040F20041C4F20001884229
:1019700014D0984218DCB0F1804F1DD040F20041E5
:10198000C4F20001884217D01AE000BF604505D0BC
:1019900040F60001C4F200018842EAD1A16822F0B9
:1019A00070020A439842E6DD604505D040F600012A
:1019B000C4F20001884203D1216922F440720A4333
:1019C000A36922F08001D4F804E0E268194360457D
:1019D0000160C262C0F828E002D16169CCF8301021
:1019E00001214161002084F8461084F83E1084F8FB
:1019F0003F1084F8401084F8411084F8421084F8B5
:101A0000431084F8441084F8451084F83D1010BD4C
:101A10007047000061B1082916D0042919BF00F1F0
:101A2000410200F1450300F13F0200F143030FE0E2
:101A300090F83E2090F84230012A4FF0010208BF92
:101A4000012B1DD01046704700F1400200F1440305
:101A500012781B78012A4FF0010208BF012BF1D147
:101A60000222082918D0042922D180F83F2080F8CA
:101A700043204FEAB103032B4FF00102E2D821E0EB
:101A8000022280F83E2080F842204FEAB103032B67
:101A90004FF00102D6D815E080F8402080F84420AD
:101AA0004FEAB103032B4FF00102CBD80AE000BF8D
:101AB00080F8412080F845204FEAB103032B4FF016
:101AC0000102BFD847F2046C0068C0F6000C5CF855
:101AD00023C0C36801F01F0143EA0C03C360036A1B
:101AE00002FA01F123EA01020262026A114340F2A2
:101AF000FF72C4F200029042016209DCB0F1804F33
:101B000012D040F20041C4F2000188420CD010E033
:101B100042F60041C4F20101884205D040F60001BE
:101B2000C4F20001884204D1816801F0070106294E
:101B300003D0016841F001010160002210467047A6
:101B40004FEAB102032A4FF0010C42D810B547F218
:101B5000146E0368C0F6000E5EF822E0DA6802EA4E
:101B60000E02DA6001F01F0E1C6A0CFA0EF224EA73
:101B700002021A621A6A41F211141A621A6A2242A5
:101B800008D11A6A40F24444224203D11A6822F072
:101B900001021A60BDE8104071B1082912D0042971
:101BA0004FF0010119BF80F8411080F8451080F80E
:101BB0003F1080F843100AE0012180F83E1080F8C1
:101BC000421004E0012180F8401080F844104FF0EA
:101BD000000C60467047000010B5016804460869B3
:101BE000800744BFC8685FEA807039D4086940073D
:101BF00044BFC8685FEA40703ED40869000744BF2C
:101C0000C8685FEA007045D40869C00644BFC86868
:101C10005FEAC0604AD40869C0071CBFC8685FEAB1
:101C2000C07051D10869000644BFC8685FEA00600F
:101C300052D40869400644BFC8685FEA406053D484
:101C40000869800646BFC8685FEA806010BD6FF013
:101C5000200220460A61BDE81040FFF78DBB00BF9F
:101C60006FF002000861012020778869800743D067
:101C70002046FFF75FFD45E06FF004000861022099
:101C80002077886910F4407F40D02046FFF752FD4E
:101C900042E000BF6FF00800086104202077C869A7
:101CA00080073DD02046FFF745FD3FE06FF0100074
:101CB000086108202077C86910F4407F3AD0204698
:101CC000FFF738FD3CE000BF6FF0010008612046DF
:101CD00000F024FA2168A5E76FF080000861204633
:101CE000FFF748FB2168A4E76FF040000861204639
:101CF00000F030FA2168A3E7204600F025F82046DE
:101D000000F09CF92168002020776FE7204600F062
:101D10001BF8204600F092F92168002020776CE73C
:101D2000204600F011F8204600F088F921680020D4
:101D3000207769E7204600F007F8204600F07EF99A
:101D400021680020207766E77047000090F83C305B
:101D5000012B04BF022070474FEAB202032A3DD88C
:101D60002DE9F043DFE802F002407CB6036842F65A
:101D700000461D6A1A6AC4F2010622F001021A62C4
:101D80001A465C6852F818CFB3428E68D1F800E06A
:101D900025F0020545EA06050CD1CE68D1E90578A3
:101DA00024F4407425F00C0526F004063C4335432A
:101DB00044EA08042CF0730747EA0E075C609F6151
:101DC0004F6809695F631D629F6947F008079F615B
:101DD0009F6927F004079F61ACE000BF012100224A
:101DE00080F83C2008467047036842F600461D6AAA
:101DF0001A6AC4F2010622F010021A621A46D3F8D7
:101E000004C052F8184FB3428E68D1F800E025F0B4
:101E1000200545EA06150FD1CE68D1E905986FF087
:101E2000400725F0C00507EA061635432CF4406745
:101E300048EA090647EA860C24F4E64444EA0E27F9
:101E4000C3F804C09F614F6809699F631D629F6961
:101E500047F400679F619F6927F480679F6168E08E
:101E6000036842F600461D6A1A6AC4F2010622F4AB
:101E700080721A621A46D3F804C052F81CEFB342BB
:101E80008E680C6825F4007545EA06250FD1CE68EA
:101E9000D1E90598360240F2FF4725F44065BE437C
:101EA00035432CF4405748EA090647EA061C2EF051
:101EB00073072743C3F804C0DF614F680969DF6314
:101EC0001D62DF6947F00807DF61DF6927F004075B
:101ED000DF612FE0036842F60047D3F820C01A6A9A
:101EE000C4F2010722F480521A621A465C6852F862
:101EF0001C5FD1F800E08E68BB4204D14F6924F426
:101F0000804444EA87142CF4005747EA063725F446
:101F1000E64646EA0E265C60DE614E6809691E648C
:101F20001F62DF6947F40067DF61DF6927F48067BC
:101F3000DF6109021368194311600021BDE8F04315
:101F4000002280F83C20084670470000002804BFAB
:101F50000120704710B5044690F83D0028B90020D4
:101F600084F83C00204600F067F8022084F83D0029
:101F7000206840F2FF730268C4F2000342F6004C8E
:101F80009842C4F2010C15DCB0F1804F1AD040F237
:101F90000041C4F20001884214D0984218DCB0F12C
:101FA000804F1DD040F20041C4F20001884217D09A
:101FB0001AE000BF604505D040F60001C4F2000100
:101FC0008842EAD1A16822F070020A439842E6DD15
:101FD000604505D040F60001C4F20001884203D1FB
:101FE000216922F440720A43A36922F08001D4F8E7
:101FF00004E0E268194360450160C262C0F828E06D
:1020000002D16169CCF8301001214161002084F8CF
:10201000461084F83E1084F83F1084F8401084F88D
:10202000411084F8421084F8431084F8441084F876
:10203000451084F83D1010BD704700007047000047
:1020400041B1082910D0042914BF00F1410200F168
:102050003F020BE090F83E20012A1CBF0120704790
:10206000022280F83E2013E000F140021278012A9B
:102070001CBF012070470222082907D0042914BF81
:1020800080F8412080F83F2002E000BF80F8402027
:10209000006801F01F010122036A8A4023EA02015D
:1020A0000162036A42F64441C4F201011A43A1F1FC
:1020B0004403984202620FD040F2FF71C4F2000163
:1020C000884213DCB0F1804F1CD040F20041C4F2D2
:1020D0000001884216D01AE00A6842F400420A6001
:1020E00040F2FF71C4F200018842EBDD42F600418C
:1020F000C4F20101884205D040F60001C4F200019B
:10210000884204D1816801F00701062903D00168E3
:1021100041F001010160002070470000704700009D
:102120004FEAB101032984BF00207047DFE801F0C6
:10213000020E060A006834300068704700683C30C0
:1021400000687047006840300068704700683830A9
:102150000068704770470000002804BF01207047E6
:1021600010B5044690F8410028B9002084F84000DA
:10217000204600F063F8242084F841002068D4E968
:102180000212C36823F40053C360036923F440536D
:102190001A430261D4E904231143C268194341F28E
:1021A0000C639A431143C1604169A26921F44071F3
:1021B000114343F60002C4F201029042416103D090
:1021C000FEF79AFE02E000BFFEF7AAFED4E9002364
:1021D000192148439900B0FBF1F048F21F5CC5F2A9
:1021E000EB1CA0FB0C314FF69C734909C0F6FF7342
:1021F00001FB0300322303EB0010A0FB0C03F020D3
:1022000000EA531000EB0110C3F34311084490603F
:102210001069202120F490401061506920F02A00BC
:102220005061D06840F40050D0600020606484F8B1
:10223000411084F84210606310BD000070B586B094
:1022400040F60004C4F20104006804F54051002681
:102250008842049602D006B070BD00BF41F218005B
:10226000C4F20200016802AD41F4804101600168DE
:1022700001F4804101910199016841F0040101607C
:102280000068294600F00400019001984FF40070A6
:10229000029002200390032005902046FEF788FB61
:1022A0004FF48060CDE90206204629460496FEF7E9
:1022B0007FFB06B070BD00002DE9F04381B00446FD
:1022C00090F84100202840F0B180884600294FF066
:1022D000010000F0D6801646002A00F0D2800020CF
:1022E000606421201D4684F84100FEF76FFCA6843F
:1022F000E684A1680646B1F5805F03D12069002815
:1023000000F0988047464FF00008E18C20680029D3
:1023100000F0968005F101090BE000BF47B317F804
:10232000011B4160E18C0139E184E18C002900F05E
:10233000878001680906F1D4B9F1000F0AD0EDB128
:10234000FEF744FC801BA84218D8206801680906E3
:10235000F6D5E3E701680906E0D4016809065CBF29
:1023600001685FEA0161D9D401680906F2D5D5E7B1
:1023700038F8021B00276FF35F21D2E7206850E88E
:10238000030F216820F4D07041E80302BAB320683B
:1023900050E8030F216820F4D07041E8030272B3C3
:1023A000206850E8030F216820F4D07041E8030250
:1023B0002AB3206850E8030F216820F4D07041E868
:1023C0000302002ADAD11AE0206850E8050F2168DC
:1023D00020F0010041E80502DAB1206850E8050F5D
:1023E000216820F0010041E8050292B1206850E820
:1023F000050F216820F0010041E805024AB120687C
:1024000050E8050F216820F0010041E80502002A8C
:10241000DAD1202084F8410084F84200002084F8BA
:102420004000032001B0BDE8F08300BF022001B0EE
:10243000BDE8F0830027E18C206800297FF46AAFB3
:102440000168490619D4FDB1691C0DD1016849061E
:1024500013D4016849065CBF01685FEA41610CD48E
:1024600001684906F2D508E0FEF7B0FB801BA842E0
:102470000AD8206800684006F6D5202084F841007C
:10248000002001B0BDE8F083206850E8030F216808
:1024900020F4D07041E80302002A3ED0206850E8C2
:1024A000030F216820F4D07041E80302AAB320682A
:1024B00050E8030F216820F4D07041E8030262B3B2
:1024C000206850E8030F216820F4D07041E803022F
:1024D000002AD9D121E000BF206850E8050F21680B
:1024E00020F0010041E80502002A3FF492AF206885
:1024F00050E8050F216820F0010041E80502002A9C
:102500003FF487AF206850E8050F216820F00100F4
:1025100041E80502002A3FF47CAF206850E8050F2F
:10252000216820F0010041E80502002AD4D170E7BB
:102530002DE9F04184B041F21800C4F202000168B4
:1025400040F6000441F0200101600168C4F201047A
:1025500001F02001009100990168002241F004017E
:102560000160006840F6020100F00400009000984D
:1025700020464FF00008FEF723FB03206D4602279C
:1025800001260390204629460097CDE90166FEF713
:102590000FFA4FF400608DE8410120462946039769
:1025A000FEF706FA04B0BDE8F081000010B58AB06D
:1025B00040F294100021C2F200004FF6FF7409911E
:1025C000CDE90711CDE90411CDE90211CDE90011E2
:1025D0004FF080424723C0E9021401618021C0E925
:1025E00000238161FEF70AFF002818BFFEF7DAF921
:1025F0004FF48050069040F29410C2F2000006A9F9
:10260000FEF7C8FF002818BFFEF7CCF940F294107F
:10261000C2F20000FFF786F9002818BFFEF7C2F9E2
:1026200040F294100024C2F2000004A9CDE9044451
:10263000FEF7A4FE002818BFFEF7B4F90120CDE98B
:10264000010440F29410C2F2000069460022009496
:102650000394FFF7A5F8002818BFFEF7A3F90AB006
:1026600010BD0000B0B594B040F2004540F2DC105F
:10267000C4F200050021C2F2000041F61F4240F200
:10268000CF730E91CDE90C110991CDE90711CDE978
:102690000511CDE90311CDE90111C0E90052C0E9EE
:1026A000021301618161FEF7A9FE002818BFFEF741
:1026B00079F94FF480500B9040F2DC10C2F2000028
:1026C0000BA9FEF767FF002818BFFEF76BF940F271
:1026D000DC10C2F20000FFF739FC002818BFFEF73B
:1026E00061F940F2DC100024C2F2000008A9CDE933
:1026F0000844FEF743FE002818BFFEF753F9602098
:10270000CDE901040394059440F2DC14C2F2000404
:1027100001A920460022FFF719FB002818BFFEF789
:1027200041F920680021A842129101D014B0B0BD37
:1027300041F21800C4F20200016841F00401016096
:10274000006810A900F004000F900F98402010902E
:1027500002201190139005F58230FEF729F914B08C
:10276000B0BD000080B540F2242043F60001C2F263
:102770000000C4F2010100234FF00C0C4FF4E132D1
:1027800080E80E00C0E90333C0E905C3C361FFF769
:10279000E3FC002808BF80BDBDE88040FEF702B919
:1027A000FEE70000FEE70000F0B581B040F2400512
:1027B000C2F200052878032834D000285CD140F606
:1027C0000007C4F201074EF2180638460221012222
:1027D000CEF20006FEF7F4F956F8040C44F6D35294
:1027E000C0EB00114900C1F26202A1FB0212346881
:1027F0009109002208E000BF2244D21AA34228BF58
:1028000002448A421C4639D23368A342F4D1336869
:10281000A342F1D13368A342EED13368A342F3D08F
:10282000EAE700BFD5E90301091A21A0696004F0B5
:10283000C7F96868FDF7DEFE4CF29C4246F672036B
:10284000CBF22002C3F6A173FDF7F3FD0023C3F61C
:10285000E07300220024FDF7ECFDFDF704FFA86003
:10286000FDF7EEFE02461BA00B4604F0A9F924205A
:10287000C4F200002C70046001B0F0BD38460221A3
:102880000022FEF79DF92878411C40F29410C2F214
:10289000000002682970116A21F00A011162136AAE
:1028A0000021136201B0BDE8F040FFF7B3B800BFEC
:1028B0000D0A2D2D2D2DE9AB98E794B5E5B9B3E6BA
:1028C00097B6E997B42D25642D75732D2D2D2D0DFB
:1028D0000A0000000D0A2DE6A380E6B58BE8B79D3F
:1028E000E7A6BBE4B8BA2D252E32662D636D2D0DFB
:1028F0000A00000080B502F08BFB03F07BFBBDE813
:10290000804002F093BB0000B0B590B000240120DD
:10291000CDE90B44CDE9094406900A904FF4E0104C
:102920004FF4803102250F9006A8CDE90714CDE9B8
:102930000D51FEF709FB28B1EFF3108072B600BF0E
:10294000FEE700BF0F20CDE901054FF48060CDE91F
:10295000040401A802210394FEF7E6F920B1EFF385
:10296000108072B6FEE700BF10B0B0BD41F20400A7
:10297000C4F20200016801F00C01082941F20021B3
:10298000C0F27A010FD102680368C2F38342DB030D
:1029900002F1020202D503689B0303D540F6001141
:1029A000C0F23D01514340F20C02C2F2000211603C
:1029B000006847F2D843C0F30310C0F60003185C68
:1029C00021FA00F0106070477047000040F2941048
:1029D000C2F20000FFF700B940F2DC10C2F20000C2
:1029E000FFF7FAB8FEE70000002804BF0020704798
:1029F000C1B209B101200CE010F47F4102D0090AF4
:102A0000092006E010F47F0107BF010E1920090C10
:102A1000112047F2F242C0F60002515C08447047B0
:102A200040F6000440F24806C4F20104C2F2000677
:102A3000642700BF3068FDF7EAFD054620464FF4E5
:102A400000610022FEF7BCF87D43284603F0C4F97C
:102A500020464FF400610122FEF7B2F8284603F049
:102A6000BBF9E7E780B500F041FB002080BD000026
:102A700080B500F0A9FC002080BD000070B582B0D8
:102A800040F2B00647F6F42047F69C31C2F2000649
:102A9000C0F60000C0F60001C6E90001012078215F
:102AA00001F0FCFE706128B30A201521CDE9001069
:102AB00042F62D3113A0C0F6000100224FF48063CE
:102AC000002403F063F87269054610A11046002245
:102AD000002302F0DBFD706990F8211041F0020143
:102AE00080F821101DB1284603F0E4F900242046A7
:102AF00002B070BD07A002F0A7FA4FF0FF342046E5
:102B000002B070BD747368656C6C00007368727895
:102B1000000000006E6F206D656D6F727920666F2A
:102B200072207368656C6C0A0000000040F2B00A05
:102B3000C2F2000ADAF8140040F2101490F82110E2
:102B4000C2F2000441F0010280F82120880703D47A
:102B50000020207026E000BFDAF8101041B140F2EA
:102B60001010C2F200008022FDF768FB1AE000BFDF
:102B700001F0FCFB30B10020207147F26D30C2F251
:102B8000680009E046F67300C0F22000C4F80300B4
:102B900046F66610C7F26E3020602046FDF75AFBFD
:102BA0003E212152204602F04FFA47F6CA264FF046
:102BB000010B4FF00008C0F60006022702E000BF3C
:102BC00080F820B001F0AAFF8146DAF81400B9F1CC
:102BD0001B0FF5D090F82010022909D0012940F0F0
:102BE0007580B9F15B0F40F06F8080F82070E9E7E5
:102BF000A9F14101022980F82080E3D3B9F1440F03
:102C000000F29280DFE819F04600970097009700E5
:102C10009700970097009700A000E00070009700D1
:102C20009700700097009700970097009700970013
:102C300097009700970097009700970097009700DC
:102C400097009700970097009700970097009700CC
:102C500097009700970097009700970097009700BC
:102C600097009700970097009700970097009700AC
:102C7000970097009700970097009700970097009C
:102C800097009700970097009700970097004800DB
:102C9000840100BF96E700BFB0F87410B0F872204E
:102CA0009142BFF48FAF084490F8221047F6D82025
:102CB000C0F6000002F0C8F9DAF81400B0F8741099
:102CC0000131A0F874107DE780F82080B9F10D0F74
:102CD0002AD8DFE809F00730303030303030397929
:102CE000093030096EE700BF01F040FB012812D126
:102CF000DAF8140090F82110C90707D047F64B10F6
:102D0000C0F6000002F0A0F9DAF81400B0F8721072
:102D1000223001F0EBF8DAF8140090F82100800777
:102D200078D484F800801DE1B9F17F0F0CD0B9F19F
:102D3000FF0F3FF447AFB0F87220502A74D300223F
:102D4000A0F87220A4E000BFB0F8741000293FF48E
:102D500039AFB0F872204D1E531E9AB2A0F87230EF
:102D6000ABB29A42A0F8745040F2B48000F1220550
:102D7000E8182944D21A02F047FADAF81400B0F839
:102D80007210084480F82280DAF81400B0F8741049
:102D9000084400F1220189A002F056F9DAF8141073
:102DA000B1F87400B1F8721088423FF60BAF451EBF
:102DB000304602F049F9DAF814000135B0F8720033
:102DC0008542F5D3FEE600BFB0F8741051B100257E
:102DD000304602F039F9DAF814000135B0F8741011
:102DE0008D42F5D300F1220547F64B10C0F60000E6
:102DF00002F02AF901F0BAFA012802D1284600F0BF
:102E0000B3FFDAF8140090F8210080076ED484F83C
:102E10000080C1E0DAF8101000296FD0204680222F
:102E2000FDF70CFA9EE000BFB0F8743093422FD249
:102E3000C11801F123002231D21A02F0E5F9DAF8C3
:102E40001400B0F87410084480F82290DAF81400E6
:102E500090F82110C90709D0B0F87410084400F1A7
:102E600022015AA002F0F0F8DAF81400B0F8745019
:102E7000B0F872108D421DD2304602F0E5F8DAF853
:102E800014000135B0F872108D42F5D312E000BF86
:102E9000104480F82290DAF8140090F82110C90745
:102EA00008D047F6D820C0F60000494602F0CCF81A
:102EB000DAF81400B0F87210B0F874200131A0F8FC
:102EC000721089B201325029A0F8742028BFC0F8CE
:102ED000728077E638A002F0B7F8DAF81400B0F89C
:102EE0007210084480F822806CE600BFDAF81010F7
:102EF000F1B120468022FDF7A1F94DE001F036FA4C
:102F000000B347F26D3084F80480C2F2680023E019
:102F1000B0F8740000283FF455AE304602F094F843
:102F2000DAF81400B0F874100139A0F8741049E60A
:102F300001F01CFA00B347F26D3084F80480C2F24D
:102F4000680023E046F67300C0F22000C4F80300D6
:102F500046F66610C7F26E3020602046FDF77AF91B
:102F60003E212152204602F06FF8DAF81400542175
:102F70002230FDF758F925E646F67300C0F220002E
:102F8000C4F8030046F66610C7F26E302060204693
:102F9000FDF760F93E2121520AA021462A4602F09F
:102FA00053F8DAF8145005F12200FDF753F9A5F8AB
:102FB0007200A5F8740005E60820080008257320B3
:102FC0002008000025732573000000002573000011
:102FD00080B582B0019040F22420C2F2000001A925
:102FE00001224FF0FF33FFF767F9019802B080BD6F
:102FF00080B502A002F028F8002080BD48656C6C06
:103000006F2052542D546872656164210A000000DB
:1030100040F248060024002540F2DC17C2F2000608
:10302000C4F23404C4F2FA35C2F200073068FDF786
:1030300007FB02460B4600202146FDF7F4F900226B
:103040002346FDF768FAFDF70EFB2946FDF718F950
:10305000FDF7DDFA396848634FF47A7002F0BCFE80
:10306000E4E700002DE9F04381B016A001F0ECFF89
:1030700040F2B00040F2B409C2F20000C2F200090E
:103080000768D9F80050AF4218D213A40FF24C08C9
:1030900003E000BF0C37AF4210D23E6821463046F5
:1030A0000222FDF7DEF80028F4D07A684046314667
:1030B00001F0CAFFD9F80050ECE700BF002001B0D2
:1030C000BDE8F0832D2D46756E6374696F6E204CDC
:1030D0006973743A0A0000005F5F0000252D3136E5
:1030E00073202D2D2025730A0000000010B540F23A
:1030F0005804C2F20004216806A001F0A5FF21696E
:1031000009A001F0A1FF61690CA0BDE8104001F029
:103110009BBF00BF746F74616C206D656D6F7279B9
:103120003A2025640A00000075736564206D656DA2
:103130006F7279203A2025640A0000006D61786979
:103140006D756D20616C6C6F6361746564206D6575
:103150006D6F72793A2025640A0000002DE9F04F66
:103160008DB0022002F0A8F900F104087BA082A231
:10317000082101F069FF47F68824C0F600042046C4
:1031800001F062FF204601F05FFF204601F05CFF86
:10319000204601F059FF204601F056FF204601F07D
:1031A00053FF204601F050FF204601F04DFF75A06F
:1031B00001F04AFF00250DF1140B7CA77CA4CDF88B
:1031C0000C8005E0049DDDF80C80002D00F0C2802D
:1031D0002E46002D08BF4646FCF7A4FF35B115F872
:1031E000041C01F07F01022940F0B28031684145A2
:1031F00000F0AE800A68059142451DD01168069224
:1032000041451DD00A68079142451DD011680892BA
:1032100041451DD00A68099142451DD011680A92A6
:1032200041451DD00A680B9142451DD04FF008085A
:10323000114604920C921BE04FF0010816E000BF0B
:103240004FF0020812E000BF4FF003080EE000BF8D
:103250004FF004080AE000BF4FF0050806E000BF89
:103260004FF0060802E000BF4FF00708002104916C
:10327000FCF75CFF4FF0000907E000BF4DA001F034
:10328000E3FE09F10109C1459CD05BF829A0FCF7D8
:1032900049FF1AF8041C01F07F05FCF747FF022DD7
:1032A000EFD1AAF10C035AF8080F0025BAF808600C
:1032B000504511D0504600BF0068504521D00068ED
:1032C00050451BD0006850451AD000680435504561
:1032D000F2D1013D15E000BF504600BF00685045E7
:1032E0002DD00068504527D00068504526D0006892
:1032F00004355045F2D1013D21E000BF013500E029
:10330000023526A008210822CDE9006501F09CFEC7
:10331000DAF800505545B1D0A5F11401384601F056
:1033200093FE28685045A9D0204601F08DFE2D68F7
:103330005545F1D1A2E700BF013500E002351EA0DE
:1033400008210822CDE9006501F07EFE99E700BF63
:10335000FCF7ECFE00200DB0BDE8F08F252D2A2EE5
:1033600073207620202073757370656E64207468F6
:10337000726561640A00000073656D6170686F7248
:1033800065000000202D2D2D202D2D2D2D2D2D2DD6
:103390002D2D2D2D2D2D2D0A00000000252D2A2E3E
:1033A0002A7320253033642025643A0025730000F9
:1033B0002F0000000A000000252D2A2E2A73202548
:1033C0003033642025640A002DE9F04F8DB00120D0
:1033D00002F072F8051D47F61320C0F6000071A236
:1033E000082101F031FE47F68824C0F6000420468B
:1033F00001F02AFE204601F027FE204601F024FEBF
:10340000204601F021FE204601F01EFE204601F07C
:103410001BFE204601F018FE204601F015FE63A0B9
:1034200001F012FE00240DF1140A039505E000BF1F
:10343000049C039D002C00F0B1802646002C08BFA0
:103440002E46FCF76FFE34B114F8041C01F07F0126
:10345000012940F0A1803168A94200F09D800A68EE
:103460000591AA421ED011680692A9421ED00A6890
:103470000791AA421ED011680892A9421ED00A687C
:103480000991AA421ED011680A92A9421ED00A6868
:103490000B91AA421ED04FF00808114604920C92DC
:1034A0001CE000BF4FF0010816E000BF4FF002081B
:1034B00012E000BF4FF003080EE000BF4FF0040819
:1034C0000AE000BF4FF0050806E000BF4FF0060815
:1034D00002E000BF4FF0070800210491FCF726FE30
:1034E0004FF0000906E000BFFCF720FE09F10109DA
:1034F000C1459DD05AF829B0FCF714FE1BF8041CF6
:1035000001F07F010129EFD1ABF10C06FCF70EFEB3
:103510009BF8294035A0082108223346009401F089
:1035200093FD9BF8280000F00F00042804D832A176
:1035300051F8200001F088FDDBF81C00014600BFB7
:103540000A78232A0FD14A78232A09D18A78232A94
:1035500008D1CA780431232AF2D0013903E000BF30
:10356000013100E00231DBE90824DBF810601718B4
:10357000401A104464214843DBF83450B0FBF2F3A6
:10358000B91B22A0CDE9005401F05EFD09F101094B
:10359000C145AFD14CE700BFFCF7C8FD00200DB01E
:1035A000BDE8F08F7468726561640000202D2D2DD8
:1035B00020202D2D2D2D2D2D2D202D2D2D2D2D2D62
:1035C0002D2D2D2D202D2D2D2D2D2D2D2D2D2D2045
:1035D000202D2D2D2D2D2D20202D2D2D2D2D2D2D42
:1035E0002D2D2D202D2D2D0A00000000252D2A2EF9
:1035F0002A73202533642000577A0008697A00086E
:103600008A7A0008937A0008607A000820307825CA
:103610003038782030782530387820202020253028
:103620003264252520202030782530387820253038
:1036300033640A002DE9F04F8FB00A2001F03CFFFF
:1036400000F104080FF2F8400FF21C52082101F0BB
:10365000FBFC47F68824C0F60004204601F0F4FC89
:10366000204601F0F1FC204601F0EEFC204601F07E
:10367000EBFC204601F0E8FC204601F0E5FC20468A
:1036800001F0E2FC204601F0DFFC0FF2E44001F023
:10369000DBFC4FF0000925E0A4F10C0AFCF746FD25
:1036A0003746D4E9066547F67220C0F600000821C7
:1036B00008225346CDE900653E4601F0C5FC14F8EA
:1036C000030CC00707BF47F60620C0F6000047F608
:1036D0000820C0F6000001F0B7FC00BFB9F1000FF0
:1036E00000F024824C46B9F1000F08BF4446FCF7B5
:1036F00019FDB9F1000F06D019F8041C01F07F0183
:103700000A2940F011822468444500F00D82D4F863
:1037100000B0C34524D0DBF80010414526D00A682C
:10372000424500F005811368434500F00B811F6896
:10373000474500F04981D7F800C0C44500F08881B2
:10374000DCF80090C14500F093814FF0000A5E461E
:10375000CDE904C7CDE906320891CDF80C900AE016
:103760004FF000094FF0000A05E000BF4FF00009DC
:103770004FF0010A5E4600210E910D910C910B91C4
:103780000A91FCF7D3FCFCF7CDFC14F8041C01F003
:103790007F010A292CD1CDF82490C146D046B246EB
:1037A000A4F10C07FCF7C2FCD4E9065647F67220D8
:1037B000C0F60000082108223B46CDE9005601F082
:1037C00043FC14F8030CC00707BF47F60620C0F6F9
:1037D000000047F60820C0F6000001F035FC564610
:1037E000C246C846DDF82490C34506D176E700BF3F
:1037F000FCF79CFCC3453FF471AFFCF793FC16F853
:10380000041C01F07F010A2926D1A6F10C07FCF760
:103810008DFC3546F469B66947F67220C0F60000A3
:10382000082108223B46CDE900642E4601F00CFC3D
:1038300015F8030CC00707BF47F60620C0F60000C6
:1038400047F60820C0F6000001F0FEFBBAF1000FB9
:103850007FF444AF06E000BFFCF768FCBAF1000F4C
:103860007FF43CAFFCF75EFC089C14F8041C01F0EC
:103870007F010A2926D1B246A4F10C07FCF756FCB9
:10388000D4E9066547F67220C0F600000821082238
:103890003B46CDE9006501F0D7FB14F8030CC007E7
:1038A00007BF47F60620C0F6000047F60820C0F61E
:1038B000000001F0C9FB56460E9800287FF40EAFB9
:1038C00006E000BFFCF732FC0E9800287FF406AF3C
:1038D000FCF728FC079C14F8041C01F07F010A295E
:1038E0003CD1B246A4F10C07FCF720FCD4E90665F4
:1038F00047F67220C0F60000082108223B46CDE9B9
:10390000006501F0A1FB14F8030CC00707BF47F6E0
:103910000620C0F6000047F60820C0F6000001F0BF
:1039200093FB56460D9800287FF4D8AE1CE000BFEC
:1039300001220E924FF0000908915E464FF0000AF6
:1039400000211AE70123CDE9072100210D934FF053
:1039500000095E464FF0000A0E910FE7FCF7E6FB08
:103960000D9800287FF4BAAEFCF7DCFB069C14F837
:10397000041C01F07F010A2934D1B246A4F10C07DE
:10398000FCF7D4FBD4E9066547F67220C0F60000C8
:10399000082108223B46CDE9006501F055FB14F8EB
:1039A000030CC00707BF47F60620C0F6000047F625
:1039B0000820C0F6000001F047FB56460C9800288E
:1039C0007FF48CAE14E000BF0127089100210C9712
:1039D0004FF00009CDE906325E464FF0000ACDE90E
:1039E0000D11CCE6FCF7A2FB0C9800287FF476AE14
:1039F000FCF798FB059C14F8041C01F07F010A29D0
:103A000048D1B246A4F10C07FCF790FBD4E9066557
:103A100047F67220C0F60000082108223B46CDE997
:103A2000006501F011FB14F8030CC00707BF47F64F
:103A30000620C0F6000047F60820C0F6000001F09E
:103A400003FB56460B9800287FF448AE28E000BFE1
:103A50000126CDE9072100210B964FF00009CDE9A1
:103A600005735E464FF0000A0E91CDE90C1187E612
:103A70000126089100210A964FF00009CDE904C7FC
:103A8000CDE906325E464FF0000ACDE90D11CDE9D1
:103A90000B1176E6FCF74AFB0B9800287FF41EAE6C
:103AA000FCF740FB049C14F8041C01F07F010A2978
:103AB00026D1B246A4F10C07FCF738FBD4E9066521
:103AC00047F67220C0F60000082108223B46CDE9E7
:103AD000006501F0B9FA14F8030CC00707BF47F6F8
:103AE0000620C0F6000047F60820C0F6000001F0EE
:103AF000ABFA56460A9800287FF4F0AD06E000BF06
:103B0000FCF714FB0A9800287FF4E8ADFCF70AFBE9
:103B1000039C14F8041C01F07F010A293FF4BCAD9A
:103B2000FCF704FBDAE500BFFCF700FB02F05CFAEF
:103B3000014618A001F088FA00200FB0BDE8F08F10
:103B4000252D2A2E732020706572696F64696320A9
:103B5000202074696D656F7574202020202020203E
:103B6000666C61670A00000074696D657200000090
:103B7000202D2D2D2D2D2D2D2D2D2D202D2D2D2D8F
:103B80002D2D2D2D2D2D202D2D2D2D2D2D2D2D2D72
:103B90002D2D0A0063757272656E74207469636BF3
:103BA0003A3078253038780A0000000092B0FDF7EE
:103BB00013F800240120CDE90D44CDE90B44089011
:103BC0000C904FF4E0104FF480310225119008A8BA
:103BD000CDE90914CDE90F51FDF7B6F920B1EFF3A6
:103BE000108072B6FEE700BF0F20CDE903054FF449
:103BF0008060CDE9060403A802210594FDF794F83E
:103C000020B1EFF3108072B6FEE700BFFEF790FC24
:103C1000FEF7CCFCFEF7A6FDFEF724FD40F2DC101B
:103C2000C2F200000021FEF70BFA42F621210A241D
:103C300003251DA0C0F6000100224FF48063CDE9EA
:103C4000005401F0A3FF18B102F034F925A000E000
:103C500019A001F0F9F947F6480043F21101C0F646
:103C60000000C0F6000100224FF48063CDE900544B
:103C700001F08CFF30B102F01DF947F61800C0F6D4
:103C8000000000E021A001F0DFF947F63D00C0F69A
:103C9000000003F00FFC00BFFEF786FD4FF47A70C2
:103CA00002F09AF8F8E700BF626565705F636F6EB7
:103CB00074726F6C00000000626565705F636F6E08
:103CC00074726F6C5F7461736B2074687265616489
:103CD000206973206E6F7420737461727465640A56
:103CE00000000000626565705F636F6E74726F6CD8
:103CF0005F7461736B20697320616C7265616479B4
:103D000020737461727465640A0000006C65645FFE
:103D1000636F6E74726F6C5F7461736B2074687222
:103D2000656164206973206E6F74207374617274AE
:103D300065640A00B0B547F6F02447F6E820C0F6FF
:103D40000004C0F60000A04209D247F6E825C0F6FC
:103D5000000500BF55F8040B8047A542FAD3BDE823
:103D6000B040FFF723BF00002DE9F04F81B083463C
:103D70000078A8B140F2B000C2F20000056840F23D
:103D8000B400C2F20000D0F80080454580F0A88061
:103D900047F6C3294FF0000AC0F6000900264CE0A0
:103DA00047F69C20C0F6000001F04EF940F2B0004A
:103DB00040F2B409C2F20000C2F200090768D9F863
:103DC0000050AF421CD247F6C32447F6B728C0F6CE
:103DD0000004C0F6000802E00C37AF4210D23E6883
:103DE000214630460622FCF73CFA0028F4D17A68D6
:103DF000B11D404601F028F9D9F80050ECE700BFAA
:103E000047F64B10C0F6000001B0BDE8F04F01F0DE
:103E10001BB900BF481C801B5045B8BF824632A06A
:103E2000394601F011F940F2B400C2F20000D0F8B6
:103E3000008000BF0C35454548D22F6849463846BA
:103E40000622FCF70EFA0028F4D158460637FCF794
:103E500001FA024658463946FCF703FA0028E9D130
:103E6000BAF1000F04D03178304651B9D3E700BF22
:103E70003846FCF7EFF982463E4631783046002955
:103E8000C9D000203A5CDAB1914219D131184B788F
:103E9000002BBFD03A185478002CBBD0A342B9D124
:103EA0008B787BB194786CB1A3420BD1CB785BB1AA
:103EB000D2784AB1934207D1097904300029E1D17F
:103EC0003044A8E7881CA6E7C81CA4E746B15846BA
:103ED0003146524601B0BDE8F04F01F0FDBC00BFD5
:103EE00001B0BDE8F08F00BF25730A00002904BFB0
:103EF000002070472DE9F04F8DB0CF1E8E1E4D1E55
:103F0000002302E00433994220D0C25C202A01D071
:103F1000092A1FD19D4219D0C4186278202A01D0E5
:103F2000092A1DD19E4211D0A278202A01D0092A47
:103F30001CD19F420AD0E278202AE3D0092AE1D09E
:103F4000C81AA0F1030804F1030914E000200DB021
:103F5000BDE8F08FA1EB030800EB03090BE000BF05
:103F6000D84300EB010804F1010904E0C81AA0F1EC
:103F7000020804F10209A8F10300C8F100010025BC
:103F8000D2B2092A31D0202A2FD04B191CD009EBEC
:103F900005025778092F1BD0202F19D05F1C13D092
:103FA0009778092F18D0202F16D002331CD0D37841
:103FB000092B15D0202B13D0A84205D01279043537
:103FC000D2B2092ADFD110E045468DB940E100BFE9
:103FD00001356DB93CE100BF02354DB938E100BF94
:103FE00003352DB934E100BF4546002D00F0308186
:103FF00040F2B000C2F20000046840F2B400C2F225
:1040000000000668B44280F0238147F6C32A05F118
:10401000060BC0F6000A03E00C34B44280F01881AD
:104020002768514638460622FCF71BF90028F3D1D1
:10403000B81D49462A46FCF714F90028ECD117F8B8
:104040000B000028E8D1A0680028019000F0008152
:10405000002200210025CE46CDE90B22CDE9092220
:10406000CDE90722CDE90522C2460391454588BF27
:10407000AA46A5EB0A06701C00217346049002951F
:104080001EF80100202801D0092837D116EB010BBA
:1040900028D00EEB010460780EF80120202801D012
:1040A00009282DD1049A12EB010C1FD0A078002210
:1040B0002028627001D0092826D11BF1020719D0EF
:1040C000E078A270202801D0092821D11BF1030734
:1040D00012D0E2700433043504311EF801002028A8
:1040E000D2D1D3E70EEB010317E000BF631C00221F
:1040F00013E000BFA31C10E003330EE0AA460CE05F
:10410000013305F1010A08E0023305F1020A04E077
:10411000029FE31C394401F1030A039E082E7BD25F
:10412000C24580F08D80222806F1010020D103F1E4
:10413000010E05A941F826E05E780AF1010103E0CD
:104140001EF8016F8A46013141454FF0000738BF24
:104150000127222E40D041453ED25C2EF0D173463D
:1041600013F8017F222F04BF9E460AF10201E7E700
:1041700005A941F826304146C24588BF5146AAEB01
:10418000010707F1010C00215D5C092D1ED0202DD7
:104190001CD07D1856D05C186678092E22D0202EAF
:1041A00020D01CEB01064DD0A678092E20D0202E61
:1041B0001ED0AE1C46D0E678092E1FD0202E1DD072
:1041C000EE1C3FD004315D5C092DE0D103EB010E04
:1041D0000AEB010516E000BFA7B30EF8012B0AF1A8
:1041E000020513E0514404F1010E4D1C0AE000BF2A
:1041F000514404F1020E8D1C04E000BF514404F14F
:10420000030ECD1C45454FF000021BD2454501462B
:10421000FFF42AAF16E000BF26A000F015FF05A8A6
:10422000041F2CA554F8041F284600F00DFF013E82
:10423000F8D147F64B10C0F6000000F005FF039ED2
:1042400030462EB1019A05A990470DB0BDE8F08F18
:10425000002019F8001041F02001202917D009EBA7
:1042600000014A7842F02002202A13D08A7842F0D6
:104270002002202A10D0CA7842F02002202A0DD035
:10428000043019F8001041F020012029E7D14844FA
:1042900005E000BF481C02E0881C00E0C81C0021AB
:1042A00001700DA0494600F0CFFE4FF0FF300DB079
:1042B000BDE8F08F546F6F206D616E792061726779
:1042C000732021205765206F6E6C79205573653AF5
:1042D0000A0000002573200025733A20636F6D6D7E
:1042E000616E64206E6F7420666F756E642E0A00B6
:1042F0002DE9F04381B047F69C20C0F6000000F0A5
:10430000A3FE40F2B00040F2B409C2F20000C2F2D3
:1043100000090768D9F80050AF421DD247F6C32400
:1043200047F6B728C0F60004C0F6000803E000BF57
:104330000C37AF4210D23E68214630460622FBF7CA
:1043400090FF0028F4D17A68B11D404600F07CFE51
:10435000D9F80050ECE700BF47F64B10C0F600005C
:1043600000F072FE002001B0BDE8F083012070472C
:104370002DE9F04F87B0DDE911C90FF2F8465FEA89
:1043800049670FF2045758BF37465FEAC96648BF0E
:1043900029F001095FEAC9764FF0300E08BF4FF0EF
:1043A000200E5FEA897663D40024029401244FF042
:1043B0000008002A00F09A800A2B6DD149F69A165F
:1043C000CDE900484FF0000B0DF10C08C1F699162D
:1043D0004CF6CD43CCF6CC43A2FB0334E30803EB0D
:1043E0008304A2EB44043C5D0A2A08F80B40C0F0A9
:1043F0008380A3FB064505EB8505A3EB4503FB5C2A
:1044000008EB0B0C642A8CF8013079D348F21F5367
:10441000C5F2EB13A2FB03346309A3FB064505EBCE
:104420008504A3EB4403FB5CB2F57A7F8CF8023081
:1044300072D344F6D353C1F26203A2FB0334A3093F
:10444000A3FB064541F25974CDF2B714A2FB044A0E
:1044500005EB8504A3EB440342F21074FB5CA2421B
:104460004FEA5A320BF1040B8CF80330B0D255E00E
:10447000B2F1FF3F08DD5FEA49762FD45FEA0976A3
:1044800092D54FF020082BE00124524202940024E0
:104490004FF02D080A2B91D0A2464FF0000B03AE2F
:1044A00002F00F03FD5C130906F80B502CD003F04B
:1044B0000F03FC5C06EB0B05130A6C7028D003F0AD
:1044C0000F03FC5C130BAC702ED003F00F03FB5CEE
:1044D000120C0BF1040BEB70E2D127E04FF02B082C
:1044E000002401250295002A7FF466AF30228DF862
:1044F0000C204FF0010B1AE00BF1010B0EE000BF96
:104500000BF1020B0AE000BF0BF1010B0EE000BF44
:104510000BF1020B0AE000BF0BF1030BDDF844C006
:10452000DDE9004803E000BF0BF1030B5446109A8D
:10453000E345E246C8BFDA4619F0110FA2EB0A02C2
:1045400060D005462CB98D4238BF85F80080013A0D
:1045500001355FEAC96031D4571EC0F28D8012F078
:10456000030600F093808D4238BF85F800E0012EED
:1045700005F1010040F09280971E0546042AC0F024
:104580008880381D8D4205F1010238BF85F800E0B2
:104590008A4238BF82F800E0AA1C8A4238BF82F8FB
:1045A00000E0EA1C8A42A0F1040038BF82F800E073
:1045B000032805F10405E5DC4FF0FF322846E3450A
:1045C0005EDAAAEB0B036FEA0B0713F003060AEBA4
:1045D000070457D088423CBF30230370AAF101077B
:1045E000012E00F1010309D08B42AAF102073CBF62
:1045F00030251D70022E00F1020365D11846032CF0
:104600006CD283E00023002AC8BF0123029D2B4007
:10461000D71A7A1E95DB17F003064DD088423CBFAF
:1046200020220270012E00F1010540F0FD80BA1E2B
:104630002846042F42D30432202700BF884200F1CD
:10464000010338BF07708B4238BF1F70831C8B4239
:1046500038BF1F70C31C8B42A2F1040238BF1F7009
:10466000032A00F10400E9DC4FF0FF320546002C7C
:104670003FF469AF6DE700BF28463A46E345A0DB4B
:10468000034643E05746032C28D23FE0042ABFF4F8
:1046900078AF4FF0FF32E34593DBF1E7884238BF54
:1046A00080F800E0022E05F1020040F0CB80D71E1A
:1046B0000546042AEDD364E7042FBCD24FF0FF3245
:1046C000002C3FF440AF44E703308B42AAF10307CC
:1046D0003CBF30261E700346032C17D330260346FA
:1046E0008B4203F1010038BF1E70884238BF06704C
:1046F000981C884238BF0670D81C8842A7F104076E
:1047000038BF0670BB4503F10403E9DBBCF1000FC1
:104710003DD003A8023807E0ABF1040B0BF104070E
:10472000042F03F1040332D98B4203D200EB0B07B1
:104730007F781F70BBF1020F03F101051EDB8D4274
:104740003CBF10F80B702F70BBF1030F03F1020692
:104750001CD38E4204D200EB0B0717F8017C377094
:10476000BBF1040F03F1030432D38C42D4D200EB2B
:104770000B0717F8027C2770CEE700BF2B46012AF3
:1047800007DA184607B0BDE8F08F00BF3346012AAC
:10479000F7DB12F0030717D08B423CBF20201870C4
:1047A000561E012F03F1010009D08842A2F1020632
:1047B0003CBF20250570022F03F102000CD10346F7
:1047C000042A13D22DE000BF1646042A29D30DE097
:1047D0002346012ADDDAD4E703338842A2F1030637
:1047E0003CBF202707701846042A1AD3721E2027C0
:1047F000184600BF884200F1010338BF07708B42A2
:1048000038BF1F70831C8B4238BF1F70C31C8B4284
:10481000A2F1040238BF1F7012F1020F00F1040070
:10482000E8D307B0BDE8F08F8D423CBF20222A704C
:10483000022E00F1020511D1FA1E2846042FFFF4C2
:104840003DAFF8E60335884238BF80F800E0171F17
:104850002846042ABFF495AE1BE700BF8D423CBF3B
:1048600020222A7003303A1F0546042FBFF4E3AE1E
:1048700024E700BF3031323334353637383961629E
:1048800063646566000000003031323334353637FA
:10489000383941424344454600000000B0B501FBB1
:1048A00000F4204600F0EAFB054620B1284600212E
:1048B000224600F025FD2846B0BD0000B0B547F601
:1048C000E82447F6E020C0F60004C0F60000A0424D
:1048D00028BFB0BD47F6E025C0F6000555F8040B2B
:1048E0008047A542FAD3B0BD80B5FBF71BFC40F270
:1048F0009001C2F200014A8801324A80BDE880403E
:10490000FBF714BCB0B5FBF70DFC40F29005C2F20A
:10491000000569880446481E01B20029688005DD4B
:104920002046BDE8B040FBF701BC00BF0020688016
:104930002046FBF7FBFB6868002808BFB0BDFBF70B
:10494000F1FB698804460029EAD1A868FEF74CF813
:10495000421E43F67470C2F2000050F832106868CC
:10496000A1F114038342DBD02A7043F6EC626B6042
:10497000C2F2000212781C3001F1080132B1FBF7DB
:10498000D8FB2046BDE8B040FBF7D0BBFBF7D1FB1E
:104990002046BDE8B040FBF7C9BB00002DE9F0415F
:1049A000002857D040F25807C2F200070446786842
:1049B000A0424FD8B868A04298BFBDE8F08107F187
:1049C000180840464FF0FF31A4F10C0600F098FEA5
:1049D00034F80A0C18B13088B0F5F55F0AD025A07C
:1049E00000F032FB34F80A2C34F80C3C28A0314695
:1049F00000F02AFB4FF4F55044F80C0CD7F80CC02B
:104A000066453CBFFE60B44654F8082C78683D69A2
:104A10001318F11A294439610FD0598869B9B96856
:104A20008B420AD09C4504BFFE60B4465A6844F8E5
:104A3000082C5968331A01448B6054F8043CC5189B
:104A4000B54201D0698839B14046BDE8F04100F077
:104A50002DBE00BFBDE8F081B44508BFFD606A60AF
:104A600054F8081C084483604046BDE8F04100F05B
:104A70001DBE00BF746F2066726565206120626193
:104A800064206461746120626C6F636B3A0A000099
:104A90006D656D3A203078253038782C2075736537
:104AA0006420666C61673A2025642C206D6167691B
:104AB0006320636F64653A203078253034780A00CB
:104AC00040F2E820C2F200007047000040F2E82007
:104AD000C2F2000000F570507047000010B5FCF7FE
:104AE0007BF8FDF711FFFDF741FFFCF7FFF944F6F6
:104AF000D351C1F26201A0FB01018809FCF724FC3B
:104B0000FFF7DCFEFFF7DCFF0446FFF7DFFF01469F
:104B10002046BDE8104000F023BF000040F2C8006E
:104B2000C2F2000000680168890609D480B50A2035
:104B300001F052F9FF20BDE88040C0B2704700BFCD
:104B40004068C0B270470000F0B581B004460D2047
:104B50008DF8030040F2C800C2F20000002180F886
:104B60004010204600F0A0FEE0B140F2C806054625
:104B7000C2F200060DF103070AE000BF30462146ED
:104B800001220123FDF798FB013D04F1010409D046
:104B900020780A28F2D13046394601220123FDF758
:104BA0008BFBEBE701B0F0BD10B540F2E421C2F29F
:104BB00000010968044621B120468847002808BF43
:104BC00010BD216C47F64010C0F6000000F03CFA22
:104BD000616A47F6FF00C0F6000000F035FAA16AEE
:104BE00047F60C10C0F6000000F02EFAE16A47F616
:104BF0001910C0F6000000F027FA216B47F62610C6
:104C0000C0F6000000F020FA616847F63310C0F6E5
:104C1000000000F019FAA168C4A000F015FAE168DC
:104C2000C6A000F011FA2169C8A000F00DFA616970
:104C3000CAA000F009FAA169CCA000F005FAE16968
:104C4000CEA000F001FA216AD0A000F0FDF9616B5E
:104C5000D2A000F0F9F9A16BD4A000F0F5F9E16B56
:104C6000D6A000F0F1F92078400707D447F65900A4
:104C7000C0F6000000F0E8F90BE000BF01F0D8F842
:104C8000014647F67300C0F6000000F0DDF9FEF7BC
:104C90009BFB4EF62954CEF20004D4F803008007A3
:104CA00005D547F6DD00C0F6000000F0CDF9D4F8D8
:104CB0000300400040F1F880207830B347F6B1009F
:104CC000C0F6000000F0C0F9217847F6C410C0F625
:104CD000000000F0B9F92078C00745D1207880079E
:104CE0004BD42078400751D42078000757D420783F
:104CF000C0065DD494F90000B0F1FF3F60DD47F6D7
:104D00004B10C0F6000000F09FF914F8010C0028C9
:104D100000F0958047F69000C0F6000000F094F98E
:104D200014F8011C47F6DA10C0F6000000F08CF908
:104D300014F8010CC00751D114F8010C800757D4A6
:104D400014F8010C00075DD414F8010CC00663D4FC
:104D500014F9010CB0F1FF3F69DD47F64B10C0F6C6
:104D6000000000F071F96AE047F6AF10C0F60000ED
:104D700000F06AF920788007B3D547F6A410C0F692
:104D8000000000F061F920784007ADD547F6A21089
:104D9000C0F6000000F058F920780007A7D547F6C4
:104DA0009810C0F6000000F04FF92078C006A1D599
:104DB00086A000F049F994F90000B0F1FF3F9EDCB5
:104DC000D4F80F1047F6BD00C0F6000000F03CF923
:104DD00014F8010C00289DD131E000BF47F6731094
:104DE000C0F6000000F030F914F8010C8007A7D5D8
:104DF00047F66910C0F6000000F026F914F8010C1F
:104E00000007A1D547F69710C0F6000000F01CF986
:104E100014F8010CC0069BD547F68E10C0F60000B2
:104E200000F012F914F9010CB0F1FF3F95DCD4F851
:104E30000B1047F6CD00C0F6000000F005F9B4F8FD
:104E4000010088B347F6A300C0F6000000F0FCF8AC
:104E5000B4F8011047F6F010C0F6000000F0F4F8C6
:104E6000B4F80100C0072DD1B4F80100800733D495
:104E7000B4F80100400739D4B4F8010000073FD46A
:104E8000B4F80100C00545D4B4F80100800505D58B
:104E900047F67D10C0F6000000F0D6F847F64B103C
:104EA000C0F6000000F0D0F8D4F80300B0F1FF3FE6
:104EB00006DC47F6F200C0F6000000F0C5F800BFBF
:104EC000FEE700BF47F6B810C0F6000000F0BCF8DF
:104ED000B4F801008007CBD547F65F10C0F600009C
:104EE00000F0B2F8B4F801004007C5D547F64D1000
:104EF000C0F6000000F0A8F8B4F801000007BFD524
:104F000047F68810C0F6000000F09EF8B4F80100E3
:104F1000C005B9D547F65410C0F6000000F094F86B
:104F2000B4F801008005B3D4B8E700BF7230353A59
:104F3000203078253038780A000000007230363A88
:104F4000203078253038780A000000007230373A77
:104F5000203078253038780A000000007230383A66
:104F6000203078253038780A000000007230393A55
:104F7000203078253038780A000000007231303A4D
:104F8000203078253038780A000000007231313A3C
:104F9000203078253038780A000000007231323A2B
:104FA000203078253038780A00000000206C723AF2
:104FB000203078253038780A000000002070633AED
:104FC000203078253038780A0000000053544B45D3
:104FD0005252200004324BF6EF6C22F00702CDF65D
:104FE000AD6C42F840CDC2E901CCC2E903CCC2E9C4
:104FF00005CCC2E907C100214FF0807CC2E90D3029
:105000001046C2E90911C2E90B11C2F83CC0704751
:1050100080B5FBF787F843F6EC61C2F200010A782D
:1050200001320A70BDE88040FBF780B880B5FBF71D
:1050300079F843F6EC61C2F200010A78013A0A708D
:10504000BDE88040FBF772B883B010B581B043F67D
:10505000F464844603A8C2F200040EC003AB2046E9
:105060007F216246009301F08BF92046FFF76CFD2B
:1050700001B0BDE8104003B070470000002804BF35
:10508000002070472DE9F04381B040F25809C2F288
:1050900000090330D9F8001020F003078F425ED8D2
:1050A00009F1180840464FF0FF310C2F98BF0C272C
:1050B00000F026FBD9E900C1D9F80CE0ACEB0704FD
:1050C000AEEB0103A34247D2CE187288706822B9B2
:1050D00003F10C05421BBA4246D2A0423CD20E1844
:1050E0007288736822B900F10C055A1BBA4216D2B5
:1050F000A34231D2CE187288706822B903F10C0530
:10510000421BBA4230D2A04226D20E18728873686F
:10511000002AD7D100F10C055A1BBA42D2D304465B
:10512000184607F118039A4223D3EB1907F10C0232
:10513000CD184FF4F557CF50C5E901047360686886
:1051400001240CF10C07B84274801CBF0844836032
:10515000D9E9040312E000BF404600F0A7FA00209E
:1051600001B0BDE8F08300BF1C4607F118039A4266
:10517000DBD201227280D9E90423001B1044834250
:10518000C9F8100038BFC9F814004FF4F55076453F
:10519000308030D1BEF8020068B3D9F808209645B7
:1051A00029D0DEF8040001EB000EBEF80200002852
:1051B00018BF96451DD0DEF8040001EB000EBEF8C6
:1051C0000200002818BF964513D0DEF8040001EB5A
:1051D000000EBEF80200002818BF964509D0DEF880
:1051E000040001EB000EBEF80200002818BF96452F
:1051F000D7D1C9F80CE0404600F058FA06F10C008F
:1052000001B0BDE8F0830000B0B5814214D28B1824
:10521000834211D9002A45D012F0030100EB020CA1
:1052200042D09E461EF8015D6446012904F8015DE6
:105230003ED1511EA4464DE0A2B312F0030309D0A3
:105240008C461CF8014B8646012B0EF8014B05D10C
:10525000531E14E08C468646134610E04D78022B10
:10526000457005D1931E01F1020C00F1020E06E01B
:1052700001F1030C8978D31E00F1030E8170042A1A
:1052800038BFB0BDACF10401AEF1040211F8045F07
:10529000043B02F8045F4D7855708D789570CD7899
:1052A000D570F3D1B0BD00BF9E46114612E000BFDD
:1052B0009E461EF8025D6446022904F8025D03D191
:1052C000911EA44606E000BF13F8035DD11E0CF842
:1052D000035D9E46042AE5D3ACF10402AEF102035D
:1052E0005D780439D5701D78957013F8015C5570A0
:1052F00013F8025CA3F1040302F80459F0D1D1E7DA
:1053000070B5042A06461BD316F0030018D1C8B2A4
:105310004FF00133102A00FB03F313D3A2F1100C5A
:10532000012000EB1C1010F003000DD00128C6E98D
:105330000033B360F36009D106F11000624616E055
:10534000304650E030462EE0304610E00228C6E9F4
:105350000433B361F36103D106F12000203A06E083
:1053600006F13000303AC6E90833C6E90A33BCF129
:10537000300F16D300F14004403AC0E90033C0E9D1
:105380000233C0E90433C0E90633C0E90833C0E999
:105390000A33C0E90C33C0E90E330F2A2046E9D89E
:1053A0002046042A1FD30446151F042D40F8043B51
:1053B00018D3A2F10805042D63600DD3A2F10C05EA
:1053C000042DA3600CD304F11000103AE360032A0B
:1053D0000446E9D807E000BF04F1080002E000BF7E
:1053E00004F10C002A4622B1CBB211461A46FAF754
:1053F00013FF304670BD00002DE9F041884640F2B1
:105400001001C2F200010A78054682420F460AD016
:105410000F4617F8100FA84205D011F8200FA84228
:1054200018BF00210F46F868FFF728FE0646C0B1F6
:10543000FA68304600210024FFF762FF30464146FB
:1054400008223572747200F047FAFAF76BFE57F8CB
:10545000041F324642F80C1F4A603A605760FAF760
:1054600065FE3046BDE8F08110B50446002020728C
:10547000FAF758FE2246216952F80C3F596021691B
:1054800022610B601260FAF751FE2046BDE8104021
:10549000FFF784BA10B5044600202072FAF742FEE6
:1054A00054F80C1F62684A6062681160C4E90044E5
:1054B000BDE81040FAF73ABE40F21002C2F2000214
:1054C0001178814211460AD0114611F8103F8342EB
:1054D00005D012F8201F814218BF0022114608464D
:1054E00070470000F0B581B00E4640F21001C2F2E4
:1054F000000115460A780446B2420F460AD00F460C
:1055000017F8100FB04205D011F8200FB04218BFA5
:1055100000210F46FFF7E8F9043738460068B84223
:1055200008D00068B84205D00068B84202D00068D0
:10553000B842F3D1FFF7E6F946F08000207220462A
:105540002946082200F0C8F9FAF7ECFD396844F85A
:105550000C1F4C603C60676001B0BDE8F040FAF79A
:10556000E5BD0000007AC00970470000B0B5FAF749
:10557000D9FD40F29005C2F200056988044629B1C0
:105580002046BDE8B040FAF7D1BD00BFA868FDF7DE
:105590002BFA43F674710138C2F2000151F8301051
:1055A0006A68A1F114039342EAD0287043F6EC60D4
:1055B0006B60C2F20000037802F11C0001F10801E7
:1055C00033B1FAF7B6FD2046BDE8B040FAF7AEBDFC
:1055D000FAF7AFFD2046BDE8B040FAF7A7BD0000DE
:1055E00010B50446FAF79EFD94F8341094F835206F
:1055F00001F0F001013184F8341043F67471C2F205
:10560000000101EBC2014A6840F2900C04F114035E
:10561000C2F2000C1360A2614B60A26BDCF8083090
:10562000616143EA0201CCF80810BDE81040FAF7C6
:105630007DBD0000B0B50546FAF774FD294651F866
:10564000142F4B6853604B6849601A6091F8212011
:1056500043F674730960C2F2000353F8324003EB5F
:10566000C202944204D0BDE8B040FAF75FBD00BF6B
:1056700040F29002C2F20002A96B936823EA010192
:105680009160BDE8B040FAF751BD000070B5154615
:105690000A4602211C460646FFF724FF06F11400C5
:1056A000C6E905000020B583747270BDB0B505462B
:1056B000FAF738FD2A4652F8141F044691420BD0DF
:1056C000A1F1140000F090FB2046FAF72FFDFFF740
:1056D0004DFF0020B0BD00BFA88B4FF6FF71884280
:1056E00006D12046FAF722FD6FF00200B0BD00BFE0
:1056F0000130A8832046FAF719FD0020B0BD000054
:105700002DE9F04381B00E4607460091FAF70AFDF5
:10571000B98B804641B1481EB8834046FAF706FD72
:10572000002001B0BDE8F083D6B300F081FB054650
:10573000002028637C7A284607F1140900F0E8FB72
:10574000B4B3012C3CD148460068484530D095F8A8
:10575000351090F8212091421AD30068484527D08F
:1057600095F8351090F82120914211D300684845F2
:105770001ED095F8351090F82120914208D300688A
:10578000484515D095F8351090F821209142DBD28C
:10579000416805F114020A60A961426068610FE086
:1057A0004046FAF7C3FC6FF0010001B0BDE8F0839A
:1057B000B86905F114010160A861B961C5F81490D8
:1057C000012E09DB05F144066A463046002100F04F
:1057D000EFFC304600F052FD4046FAF7A7FCFFF719
:1057E000C5FE286B002808BF002001B0BDE8F0838B
:1057F00080B582B00AA0FFF727FC0CA0FFF724FCBD
:105800000FF24C0C15A0032101220523CDF800C096
:10581000FFF71AFC19A002B0BDE88040FFF714BCE6
:105820000A205C207C202F0A000000002D2052540A
:10583000202D2020202020546872656164204F7044
:1058400065726174696E672053797374656D0A00BF
:105850004D6179203239203230323400202F207CC3
:10586000205C202020202025642E25642E25642005
:105870006275696C642025730A00000020323030A4
:1058800036202D203230323020436F7079726967B4
:1058900068742062792072742D7468726561642066
:1058A0007465616D0A000000014600BF0A7862B1AC
:1058B0004A784AB18A785AB1CA780431002AF5D1B7
:1058C0000139081A704700BF0131081A704700BF3C
:1058D0000231081A704700002DE9F0418046DAB322
:1058E000C2F1000C00234446CF5C08F80370DFB11E
:1058F0000CEB0306771C2FD2CF18787808EB030542
:105900006870A8B1B01C27D0B878A870B0B1F01CEE
:1059100022D0F878E870D8B1043304341CEB0300CB
:10592000A2F10402E0D117E0601C511E0AD113E07D
:10593000A01C013A511E05D10EE000BFE01C023A46
:10594000511E09D0FAF76FFC4046BDE8F08100BF58
:10595000033A281D511EF5D14046BDE8F0810000F4
:1059600021F003038C46192B014631D3C81C20F0CB
:105970000300A3F1180282422AD310B5191A40F28B
:105980005804A1F11802C2F20004C4E900204FF447
:10599000F5520C394FF0000CC0E90021C0F808C0E6
:1059A00041F6A060C0F201001A4642F80C0D43F81F
:1059B000081C2068A2600C3043F8040C04F11800A5
:1059C00005A101220023FFF761FE6068E06010BDC1
:1059D00003A06246FFF738BB6865617000000000F5
:1059E0006D656D20696E69742C206572726F72200E
:1059F000626567696E2061646472657373203078D4
:105A000025782C20616E6420656E64206164647268
:105A100065737320307825780A00000010B543F6CE
:105A20007472C2F2000202F11800C2E9060002F12B
:105A3000200002F1080302F11001C2E9080002F19E
:105A40004000C2E90233C2E9041102F1280102F167
:105A5000300302F13804C2E9100002F16000C2E92B
:105A60000A11C2E90C33C2E90E4402F1480102F105
:105A7000500302F15804C2E9180002F18000C2E9A3
:105A80001211C2E91433C2E9164402F1680102F1AD
:105A9000700302F17804C2E9200002F1A000C2E91B
:105AA0001A11C2E91C33C2E91E4402F1880102F155
:105AB000900302F19804C2E9280002F1C00040F20C
:105AC000900EC2E92211C2E92433C2E9264402F150
:105AD000A80102F1B00302F1B804C2E9300002F1FA
