:020000040800F2
:100000007048002089010008652300086D0200087F
:100010006123000859050008652A00080000000057
:100020000000000000000000000000009B0100082C
:100030005D05000800000000F701000871280008B5
:10004000A3010008A3010008A3010008A301000800
:10005000A3010008A3010008A3010008A3010008F0
:10006000A3010008A3010008A3010008A3010008E0
:10007000A3010008A3010008A3010008A3010008D0
:10008000A3010008A3010008A3010008A3010008C0
:10009000A30100080000000000000000A301000808
:1000A0000000000000000000000000000000000050
:1000B000A3010008A3010008A3010008A301000890
:1000C000A3010008A3010008A3010008A301000880
:1000D000A3010008592A0008A3010008A301000891
:1000E000A3010008A3010008A301000800F002F822
:1000F00000F03AF80AA090E8000C82448344AAF188
:100100000107DA4501D100F02FF8AFF2090EBAE885
:100110000F0013F0010F18BFFB1A43F0010318473B
:10012000F871000018720000103A24BF78C878C136
:10013000FAD8520724BF30C830C144BF04680C60ED
:10014000704700000023002400250026103A28BF35
:1001500078C1FBD8520728BF30C148BF0B60704739
:100160001FB51FBD10B510BD00F091F91146FFF786
:10017000F7FF00F0C7F900F0AFF903B4FFF7F2FFA3
:1001800003BC00F0B9F9000009488047094800475E
:10019000FEE7FEE7FEE7FEE7FEE7FEE7FEE7FEE737
:1001A000FEE7FEE704480549054A064B7047000094
:1001B00049290008ED000008704200207048002026
:1001C0007044002070440020EFF3108072B6704736
:1001D00080F310887047324A1368012B04D04FF027
:1001E000010313602F4A10602F4A11602F484FF00F
:1001F000805101607047EFF3108272B628480168A1
:1002000091B14FF0000101602648016829B1EFF378
:10021000098121E9F00F0068016023490968096834
:10022000B1E8F00F81F3098882F310884EF0040ED4
:1002300070471D4908601B494FF0000008601849CD
:100240004FF0010008601A481A49D0F8002041EA2E
:100250000201016015484FF08051016016480068A6
:10026000006880F3088861B662B670471EF0040F1C
:100270000CBFEFF30880EFF3098020E9F00F40F89E
:1002800004ED1EF0040F0CBF80F3088880F309888A
:1002900000B504F0F1FC5DF804EB4EF0040E70477D
:1002A00060420020D43F0020DC3F002004ED00E04D
:1002B00020ED00E00000FFFF08ED00E010B5431C5A
:1002C00002E010F8011B71B18107FAD14FF0013241
:1002D00002C88C1A8C4314EAC211F9D0C01A0A065B
:1002E00003D0C01E10BDC01A10BD0A0401D0801E6C
:1002F00010BD0902FCD0401E10BD40EA010370B5DC
:100300009B072ED14FF00136042A2AD308C810C902
:100310009D1B9D43121F15EAC61517D0D8B2E1B236
:10032000401A50EA056110D198B2A1B2401A50EAC1
:1003300005410AD123F07F4024F07F41401A50EA62
:10034000052102D1180EA0EB146070BDA342DBD0D2
:1003500018BA21BA884201D9012070BD4FF0FF3090
:1003600070BD0AB9002070BD10F8013B11F8014BB7
:1003700063B1A3420AD1521E08D010F8013B11F814
:10038000014B1BB1A34201D1521EEDD1181B70BD10
:1003900002F0FF0343EA032242EA024200F002B8FD
:1003A0004FF000020429C0F0128010F0030C00F09E
:1003B0001B80CCF1040CBCF1020F18BF00F8012B1C
:1003C000A8BF20F8022BA1EB0C0100F00DB85FEAEA
:1003D000C17C24BF00F8012B00F8012B48BF00F8B6
:1003E000012B70474FF0000200B513469446964625
:1003F000203922BFA0E80C50A0E80C50B1F1200138
:10040000BFF4F7AF090728BFA0E80C5048BF0CC0E5
:100410005DF804EB890028BF40F8042B08BF704743
:1004200048BF20F8022B11F0804F18BF00F8012BB5
:10043000704710B5044610F0030F08BF11F0030F0A
:1004400040F015804FF0013E121FC0F20E8051F8AF
:10045000043BA3EB0E0C2CEA030C1CEACE1C08BFD9
:1004600040F8043BF0D0A1F1040102F10402521E55
:1004700008DB11F8013B00F8013B002BF7D11146D6
:10048000FFF78EFF204610BD7047704770477546D6
:1004900000F02CF8AE4605006946534620F00700F0
:1004A000854618B020B5FFF77DFEBDE820404FF02F
:1004B00000064FF000074FF000084FF0000BAC466D
:1004C000ACE8C009ACE8C009ACE8C009ACE8C009B8
:1004D00021F007018D46704710B50446AFF3008048
:1004E0002046BDE81040FFF748BE000000487047B6
:1004F000D80000207047000001491820ABBEFEE77D
:100500002600020080B582B0FFF75EFE04F050FBCB
:1005100005F0D0F905F092FB05F0E2FA0A20009010
:1005200046F6DC7043F619614FF0140CC0F600007B
:10053000C0F6000100224FF48063CDF804C005F03E
:1005400087FB05F019FD05F081FB05F037FC05F090
:100550005DFB002002B080BDFEE700007047000098
:10056000EFF3108072B600BFFEE70000014690F87E
:100570002100022816D10868D1E90FC3026822F0D1
:100580000E020260026822F001020260012000FAFD
:1005900003F2CCF8042081F821000020002281F829
:1005A00020207047042088630120002281F8202049
:1005B0007047000080B590F82110022924D102680C
:1005C000116821F00E0111602F211368C4F202019D
:1005D0008A4240F20401C4F2020123F001031360D5
:1005E00016DD3023C4F202039A421DD04423C4F224
:1005F00002039A421CD05823C4F202039A421DD12E
:100600004FF4803322E000BF04218163012080BDCC
:100610000823C4F202039A420ED01C23C4F2020340
:100620009A420BD1102311E04FF480730EE000BF0B
:100630004FF480530AE000BF012307E001F1680C8A
:100640004FF08073624508BF4FF480130B600121A7
:1006500080F82110426B002180F820100AB19047E9
:100660000021084680BD00002DE9F04F82B00E68E1
:10067000002E00F0F98041F20002C4F201020323CF
:1006800040F2004E904208BF02234FF6FF7CC4F2B6
:10069000010E009300240123C1F2100C4FF0000B57
:1006A0004FF0000950E000BF40F60042C4F20102E2
:1006B000009F904208BF012704F00C030F229A40CC
:1006C0002AEA020207FA03F34FEA9B051A4346F8A7
:1006D0002520D1F804A040F20C455FEACA22DEF8DA
:1006E000082054BF22EA080242EA0802C4F20105C7
:1006F000CEF808202A685FEA8A2354BF22EA08025B
:1007000042EA08022A605FEA8A33DEF8042054BF16
:1007100022EA080242EA08025FEACA33CEF804205D
:10072000DEF800204FF0010354BF22EA080242EA3B
:100730000802CEF800200E680BF1010B36FA0BF21E
:1007400004F1040400F0908003FA0BF816EA080F95
:10075000F1D04E68664511DC122E55D8DFE806F060
:10076000340A4448545454545454545454545454CF
:10077000544C5000D1F80C9046E000BF4FF6FF7289
:10078000C1F2210296420FDC0022C1F21102964210
:100790001AD00022C1F21202964215D00022C1F2F4
:1007A0002102964210D02FE00022C1F2220296428E
:1007B0000AD00022C1F23102964205D00022C1F2D5
:1007C0003202964220D100BF8A684AB1012A14BF82
:1007D000C0F81480C0F810804FF0080914E000BF82
:1007E0004FF0040910E000BFCA6802F108090BE0ED
:1007F0004FF0000908E000BFCA6802F1040903E0F5
:10080000CA6802F10C0900BF22460646BBF1080F78
:1008100024BF203A043637680F25954027EA05059E
:1008200009FA02F22A433260CA79D2067FF583AF11
:1008300041F21803C4F202031A68AEF57E7642F064
:1008400001021A601A6802F001020192019A2BF06B
:10085000030256F802A040F60002C4F201029042E0
:100860007FF422AF002727E702B0BDE8F08F000039
:10087000002A08BF090401617047000044F26C209F
:10088000C2F200000068704770B5B8B3044690F833
:100890003D0028B9002084F83C00204600F05CF9B7
:1008A000242084F83D002068016821F001010160E6
:1008B000016841F400410160016821F400410160D8
:1008C00000F00CFB48F28041C0F21E0140F600131C
:1008D000D4F804E088424FF00001C0F23D0348F232
:1008E000A16C4FF0000238BF01219842C0F2010C08
:1008F00038BF0122E64538BF0A460AB1012070BD63
:100900004DF68361C4F21B31A0FB01122168950CE6
:100910004B684FF4967623F03F0343EA92437543C6
:1009200044F6D3564B60C1F262060B6AA5FB06562D
:10093000B50923F03F03E64538BF950C6A1C1A43FE
:100940000A62CA6948F2A0664CF6FF73C0F201065B
:10095000B64522EA03020BD801384FEA4E03B0FB3A
:10096000F3F001306FF31F30042898BF04201EE01D
:10097000A368013863B119230EFB03F3B0FBF3F056
:1009800001306FF31F3078B100F5804008E000BF00
:100990000EEB4E03B0FBF3F001306FF31F3028B1C4
:1009A00000F5004003E000BF012000E001201043FB
:1009B000C8610868D4E9072320F0C0001043184339
:1009C0000860886848F2FF3204F10C0690434CCE70
:1009D00018431043A5698860C86820F0FF003043C1
:1009E0002843C860086840F001000860002020210A
:1009F000206484F83D10206384F83E0070BD000040
:100A00002DE9F04383B0994616460F460446FFF79A
:100A100035FF94F83D10202920D10546206800BFFD
:100A20008169890716D5FFF729FF411B20681A291C
:100A3000F6D381698907F3D500202021206384F84B
:100A40003D1084F83E00216C41F02001216484F8BF
:100A50003C0003E094F83C10012903D1022003B0CC
:100A6000BDE8F083012284F83C200368DDE90B181F
:100A70000A9ADB0703D1036843F0010303600368AC
:100A800023F400630360212084F83D00402084F8B3
:100A90003E000020206462626185608D39462085B9
:100AA0000020CFF6FF70E062204632464B46CDF87C
:100AB0000080019501F048F920B1012003B0BDE8A4
:100AC000F08300BF208D98B9204641462A4601F0A8
:100AD0009FF988B3206C0428EFD12068016841F4A5
:100AE00000710160012003B0BDE8F0830004EBD089
:100AF000204641462A4601F045FB0028EAD1616ABA
:100B00002268084610F8013B1361238D6062581E6D
:100B10002085678D013F678557697F07E6D5070404
:100B2000E4D048781061881C6062981E2085618D31
:100B300001396185DAE700BF2068016841F400717E
:100B40000160202084F83D00002084F83E0084F8F5
:100B50003C0003B0BDE8F08310B586B045F200411B
:100B60000068C4F2000100228842049202D006B05C
:100B700010BD00BF41F21804C4F20204206840F026
:100B800008002060206800F0080001900198C02053
:100B90000290122003900320059001F5384002A92D
:100BA000FFF762FD606840F400106060606800F468
:100BB00000100190019806B010BD000080B542F20F
:100BC0000000C4F20200016841F01001016003203E
:100BD00000F08EF8002000F005F800F027F8002063
:100BE00080BD000070B540F20006C2F2000640F27F
:100BF000A4013278C2F200014FF47A730968B3FBA2
:100C0000F2F20446B1FBF2F1084600F069FB0F2C4A
:100C10004FF0010508D838B94FF0FF3021460022C7
:100C2000002500F039F87460284670BD82B041F2AA
:100C30001800C4F202000168022241F001010160C3
:100C4000016801F0010101910199416841F0805171
:100C50004160406800F08050009000980420C4F289
:100C60000100016862F31A61016002B07047000080
:100C7000002848BF7047C1B200F01F00012202FAED
:100C800000F04EF20012CEF2000242EAD10121F051
:100C9000030108607047000010B54EF60C5CCEF200
:100CA000000CDCF80030C3F3022E8EF00704042C95
:100CB00028BF0424BEF103034FF0FF3E0EFA04F4F4
:100CC00038BF0023A14399400EFA03F39A4311431E
:100CD00000F00F0200F160430901043A03F5644398
:100CE0006244002848BF02F10C03197010BD0000D7
:100CF0004EF60C51CEF200010A684FF6FF031A407F
:100D000060F30A2242F0806040F0FD700860704796
:100D10002DE9F04381B0002800F0858042F2000800
:100D2000C4F202080446D8F800000D4600F007009F
:100D300088420CD2D8F8000020F007002843C8F8F9
:100D40000000D8F8000000F00700A8426BD120682E
:100D500041F204098107C4F2020917D5410705D5FC
:100D6000D9F8001041F4E061C9F80010010705D579
:100D7000D9F8001041F46051C9F80010D9F80010FA
:100D8000A26821F0F0011143C9F80010C00741D159
:100D9000D8F8000000F00700A8420CD9D8F80000ED
:100DA00020F007002843C8F80000D8F8000000F041
:100DB0000700A84237D12068410707D5D9F80010AD
:100DC000E26821F4E0611143C9F80010000708D57A
:100DD000D9F80000216920F4605040EAC100C9F848
:100DE0000000D9F8002002F00C00082841F2002091
:100DF000C0F27A0050D146F6D853C2F38341C0F610
:100E00000003595CD2033BD440F60010C0F23D0011
:100E1000484341E0606802280AD001282AD159F8E5
:100E2000041C890308D4012001B0BDE8F08300BF91
:100E300059F8041C8901F6D5D9F8001021F00301F6
:100E40000843C9F80000FFF719FD064641F288374C
:100E5000D9F80000616800F00C00B0EB810F97D06A
:100E6000FFF70CFD801BB842F2D9032001B0BDE8AA
:100E7000F08300BF59F8041C8907D4D5DCE700BF14
:100E8000D9F8002046F6D643C2F34042C0F600032C
:100E90009A5C4843B0FBF2F0D9F8001046F6BE4227
:100EA000C1F30311C0F60002515C40F2A40220FA23
:100EB00001F140F20400C2F200000068C2F2000238
:100EC0001160FFF78FFE002001B0BDE8F083000045
:100ED00040F2A400C2F200000068704740F2A40093
:100EE00041F20401C2F20000C4F202010068096884
:100EF00046F6CE42C1F30221C0F60002515CC84062
:100F00007047000040F2A40041F20401C2F2000068
:100F1000C4F202010068096846F6CE42C1F3C2215C
:100F2000C0F60002515CC840704700002DE9F04156
:100F300082B0002868D00446007841F20006C0075D
:100F4000C4F2020625D0706800F00C0004281BD003
:100F5000706800F00C00082802D17068C00313D438
:100F60006068002800F06881B0F5A02F00F07C8157
:100F7000B0F5803F00F07C81306820F48030306034
:100F8000306820F4802076E13068800301D5606805
:100F9000D0B32078800718D5706810F00C0F07D0F8
:100FA000706800F00C0008286ED17068C0036BD424
:100FB0003068800702D52069012825D13068616931
:100FC00020F0F80040EAC1003060207800071FD40C
:100FD0002078400732D4E56995B1706800F00C00C4
:100FE000082840F08F80012D0ED07068216A00F42F
:100FF00080328A4208D1616A00F47010884203D1BD
:10100000002002B0BDE8F081012002B0BDE8F0810F
:10101000A069002862D00020C4F242200121C0F85B
:101020008014FFF72BFC0546706A800700F18C8066
:10103000FFF724FC401B0228F6D92AE1F06910F0E2
:10104000805808D1F06940F08050F061F06900F0FC
:1010500080500090009847F20007C4F200073868FB
:10106000C00529D4386840F480703860FFF706FC6A
:10107000054600BF3868C0051ED4FFF7FFFB401BC4
:101080006428F7D905E100BF2069002840F200007C
:10109000C4F2422000F0828001210160FFF7EEFBE4
:1010A000054600BF306880073FF588AFFFF7E6FBD5
:1010B000401B0228F6D9ECE0E068002800F08080B0
:1010C000052800F09780012800F09880306A20F011
:1010D00001003062306A20F0040092E00020C4F287
:1010E00042200021C0F88014FFF7C8FB054600BF6E
:1010F000706A80077FF56CAFFFF7C0FB401B0228CA
:10110000F6D9C6E00027C4F2422700203866FFF770
:10111000B5FB022D05460BD13068800140F1BE8041
:10112000FFF7ACFB401B02284FF00300F4D968E73F
:10113000306880017FF564AFFFF7A0FB401B0228F9
:101140004FF00300F4D95CE740F2A400C2F20000C3
:10115000006844F6D351C1F26201A0FB0101480AC4
:10116000019000BF00BF0198411E002801913FF48B
:101170002FAF00BF0198411E002801913FF428AF16
:1011800000BF0198411E002801913FF421AF00BF2C
:101190000198411E00280191E4D119E70021016066
:1011A000FFF76CFB054600BF306880077FF50DAF89
:1011B000FFF764FB401B02284FF00300F4D920E73F
:1011C000306A20F001003062306A20F004003062A2
:1011D000FFF754FB054641F2883700BF306A8007AD
:1011E00020D5FFF74BFB401BB8424FF00300F5D969
:1011F00007E700BF306A40F004003062306A40F018
:1012000001003062FFF73AFB054641F2883700BF24
:10121000306A800706D4FFF731FB401BB842F7D98C
:1012200037E000BFB8F1000F7FF4D5AEF06920F0D1
:101230008050F061CFE600BF306820F4803030602D
:10124000306820F480203060FFF718FB054600BFAF
:10125000306880037FF59DAEFFF710FB401B6428CC
:101260004FF00300F4D9CCE6306840F480203060C1
:10127000306840F480303060FFF700FB054600BF67
:10128000306880033FF585AEFFF7F8FA401B64280D
:10129000F6D9032002B0BDE8F08100BF206AB0F5A6
:1012A000803F05D17168A26821F40031114371605B
:1012B0007168626A21F4741111430843706001205F
:1012C0003866FFF7DBFA0446306880013FF598AED8
:1012D000FFF7D4FA001B02284FF00300F4D990E680
:1012E000411E0020B0EB116F1CBF012070474EF271
:1012F0001002CEF2000251604EF62351CEF20001F0
:10130000F0230B7007219060116070477047000058
:1013100070470000B0B582B0044600680168C36839
:10132000426901F02F05202D03F0200506D12DB1D3
:10133000204602B0BDE8B04001F00EBB5FEA017C80
:101340001EBF02F0010E03F4907212EB0E0253D195
:10135000226B012A05D111F0100218BF13F0100200
:1013600036D10A0622D513F080021FD094F841101E
:1013700021293FD1A168B1F5805F03D121690029FE
:1013800000F07082216A4A1C226209784160E18C77
:1013900001390A04E1842DD1C16821F08001C160C6
:1013A000C16841F04001C16002B0B0BD490621D51D
:1013B00013F040011ED0C16821F04001C16020211E
:1013C000204684F8411002B0BDE8B04000F0AABC4D
:1013D00000210191016801914168019101994069E1
:1013E000400613D4A08DE18DE28D002A18BF8842FB
:1013F00040F0BA8102B0B0BDCA0718BF13F48072C2
:1014000040F0B6804A0700F1B980BEE0E06B0168A9
:1014100049688AB2002AEDD0A38D9A42EAD2E185CA
:101420008069202800F09C80206850E8030F216824
:1014300020F4807041E80302DAB1206850E8030F1D
:10144000216820F4807041E8030292B1206850E8DE
:10145000030F216820F4807041E803024AB120683C
:1014600050E8030F216820F4807041E80302002A4D
:10147000DAD1206850E8050F216820F0010041E82A
:101480000502DAB1206850E8050F216820F001005C
:1014900041E8050292B1206850E8050F216820F06C
:1014A000010041E805024AB1206850E8050F2168B3
:1014B00020F0010041E80502002ADAD1206850E856
:1014C000050F216820F0400041E80502DAB12068EC
:1014D00050E8050F216820F0400041E8050292B174
:1014E000206850E8050F216820F0400041E805021F
:1014F0004AB1206850E8050F216820F0400041E81B
:101500000502002ADAD1202084F84200002020635E
:10151000206850E8030F216820F0100041E8030222
:10152000DAB1206850E8030F216820F0100041E88C
:10153000030292B1206850E8030F216820F01000E8
:1015400041E803024AB1206850E8030F216820F007
:10155000100041E80302002ADAD1E06BFFF706F839
:1015600002206063A08DE18D401A81B2204674E1B3
:10157000626C42F0010262644A0706D5BEF1000FB8
:1015800003D0626C42F0020262648A0706D5BEF1A3
:10159000000F03D0626C42F004026264BCF1000FE1
:1015A00009D545EA0E02B2FA82F2520903D1626C01
:1015B00042F008026264626C002A3FF41BAF11F033
:1015C000200118BF002D03D0204601F0C5F9206886
:1015D0004069616C00F0400001F00801401800F023
:1015E000B58000BF206850E8030F216820F4907098
:1015F00041E80302BAB3206850E8030F216820F4E1
:10160000907041E8030272B3206850E8030F21682C
:1016100020F4907041E803022AB3206850E8030FD9
:10162000216820F4907041E80302002ADAD11AE020
:10163000206850E8050F216820F0010041E805020C
:10164000DAB1206850E8050F216820F0010041E878
:10165000050292B1206850E8050F216820F00100D2
:1016600041E805024AB1206850E8050F216820F0E2
:10167000010041E80502002ADAD1206B012824D1BB
:10168000206850E8030F216820F0100041E80302B1
:10169000DAB1206850E8030F216820F0100041E81B
:1016A000030292B1206850E8030F216820F0100077
:1016B00041E803024AB1206850E8030F216820F096
:1016C000100041E80302002ADAD1202084F8420009
:1016D000002020632068406940063FD5206850E81C
:1016E000050F216820F0400041E80502DAB12068CA
:1016F00050E8050F216820F0400041E8050292B152
:10170000206850E8050F216820F0400041E80502FC
:101710004AB1206850E8050F216820F0400041E8F8
:101720000502002ADAD1E06BC0B142F64D11C0F6D5
:1017300000014163FEF73EFF00283FF45BAEE06B23
:10174000416B02B0BDE8B040084700BF2046FFF73C
:10175000DFFD0020606402B0B0BD00BF204602B0D3
:10176000BDE8B040FFF7D4BD401A216851E8031F1F
:10177000226821F4907142E80313DBB1216851E83B
:10178000031F226821F4907142E8031393B121688A
:1017900051E8031F226821F4907142E803134BB112
:1017A000216851E8031F226821F4907142E8031375
:1017B000002BDAD1216851E8051F226821F00101D0
:1017C00042E80513DBB1216851E8051F226821F0CA
:1017D000010142E8051393B1216851E8051F226811
:1017E00021F0010142E805134BB1216851E8051FC2
:1017F000226821F0010142E80513002BDAD12021F3
:1018000084F8421000212163216851E8031F2268F7
:1018100021F0100142E80313DBB1216851E8031FF6
:10182000226821F0100142E8031393B1216851E8C6
:10183000031F226821F0100142E803134BB1216815
:1018400051E8031F226821F0100142E80313002B26
:10185000DAD1022281B22046626302B0BDE8B04014
:10186000FFF754BD216A31F8022B6FF35F2242600B
:1018700021628CE5002804BF0120704710B50446A2
:1018800090F8410028B9002084F84000204600F07C
:1018900063F8242084F841002068D4E90212C36868
:1018A00023F40053C360036923F440531A430261D5
:1018B000D4E904231143C268194341F20C639A43EB
:1018C0001143C1604169A26921F44071114343F69B
:1018D0000002C4F201029042416103D0FFF7FEFA18
:1018E00002E000BFFFF70EFB626819214843910038
:1018F000B0FBF1F048F21F51C5F2EB11A0FB012340
:101900005A094FF69C73C0F6FF7302FB03003223A3
:1019100003EB0010A0FB0101F02303EA5113206840
:1019200003EB0212C1F3431111448160016921F4F8
:1019300090410161416921F02A014161C16841F48E
:101940000051C16000202021606484F8411084F8B7
:101950004210606310BD000070B586B0006844F2AC
:101960000041C4F20001002688420596CDE90366D5
:1019700002963FD043F60001C4F20101884266D1CD
:1019800041F21800C4F20200016840F6000441F47C
:10199000804101600168C4F2010401F480410191B9
:1019A0000199016802AD41F0040101600068294617
:1019B00000F00400019001984FF4007002900220A2
:1019C0000390032005902046FEF74EFE4FF4806002
:1019D00002900020CDE9030020462946FEF744FE90
:1019E000252000210022FFF757F92520FFF740F9B5
:1019F00006B070BD41F21800C4F20200416840F622
:101A0000000441F4003141604168C4F2010401F472
:101A1000003101910199016802AD41F004010160BA
:101A20000068294600F0040001900198042002900B
:101A300002200390032005902046FEF715FE0820A3
:101A4000CDE90206204629460496FEF70DFE06B0B3
:101A500070BD000090F84230202B1CBF0220704760
:101A600000294FF0010318BF002A01D11846704722
:101A700000230363816222218285C285436480F84A
:101A800042100169006819B1C16841F48071C160F8
:101A90004169002341F001014161C16841F0200129
:101AA000C160184670470000704700002DE9F04300
:101AB00081B0044690F84100202840F0B18088466B
:101AC00000294FF0010000F0D6801646002A00F0F1
:101AD000D2800020606421201D4684F84100FEF77A
:101AE000CDFEA684E684A1680646B1F5805F03D1E9
:101AF0002069002800F0988047464FF00008E18CEC
:101B00002068002900F0968005F101090BE000BF74
:101B100047B317F8011B4160E18C0139E184E18C86
:101B2000002900F0878001680906F1D4B9F1000F9F
:101B30000AD0EDB1FEF7A2FE801BA84218D820689B
:101B400001680906F6D5E3E701680906E0D40168F3
:101B500009065CBF01685FEA0161D9D40168090622
:101B6000F2D5D5E738F8021B00276FF35F21D2E7E3
:101B7000206850E8030F216820F4D07041E8030288
:101B8000BAB3206850E8030F216820F4D07041E810
:101B9000030272B3206850E8030F216820F4D0706C
:101BA00041E803022AB3206850E8030F216820F4BB
:101BB000D07041E80302002ADAD11AE0206850E828
:101BC000050F216820F0010041E80502DAB1206824
:101BD00050E8050F216820F0010041E8050292B1AC
:101BE000206850E8050F216820F0010041E8050257
:101BF0004AB1206850E8050F216820F0010041E853
:101C00000502002ADAD1202084F8410084F842003D
:101C1000002084F84000032001B0BDE8F08300BF3D
:101C2000022001B0BDE8F0830027E18C2068002984
:101C30007FF46AAF0168490619D4FDB1691C0DD162
:101C40000168490613D4016849065CBF01685FEA70
:101C500041610CD401684906F2D508E0FEF70EFE9A
:101C6000801BA8420AD8206800684006F6D52020CC
:101C700084F84100002001B0BDE8F083206850E8FE
:101C8000030F216820F4D07041E80302002A3ED0FF
:101C9000206850E8030F216820F4D07041E8030267
:101CA000AAB3206850E8030F216820F4D07041E8FF
:101CB000030262B3206850E8030F216820F4D0705B
:101CC00041E80302002AD9D121E000BF206850E892
:101CD000050F216820F0010041E80502002A3FF4C9
:101CE00092AF206850E8050F216820F0010041E81C
:101CF0000502002A3FF487AF206850E8050F2168ED
:101D000020F0010041E80502002A3FF47CAF206882
:101D100050E8050F216820F0010041E80502002A83
:101D2000D4D170E740F2C821C2F20001884218BF46
:101D3000704740F2C82044F26821C2F20000C2F2AB
:101D400000010122FFF786BE2DE9F04383B004466F
:101D500000680D4601680A9F0B9E41F48071994608
:101D60009046016020464FF0011100223B4600964C
:101D700000F0AEF850B120680068C00544BF4FF4D1
:101D800000702064032003B0BDE8F083206805F0F4
:101D9000FE0101610221C0F2010120463A463346AC
:101DA00000F080F920B1012003B0BDE8F08300BF4E
:101DB00000200290206832464169029180693946CC
:101DC00002900298204600F0DDF958B1206C0428FA
:101DD000E9D12068016841F400710160012003B07D
:101DE000BDE8F0832068B9F1010F0AD04FEA18214D
:101DF000016120463946324600F0C4F90028E5D199
:101E000020685FFA88F10161002003B0BDE8F0832B
:101E100070B50368044653F8140F400711D40E46FA
:101E2000481C29D086BB00BF1868400527D4FEF7A0
:101E300025FD236853F8140F400739D5186840076B
:101E4000F2D5002070BD00BF18684007F9D41868AB
:101E5000400514D418684007F3D4186840050ED420
:101E600018684007EDD41868400508D41868400782
:101E70004FF0000048BF70BD18684005E4D56FF40E
:101E800080601860042014E0154603E053F8140F36
:101E90004007D6D418684005F1D4FEF7EFFC401B8C
:101EA0002368B042F2D958694007EFD4202000E0FF
:101EB000202000212022216384F83D2084F83E1058
:101EC000226C10432064012084F83C1070BD000097
:101ED0002DE9F041054600681E46144601F47F02D4
:101EE00001338FB242D0DDF81880B2F5803F40F068
:101EF000878040693840C01BB0FA80F04009A0429A
:101F000040F0C8804EB924E040693840C01BB0FAA8
:101F100080F04009A04240F0BD80FEF7AFFCA0EB8E
:101F200008012868B142EFD941693940C91BB1FAAB
:101F300081F14909A142E7D19BE000BF40693840E7
:101F4000C01BB0FA80F04009A0424FF0000040F002
:101F5000A680FEF793FC286841693940C91BB1FA95
:101F600081F14909A142E9D183E000BFB2F5803F88
:101F700024D100BF41693940C91BB1FA81F1490937
:101F8000A14240F0878041693940C91BB1FA81F113
:101F90004909A14240F07E8041693940C91BB1FA2C
:101FA00081F14909A14275D141693940C91BB1FA92
:101FB00081F14909A142DDD06CE000BF816939405F
:101FC000C91BB1FA81F14909A14263D18169394044
:101FD000C91BB1FA81F14909A1425BD1816939403C
:101FE000C91BB1FA81F14909A14253D18169394034
:101FF000C91BB1FA81F14909A142DFD04AE000BF13
:1020000080693840C01BB0FA80F04009A04241D13D
:1020100046B923E080693840C01BB0FA80F040091F
:10202000A0423BD1FEF72AFCA0EB08012868B14290
:10203000F0D981693940C91BB1FA81F14909A1423E
:10204000E8D116E080693840C01BB0FA80F0400942
:10205000A0424FF0000018BFBDE8F081FEF70EFC73
:10206000286881693940C91BB1FA81F14909A14247
:10207000E8D100202021286385F83D1085F83E0036
:10208000296C41F02001296485F83C000120BDE85D
:10209000F08100BF0020BDE8F08100BF0020BDE856
:1020A000F0810000F0B581B0044600681D46436928
:1020B0008FB203EA0701B94202D1002001B0F0BD9E
:1020C00041691646013201F4806125D0002940D1D2
:1020D000CEB100BFFEF7D2FB411B2068B14203D94D
:1020E00041693940B9424BD141693940B942E4D0E4
:1020F00041694905EED52CE041693940B942DCD04F
:102100004169490525D4FEF7B9FB2068416939408A
:10211000B942F1D0202024E0D9B941693940B9420F
:10212000CBD04169490514D441693940B942C4D082
:10213000416949050DD441693940B942BDD0416971
:10214000490506D441693940B942B6D041694905CB
:10215000E3D5016841F4007101606FF48061416171
:10216000042000212022216384F83D2084F83E10C1
:10217000226C1043206484F83C10012001B0F0BDB3
:102180002020EEE770B50368044653F8140F0006EC
:1021900011D40E46481C29D086BB00BF18684005E4
:1021A00027D4FEF76BFB236853F8140F000639D5CC
:1021B00018680006F2D5002070BD00BF1868000640
:1021C000F9D41868400514D418680006F3D41868C8
:1021D00040050ED418680006EDD41868400508D4F0
:1021E000186800064FF0000048BF70BD1868400531
:1021F000E4D56FF480601860042014E0154603E015
:1022000053F8140F0006D6D418684005F1D4FEF731
:1022100035FB401B2368B042F2D958690006EFD461
:10222000202000E0202000212022216384F83D208E
:1022300084F83E10226C10432064012084F83C1086
:1022400070BD000070B584B041F21800C4F2020005
:10225000016840F6000441F0040101600168C4F225
:10226000010401F00401009100990168002241F08D
:10227000080101600068802100F0080000900098CB
:10228000204680250026FEF7F3FA0120CDE901065D
:1022900002200390694620460095FEF7E5F904B058
:1022A00070BD000080B540F2742045F20041C2F2DA
:1022B0000000C4F2000148F2A06200234FF4804CF9
:1022C000C0F2010280E80E00C0E9033CC0E905331A
:1022D000C0E90733FEF7D8FA002808BF80BDBDE883
:1022E0008040FEF73DB9000080B540F2C82043F6BB
:1022F0000001C2F20000C4F2010100234FF00C0CF7
:102300004FF4E13280E80E00C0E90333C0E905C3B1
:10231000C361FFF7AFFA002808BF80BDBDE8804069
:10232000FEF71EB980B540F2103044F20041C2F20F
:102330000000C4F2000100234FF00C0C4FF4E13216
:1023400080E80E00C0E90333C0E905C3C361FFF7AD
:1023500091FA002808BF80BDBDE88040FEF700B9B3
:10236000FEE70000FEE700002DE9F04F85B040F2E7
:10237000742400254FF480760127C2F200040DF189
:10238000120B0DF113084FF0000900BF09F1B00066
:102390008DF8100004A8CDE900072046782100221E
:1023A00001230296FEF72CFB0DF11100CDE9000789
:1023B00020467821002201238DF811500296FEF765
:1023C0001FFB10208DF812002046782100220123E7
:1023D000CDE900B70296FEF713FB4FF0000A00BFED
:1023E00020467821402201238DF81350CDE9008743
:1023F0000296FEF705FB0AF101004FFA80FABAF1E6
:10240000FF3FEDDCB9F1070F09F10109BED305B0BB
:10241000BDE8F08F80B5C82003F040FDBDE88040E6
:1024200000F022BB2DE9F04F85B00746A1F1500026
:1024300040F274248DF80C00012503A8C2F20004B8
:10244000164688464FF48079CDE90005204678216C
:1024500000220123CDF80890FEF7D2FA380900F1E6
:10246000100A0DF10D00CDE900052046782100226B
:1024700001238DF80DA0CDF80890FEF7C1FA0DF1FB
:102480000E0007F00F0BCDE9000520467821002251
:1024900001238DF80EB0CDF80890FEF7B1FA40F2A6
:1024A0002300C2F20000B101415C00EB86168DF8FA
:1024B0000F100DF10F072046782140220123CDE9AE
:1024C0000075CDF80890FEF79BFA707878218DF8AA
:1024D0000F00204640220123CDE90075CDF8089079
:1024E000FEF78EFAB07878218DF80F002046402252
:1024F0000123CDE90075CDF80890FEF781FAF07858
:1025000078218DF80F00204640220123CDE9007587
:10251000CDF80890FEF774FA307978218DF80F0025
:10252000204640220123CDE90075CDF80890FEF742
:1025300067FA707978218DF80F0020464022012338
:10254000CDE90075CDF80890FEF75AFAB0797821F8
:102550008DF80F00204640220123CDE90075CDF80B
:102560000890FEF74DFAF07978218DF80F0020469B
:1025700040220123CDE90075CDF80890FEF740FA1E
:10258000307A78218DF80F00204640220123CDE9D2
:102590000075CDF80890FEF733FA707A78218DF83F
:1025A0000F00204640220123CDE90075CDF80890A8
:1025B000FEF726FAB07A78218DF80F0020464022E7
:1025C0000123CDE90075CDF80890FEF719FAF07AED
:1025D00078218DF80F00204640220123CDE90075B7
:1025E000CDF80890FEF70CFA307B78218DF80F00BB
:1025F000204640220123CDE90075CDF80890FEF772
:10260000FFF9707B78218DF80F00204640220123CE
:10261000CDE90075CDF80890FEF7F2F9B07B78218E
:102620008DF80F00204640220123CDE90075CDF83A
:102630000890FEF7E5F9F07B78218DF80F00204631
:1026400040220123CDE90075CDF80890FEF7D8F9B6
:10265000A8F14F008DF8100004A8CDE90005204630
:10266000782100220123CDF80890FEF7C9F90DF179
:102670001100CDE9000520467821002201238DF8C4
:1026800011A0CDF80890FEF7BBF90DF11200CDE9CD
:10269000000520467821002201238DF812B0CDF8E4
:1026A0000890FEF7ADF996F820000DF113078DF8AC
:1026B00013002046782140220123CDE90075CDF892
:1026C0000890FEF79DF996F8210078218DF8130007
:1026D000204640220123CDE90075CDF80890FEF791
:1026E0008FF996F8220078218DF8130020464022B9
:1026F0000123CDE90075CDF80890FEF781F996F831
:10270000230078218DF81300204640220123CDE9D3
:102710000075CDF80890FEF773F996F8240078213B
:102720008DF81300204640220123CDE90075CDF835
:102730000890FEF765F996F8250078218DF81300CA
:10274000204640220123CDE90075CDF80890FEF720
:1027500057F996F8260078218DF81300204640227C
:102760000123CDE90075CDF80890FEF749F996F8F8
:10277000270078218DF81300204640220123CDE95F
:102780000075CDF80890FEF73BF996F828007821FF
:102790008DF81300204640220123CDE90075CDF8C5
:1027A0000890FEF72DF996F8290078218DF813008E
:1027B000204640220123CDE90075CDF80890FEF7B0
:1027C0001FF996F82A0078218DF813002046402240
:1027D0000123CDE90075CDF80890FEF711F996F8C0
:1027E0002B0078218DF81300204640220123CDE9EB
:1027F0000075CDF80890FEF703F996F82C007821C3
:102800008DF81300204640220123CDE90075CDF854
:102810000890FEF7F5F896F82D0078218DF8130052
:10282000204640220123CDE90075CDF80890FEF73F
:10283000E7F896F82E0078218DF813002046402204
:102840000123CDE90075CDF80890FEF7D9F896F888
:102850002F0078218DF81300204640220123CDE976
:102860000075CDF80890FEF7CBF805B0BDE8F08F05
:1028700080B502F035FC03F035FCBDE8804002F085
:102880003DBC0000B0B590B006AC201D2421FDF782
:10289000A9FD0220069001200A9010200B9000252F
:1028A00020460D95FEF742FB20B1EFF3108072B683
:1028B000FEE700BF0F20CDE9010501A80021CDE909
:1028C00003550595FEF724FA20B1EFF3108072B698
:1028D000FEE700BF10B0B0BD41F20400C4F2020038
:1028E000016801F00C01082941F20021C0F27A01CF
:1028F00019D102680368C2F38342DB0302F10202CA
:1029000006D440F60011C0F23D0151430BE000BF78
:1029100003689B0302D4514305E000BF40F6001159
:10292000C0F23D01514340F2A402C2F20002116024
:10293000006846F6BE43C0F30310C0F60003185CFF
:1029400021FA00F01060704770470000406A0021D3
:10295000C185C184FEF7DCBC81B090F84210222909
:1029600021D183680246B3F5805F09D152F8281F50
:1029700052F8183C002B63D003685B680AE000BF84
:1029800052F8281F13B90369002BF5D003685B6860
:1029900003F07F030B70116801311160C18D0139A3
:1029A0000A04C18502D001B0704700BF0168CA683F
:1029B00022F02002CA60CA6822F48072CA604A69A2
:1029C00022F001024A61202180F842100021416377
:1029D000026B012A3CD10163016851E8031F0268C0
:1029E00021F0100142E80313DBB1016851E8031F35
:1029F000026821F0100142E8031393B1016851E825
:102A0000031F026821F0100142E803134BB1016873
:102A100051E8031F026821F0100142E80313002B64
:102A2000DAD101680A68D20606D5002200920A6847
:102A30000092496800910099818D01B0FEF766BC53
:102A4000026852686FF35F2221F8022B8162A5E7CA
:102A500001B0FFF729B8000040F2C820C2F2000020
:102A6000FEF758BCFEE70000F0B583B040F27424D6
:102A700040F20807C2F200044FF480750126C2F24A
:102A800000072046782100220123CDE90076029537
:102A9000FDF7B6FF781CCDE900062046782100221C
:102AA00001230295FDF7ACFFB81CCDE900062046D6
:102AB0007821002201230295FDF7A2FFF81CCDE941
:102AC000000620467821002201230295FDF798FF99
:102AD000381DCDE900062046782100220123029509
:102AE000FDF78EFF781DCDE90006204678210022F3
:102AF00001230295FDF784FFB81DCDE900062046AD
:102B00007821002201230295FDF77AFFF81DCDE917
:102B1000000620467821002201230295FDF770FF70
:102B200007F10800CDE900062046782100220123A4
:102B30000295FDF765FF07F10900CDE90006204683
:102B40007821002201230295FDF75AFF07F10A00C0
:102B5000CDE9000620467821002201230295FDF7E9
:102B60004FFF07F10B00CDE9000620467821002237
:102B700001230295FDF744FF07F10C00CDE90006A3
:102B800020467821002201230295FDF739FF07F145
:102B90000D00CDE900062046782100220123029590
:102BA000FDF72EFF07F10E00CDE900062046782143
:102BB000002201230295FDF723FF07F10F00CDE965
:102BC000000620467821002201230295FDF718FF18
:102BD00007F11000CDE900062046782100220123EC
:102BE0000295FDF70DFF07F11100CDE90006204623
:102BF0007821002201230295FDF702FF07F1120060
:102C0000CDE9000620467821002201230295FDF738
:102C1000F7FE07F11300CDE90006204678210022D7
:102C200001230295FDF7ECFE07F11400CDE9000643
:102C300020467821002201230295FDF7E1FE07F1ED
:102C40001500CDE9000620467821002201230295D7
:102C5000FDF7D6FE07F11600CDE9000620467821E3
:102C6000002201230295FDF7CBFE07F11700CDE905
:102C7000000620467821002201230295FDF7C0FEC0
:102C800007F11800CDE90006204678210022012333
:102C90000295FDF7B5FE07F11900CDE900062046C3
:102CA0007821002201230295FDF7AAFE07F11A0000
:102CB000CDE9000620467821002201230295FDF788
:102CC0009FFE03B0F0BD0000002804BF0020704745
:102CD000C1B209B101200CE010F47F4102D0090A11
:102CE000092006E010F47F0107BF010E1920090C2E
:102CF000112046F6D842C0F60002515C08447047E5
:102D000080B500F007FB002080BD000080B500F01A
:102D10006FFC002080BD000070B582B040F29016BC
:102D200047F2702047F21831C2F20006C0F60000E8
:102D3000C0F60001C6E900010120782101F018FE6B
:102D4000706128B30A201521CDE9001042F6C9515F
:102D500013A0C0F6000100224FF48063002402F0AB
:102D600077FF7269054610A110460022002302F089
:102D7000EFFC706990F8211041F0020180F82110F9
:102D80001DB1284603F0F8F80024204602B070BDBB
:102D900007A002F0C1F94FF0FF34204602B070BD29
:102DA000747368656C6C00007368727800000000D2
:102DB0006E6F206D656D6F727920666F722073681B
:102DC000656C6C0A0000000040F2901AC2F2000A22
:102DD000DAF8140040F2F01490F82110C2F2000466
:102DE00041F0010280F82120880703D400202070E0
:102DF00026E000BFDAF8101041B140F2F010C2F244
:102E000000008022FDF715FB1AE000BF01F02AFB4D
:102E100030B10020207147F26D30C2F2680009E045
:102E200046F67300C0F22000C4F8030046F66610B0
:102E3000C7F26E3020602046FDF740FA3E21215255
:102E4000204602F069F947F252264FF0010B4FF08D
:102E50000008C0F60006022702E000BF80F820B09C
:102E600001F0C6FE8146DAF81400B9F11B0FF5D067
:102E700090F82010022909D0012940F07580B9F19D
:102E80005B0F40F06F8080F82070E9E7A9F1410105
:102E9000022980F82080E3D3B9F1440F00F2928038
:102EA000DFE819F046009700970097009700970019
:102EB00097009700A000E000700097009700700056
:102EC000970097009700970097009700970097004A
:102ED000970097009700970097009700970097003A
:102EE000970097009700970097009700970097002A
:102EF000970097009700970097009700970097001A
:102F00009700970097009700970097009700970009
:102F100097009700970097009700970097009700F9
:102F2000970097009700970097004800840100BF22
:102F300096E700BFB0F87410B0F872209142BFF469
:102F40008FAF084490F8221047F25420C0F60000DA
:102F500002F0E2F8DAF81400B0F874100131A0F8C9
:102F600074107DE780F82080B9F10D0F2AD8DFE8D2
:102F700009F00730303030303030397909303009DD
:102F80006EE700BF01F06EFA012812D1DAF81400E2
:102F900090F82110C90707D047F2D300C0F600000F
:102FA00002F0BAF8DAF81400B0F87210223001F02A
:102FB0000FF8DAF8140090F82100800778D484F82C
:102FC00000801DE1B9F17F0F0CD0B9F1FF0F3FF484
:102FD00047AFB0F87220502A74D30022A0F87220B4
:102FE000A4E000BFB0F8741000293FF439AFB0F886
:102FF00072200139531E9AB2A0F872308BB29A42F5
:10300000A0F8741040F2B480C11801F122002331FD
:10301000D21A02F061F9DAF81400B0F8721008441C
:1030200080F82280DAF81400B0F87410084400F137
:10303000220189A002F070F8DAF81410B1F87400D7
:10304000B1F8721088423FF60BAF451E304602F0D1
:1030500063F8DAF814000135B0F872008542F5D350
:10306000FEE600BFB0F8741051B10025304602F002
:1030700053F8DAF814000135B0F874108D42F5D326
:1030800000F1220547F2D300C0F6000002F044F838
:1030900001F0E8F9012802D1284600F0D7FEDAF85D
:1030A000140090F8210080076ED484F80080C1E0FD
:1030B000DAF8101000296FD020468022FDF7B9F908
:1030C0009EE000BFB0F874309A422FD9C11801F1C8
:1030D00023002231D21A02F0FFF8DAF81400B0F817
:1030E0007410084480F82290DAF8140090F8211047
:1030F000C90709D0B0F87410084400F122015AA0A1
:1031000002F00AF8DAF81400B0F87450B0F872104F
:103110008D421DD2304601F0FFFFDAF81400013570
:10312000B0F872108D42F5D312E000BF104480F861
:103130002290DAF8140090F82110C90708D047F25D
:103140005420C0F60000494601F0E6FFDAF814000A
:10315000B0F87210B0F874200131A0F8721089B282
:1031600001325029A0F8742028BFC0F8728077E699
:1031700038A001F0D1FFDAF81400B0F8721008445A
:1031800080F822806CE600BFDAF81010F1B120461A
:103190008022FDF74EF94DE001F064F900B347F2EB
:1031A0006D3084F80480C2F2680023E0B0F8740047
:1031B00000283FF455AE304601F0AEFFDAF81400B7
:1031C000B0F874100139A0F8741049E601F04AF91A
:1031D00000B347F26D3084F80480C2F2680023E047
:1031E00046F67300C0F22000C4F8030046F66610ED
:1031F000C7F26E3020602046FDF760F83E21215274
:10320000204601F089FFDAF8140054212230FDF73E
:10321000C7F825E646F67300C0F22000C4F80300A4
:1032200046F66610C7F26E3020602046FDF746F87D
:103230003E2121520AA021462A4601F06DFFDAF80C
:10324000145005F12200FDF739F8A5F87200A5F831
:10325000740005E6082008000825732020080000F7
:1032600025732573000000002573000080B502A0BF
:1032700001F052FF002080BD48656C6C6F205254F5
:103280002D546872656164210A0000002DE9F04345
:1032900081B016A001F040FF40F2901040F2941966
:1032A000C2F20000C2F200090768D9F80050AF422C
:1032B00018D213A40FF24C0803E000BF0C37AF4242
:1032C00010D23E68214630460222FDF716F800284B
:1032D000F4D07A684046314601F01EFFD9F800501C
:1032E000ECE700BF002001B0BDE8F0832D2D46754E
:1032F0006E6374696F6E204C6973743A0A00000043
:103300005F5F0000252D313673202D2D2025730A97
:103310000000000010B540F23814C2F20004216829
:1033200006A001F0F9FE216909A001F0F5FE61692E
:103330000CA0BDE8104001F0EFBE00BF746F7461D7
:103340006C206D656D6F72793A2025640A0000006B
:1033500075736564206D656D6F7279203A20256400
:103360000A0000006D6178696D756D20616C6C6F8D
:103370006361746564206D656D6F72793A202564B0
:103380000A0000002DE9F04F8DB0022002F0F6F89F
:1033900000F104087BA082A2082101F0BDFE47F2E3
:1033A0001024C0F60004204601F0B6FE204601F0CD
:1033B000B3FE204601F0B0FE204601F0ADFE2046EF
:1033C00001F0AAFE204601F0A7FE204601F0A4FE6F
:1033D000204601F0A1FE75A001F09EFE00260DF131
:1033E000140B7CA77CA4CDF80C8005E0049EDDF8CE
:1033F0000C80002E00F0C2803546002E08BF4546E6
:10340000FCF7E2FE36B115F8041C01F07F01022939
:1034100040F0B2802968414500F0AE800A6805910D
:1034200042451DD01168069241451DD00A6807919A
:1034300042451DD01168089241451DD00A68099186
:1034400042451DD011680A9241451DD00A680B9172
:1034500042451DD04FF00808114604920C921BE023
:103460004FF0010816E000BF4FF0020812E000BF65
:103470004FF003080EE000BF4FF004080AE000BF61
:103480004FF0050806E000BF4FF0060802E000BF5D
:103490004FF007080021049151A5FCF799FE4FF069
:1034A000000906E04DA001F037FE09F10109C14510
:1034B0009CD05BF829A0FCF787FE1AF8041C01F0E9
:1034C0007F06FCF785FE022EEFD1AAF10C035AF815
:1034D000081F0026BAF80800514511D0514600BF18
:1034E0000968514521D0096851451BD009685145EB
:1034F0001AD0096804365145F2D1013E15E000BFEB
:10350000514600BF096851452DD00968514527D063
:103510000968514526D0096804365145F2D1013E6B
:1035200021E000BF013600E00236009025A008210E
:103530000822019601F0F0FDDAF800605645B1D09E
:10354000A6F11401384601F0E7FD30685045A9D0D6
:10355000204601F0E1FD36685645F1D1A2E700BFF3
:10356000013600E002360090284608210822019624
:1035700001F0D2FD99E700BFFCF72AFE00200DB054
:10358000BDE8F08F252D2A2E73207620202073751C
:103590007370656E64207468726561640A0000006F
:1035A00073656D6170686F7265000000202D2D2DB0
:1035B000202D2D2D2D2D2D2D2D2D2D2D2D2D2D0A6B
:1035C00000000000252D2A2E2A7320253033642088
:1035D00025643A00257300002F0000000A00000057
:1035E000252D2A2E2A7320253033642025640A00D5
:1035F0002DE9F04F8DB0012001F0C0FF051D47F20D
:103600009B10C0F6000071A2082101F085FD47F271
:103610001024C0F60004204601F07EFD204601F093
:103620007BFD204601F078FD204601F075FD204627
:1036300001F072FD204601F06FFD204601F06CFDA7
:10364000204601F069FD63A001F066FD00240DF144
:10365000140A039505E000BF049C039D002C00F0B4
:10366000B1802646002C08BF2E46FCF7ADFD34B1D4
:1036700016F8041C01F07F01012940F0A180316897
:10368000A94200F09D800A680591AA421ED01168E7
:103690000692A9421ED00A680791AA421ED011685C
:1036A0000892A9421ED00A680991AA421ED0116848
:1036B0000A92A9421ED00A680B91AA421ED04FF06E
:1036C0000808114604920C921CE000BF4FF001085C
:1036D00016E000BF4FF0020812E000BF4FF00308F1
:1036E0000EE000BF4FF004080AE000BF4FF00508ED
:1036F00006E000BF4FF0060802E000BF4FF00708E9
:1037000000210491FCF764FD4FF0000906E000BFC2
:10371000FCF75EFD09F10109C1459DD05AF829B0B9
:10372000FCF752FD1BF8041C01F07F010129EFD1C9
:10373000ABF10C06FCF74CFD9BF8294035A00821A5
:1037400008223346009401F0E7FC9BF8280000F0C3
:103750000F00042804D832A151F8200001F0DCFC4D
:10376000DBF81C00014600BF0A78232A0FD14A78F3
:10377000232A09D18A78232A08D1CA780431232A36
:10378000F2D0013903E000BF013100E00231DBE992
:103790000824DBF810601718401A104464214843CD
:1037A000DBF83450B0FBF2F3B91B22A00095019472
:1037B00001F0B2FC09F10109C145AFD14CE700BFEE
:1037C000FCF706FD00200DB0BDE8F08F746872654F
:1037D00061640000202D2D2D20202D2D2D2D2D2D2F
:1037E0002D202D2D2D2D2D2D2D2D2D2D202D2D2D23
:1037F0002D2D2D2D2D2D2D20202D2D2D2D2D2D2020
:10380000202D2D2D2D2D2D2D2D2D2D202D2D2D0A25
:1038100000000000252D2A2E2A7320253364200065
:10382000DF710008F1710008127200081B720008B5
:10383000E87100082030782530387820307825303D
:103840003878202020202530326425252020203083
:10385000782530387820253033640A002DE9F04F80
:103860008FB00A2001F08AFE00F1040A0FF2A8408E
:103870000FF2CC42082101F04FFC47F21024C0F6B1
:103880000004204601F048FC204601F045FC20469B
:1038900001F042FC204601F03FFC204601F03CFCD8
:1038A000204601F039FC204601F036FC204601F0AC
:1038B00033FC0FF2944001F02FFC4FF0000923E09D
:1038C000A4F10C07FCF784FCD4E90605082100905C
:1038D00047F2FA10C0F6000008223B46019501F0BD
:1038E0001BFC14F8030CC00707BF47F28E10C0F68C
:1038F000000047F29010C0F6000001F00DFC00BF80
:10390000B9F1000F00F0FE814C46B9F1000F08BF7D
:103910005446FCF759FCB9F1000F06D014F8041C0A
:1039200001F07F010A2940F0EB812168514500F048
:10393000E781D1F800B00791D34523D0DBF8001020
:10394000CDF820B0514521D00A680991524500F0C8
:10395000F78011680A92514500F0F8800A680B91CF
:10396000524500F02D8111680C92514500F066819E
:10397000D1F800900D91D14500F06C81CDF83890D0
:1039800002E000BF4FF00009002102E04FF0000903
:1039900001210026069100250021059100210491B6
:1039A00000210391FCF714FCDDF81C80FCF70CFCF3
:1039B00018F8041C01F07F010A2921D1A8F10C0795
:1039C000FCF706FCD8E906040821009047F2FA103B
:1039D000C0F6000008223B46019401F09DFB18F858
:1039E000030CC00707BF47F28E10C0F6000047F275
:1039F0009010C0F6000001F08FFBD34505D17FE7A2
:103A0000FCF7E6FBD3453FF47BAF089CFCF7DCFBFF
:103A100014F8041C01F07F010A2927D1B0462E4674
:103A2000A4F10C07FCF7D4FBD4E9060508210090AB
:103A300047F2FA10C0F6000008223B46019501F05B
:103A40006BFB14F8030CC00707BF47F28E10C0F6DB
:103A5000000047F29010C0F6000001F05DFB354613
:103A60004646069800287FF44BAF05E0FCF7B0FB14
:103A7000069800287FF444AF099CFCF7A5FB14F8D6
:103A8000041C01F07F010A2926D1B0462E46A4F17C
:103A90000C07FCF79DFBD4E906050821009047F2CE
:103AA000FA10C0F6000008223B46019501F034FBF5
:103AB00014F8030CC00707BF47F28E10C0F60000D1
:103AC00047F29010C0F6000001F026FB354646464E
:103AD000002E7FF415AF04E0FCF77AFB002E7FF494
:103AE0000FAF0A9CFCF770FB14F8041C01F07F0177
:103AF0000A2933D12E46A4F10C07FCF769FBD4E95F
:103B000006050821009047F2FA10C0F600000822CE
:103B10003B46019501F000FB14F8030CC00707BFFA
:103B200047F28E10C0F6000047F29010C0F6000079
:103B300001F0F2FA3546002D7FF4E2AE13E000BF4B
:103B4000002101264FF0000924E700BF00210125D4
:103B50004FF00009069100261EE700BFFCF738FB76
:103B6000002D7FF4CDAE0B9CFCF72EFB14F8041C4B
:103B700001F07F010A292DD1A4F10C07FCF728FBE5
:103B8000D4E906050821009047F2FA10C0F60000BB
:103B900008223B46019501F0BFFA14F8030CC00758
:103BA00007BF47F28E10C0F6000047F29010C0F633
:103BB000000001F0B1FA059800287FF4A1AE0FE0F3
:103BC0000121059100214FF00009069100260025F2
:103BD000E4E600BFFCF7FCFA059800287FF490AEFD
:103BE0000C9CFCF7F1FA14F8041C01F07F010A297F
:103BF0003ED1A4F10C07FCF7EBFAD4E90605082145
:103C0000009047F2FA10C0F6000008223B460195EA
:103C100001F082FA14F8030CC00707BF47F28E10B8
:103C2000C0F6000047F29010C0F6000001F074FAF0
:103C3000049800287FF464AE20E000BF01210491C5
:103C40000021069100214FF0000900260025059172
:103C5000A6E600BF012103910021069100210591F4
:103C600000214FF000090026002504919AE600BFCC
:103C7000FCF7AEFA049800287FF442AE0D9CFCF7E6
:103C8000A3FA14F8041C01F07F010A2924D1A4F13D
:103C90000C07FCF79DFAD4E906050821009047F2CD
:103CA000FA10C0F6000008223B46019501F034FAF4
:103CB00014F8030CC00707BF47F28E10C0F60000CF
:103CC00047F29010C0F6000001F026FA0398002891
:103CD0007FF416AE06E000BFFCF77AFA03980028DE
:103CE0007FF40EAE0E9CFCF76FFA14F8041C01F082
:103CF0007F010A293FF4E4ADFCF76AFA00E600BF51
:103D0000FCF766FA02F0E8F9014618A001F004FA9F
:103D100000200FB0BDE8F08F252D2A2E73202070D3
:103D20006572696F64696320202074696D656F75C1
:103D30007420202020202020666C61670A0000008B
:103D400074696D6572000000202D2D2D2D2D2D2DF7
:103D50002D2D2D202D2D2D2D2D2D2D2D2D2D202DAD
:103D60002D2D2D2D2D2D2D2D2D2D0A0063757272CB
:103D7000656E74207469636B3A3078253038780A40
:103D80000000000090B0FCF719FF06AC201D2421B4
:103D9000FCF728FB0220069001200A9010200B90CF
:103DA000002520460D95FDF7C1F828B1EFF31080EE
:103DB00072B600BFFEE700BF0F20CDE9010501A8E4
:103DC0000021CDE903550595FCF7A2FF20B1EFF3E3
:103DD000108072B6FEE700BFFEF734FAFEF784FAF1
:103DE000FEF7A0FAFEF75EFAFEF714FBFEF7BCFA48
:103DF000002000210022FEF715FB04A4204601F05C
:103E00008BF94FF47A7002F049F8F7E768656C6C4B
:103E10006F776F726C640A00B0B547F26C2447F29A
:103E20006420C0F60004C0F60000A04209D247F2A8
:103E30006425C0F6000500BF55F8040B8047A54275
:103E4000FAD3BDE8B040FFF79DBF00002DE9F04F69
:103E500081B083460078A8B140F29010C2F2000011
:103E6000056840F29410C2F20000D0F80080454589
:103E700080F0A88047F24B294FF0000AC0F60009F5
:103E800000264CE047F22420C0F6000001F044F97F
:103E900040F2901040F29419C2F20000C2F2000900
:103EA0000768D9F80050AF421CD247F24B2447F2C2
:103EB0003F28C0F60004C0F6000802E00C37AF420D
:103EC00010D23E68214630460622FCF716FA00283A
:103ED000F4D17A68B11D404601F01EF9D9F80050BE
:103EE000ECE700BF47F2D300C0F6000001B0BDE828
:103EF000F04F01F011B900BF481C801B5045B8BFFE
:103F0000824632A0394601F007F940F29410C2F21D
:103F10000000D0F8008000BF0C35454548D22F681E
:103F2000494638460622FCF7E8F90028F4D15846FD
:103F30000637FCF7C3F9024658463946FCF7DDF967
:103F40000028E9D1BAF1000F04D03178304651B9D8
:103F5000D3E700BF3846FCF7B1F982463E463178D8
:103F600030460029C9D000203A5CDAB1914219D11B
:103F700031184B78002BBFD03A185478002CBBD0A6
:103F8000A342B9D18B787BB194786CB1A3420BD1A9
:103F9000CB785BB1D2784AB1934207D1097904302A
:103FA0000029E1D13044A8E7881CA6E7C81CA4E793
:103FB00046B158463146524601B0BDE8F04F01F0D7
:103FC000EDBC00BF01B0BDE8F08F00BF25730A0053
:103FD0002DE9F04F8BB049B3CF1E8E1E4D1E00232E
:103FE00003E000BF0433994220D0C25C202A01D0F4
:103FF000092A1FD19D4219D0C4186278202A01D005
:10400000092A1DD19E4211D0A278202A01D0092A66
:104010001CD19F420AD0E278202AE3D0092AE1D0BD
:10402000C81AA0F1030804F1030A14E000200BB041
:10403000BDE8F08FA1EB030800EB030A0BE000BF23
:10404000D84300EB010804F1010A04E0C81AA0F10A
:10405000020804F1020AC8F10000A8F101010025DC
:10406000D2B2092A2DD0202A2BD0A84520D00AEB85
:1040700005025378092B1FD0202B1DD0A94217D041
:104080009378092B1CD0202B1AD043199F1C0FD0DA
:10409000D778092F00F03681202F00F033810333C9
:1040A00006D012790435D2B2092ADCD109E000BF6A
:1040B00045464DB92AE100BF01352DB926E100BFC3
:1040C0000235002D00F0228140F29010C2F2000073
:1040D000046840F29410C2F200000668B44280F016
:1040E000158147F24B2905F1060BC0F6000903E0E4
:1040F0000C34B44280F00A812768494638460622CB
:10410000FCF7FBF80028F3D1B81D51462A46FCF70E
:10411000F4F80028ECD117F80B000028E8D1A068CB
:104120000028009000F0F2804FF0000C4FF00009E2
:1041300000265246CDE909CCCDE907CCCDE905CC26
:10414000CDE903CC4146CDF80890464588BF3146BD
:10415000751A05F10109002096460196175C202F7B
:1041600001D0092F42D115EB000B2BD01418677822
:1041700002F800C0202F01D0092F39D119EB000C13
:1041800024D0A7784FF0000C202F84F801C001D074
:10419000092F31D11BF1020320D0E77884F802C047
:1041A000202F01D0092F2BD11BF103031AD084F843
:1041B00003C00EF1040E04360430175C202FD0D15A
:1041C000D1E700BF02EB000E1FE000BFDDF8089052
:1041D00004F1010E4FF0000C19E000BF04F1020ED3
:1041E00013E000BF0EF1030E0FE000BF31460CE0FC
:1041F0000EF1010E711C08E00EF1020EB11C04E07C
:10420000019904F1030E0844C11CDDF80890B9F1CE
:10421000080F80F0AD80414580F0BE80222F21D173
:104220000EF1010203A840F829209EF80170481CF5
:1042300004E000BF12F8017F0146013040454FF015
:10424000000338BF0123222F42D0404540D25C2FCB
:10425000F0D1134613F8017F222F04BF1A46881CA1
:10426000E8E700BF03A840F829E04046414588BF81
:1042700008460A1A09F10109571C00201EF80060BF
:10428000092E21D0202E1FD0161800F088800EEBAA
:1042900000056C78092C23D0202C21D03B1800F08D
:1042A0007E80AC78092C1FD0202C1DD0B31C76D07A
:1042B000EC78092C1CD0202C1AD0F31C6FD00430C1
:1042C0001EF80060092EDDD10EEB00020E1812E080
:1042D000002B09F1010962D002F801CB8E1C0CE021
:1042E00008446A1C461C06E00844AA1C861C02E01E
:1042F0000844EA1CC61C464551D24645FFF422AF8D
:104300004DE000BF0335002D7FF4DEAE00201AF82B
:10431000001041F02001202917D00AEB00014A7853
:1043200042F02002202A13D08A7842F02002202A6C
:1043300010D0CA7842F02002202A0DD004301AF89A
:10434000001041F020012029E7D1504405E000BFD2
:10435000481C02E0881C00E0C81C002101701CA061
:10436000514600F0D9FE4FF0FF300BB0BDE8F08FA2
:104370000EA000F0D1FE03A8041F14A64D4654F869
:10438000041F304600F0C8FE013DF8D147F2D300CB
:10439000C0F6000000F0C0FEB9F1000FB6D0009AE0
:1043A00003A9484690470BB0BDE8F08F546F6F20CB
:1043B0006D616E7920617267732021205765206FCF
:1043C0006E6C79205573653A0A0000002573200051
:1043D00025733A20636F6D6D616E64206E6F74207B
:1043E000666F756E642E0A002DE9F04381B047F2C6
:1043F0002420C0F6000000F08FFE40F2901040F242
:104400009419C2F20000C2F200090768D9F80050FE
:10441000AF421DD247F24B2447F23F28C0F60004BA
:10442000C0F6000803E000BF0C37AF4210D23E6870
:10443000214630460622FBF760FF0028F4D17A6857
:10444000B11D404600F068FED9F80050ECE700BF0F
:1044500047F2D300C0F6000000F05EFE002001B07D
:10446000BDE8F083012070472DE9F04F8AB0059137
:1044700015990FF2D4464F060FF2E04858BFB046E8
:10448000CE06DDE9134948BF21F00101CE074FF008
:10449000300A08BF4FF0200A8E070DD4002701977D
:1044A000002701250097002A00F09A80CDE90251EB
:1044B000CDF810A013E000BFB2F1FF3F06DD4E07BC
:1044C00000F186800E07E9D5202782E001270197B9
:1044D000002702972D27CDE9031A524200974CF688
:1044E000CD494FF0000BCCF6CC490DF1180A00BFB6
:1044F000A2FB09561409F50802F00F0705EB850C1D
:1045000025460A2B04BFF508A2EB4C0718F80770E4
:10451000002D0AF80B7049D0A5FB097C04F00F07A9
:10452000140ACE464FEADC06A14606EB86060A2BA5
:1045300004BF4FEADC09A5EB460718F807500AEB61
:104540000B0CB9F1000F59468CF8015032D0A9FB81
:104550000E5604F00F05140B5146F708A24607EB60
:1045600087070A2B04BF4FEAD60AA9EB470518F8BC
:104570000550BAF1000F8CF802501FD0AAFB0E565E
:1045800004F00F04120CF50805EB85050A2B04BF97
:10459000F208AAEB450418F80440F1460BF1040BAD
:1045A000002A8A468CF80340A2D109E00BF1010BE6
:1045B00006E000BF0BF1020B02E000BF0BF1030BA2
:1045C000DDF810A0DDE90251DDE913490DE000BF7F
:1045D0002B270097002501270197002A7FF466AF5B
:1045E00030228DF818204FF0010BDDF814E0CB4598
:1045F0004B46C8BF5B4611F0110FA4EB03025FD01E
:1046000006462DB976453CBF00983070013A013618
:10461000C80631D4551EC0F28D8012F0030700F099
:104620009580764538BF86F800A0012F06F101007D
:1046300040F09680023A0646032DC0F08B80101D94
:10464000764506F1010238BF86F800A0724538BFF2
:1046500082F800A0B21C724538BF82F800A0F21C9C
:104660007245A0F1040038BF82F800A0032806F1CB
:104670000406E5DC4FF0FF323046CB455EDAA3EBB3
:104680000B076FEA0B0617F0030703EB060C57D076
:1046900070453CBF302404705D1E012F00F1010401
:1046A00009D07445A3F102053CBF30262670022FC5
:1046B00000F102046CD12046BCF1030F73D28BE0F1
:1046C0000027002AC8BF0127019E3740D71B7A1E4A
:1046D00096DB17F0030C51D070453CBF20240470CA
:1046E000BCF1010F00F1010640F00481023F3046A9
:1046F000032A46D33A1D2026704500F1010738BF32
:104700000670774538BF3E70871C774538BF3E70CE
:10471000C71C7745A2F1040238BF3E70032A00F19E
:104720000400E9DC4FF0FF320646002D3FF46AAF8B
:104730006EE700BF30462A46CB45A0DB04464BE07F
:104740001D46BCF1030F2ED246E000BF2A46032DC2
:10475000BFF475AF4FF0FF32CB45FFF690AFEDE7FA
:10476000704538BF80F800A0022F06F1020040F02B
:10477000D180033A0646032DECD360E71746032A9F
:10478000B8D24FF0FF32002D3FF43CAF40E700BFFE
:1047900003307445A3F103053CBF30232370044666
:1047A000BCF1030F18D33023044600BF744504F155
:1047B000010038BF2370704538BF0370A01C7045DE
:1047C00038BF0370E01C7045A5F1040538BF0370C5
:1047D000AB4504F10404E9DBB9F1000F35D006A8BC
:1047E000023807E0ABF1040B0BF10403042B04F1D6
:1047F00004042AD9744503D200EB0B035B782370C1
:10480000BBF1020F04F101031EDB73453CBF10F83E
:104810000B701F70BBF1030F04F1020314D3734537
:1048200004D200EB0B0717F8017C1F70BBF1040FDB
:1048300004F1030308D37345D4D200EB0B0717F838
:10484000027C1F70CEE700BF1C46012A12DB12F06B
:104850000307A2F1010311D074453CBF2020207052
:10486000012F04F101000DD11A460446032B3ED35B
:1048700022E000BF20460AB0BDE8F08F032B36D3FC
:104880001AE000BF7045A2F102063CBF202505706A
:10489000022F04F1020005D132460446032B26D331
:1048A0000AE000BF03347045A2F103023CBF202799
:1048B00007702046032B1AD3013A2023204600BF5D
:1048C000704500F1010738BF0370774538BF3B7072
:1048D000871C774538BF3B70C71C7745A2F104029F
:1048E00038BF3B7012F1020F00F10400E8D30AB0A8
:1048F000BDE8F08F76453CBF20243470BCF1020F38
:1049000000F1020612D1033F3046032AFFF439AF0B
:10491000F0E600BF0336704538BF80F800A0043AC7
:104920003046032DBFF48BAE14E700BF764503D2AB
:104930002C462025357025460330043F0646032AC1
:10494000BFF4D8AE1DE700BF3031323334353637CF
:1049500038396162636465660000000030313233CB
:10496000343536373839414243444546000000006B
:10497000B0B501FB00F4204600F0E8FB054620B18D
:1049800028460021224600F01DFD2846B0BD00004B
:10499000B0B547F2642447F25C20C0F60004C0F6CC
:1049A0000000A04228BFB0BD47F25C25C0F600055C
:1049B00055F8040B8047A542FAD3B0BD80B5FBF78C
:1049C00003FC40F27011C2F200014A8801324A80B1
:1049D000BDE88040FBF7FCBBB0B5FBF7F5FB40F250
:1049E0007015C2F2000569880446481E01B200290C
:1049F000688005DD2046BDE8B040FBF7E9BB00BF9D
:104A0000002068802046FBF7E3FB6868002808BFA9
:104A1000B0BDFBF7D9FB698804460029EAD1A86834
:104A2000FEF752F9421E44F26000C2F2000050F854
:104A300032106868A1F114038342DBD02A7043F678
:104A4000D8726B60C2F2000212781C3001F10801CA
:104A500032B1FBF7C0FB2046BDE8B040FBF7B8BB66
:104A6000FBF7B9FB2046BDE8B040FBF7B1BB000047
:104A70002DE9F041002857D040F23817C2F2000764
:104A800004467868A0424FD8B868A04298BFBDE8F5
:104A9000F08107F1180840464FF0FF31A4F10C06F1
:104AA00000F090FE34F80A0C18B13088B0F5F55FCC
:104AB0000AD025A000F030FB34F80A2C34F80C3C66
:104AC00028A0314600F028FB4FF4F55044F80C0CB8
:104AD000D7F80CC066453CBFFE60B44654F8082CBD
:104AE00078683D691318F11A294439610FD0598843
:104AF00069B9B9688B420AD09C4504BFFE60B446D0
:104B00005A6844F8082C5968331A01448B6054F8E9
:104B1000043CC518B54201D0698839B14046BDE8AA
:104B2000F04100F025BE00BFBDE8F081B44508BFEC
:104B3000FD606A6054F8081C084483604046BDE884
:104B4000F04100F015BE00BF746F206672656520ED
:104B50006120626164206461746120626C6F636BC8
:104B60003A0A00006D656D3A203078253038782C8F
:104B7000207573656420666C61673A2025642C207B
:104B80006D6167696320636F64653A203078253012
:104B900034780A0040F2D430C2F2000070470000BE
:104BA00040F2D430C2F2000000F5705070470000AF
:104BB00010B5FCF703F8FDF765FEFDF78DFEFCF779
:104BC00087F944F6D351C1F26201A0FB01018809C3
:104BD000FCF786FBFFF7DCFEFFF7DCFF0446FFF780
:104BE000DFFF01462046BDE8104000F01BBF00007B
:104BF00080B540F2A810C2F2000000680168890682
:104C000006D40A2001F04AF9FF20C0B280BD00BFDF
:104C10004068C0B280BD0000F0B581B004460D20F0
:104C20008DF8030040F2A810C2F20000002180F8C5
:104C30004010204600F09AFEE0B140F2A81605466A
:104C4000C2F200060DF103070AE000BF304621461C
:104C500001220123FCF72AFF013D04F1010409D0E0
:104C600020780A28F2D13046394601220123FCF788
:104C70001DFFEBE701B0F0BD10B540F2D031C2F23C
:104C800000010968044621B120468847002808BF72
:104C900010BD216C47F2C800C0F6000000F03CFADD
:104CA000616A47F28700C0F6000000F035FAA16A99
:104CB00047F29400C0F6000000F02EFAE16A47F2D5
:104CC000A100C0F6000000F027FA216B47F2AE0009
:104CD000C0F6000000F020FA616847F2BB00C0F6A1
:104CE000000000F019FAA168C4A000F015FAE1680C
:104CF000C6A000F011FA2169C8A000F00DFA6169A0
:104D0000CAA000F009FAA169CCA000F005FAE16997
:104D1000CEA000F001FA216AD0A000F0FDF9616B8D
:104D2000D2A000F0F9F9A16BD4A000F0F5F9E16B85
:104D3000D6A000F0F1F92078400707D446F6E170DC
:104D4000C0F6000000F0E8F90BE000BF01F0D2F877
:104D5000014646F6FB70C0F6000000F0DDF9FEF7F4
:104D600047FC4EF62954CEF20004D4F80300800725
:104D700005D547F26500C0F6000000F0CDF9D4F883
:104D80000300400040F1F880207830B347F239004A
:104D9000C0F6000000F0C0F9217847F24C10C0F6D0
:104DA000000000F0B9F92078C00745D120788007CD
:104DB0004BD42078400751D42078000757D420786E
:104DC000C0065DD494F90000B0F1FF3F60DD47F20A
:104DD000D300C0F6000000F09FF914F8010C002881
:104DE00000F0958047F21800C0F6000000F094F93A
:104DF00014F8011C47F26210C0F6000000F08CF9B4
:104E000014F8010CC00751D114F8010C800757D4D5
:104E100014F8010C00075DD414F8010CC00663D42B
:104E200014F9010CB0F1FF3F69DD47F2D300C0F681
:104E3000000000F071F96AE047F23710C0F6000098
:104E400000F06AF920788007B3D547F22C10C0F63D
:104E5000000000F061F920784007ADD547F22A1034
:104E6000C0F6000000F058F920780007A7D547F2F7
:104E70002010C0F6000000F04FF92078C006A1D540
:104E800086A000F049F994F90000B0F1FF3F9EDCE4
:104E9000D4F80F1047F24500C0F6000000F03CF9CE
:104EA00014F8010C00289DD131E000BF47F2FB004F
:104EB000C0F6000000F030F914F8010C8007A7D507
:104EC00047F2F100C0F6000000F026F914F8010CDA
:104ED0000007A1D547F21F10C0F6000000F01CF932
:104EE00014F8010CC0069BD547F21610C0F600005E
:104EF00000F012F914F9010CB0F1FF3F95DCD4F881
:104F00000B1047F25500C0F6000000F005F9B4F8A8
:104F1000010088B347F22B00C0F6000000F0FCF857
:104F2000B4F8011047F27810C0F6000000F0F4F871
:104F3000B4F80100C0072DD1B4F80100800733D4C4
:104F4000B4F80100400739D4B4F8010000073FD499
:104F5000B4F80100C00545D4B4F80100800505D5BA
:104F600047F20510C0F6000000F0D6F847F2D30073
:104F7000C0F6000000F0D0F8D4F80300B0F1FF3F15
:104F800006DC47F27A00C0F6000000F0C5F800BF6A
:104F9000FEE700BF47F24010C0F6000000F0BCF88A
:104FA000B4F801008007CBD547F2E700C0F6000057
:104FB00000F0B2F8B4F801004007C5D547F2D500BB
:104FC000C0F6000000F0A8F8B4F801000007BFD553
:104FD00047F21010C0F6000000F09EF8B4F801008F
:104FE000C005B9D547F2DC00C0F6000000F094F827
:104FF000B4F801008005B3D4B8E700BF7230353A89
:10500000203078253038780A000000007230363AB7
:10501000203078253038780A000000007230373AA6
:10502000203078253038780A000000007230383A95
:10503000203078253038780A000000007230393A84
:10504000203078253038780A000000007231303A7C
:10505000203078253038780A000000007231313A6B
:10506000203078253038780A000000007231323A5A
:10507000203078253038780A00000000206C723A21
:10508000203078253038780A000000002070633A1C
:10509000203078253038780A0000000053544B4502
:1050A0005252200004324BF6EF6C22F00702CDF68C
:1050B000AD6C42F840CDC2E901CCC2E903CCC2E9F3
:1050C00005CCC2E907C100214FF0807CC2E90D3058
:1050D0001046C2E90911C2E90B11C2F83CC0704781
:1050E00080B5FBF771F843F6D871C2F200010A7877
:1050F00001320A70BDE88040FBF76AB880B5FBF763
:1051000063F843F6D871C2F200010A78013A0A70D6
:10511000BDE88040FBF75CB883B010B581B043F6C2
:10512000E074844603A8C2F200040EC003AB20461C
:105130007F216246009301F09FF92046FFF76CFD46
:1051400001B0BDE8104003B0704700002DE9F04306
:1051500081B000286BD040F23819C2F20009033048
:10516000D9F8001020F003078F4260D809F1180821
:1051700040464FF0FF310C2F98BF0C2700F022FB68
:10518000D9F80CE0D9E900C1AEEB0103ACEB0704A0
:10519000A34249D2CE187288706822B903F10C027A
:1051A000851ABD4248D2A0423ED20E18728873685A
:1051B00022B900F10C029D1ABD4216D2A34233D28D
:1051C000CE187288706822B903F10C02851ABD42AC
:1051D00032D2A04228D20E1872887368002AD7D122
:1051E00000F10C029D1ABD42D2D30446184607F1C5
:1051F00018039D4225D33A4407F10C038D184FF450
:10520000F5578F50C5E901047260686801240CF1FC
:105210000C07B84274801CBF08448260D9E90402BC
:105220001844824214E000BF404600F0A1FA00207A
:1052300001B0BDE8F08300BF1C4607F118039D4292
:10524000D9D201227280D9E90423001B1044834281
:10525000C9F8100038BFC9F814004FF4F55076456E
:10526000308030D1BEF8020068B3D9F808209645E6
:1052700029D0DEF8040001EB000EBEF80200002881
:1052800018BF96451DD0DEF8040001EB000EBEF8F5
:105290000200002818BF964513D0DEF8040001EB89
:1052A000000EBEF80200002818BF964509D0DEF8AF
:1052B000040001EB000EBEF80200002818BF96455E
:1052C000D7D1C9F80CE0404600F052FA06F10C00C4
:1052D00001B0BDE8F0830000B0B5814214D28B1854
:1052E000834211D9002A47D000EB020E12F00301CD
:1052F000A2F1010C4FD013F8014D01290EF8014D18
:105300003CD1624647E000BFB2B312F00304A2F101
:10531000010C09D08E461EF8015B0346012C03F8F0
:10532000015B05D1624613E08E46034610E000BFE4
:105330004B78022C437005D1023A01F1020E831C16
:1053400006E000BF01F1030E8978033AC31C8170A7
:10535000BCF1030F38BFB0BDAEF10401043B00BF88
:1053600011F8045F043A03F8045F4D785D708D789E
:105370009D70CD78DD70F3D1B0BD00BF13F8014D45
:1053800002290EF8014D01D1023A04E013F8011D83
:10539000033A0EF8011DBCF1030FEDD3AEF1040189
:1053A000023B00BF5C78043ACC701C788C7013F818
:1053B000014C4C7013F8024CA3F1040301F80449AA
:1053C000F0D1D9E770B5042A06461BD316F00300C6
:1053D00018D1C8B24FF00133102A00FB03F313D3E6
:1053E000A2F1100C012000EB1C1010F003000DD0F6
:1053F0000128C6E90033B360F36009D106F110005B
:10540000624616E0304650E030462EE0304610E06E
:105410000228C6E90433B361F36103D106F1200029
:10542000203A06E006F13000303AC6E90833C6E912
:105430000A33BCF1300F16D300F14004403AC0E902
:105440000033C0E90233C0E90433C0E90633C0E9E0
:105450000833C0E90A33C0E90C33C0E90E330F2A20
:105460002046E9D82046042A1FD30446151F042DE0
:1054700040F8043B18D3A2F10805042D63600DD356
:10548000A2F10C05042DA3600CD304F11000103A16
:10549000E360032A0446E9D807E000BF04F10800EE
:1054A00002E000BF04F10C002A4622B1CBB2114643
:1054B0001A46FAF76DFF304670BD00002DE9F04145
:1054C000884640F2A801C2F200010A7805468242ED
:1054D0000F460AD00F4617F8100FA84205D011F852
:1054E000200FA84218BF00210F46F868FFF72EFED4
:1054F0000646C0B1FA68304600210024FFF762FF7B
:105500003046414608223572747200F047FAFAF7C5
:105510005BFE57F8041F324642F80C1F4A603A609F
:105520005760FAF755FE3046BDE8F08110B50446E5
:1055300000202072FAF748FE2246216952F80C3FFB
:105540005960216922610B601260FAF741FE204622
:10555000BDE81040FFF78CBA10B504460020207259
:10556000FAF732FE54F80C1F62684A6062681160F4
:10557000C4E90044BDE81040FAF72ABE40F2A80290
:10558000C2F200021178814211460AD0114611F888
:10559000103F834205D012F8201F814218BF00221D
:1055A0001146084670470000F0B581B00E4640F243
:1055B000A801C2F2000115460A780446B2420F461D
:1055C0000AD00F4617F8100FB04205D011F8200F7F
:1055D000B04218BF00210F46FFF7F0F904373846F4
:1055E0000068B84208D00068B84205D00068B842E8
:1055F00002D00068B842F3D1FFF7EEF946F0800020
:10560000207220462946082200F0C8F9FAF7DCFD8E
:10561000396844F80C1F4C603C60676001B0BDE81D
:10562000F040FAF7D5BD0000007AC00970470000CD
:10563000B0B5FAF7C9FD40F27015C2F200056988ED
:10564000044629B12046BDE8B040FAF7C1BD00BF0D
:10565000A868FDF739FB44F260010138C2F200018D
:1056600051F830106A68A1F114039342EAD028700F
:1056700043F6D8706B60C2F20000037802F11C00A0
:1056800001F1080133B1FAF7A6FD2046BDE8B040AC
:10569000FAF79EBDFAF79FFD2046BDE8B040FAF745
:1056A00097BD000010B50446FAF78EFD94F834104B
:1056B00094F8352001F0F001013184F8341044F2FF
:1056C0006001C2F2000101EBC2014A6840F2701CA5
:1056D00004F11403C2F2000C1360A2614B60A26BD0
:1056E000DCF80830616143EA0201CCF80810BDE83B
:1056F0001040FAF76DBD0000B0B50546FAF764FD3D
:10570000294651F8142F4B6853604B6849601A6062
:1057100091F8212044F260030960C2F2000353F8BB
:10572000324003EBC202944204D0BDE8B040FAF725
:105730004FBD00BF40F27012C2F20002A96B936825
:1057400023EA01019160BDE8B040FAF741BD0000D5
:1057500070B515460A4602211C460646FFF724FF8F
:1057600006F11400C6E905000020B583747270BD0F
:10577000B0B50546FAF728FD2A4652F8141F04462C
:1057800091420BD0A1F1140000F090FB2046FAF7F3
:105790001FFDFFF74DFF0020B0BD00BFA88B4FF6E7
:1057A000FF71884206D12046FAF712FD6FF0020021
:1057B000B0BD00BF0130A8832046FAF709FD0020E4
:1057C000B0BD00002DE9F04381B00E4607460091C0
:1057D000FAF7FAFCB98B804641B1481EB8834046BF
:1057E000FAF7F6FC002001B0BDE8F083D6B300F074
:1057F00081FB0546002028637C7A284607F11409BE
:1058000000F0E8FBB4B3012C3CD1484600684845A1
:1058100030D095F8351090F8212091421AD30068C5
:10582000484527D095F8351090F82120914211D3A2
:10583000006848451ED095F8351090F82120914217
:1058400008D30068484515D095F8351090F8212008
:105850009142DBD2416805F114020A60A9614260FD
:1058600068610FE04046FAF7B3FC6FF0010001B049
:10587000BDE8F083B86905F114010160A861B96160
:10588000C5F81490012E09DB05F144066A4630463E
:10589000002100F005FD304600F068FD4046FAF7B3
:1058A00097FCFFF7C5FE286B002808BF002001B059
:1058B000BDE8F08380B582B00AA0FFF72DFC0CA0F4
:1058C000FFF72AFC0FF24C0C15A00321012205233F
:1058D000CDF800C0FFF720FC19A002B0BDE8804061
:1058E000FFF71ABC0A205C207C202F0A0000000071
:1058F0002D205254202D20202020205468726561D4
:1059000064204F7065726174696E67205379737497
:10591000656D0A004A616E20203920323032340031
:10592000202F207C205C202020202025642E256430
:105930002E2564206275696C642025730A000000BE
:105940002032303036202D203230323020436F70FC
:105950007972696768742062792072742D74687234
:10596000656164207465616D0A000000014600BF36
:105970000A7862B14A784AB18A785AB1CA78043151
:10598000002AF5D10139081A704700BF0131081A01
:10599000704700BF0231081A704700002DE9F0413E
:1059A0008046DAB3C2F1000C00234446CF5C08F80D
:1059B0000370DFB10CEB0306771C2FD2CF18787879
:1059C00008EB03056870A8B1B01C27D0B878A870A0
:1059D000B0B1F01C22D0F878E870D8B104330434A8
:1059E0001CEB0300A2F10402E0D117E0601C511E81
:1059F0000AD113E0A01C013A511E05D10EE000BFF0
:105A0000E01C023A511E09D0FAF7CAFC4046BDE834
:105A1000F08100BF033A281D511EF5D14046BDE874
:105A2000F081000021F003038C46192B014631D38D
:105A3000C81C20F00300A3F1180282422AD310B53B
:105A4000191A40F23814A1F11802C2F20004C4E994
:105A500000204FF4F5520C394FF0000CC0E9002142
:105A6000C0F808C041F6A060C0F201001A4642F832
:105A70000C0D43F8081C2068A2600C3043F8040C9D
:105A800004F1180005A101220023FFF761FE606800
:105A9000E06010BD03A06246FFF73EBB6865617021
:105AA000000000006D656D20696E69742C206572C0
:105AB000726F7220626567696E20616464726573DB
:105AC0007320307825782C20616E6420656E642008
:105AD0006164647265737320307825780A00000071
