:020000040800F2
:1000000078070020CD010008BD260008B1220008B5
:10001000B9260008190B0008DD26000800000000C2
:10002000000000000000000000000000C5260008DD
:100030001D0B000800000000C1260008C9260008AA
:10004000E7010008E7010008E7010008E7010008F0
:10005000E7010008E7010008E7010008E7010008E0
:10006000E7010008E7010008E7010008E7010008D0
:10007000E7010008E7010008E7010008E7010008C0
:10008000E7010008E7010008E7010008E7010008B0
:10009000E7010008E7010008E7010008E7010008A0
:1000A000E7010008E7010008E7010008E701000890
:1000B000D1260008E7010008E7010008E701000871
:1000C000E7010008E7010008E7010008E701000870
:1000D000E7010008E7010008E7010008E701000860
:1000E000E7010008E7010008E701000800F002F856
:1000F00000F05DF814A696E8000CB244B344DA456B
:1001000001D100F054F8BAE80F000FA696E83000CD
:10011000A5EB040504EB0607AAEB0704A7F101070A
:100120004FEA15154FEA3414A4F10104AC4201D38F
:1001300000F03DF813F0010F18BFFB1A43F0010364
:1001400000F001F8DBE718471037000030370000F7
:10015000103A24BF78C878C1FAD8520724BF30C8F3
:1001600030C144BF04680C60704700007047000055
:100170000023002400250026103A28BF78C1FBD8B0
:10018000520728BF30C148BF0B607047662903F093
:10019000E682002070471FB500F048FB04000020F5
:1001A000002102F0DFFEE0601FBD10B510BD00F0C1
:1001B0003DFC1146FFF7EFFF02F092FA00F05BFC06
:1001C00003B4FFF7F2FF03BC00F09EFC0948804730
:1001D00009480047FEE7FEE7FEE7FEE7FEE7FEE729
:1001E000FEE7FEE7FEE7FEE704480549054A064B41
:1001F00070470000CD260008ED00000878010020BF
:100200007807002078030020780300200FB41CB585
:10021000074B06AA7B4469460090059800F0EDFA6A
:100220000020694600F0FCFA1CBC5DF814FB0000DD
:10023000090600002DE9F0474FF0000A8946044600
:10024000C0F820A02046E1688847002876D02528FD
:1002500006D0D4E901219047206A401C2062F1E7D2
:10026000E168204600258847C4F81CA00646002700
:10027000C4F818A02A2E09D0304602F06BFE38B31D
:1002800004EB8708303EC8F8186019E059F8041BE1
:10029000204604EB87029161E1688847012F0646FA
:1002A00018D1E069002820DA25F020051DE0D8F8F3
:1002B000180000EB800006EB40003038C8F818004A
:1002C0002046E1688847064602F044FE0028EED149
:1002D000012F0AD02E2E08D12046E16888477F1CC6
:1002E0000646022F45F02005C4DBA069002803DA8A
:1002F000404245F00105A061E80701D025F0100556
:10030000B6B1A6F14100192802D8203645F400659F
:100310004A463146204625604D46FFF737FF58B123
:10032000012806D0ED1D25F0070000F1080989E736
:1003300004E005F1040985E730468AE7206ABDE854
:10034000F08710B5431C02E010F8011B71B1810762
:10035000FAD14FF0013202C88C1A8C4314EAC21150
:10036000F9D0C01A0A0603D0C01E10BDC01A10BDB5
:100370000A0401D0801E10BD0902FCD0401E10BD31
:100380004FF0000200B5134694469646203922BF2E
:10039000A0E80C50A0E80C50B1F12001BFF4F7AF79
:1003A000090728BFA0E80C5048BF0CC05DF804EB5B
:1003B000890028BF40F8042B08BF704748BF20F8C9
:1003C000022B11F0804F18BF00F8012B70477047C7
:1003D000704770472DE9FF4F0C461E464FF0FF3720
:1003E0008BB0D2E90001DDF860800A908A46C1F343
:1003F0000A5505B93D46002108464FF00000BAF104
:10040000000F00F4400005DA00EB80004FF44001DB
:1004100001EA50004FEA9059B9F1010F00DDB946E9
:100420000A9850EA4A000ED044F61050A5F2FF3563
:1004300045432F14B8F1000F1ED07542291E1EDD52
:10044000C9F100021CE0B8F1010F4FF0000001D02B
:10045000302103E0F24305E02154401CB042FBDBB5
:1004600030460022002121540B99C1F80880C1E9CF
:1004700000200FB0BDE8F08FBD1B6D1CDEE74A46C3
:1004800000DA694206A800F05BFA06AB93E80700C1
:1004900003AB83E8070050460A9902F07FF98DE824
:1004A0000700A0F500501F3800900398002D0ADDCA
:1004B00042F21F014A460844002303A903906846FC
:1004C00002F0E8FB09E0A0F500504A461F3800237F
:1004D00003A90390684602F0F2FB8DE807000004D0
:1004E000000C03D04FF0FF30410800E01046B8F197
:1004F000000F03D00022009215461EE0751E05D4A1
:1005000000F098F9303262556D1EF9D5B3460122DC
:10051000084302D000227F1C04E02078302801D15B
:1005200000227F1E002A099784D01DE0112D07DAD2
:1005300000F080F9303262556D1C50EA0102F5D1AD
:10054000084302D00098C8B10EE00021681E05E003
:10055000235C625C63542254401E491C8142F7DBD9
:10056000AB46A81B401E0990002004F80B000B9816
:10057000099AC0F80880C0E9002B7AE711264FF0ED
:10058000000857E72DE9F04F88460446D21D22F0B7
:10059000070191B0D1E90001CDE90A0102F0C6FCE2
:1005A00002460B98C00F01D02D2007E0206881077C
:1005B00001D52B2002E0202101EAC000032A099086
:1005C00001D0072A05DB03464146204600F078F9B2
:1005D0000BE12078800601D5E06900E00620B8F143
:1005E000650F814606D0B8F1660F18D0B8F1670FD5
:1005F00070D131E00020B9F1110F009001DB11231F
:1006000001E009F101030AAA01A90CA8FFF7E2FE23
:10061000DDE90C70002609F10105834647E0012061
:100620004B4600904FF000470AAA01A90CA8FFF71B
:10063000D1FEDDE90DB00C995D46002610B909F137
:1006400001000D18B9EB050003D4C0F1FF3609F124
:100650000105A5EB09002BE0B9F1010F01DA4FF01C
:1006600001090020B9F1110F0090484601DD112366
:1006700000E003460AAA01A90CA8FFF7ABFEDDE9DA
:100680000C704D4600268346207800070AD4AB45FF
:1006900000DA5D4601A8012D04DD411911F8011CA5
:1006A000302907D04F4502DA17F1040F04DA012090
:1006B00082460FE06D1EEEE7002F02DCED1B3E448C
:1006C00003E0781CA84200DD7D1CB81B00F1010A84
:1006D0004FF000472078000703D4AA4501DB4FF014
:1006E000FF3A0021B7F1004F0DF143088DF8431098
:1006F00024D002202B23002F01DA7F422D230A2150
:10070000021EA0F1010000DC5FB197FBF1FC97FB3A
:10071000F1F201FB1C7C17460CF1300C08F801CDFE
:10072000EEE7A8F1010003702188090501D54521F4
:1007300000E06521A0F1010800F8011C09980FA94B
:10074000A1EB0807FF1D00B10120411901EBEA7080
:10075000A1693844081A401EA0612078C00602D45E
:100760002046AFF30080099828B1D4E901219047D1
:10077000206A401C20622078C00622D52046AFF3B4
:1007800000801EE0002E04DBB34502DD01A8805D81
:1007900000E03020D4E901219047206A401C20620B
:1007A000761CAAF101005FEA000A0AD100F03EF8C7
:1007B000C0680168405CD4E901219047206A401C70
:1007C0002062281EA5F10105DCDC07E0D4E9012147
:1007D00018F8010B9047206A401C2062381EA7F1D0
:1007E0000107F3DC2046AFF30080032011B041E69F
:1007F00001694A1C02610878704700B58FB0CDE9E5
:1008000001310021059105497944CDE903101146D4
:100810006846FFF70FFD0FB000BD0000E5FFFFFFCA
:100820000A6802F8010B0A60704700000048704730
:100830003000002030B5B0F10A0271F100034FEA38
:10084000900E4EEA817EB0EB0E0061EB91014FEA13
:10085000101E4EEA017E10EB0E0041EB11114FEA23
:10086000102E4EEA016E10EB0E0041EB11214FEA03
:10087000104E4EEA014E10EB0E0041EB11414018B4
:1008800041F100014FEAD00040EA41704FEAD10146
:100890004FEA810444EA907410EB800544EB0104B4
:1008A0006D1944EB0404521BA3414FF0000348BFF1
:1008B0000A3200D530BD401C41F1000130BD0000BE
:1008C0002DE9F0411F46044603260168072A01F47A
:1008D000006004DB08B116A505E016A503E008B129
:1008E00015A500E015A521F010002060A069C01E2C
:1008F000A0610FB1401EA0612046AFF300804FB150
:10090000D4E9012138469047206A401C2062C01C6F
:10091000206206E0206AFAE7D4E9012115F8010B0C
:100920009047761EF8D22046AFF30080BDE8F081F4
:100930004E414E006E616E00494E4600696E660083
:100940002DE9F047814616468AB0354878440DC8EF
:100950008DE80D0032487844801C03AC0DC884E853
:100960000D0041F69B300844372190FBF1F290FBDB
:10097000F1F5A5F1800501FB12041B3C02D5644290
:10098000012000E00020DFF898A080460027FA440C
:10099000AAF1BE0A0EE0E0070AD03246684607EB2D
:1009A000470101230AEB810102F089F98DE8070074
:1009B00064107F1C002CEED1194F7F44AE3F19E02C
:1009C000E80715D007EB04100DF1180A90E80E00A7
:1009D0008AE80E00C068F04201D1981908903246AA
:1009E000012306A903A802F06AF903AB83E8070014
:1009F0006D10641C002DE3D14FF0010332466946AF
:100A0000B8F1000F03A802D002F044F901E002F0AF
:100A100056F9C9E90001C9F808200AB0BDE8F08715
:100A2000902E000000487047100000207546FFF728
:100A3000F9FFAE4605006946534620F0070085469B
:100A400018B020B5FFF7D0FBBDE820404FF00006FE
:100A50004FF000074FF000084FF0000BAC46ACE839
:100A6000C009ACE8C009ACE8C009ACE8C00921F095
:100A700007018D46704710B50446AFF3008020464D
:100A8000BDE81040FFF79CBB4FF0013C50F8042B31
:100A900051F8043B9A4221D1A2EB0C03934313EA91
:100AA000CC1317D150F8042B51F8043B9A4215D1BE
:100AB000A2EB0C03934313EACC130BD150F8042B95
:100AC00051F8043B9A4209D1A2EB0C03934313EA79
:100AD000CC13DBD04FF00000704700BFD01A01BA32
:100AE000B1FA81F101F0180122FA01F0CB40DBB23A
:100AF000C0B2C01AC1F120012CFA01F3D11A9143FE
:100B000011EAC311E6D1704701491820ABBEFEE7D8
:100B10002600020070470000FEE70000704700005A
:100B2000EFF3108072B600BFFEE70000B0B50446D8
:100B300000F01EF9054640F20000C2F20000007805
:100B4000611C18BF044400BF00F012F9401BA04212
:100B5000FAD3B0BD2DE9F04F82B00E68002E00F040
:100B6000FD8041F20042C4F20102042340F2004E33
:100B7000904208BF03234FF6FF7CC4F2010E00939E
:100B800000240123C1F2100C4FF0000A4FF00009BD
:100B900044E000BF012704F00C030F229A402BEA27
:100BA000020207FA03F34FEA9A051A4346F8252092
:100BB0004E6840F20C45F202DEF8082054BF22EAEB
:100BC000080242EA0802C4F20105CEF808202A68A9
:100BD000B30254BF22EA080242EA08022A60B303C1
:100BE000DEF8042054BF22EA080242EA0802F303B6
:100BF000CEF80420DEF800204FF0010354BF22EAB3
:100C0000080242EA0802CEF800200E680AF1010A42
:100C100036FA0AF204F1040400F0A08003FA0AFB99
:100C200016EA0B08F1D04E68664511DC122E55D835
:100C3000DFE806F0340A444854545454545454548D
:100C400054545454544C5000D1F80C9046E000BF1A
:100C50004FF6FF72C1F2210296420FDC0022C1F270
:100C6000110296421AD00022C1F21202964215D009
:100C70000022C1F22102964210D02FE00022C1F2E0
:100C8000220296420AD00022C1F23102964205D0D9
:100C90000022C1F23202964220D100BF8A684AB1D6
:100CA000012A14BFC0F814B0C0F810B04FF0080902
:100CB00014E000BF4FF0040910E000BFCA6802F161
:100CC00008090BE04FF0000908E000BFCA6802F114
:100CD000040903E0CA6802F10C0900BF2246064677
:100CE000B8F5807F24BF203A043637680F25954039
:100CF00027EA050509FA02F22A433260CA79D206C8
:100D00007FF583AF41F21803C4F202031A68AEF50F
:100D10007E7642F001021A601A6802F00102019226
:100D2000019A2AF0030256F802B040F60002C4F21B
:100D30000102904210D040F60042C4F201029042FB
:100D40003FF428AF41F20002C4F20102009F90423A
:100D500008BF02271FE700BF00271CE702B0BDE85D
:100D6000F08F0000002A08BF0904016170470000ED
:100D700040F27010C2F200000068704740F20000BC
:100D800040F27011C2F20000C2F2000100780A685D
:100D9000104408607047000080B542F20000C4F2C1
:100DA0000200016841F010010160032000F084F8A6
:100DB0000F2000F005F800F027F8002080BD0000AB
:100DC00070B540F20006C2F2000640F20801327827
:100DD000C2F200014FF47A730968B3FBF2F20446E1
:100DE000B1FBF2F1084600F081FB0F2C4FF001053A
:100DF00008D838B94FF0FF3021460022002500F016
:100E00002FF87460284670BD82B041F21800C4F219
:100E10000200016841F001010160016801F0010177
:100E200001910199416841F080514160406800F0B2
:100E300080500090009802B070470000002848BF22
:100E4000704700F01F01012202FA01F11C2202EAA0
:100E5000D0004EF20012CEF2000281507047000026
:100E600010B54EF60C5CCEF2000CDCF80030C3F38B
:100E7000022E8EF00704042C28BF0424BEF10303C5
:100E80004FF0FF3E0EFA04F438BF0023A14399400F
:100E90000EFA03F39A43114300F00F0200F160438E
:100EA0000901043A03F564436244002848BF02F193
:100EB0000C03197010BD00004EF60C51CEF200016B
:100EC0000A684FF6FF031A4060F30A2242F080607E
:100ED00040F0FD7008607047002804BF0120704793
:100EE0002DE9F04381B042F20008C4F20208044642
:100EF000D8F800000D4600F0070088420CD2D8F860
:100F0000000020F007002843C8F80000D8F80000CF
:100F100000F00700A8426CD1206841F20409810763
:100F2000C4F2020917D5410705D5D9F8001041F4DC
:100F3000E061C9F80010010705D5D9F8001041F4A7
:100F40006051C9F80010D9F80010A26821F0F00132
:100F50001143C9F80010C00742D1D8F8000000F0D2
:100F60000700A8420CD9D8F8000020F00700284359
:100F7000C8F80000D8F8000000F00700A84238D1F7
:100F80002068410707D5D9F80010E26821F4E06134
:100F90001143C9F80010000708D5D9F800002169ED
:100FA00020F4605040EAC100C9F80000D9F80020E0
:100FB00002F00C00082841F20020C0F27A0051D162
:100FC00043F63403C2F38341C0F60003595CD203F5
:100FD0003CD440F60010C0F23D00484342E000BF60
:100FE000606802280AD001282AD159F8041C890314
:100FF00008D4012001B0BDE8F08300BF59F8041CFB
:101000008901F6D5D9F8001021F003010843C9F889
:101010000000FFF7ADFE064641F28837D9F8000020
:10102000616800F00C00B0EB810F96D0FFF7A0FED6
:10103000801BB842F2D9032001B0BDE8F08300BFA5
:1010400059F8041C8907D4D5DCE700BFD9F8002083
:1010500043F61003C2F34042C0F600039A5C4843D3
:10106000B0FBF2F0D9F8001043F2F872C1F30311AB
:10107000C0F60002515C40F2080220FA01F140F291
:101080000400C2F200000068C2F200021160FFF723
:1010900097FE002001B0BDE8F083000040F2080098
:1010A00041F20401C2F20000C4F2020100680968C2
:1010B00043F60802C1F30221C0F60002515CC840A9
:1010C0007047000040F2080041F20401C2F2000043
:1010D000C4F202010068096843F60802C1F3C221A4
:1010E000C0F60002515CC84070470000002804BFF1
:1010F000012070472DE9F04182B00446007841F2AA
:101100000006C007C4F202060CD0706800F00C00A4
:10111000042840F081803068800303D5606800288F
:1011200000F04E81207880071BD5706810F00C0FFE
:1011300009D0706800F00C00082840F08B807068BF
:10114000C00300F187803068800703D5206901283B
:1011500040F036813068616920F0F80040EAC10053
:1011600030602078000713D4207840072CD4E5693C
:10117000002D00F02081706800F00C00082840F07D
:10118000AF80012D40F00C81012002B0BDE8F0815C
:10119000A069002800F08C800020C4F242200121C8
:1011A000C0F88014FFF7E4FD054600BF706A8007B1
:1011B00000F1BA80FFF7DCFD401B0228F6D90320BE
:1011C00002B0BDE8F08100BFF0695FEAC00808D452
:1011D000F06940F08050F061F06900F080500090BC
:1011E000009847F20007C4F200073868C0054DD4E4
:1011F000386840F480703860FFF7BAFD054600BFDC
:101200003868C00542D4FFF7B3FD401B6428F7D906
:10121000032002B0BDE8F081706800F00C000828DF
:1012200003D17068C0033FF576AF6068002800F016
:101230000981B0F5A02F00F01D81B0F5803F00F0CE
:101240001D81306820F480303060306820F48020C8
:1012500017E100BF2069002840F20000C4F24220DC
:1012600000F08C8001210160FFF782FD054600BF80
:10127000306880073FF56EAFFFF77AFD401B02280C
:10128000F6D9032002B0BDE8F08100BFE068002875
:1012900000F09A80052800F0B180012800F0B280AB
:1012A000306A20F001003062306A20F00400ACE0C7
:1012B0000020C4F242200021C0F88014FFF758FD3E
:1012C000054600BF706A80077FF54EAFFFF750FDFF
:1012D000401B0228F6D9032002B0BDE8F08100BF10
:1012E0000027C4F2422700203866FFF741FD022D97
:1012F00005460DD13068800140F1D680FFF738FDFA
:10130000401B02284FF00300F4D902B0BDE8F08181
:10131000306880014FD5FFF72BFD401B02284FF0AE
:101320000300F5D9F1E700BF40F20800C2F2000067
:10133000006844F6D351C1F26201A0FB0101480AE2
:10134000019000BF00BF0198411E002801913FF4A9
:101350000BAF00BF0198411E002801913FF404AF7C
:1013600000BF0198411E002801913FF4FDAE00BF6F
:101370000198411E00280191E4D1F5E600210160A9
:10138000FFF7F6FC054600BF306880077FF5E9AE41
:10139000FFF7EEFC401B02284FF00300F4D9B4E73E
:1013A0007068216A00F480328A4209D1616A00F4CF
:1013B0007010884204D1002002B0BDE8F08100BF67
:1013C000012002B0BDE8F081306A20F001003062F7
:1013D000306A20F004003062FFF7CAFC054641F293
:1013E000883700BF306A800722D5FFF7C1FC401B59
:1013F000B8424FF00300F5D987E700BF306A40F0EC
:1014000004003062306A40F001003062FFF7B0FC47
:10141000054641F2883700BF306A800708D4FFF7DD
:10142000A7FC401BB842F7D9032002B0BDE8F08109
:10143000B8F1000F3FF59BAEF06920F08050F061ED
:1014400095E600BF306820F480303060306820F4CA
:1014500080203060FFF78CFC054600BF30688003B9
:101460007FF560AEFFF784FC401B64284FF003005B
:10147000F4D94AE7306840F480203060306840F4A6
:1014800080303060FFF774FC054600BF3068800391
:101490003FF548AEFFF76CFC401B6428F6D90320EB
:1014A00002B0BDE8F08100BF206AB0F5803F05D1F1
:1014B0007168A26821F40031114371607168626A39
:1014C00021F4741111430843706001203866FFF75E
:1014D0004FFC0446306880013FF56DAFFFF748FCD4
:1014E000001B02284FF00300F4D90EE7411E002034
:1014F000B0EB116F1CBF012070474EF21002CEF20C
:10150000000251604EF62351CEF20001F0230B7021
:10151000072190601160704770470000704700001D
:1015200090F83C20012A04BF02207047B0B501F1B9
:1015300008053CCDD1E900CE23F47C5322F470524F
:101540001A432EF4F0431A432CF4E0431A4324F4D4
:10155000C0431A432A43C96922F4804203681143F5
:101560005964002180F83C10BDE8B040084670473F
:1015700090F83C20012A4FF0020236D010B580F8D6
:101580003D200268D2F804E0D2F808C00C682EF0C2
:101590007003234340F2FF74C4F20004A24253607C
:1015A0000ADCB2F1804F13D040F20043C4F20003D2
:1015B0009A420DD011E000BF42F60043C4F201038D
:1015C0009A4205D040F60003C4F200039A4204D1C7
:1015D00049682CF08003194391600121002280F8B2
:1015E0003D1080F83C20BDE81040104670470000D8
:1015F00090F83D1001291CBF01207047022180F89E
:101600003D10006840F2FF72C168C4F200029042CF
:1016100041F00101C16009DCB0F1804F12D040F20D
:101620000041C4F2000188420CD012E042F60041B1
:10163000C4F20101884205D040F60001C4F2000165
:10164000884206D1816801F00701062904BF002005
:101650007047016841F001010160002070470000FF
:1016600000F082BE90F83C30012B04BF022070478E
:101670004FEAB202032A23D8F0B5DFE802F00327CD
:10168000476500BF0368D1E900C5D1F80CE01C6ACA
:101690001A6A40F2FF7722F001021A621A4652F8E3
:1016A000186FC4F20007BB4272DCB3F1804F7BD0ED
:1016B00040F20047C4F20007BB4275D090E000BF83
:1016C0000121002280F83C20084670470368D1E9D8
:1016D00000E6D1E902C11C6A1A6A360222F0100241
:1016E0001A621A4652F8185F4FF2FF07BE4325F4FC
:1016F000734561F30F3624F0A0040EF00A0746EAA2
:10170000050144EA071711601F623AE00768D1E952
:1017100000C5D1E902313C6A3A6A61F3071522F447
:1017200080723A623A4652F81C6F26F0F30645EA98
:1017300006014FEA5C0666F3492411603C621168B9
:1017400021F00C01116040E00368D1E900E6D1E925
:1017500002C11C6A1A6A360222F480521A621A46C0
:1017600052F81C5F4FF2FF07BE4325F4734561F347
:101770000F364FEA5E0746EA050167F34D34116004
:101780001C6211684FEA0C2321F4406111601CE0D7
:1017900042F60047C4F20107BB4205D040F60007FD
:1017A000C4F20007BB421BD126F00306354324F0E8
:1017B0000A070CF00A066EF3071537449D611F6295
:1017C0009F6927F00C079F618B68116819431160AE
:1017D0000021BDE8F040002280F83C200846704718
:1017E00046F00105E3E70000002804BF0120704730
:1017F00010B5044690F83D0028B9002084F83C005C
:10180000204600F067F8022084F83D00206840F28E
:10181000FF730268C4F2000342F6004C9842C4F21F
:10182000010C15DCB0F1804F1AD040F20041C4F237
:101830000001884214D0984218DCB0F1804F1DD0CE
:1018400040F20041C4F20001884217D01AE000BF04
:10185000604505D040F60001C4F200018842EAD19B
:10186000A16822F070020A439842E6DD604505D087
:1018700040F60001C4F20001884203D1216922F43C
:1018800040720A43A36922F08001D4F804E0E268C0
:10189000194360450160C262C0F828E002D1616965
:1018A000CCF8301001214161002084F8461084F802
:1018B0003E1084F83F1084F8401084F8411084F8FA
:1018C000421084F8431084F8441084F8451084F8DA
:1018D0003D1010BD80B586B001680020B1F1804F89
:1018E000059001D006B080BD41F21801C4F202019A
:1018F0004A6842F001024A604A6802F0010201921D
:10190000019A0A6842F004020A60096801F00401C1
:10191000019101990821CDE90210049040F60000E0
:10192000C4F2010002A9FFF715F91C2000210022D2
:10193000FFF796FA1C20FFF781FA06B080BD000081
:1019400061B1082916D0042919BF00F1410200F144
:10195000450300F13F0200F143030FE090F83E2001
:1019600090F84230012A4FF0010208BF012B1DD030
:101970001046704700F1400200F1440312781B78D2
:10198000012A4FF0010208BF012BF1D102220829E0
:1019900018D0042922D180F83F2080F843204FEA54
:1019A000B103032B4FF00102E2D821E0022280F8BC
:1019B0003E2080F842204FEAB103032B4FF0010292
:1019C000D6D815E080F8402080F844204FEAB103D3
:1019D000032B4FF00102CBD80AE000BF80F8412072
:1019E00080F845204FEAB103032B4FF00102BFD826
:1019F00043F6140C0068C0F6000C5CF823C0C36802
:101A000001F01F0143EA0C03C360036A02FA01F10B
:101A100023EA01020262026A114340F2FF72C4F239
:101A200000029042016209DCB0F1804F12D040F216
:101A30000041C4F2000188420CD010E042F600419F
:101A4000C4F20101884205D040F60001C4F2000151
:101A5000884204D1816801F00701062903D001689A
:101A600041F00101016000221046704710B5016885
:101A700004460869800744BFC8685FEA807039D4AB
:101A80000869400744BFC8685FEA40703ED40869EF
:101A9000000744BFC8685FEA007045D40869C00603
:101AA00044BFC8685FEAC0604AD40869C0071CBF69
:101AB000C8685FEAC07051D10869000644BFC868B1
:101AC0005FEA006052D40869400644BFC8685FEA14
:101AD000406053D40869800646BFC8685FEA8060EA
:101AE00010BD6FF0200220460A61BDE81040FFF7EC
:101AF00015BD00BF6FF002000861012020778869E2
:101B0000800743D02046FFF7ABFD45E06FF00400AF
:101B1000086102202077886910F4407F40D0204679
:101B2000FFF79EFD42E000BF6FF00800086104204F
:101B30002077C86980073DD02046FFF791FD3FE040
:101B40006FF01000086108202077C86910F4407F0A
:101B50003AD02046FFF784FD3CE000BF6FF0010063
:101B60000861204600F09AF92168A5E76FF080002F
:101B700008612046FFF7D0FC2168A4E76FF0400021
:101B80000861204600F0A6F92168A3E7204600F08E
:101B9000F3F8204600F080F92168002020776FE7F5
:101BA000204600F0E9F8204600F076F92168002090
:101BB00020776CE7204600F0DFF8204600F06CF953
:101BC00021680020207769E7204600F0D5F82046FC
:101BD00000F062F921680020207766E790F83C3039
:101BE000012B04BF022070474FEAB202032A31D80A
:101BF0002DE9F041DFE802F002346494026842F615
:101C00000045146A136AC4F2010523F0010313624C
:101C10005368D2F818C0AA428D68D1F800E024F0C9
:101C2000020444EA05040BD1CD68D1E9056723F429
:101C3000407324F00C0425F0040533432C433B434C
:101C40002CF0730747EA0E075360976149685163A8
:101C5000146289E00121002280F83C200846704788
:101C6000026842F60045146A136AC4F2010523F0C3
:101C7000100313625368D2F818C0AA428D68D1F8D5
:101C800000E024F0200444EA05140FD1CD68D1E926
:101C900005876FF0400624F0C00406EA05152C43C2
:101CA00023F4406347EA080543EA85032CF4E6473A
:101CB00047EA0E275360976149689163146253E0C5
:101CC000026842F60045146A136AC4F2010523F45F
:101CD000807313625368D2F81CC0AA428D68D1F891
:101CE00000E024F4007444EA05240FD1CD68D1E962
:101CF00005872D0240F2FF4624F44064B5432C438F
:101D000023F4405347EA080543EA05132CF0730710
:101D100047EA0E075360D7614968D163146223E034
:101D2000026842F60046D2F820C0136AC4F20106E7
:101D300023F4805313625368D4690D68D1F808E026
:101D4000B24204D14E6923F4804343EA861324F45B
:101D5000E64646EA05265360D6612CF400574968EA
:101D600047EA0E33116413620021BDE8F0410022FE
:101D700080F83C200846704770470000002804BFE8
:101D80000120704710B5044690F83D0028B90020A6
:101D900084F83C00204600F067F8022084F83D00FB
:101DA000206840F2FF730268C4F2000342F6004C60
:101DB0009842C4F2010C15DCB0F1804F1AD040F209
:101DC0000041C4F20001884214D0984218DCB0F1FE
:101DD000804F1DD040F20041C4F20001884217D06C
:101DE0001AE000BF604505D040F60001C4F20001D2
:101DF0008842EAD1A16822F070020A439842E6DDE7
:101E0000604505D040F60001C4F20001884203D1CC
:101E1000216922F440720A43A36922F08001D4F8B8
:101E200004E0E268194360450160C262C0F828E03E
:101E300002D16169CCF8301001214161002084F8A1
:101E4000461084F83E1084F83F1084F8401084F85F
:101E5000411084F8421084F8431084F8441084F848
:101E6000451084F83D1010BD006842F60041C4F2F0
:101E70000101884218BF704781B041F21800C4F2D6
:101E80000200016841F400610160006800F4006034
:101E90000090009801B070477047000000F0F2BA5F
:101EA0004FEAB101032984BF00207047DFE801F049
:101EB000020E060A006834300068704700683C3043
:101EC000006870470068403000687047006838302C
:101ED0000068704770470000002804BF0120704769
:101EE00010B5044690F8410028B9002084F840005D
:101EF000204600F063F8242084F841002068D4E9EB
:101F00000212C36823F40053C360036923F44053EF
:101F10001A430261D4E904231143C268194341F210
:101F20000C639A431143C1604169A26921F4407175
:101F3000114343F60002C4F201029042416103D012
:101F4000FFF7ACF802E000BFFFF7BCF8D4E90023CC
:101F5000192148439900B0FBF1F048F21F5CC5F22B
:101F6000EB1CA0FB0C314FF69C734909C0F6FF73C4
:101F700001FB0300322303EB0010A0FB0C03F02055
:101F800000EA531000EB0110C3F3431108449060C2
:101F90001069202120F490401061506920F02A003F
:101FA0005061D06840F40050D0600020606484F834
:101FB000411084F84210606310BD000070B586B017
:101FC00040F60004C4F20104006804F54051002604
:101FD0008842049602D006B070BD00BF41F21800DE
:101FE000C4F20200016802AD41F480410160016861
:101FF00001F4804101910199016841F004010160FF
:102000000068294600F00400019001984FF4007028
:10201000029002200390032005902046FEF79AFDCF
:102020004FF48060CDE90206204629460496FEF76B
:1020300091FD06B070BD00002DE9F04381B004466B
:1020400090F84100202840F0B180884600294FF0E8
:10205000010000F0D6801646002A00F0D280002051
:10206000606421201D4684F84100FEF781FEA684AD
:10207000E684A1680646B1F5805F03D12069002897
:1020800000F0988047464FF00008E18C2068002956
:1020900000F0968005F101090BE000BF47B317F887
:1020A000011B4160E18C0139E184E18C002900F0E1
:1020B000878001680906F1D4B9F1000F0AD0EDB1AB
:1020C000FEF756FE801BA84218D820680168090652
:1020D000F6D5E3E701680906E0D4016809065CBFAC
:1020E00001685FEA0161D9D401680906F2D5D5E734
:1020F00038F8021B00276FF35F21D2E7206850E811
:10210000030F216820F4D07041E80302BAB32068BD
:1021100050E8030F216820F4D07041E8030272B345
:10212000206850E8030F216820F4D07041E80302D2
:102130002AB3206850E8030F216820F4D07041E8EA
:102140000302002ADAD11AE0206850E8050F21685E
:1021500020F0010041E80502DAB1206850E8050FDF
:10216000216820F0010041E8050292B1206850E8A2
:10217000050F216820F0010041E805024AB12068FE
:1021800050E8050F216820F0010041E80502002A0F
:10219000DAD1202084F8410084F84200002084F83D
:1021A0004000032001B0BDE8F08300BF022001B071
:1021B000BDE8F0830027E18C206800297FF46AAF36
:1021C0000168490619D4FDB1691C0DD101684906A1
:1021D00013D4016849065CBF01685FEA41610CD411
:1021E00001684906F2D508E0FEF7C2FD801BA8424F
:1021F0000AD8206800684006F6D5202084F84100FF
:10220000002001B0BDE8F083206850E8030F21688A
:1022100020F4D07041E80302002A3ED0206850E844
:10222000030F216820F4D07041E80302AAB32068AC
:1022300050E8030F216820F4D07041E8030262B334
:10224000206850E8030F216820F4D07041E80302B1
:10225000002AD9D121E000BF206850E8050F21688D
:1022600020F0010041E80502002A3FF492AF206807
:1022700050E8050F216820F0010041E80502002A1E
:102280003FF487AF206850E8050F216820F0010077
:1022900041E80502002A3FF47CAF206850E8050FB2
:1022A000216820F0010041E80502002AD4D170E73E
:1022B000FEE70000B0B50C460546D0E90021C36832
:1022C00040F27000C2F20000C0E901134FEAB4010D
:1022D0000329C0E9072408D840F20122C900C0F64A
:1022E000040222FA01F180F824102846FFF780F951
:1022F00028462146BDE8B040FFF722BB70B540F24A
:102300007006C2F20006B4690025C4F2E135204629
:10231000294601F029F9002804BFB5612C46204662
:1023200070BD0000B0B540F60044C4F20104204680
:102330004FF480610122FEF715FDFEF719FD0546F9
:10234000FEF716FD401B092806D800BF00BFFEF7A8
:102350000FFD401B0A28F9D320464FF4806100226C
:10236000BDE8B040FEF7FEBCF0B581B040F27005AC
:10237000C2F2000504460068E969884202D001B053
:10238000F0BD00BF207F95F824108842F7D128784F
:10239000012815D00028F2D1296A2046FFF780FDD8
:1023A000296AE860002947D0082949D0042919BFC3
:1023B0004FF400506FF4005120206FF0A00143E073
:1023C000296A2046FFF76CFD6988D5E902232E6A49
:1023D00002FB0101C81AC5E9041000F065FF48F2CC
:1023E0008043C4F22E130022002700F003FE44F2C3
:1023F0000003C4F27503002200F06AFF0023C3F655
:10240000E073002200F064FF0023C4F259030022AD
:1024100000F05EFF00F0BCFD082EA8612F7021D0F7
:10242000042E25D02068002E016A14BF21F400512B
:1024300021F00A0120E000BF02206FF00A0103E052
:102440004FF400706FF400712268136A1940116232
:10245000116A08431062002068800120287001B0D2
:10246000F0BD00BF2068016A21F4007104E000BFE4
:102470002068016A21F0A0010162016A016201B0D5
:10248000F0BD0000016840F27000C2F20000C269B5
:10249000914218BF70474188013141807047000068
:1024A00070B584B041F21800C4F20200016840F631
:1024B000004441F0040101600168C4F2010401F02C
:1024C0000401009100990168002241F008010160B7
:1024D00000684FF4044100F0080000900098204686
:1024E0004FF404450026FEF73DFC0120CDE901062E
:1024F00002200390694620460095FEF72BFB04B0AE
:1025000070BD0000B0B598B042F6004540F29800AA
:10251000C4F201050021C2F2000047224FF6FF730A
:102520001191CDE90F11CDE90D11CDE90B11CDE9D7
:102530000911CDE90711CDE90511CDE90311CDE967
:102540000111C0E90052C0E90213C0E90411816120
:10255000FFF714FC002818BFFEF7E2FA40F29800DB
:10256000C2F2000010A9FFF703F8002818BFFEF719
:10257000D7FA40F298000024C2F2000009A9002214
:102580000F94CDE90D44CDE90B44CDE90944FFF7A3
:1025900025FB002818BFFEF7C3FA0594CDE90344D4
:1025A000CDE90144089440F298044FF40050C2F27F
:1025B0000004069001A92046FEF7B2FF002818BFCC
:1025C000FEF7AEFA20680021A842169102D018B09A
:1025D000B0BD00BF41F21800C4F20200016841F032
:1025E00004010160006814A900F00400139013981E
:1025F0004FF480701490022015901790A5F510509C
:10260000FEF7A8FA18B0B0BD80B586B040F2E00081
:102610000021C2F200004FF0804247234FF6FF7CBA
:10262000CDE90411C0E90023C0E9021C0161816108
:10263000FFF7DAF8002818BFFEF772FA40F2E00060
:10264000C2F2000004A9FEF793FF002818BFFEF7AE
:1026500067FA002001210090CDE90110039040F2BB
:10266000E000C2F2000069460C22FEF7FBFF0028E2
:1026700018BFFEF755FA06B080BD000080B540F2E5
:10268000281043F60001C2F20000C4F20101002349
:102690004FF00C0C4FF4E13280E80E00C0E9033338
:1026A000C0E905C3C361FFF717FC002808BF80BD60
:1026B000BDE88040FEF734BAFEE70000FEE7000008
:1026C0007047000070470000FEF758BB70470000DD
:1026D00040F2E000C2F20000FFF7C8B9FEE70000D8
:1026E00090B0FEF759FB06AC201D2421FDF748FEF3
:1026F0000220069001200A9010200B900025204611
:102700000D95FEF7F3FC28B1EFF3108072B600BF11
:10271000FEE700BF0F20CDE9010501A80021CDE9AA
:1027200003550595FEF7D8FB20B1EFF3108072B684
:10273000FEE700BF40F2E000C2F200000C21FFF70C
:10274000B9FDFFF7ADFEFFF7DDFEFFF75DFFFFF719
:1027500095FFFFF7E7FD43F6440440F22816C0F664
:10276000000406ADC2F20006FFF7C8FD00F0AEFEA1
:1027700002460B4628462146FDF748FD2846FDF750
:10278000E0FD82B2304629464FF0FF33FFF754FC9C
:10279000FFF7C8FDC820FEF7C9F9E5E75FEA400C7E
:1027A00008BF91F0000F4FEA8C234FEAC12243EAA1
:1027B00051514FEA1C5018BF00F5F0404FEA30006D
:1027C00018BF41F000415FEA6C5C00F02980BCF169
:1027D000FF3F08BF40F080407047130C06BF120453
:1027E0004FF0100C4FF0000C130E04BF12020CF14E
:1027F000080C130F04BF12010CF1040C930F04BF5B
:1028000092000CF1020CD30F04BF52000CF1010C2A
:1028100011464FF00002A0F11F00A0EB0C00704722
:1028200011F0004F08BF704731F000413FF4D5AFC1
:102830000B0C06BF09044FF0100C4FF0000C0B0EF0
:1028400004BF09020CF1080C0B0F04BF09010CF1C5
:10285000040C8B0F04BF89000CF1020CCB0F04BFDA
:1028600049000CF1010CCCF1200322FA03F341EAF8
:10287000030102FA0CF2A0EB0C0000F1010070471A
:1028800023F07F4720F07F4C80EA030000F00040F7
:10289000ACEB070303F57C5303F1FF032DE98049FB
:1028A00009B44FEA144324EA03484FEA154B25EADA
:1028B0000B4E0FF2042606EB13273E7803FB066748
:1028C000C7F5000707FB06F64FEAD64606F10206F3
:1028D0004FEA543707FB066CCCF1005C4FEA1C470B
:1028E0002CEA074C0CFB06F507FB06F404EB154637
:1028F0004FEA961649085FEA320234BF00204FF0D3
:1029000000404FEAD13706FB07FC4FEA1C4C0CFB9A
:102910000BF7D21B03FB0CF761EB07010CFB0EF767
:10292000B0EB074072EB17420CFB08F734BFA2EB89
:102930000742B2EB074261EB17414FEA0C444FEA02
:10294000910706FB07FC4FEA1C4C0CFB0BF7B0EBA6
:10295000C74072EB573203FB0CF734BFA2EBC74200
:10296000B2EBC74261EB57310CFB0EF7B0EBC7007F
:1029700072EB57720CFB08F734BFA2EBC702B2EB45
:10298000C70261EB57714FEA816141EA92114FEA48
:10299000826242EA90124FEA806004EBCC04039F0B
:1029A0004FEAD13706FB07FC4FEA1C4C0CFB0BF738
:1029B000D21B03FB0CF761EB07010CFB0EF7B0EB2E
:1029C000074072EB17420CFB08F734BFA2EB07423B
:1029D000B2EB074261EB17414FEA8C5504EB9C24A4
:1029E0004FEA910706FB07FC4FEA1C4C0CFB0BF768
:1029F000B0EBC74072EB573203FB0CF734BFA2EBCE
:102A0000C742B2EBC74261EB57310CFB0EF7B0EB9C
:102A1000C70072EB57720CFB08F734BFA2EBC7027A
:102A2000B2EBC70261EB57714FEA816141EA921143
:102A30004FEA826242EA90124FEA806015EB4C2521
:102A400044F100044FEAD13706FB07FC4FEA1C4C67
:102A50000CFB0BF7D21B03FB0CF761EB07010CFB24
:102A60000EF7B0EB074072EB17420CFB08F734BFD0
:102A7000A2EB0742B2EB074261EB17414FEA81310B
:102A800041EA92414FEA823242EA90424FEA803074
:102A90004FEA0C7615EB1C1544F1000448EA034399
:102AA0004EEA0B484FF0000EB2EB080C71EB030737
:102AB00024BF624639464EEB0E0E4FF0000B001855
:102AC000524149414BEB0B0BB2EB080C71EB030786
:102AD0007BF1000B24BF624639464EEB0E0E4FF0E1
:102AE000000B0018524149414BEB0B0BB2EB080CA9
:102AF00071EB03077BF1000B24BF624639464EEBB6
:102B00000E0E51EA020718BF46F0010616EB0E76CC
:102B100055F1000254F1000103D5BDE88901BDE87B
:102B20000088BDE88901BDE80048B619524141EB73
:102B30000101A3F10103704780807F7E7D7C7B7A59
:102B40007978777676757473727171706F6E6E6D59
:102B50006C6C6B6A6A6968686766666564646363FF
:102B600062616160605F5F5E5E5D5D5C5C5B5B5A85
:102B70005A595958585757565655555554545353F2
:102B800052525251515050504F4F4F4E4E4D4D4D4D
:102B90004C4C4C4B4B4B4A4A4A4949494848484798
:102BA00047474746464645454544444444434343D6
:102BB00043424242424141419C46002B30D477007F
:102BC0002BD04FEA37071CB503B44FF010004FF07D
:102BD0001001BAF1000F06D0BCF1000FDCBF40F0CD
:102BE000080040F008014FF000000FBCBDE81040A5
:102BF0000BF1010BBBF1010F08BF5FEA170722BF02
:102C000012F1010211F101014FF0004143F1000303
:102C100000F0004043EA00007047F9D35708D0E7BE
:102C200046EA06464FEA164613F1400F1FDD13F140
:102C3000200FDFBF16430A46002120335B42BED07F
:102C4000C3F1200746EA06464FEA164602FA07F79E
:102C500046EA070622FA03F2C3F1200701FA07F752
:102C600042EA070221FA03F14FF00003A7E746EA20
:102C7000020646EA06464FEA164646EA0106BCBF89
:102C800046EA0646360C4FF000034FF000024FF0C4
:102C9000000194E72DE9804C70B49A46934691E880
:102CA000380007C831EA400C48BF34EA430C03D56A
:102CB000FFF7E6FDFFF780FFF0BCBDE8008C2DE9D3
:102CC000804C70B49A46934691E8380007C810F0DB
:102CD000804F08BF13F0804F03D100F005F8FFF7D5
:102CE0006BFFF0BCBDE8008C20F07F4723F07F4CE9
:102CF00080EA030000F0004007EB0C03A3F57C53CF
:102D0000A3F1FE0392F0000F00F0B38095F0000FE6
:102D100000F077802DE901494FEA114021EA00488F
:102D20004FEA144624EA064700FB06FC08FB06F6B9
:102D300007FB08F818EB06484CEB164C00FB07F7AE
:102D400018EB07484CEB17404FEA124B22EA0B4EA8
:102D50004FEA154625EA06470BFB06FC0EFB06F676
:102D600007FB0EFE1EEB064E4CEB164C0BFB07F75B
:102D70001EEB074E4CEB174B18EB0B0840F1000015
:102D800018EB0E0B58EB000840F100008F1A4FF0C3
:102D900000014FF000063CBFC943661B14BFB5EBF2
:102DA000040C00213CBFC943F61B4FEA174427EA35
:102DB00004454FEA1C472CEA074C04FB076205FB5D
:102DC00007F70CFB05F616EB074642EB174204FB30
:102DD0000CFC16EB0C4642EB1C421BEB060658EBB8
:102DE000020241414EEA8E0E46EA9E0601D5BDE83A
:102DF0000189B619524141EB0101A3F10103BDE87C
:102E000001894FEA144524EA05464FEA114721EAB1
:102E1000074C05FB07F406FB07F70CFB06F111EB6B
:102E2000074144EB174405FB0CFC11EB0C4144EB50
:102E30001C444FEA124722EA074C05FB07F206FB47
:102E400007F70CFB06F616EB074642EB174205FBAD
:102E50000CFC16EB0C4642EB1C456A1854F10001C1
:102E600048BF7047B619524141EB0101A3F101037C
:102E7000704795F0000F37D04FEA114221EA024621
:102E80004FEA144724EA074C02FB07F106FB07F759
:102E90000CFB06F414EB074441EB174102FB0CFC5E
:102EA00014EB0C4441EB1C414FEA154725EA074C53
:102EB00002FB07F506FB07F70CFB06F616EB0746C9
:102EC00045EB174502FB0CFC16EB0C4645EB1C4290
:102ED000121951F1000148BF7047B619524141EB38
:102EE0000101A3F1010370474FEA144524EA0546A6
:102EF0004FEA114721EA074C05FB07F106FB07F7EC
:102F00000CFB06F212EB074241EB174105FB0CFCF0
:102F100012EB0C4251EB1C414FF0000648BF7047CA
:102F2000921841EB0101A3F101037047490050EAF7
:102F3000C12018BF04204A0D18BF40F0010040F224
:102F4000FF72B2EB515F08BF40F00200012808BFDA
:102F50000520704730380A2801D201207047002030
:102F60007047000010B500290AD00878002807D063
:102F700005487844FDF788FD002801D0002010BDE9
:102F80000248784410BD000006090000FE08000059
:102F900021F0004201F00043A2F16052B2F5801F1F
:102FA00028BFD2F17F6C0BD95FEA001C43EAC20252
:102FB00042EB507018BF704728BF20F001007047E7
:102FC000B2F5801FBCBF184670474FEA410C1CF594
:102FD000001F02D2084600F0BDBB70B500F022FA17
:102FE00000000089FFF7F6BF4FF00040A0F5800019
:102FF000704700002DE9C04130B4DFF8A4C23CEABC
:10300000111418BF3CEA131400F0ED801CEA1114EF
:1030100081EA030544EAD57418BF1CEA131500F0D1
:10302000C880A4EB050404F17F7404F500344FF06C
:10303000004545EAC12145EAC32341EA505143EA2C
:1030400052534FEAC0204FEAC222994208BF904231
:1030500000F09D804FEA13650FF24416765D4FEA4B
:10306000134506FB05F7C7F1807706FB07F74FEA24
:10307000D737A7FB03687642A7FB06CEC8F5803892
:1030800038BFA8F1010807FB08E6A6FB028C4FF049
:10309000000EE6FB03CEDCF1000CCEF1004E38BF93
:1030A000AEF1010EA6FB0C584FF00007E6FB0E87B1
:1030B000A1FB08C6A0FB07CE16EB0E064FF00005DD
:1030C00045F10005E1FB076515F1E04E7EBFA4F573
:1030D00080345FEA46066D4116F1800745F1000530
:1030E0004FEA172747EA05674FEA15254FEA0666B4
:1030F000A6F1DE46B6F1805F20D9384605EBC471F3
:1031000024F0010C01EB0C11BCF1FE6F02D8F0BCF5
:10311000BDE8008124425CBF01F5801E9EEAC47FA9
:1031200002D4F0BCBDE80081244200F13980A1F155
:10313000C041F0BCBDE8004100F0C2B94FEAD02068
:1031400040EA41504FEAD1214FEAD22242EA4352AB
:103150004FEAD323A7FB028607FB036605FB026643
:103160001EEA0E0F58BFA6EB0056B6EB00564FEA0C
:10317000520E4EEAC37E18EB0E0E56EB530EBCD524
:1031800018EB02085E417F1C55F10005B5E74FF4CE
:1031900080154FF000074FF000064FF00008ACE735
:1031A00001F1C04101F000414FF00000F0BCBDE86A
:1031B00000810CEA131511EA0C1F00D00CE013EA91
:1031C0000C1F00F026804FF0000081EA030101F09F
:1031D0000041F0BCBDE80081F0BCBDE8004181EADF
:1031E000030100F06DB9F0BCBDE8004170B500F01E
:1031F00019F900BF097EFC3E00F007B84FF000004F
:1032000081EA030101F00041704781EA030100F007
:1032100057B9F0BCBDE8004122494FF000007047AB
:10322000FFFDFBF9F7F5F4F2F0EEEDEBE9E8E6E48B
:10323000E3E1E0DEDDDBDAD8D7D5D4D3D1D0CFCD12
:10324000CCCBCAC8C7C6C5C4C2C1C0BFBEBDBCBB4B
:10325000BAB9B8B7B6B5B4B3B2B1B0AFAEADACAB46
:10326000AAA9A8A8A7A6A5A4A3A3A2A1A09F9F9E20
:103270009D9C9C9B9A9999989797969595949393D2
:10328000929191908F8F8E8E8D8C8C8B8B8A898969
:1032900088888787868585848483838282818180EC
:1032A0000000FF070000F87FB0FA80F310FA03F186
:1032B0000AD0C3F11D0303F580634FEA03524FEABE
:1032C000415002EBD12170474FF0000070470000E1
:1032D00070B5DFF848C11CEA111E1EBF1CEA1315A9
:1032E0009EEA0C0F95EA0C0F00F06F8081EA030450
:1032F0004EEAD47EAE4421EA4C1123EA4C1341F449
:10330000801143F48013AEF17F7EA1FB024CA0FB41
:103310000365361955EB0C05A1FB034C4CF100037A
:10332000A0FB021C16EB0C06654153F10003094299
:1033300018BF46F0010613F4007F0BD14FEA0331AA
:103340004FEA053041EA155140EA165034036FF058
:1033500003020AE04FEAC3214FEAC52041EA555172
:1033600040EA5650F4026FF0020202EB2E4201EBEB
:10337000025585EACE710AD05FEA440C18BF24F0EA
:10338000004450F1000041F1000120EAD47040F205
:10339000FE7C624500D270BDA84214BF4FF080444D
:1033A0004FF04044002E08BF0024BEF1806FA8BF3C
:1033B000A1F1C041BDE8704080F2828001F1C041BE
:1033C00001F000414FF0000070470CEA13159EEA2F
:1033D0000C0F18BF95EA0C0F06D081EA030E4FF0D0
:1033E00000000EF0004170BD00F01CF88900013EA5
:1033F00000F007B800F009B84FEA430C5FEA5C5CE4
:1034000008D081EA030100F05BB84FEA410C5FEAA3
:103410005C5CF6D102494FF0000070470000FF07E6
:103420000000F87F0EF1020E2EF0030E5EF8046B22
:10343000364205D4012A43EB030515F5001F12D8C7
:10344000012841EB010C1CF5001F0CD80ED14FEAEE
:10345000D17C0CEB4C0C0CF1020C15F5001F08BFD5
:103460004CEBD37C04E04FF0080C01E04FEAD37C36
:103470000CEB4C0526FA05F606F00706B6F1040C2F
:1034800006D20EEB860CBDE870404CF0010C604794
:10349000DFE80CF0090B02024FF00041A1F500211A
:1034A0004FF0000070BD19461046012851EB010491
:1034B00018BFD4F5001484BF002001F0004170BD96
:1034C0000808A0F500114FEA3101704743004FEAA8
:1034D000D30C4FEA3C0C43401FBF40070CF1605136
:1034E00013F0FE4F70471CF0006F03D10CF0004149
:1034F000002070470CF0004343EA507040EACC00D3
:1035000010B500F0E1F800BF000000924FEA0001A2
:10351000FFF7D6BF4FF00041A1F500214FF00000AA
:10352000704710B500F034F80CBF0120002010BD2A
:1035300010B500F02DF814BF0120002010BD10B50B
:1035400000F05AF88CBF0120002010BD10B500F02B
:1035500053F82CBF0120002010BD10B500F080F8FA
:1035600094BF0120002010BD10B500F079F834BFE1
:103570000120002010BD401058BFC0F1404049104C
:1035800058BFC1F140418142EFF300807047000015
:1035900050EA010C00F113801CF5000F58BFBCF578
:1035A000000F01D48842704707D710F5000F58BFAD
:1035B00011F5000F15D488427047894270471CF5F9
:1035C000000F04D5BCF5000FF7D5814270474FF0CE
:1035D000807C1CEB400F38BF1CEB410F01D28142B5
:1035E000704710B500F070F8922449004FF0005079
:1035F0004FF08051FFF7BFBF50EA010C00F113807C
:103600001CF5000F58BFBCF5000F01D4884270476D
:1036100007D710F5000F58BF11F5000F15D48842D9
:103620007047894270471CF5000F04D5BCF5000FA8
:10363000F7D5814270474FF0807C1CEB400F38BFBC
:103640001CEB410F01D28142704710B500F03CF8ED
:10365000922449004FF080504FF00051FFF78BBF8C
:1036600050EA010C00F113801CF5000F58BFBCF5A7
:10367000000F01D48842704707D710F5000F58BFDC
:1036800011F5000F15D488427047894270471CF528
:10369000000F04D5BCF5000FF7D5814270474FF0FD
:1036A000807C1CEB400F38BF1CEB410F01D28142E4
:1036B000704710B500F008F8922449004FF0005010
:1036C0004FF08051FFF757BF0EF1020E2EF0030EA0
:1036D0005EF8044B244204D44FEA4102B2F17F4F1A
:1036E00011D84FEA4003B3F17F4F0CD80ED14FEA07
:1036F000D07C0CEB4C0C0CF1020CB2F17F4F08BFEC
:103700004CEBD17C04E04FF0080C01E04FEAD17C97
:103710000CEB4C0324FA03F404F00704B4F1040C9A
:1037200006D20EEB840CBDE810404CF0010C604753
:10373000DFE80CF0070802024FF00040A0F580001F
:1037400010BD0846420018BFD2F1807288BF00F059
:10375000004010BDFF2141EAD050C0057047FCF782
:1037600011BF000002400000000000A000000000A7
:1037700005400000000000C8000000000C400000F0
:103780000000409C00000000194000000020BCBE6A
:103790000000000034400000BFC91B8E0000000480
:1037A000B5400000504BCFD06607E2CF01000000CB
:1037B0006C4100003E8251AADFEEA73401000000F8
:1037C000D9420000DCB5A0E23A301F97FFFFFFFFAF
:1037D000B4450000FD25A0C8E9A3C14FFFFFFFFFCE
:1037E000FF3F00000000008000000000FF3F0000DD
:1037F0000000008000000000000000000000000049
:103800000102030406070809000000000102030486
:103810000102000002000000040000000800000097
:1038200010000000FDFFFFFFFBFFFFFFF7FFFFFFA2
:10383000EFFFFFFF02030405060708090A0B0C0D42
:103840000E0F101064697374616E63653A252E3132
:103850006620636D0D0A0000983800080000002003
:103860001000000050010008A838000810000020D7
:1038700068070000700100081C0000004300000001
:10388000F8FFFFFF0C0000000E0000000F0000001A
:103890002E000000000000000100000010000000E9
:0838A0000024F4000000000008
:04000005080000ED02
:00000001FF
