:020000040800F2
:100000003048002089010008612200086D020008C4
:100010005D2200085905000859240008000000006E
:100020000000000000000000000000009B0100082C
:100030005D05000800000000F701000865220008C7
:10004000A3010008A3010008A3010008A301000800
:10005000A3010008A3010008A3010008A3010008F0
:10006000A3010008A3010008A3010008A3010008E0
:10007000A3010008A3010008A3010008A3010008D0
:10008000A3010008A3010008A3010008A3010008C0
:10009000A3010008A3010008A3010008A3010008B0
:1000A000A3010008A3010008A3010008A3010008A0
:1000B000A3010008A3010008A3010008A301000890
:1000C000A3010008A3010008A3010008A301000880
:1000D000A30100084D240008A3010008A3010008A3
:1000E000A3010008A3010008A301000800F002F822
:1000F00000F03AF80AA090E8000C82448344AAF188
:100100000107DA4501D100F02FF8AFF2090EBAE885
:100110000F0013F0010F18BFFB1A43F0010318473B
:10012000946E0000B46E0000103A24BF78C878C105
:10013000FAD8520724BF30C830C144BF04680C60ED
:10014000704700000023002400250026103A28BF35
:1001500078C1FBD8520728BF30C148BF0B60704739
:100160001FB51FBD10B510BD00F091F91146FFF786
:10017000F7FF00F0C7F900F0AFF903B4FFF7F2FFA3
:1001800003BC00F0B7F90000094880470948004760
:10019000FEE7FEE7FEE7FEE7FEE7FEE7FEE7FEE737
:1001A000FEE7FEE704480549054A064B7047000094
:1001B0003D230008ED0000083042002030480020B8
:1001C0003044002030440020EFF3108072B67047B6
:1001D00080F310887047324A1368012B04D04FF027
:1001E000010313602F4A10602F4A11602F484FF00F
:1001F000805101607047EFF3108272B628480168A1
:1002000091B14FF0000101602648016829B1EFF378
:10021000098121E9F00F0068016023490968096834
:10022000B1E8F00F81F3098882F310884EF0040ED4
:1002300070471D4908601B494FF0000008601849CD
:100240004FF0010008601A481A49D0F8002041EA2E
:100250000201016015484FF08051016016480068A6
:10026000006880F3088861B662B670471EF0040F1C
:100270000CBFEFF30880EFF3098020E9F00F40F89E
:1002800004ED1EF0040F0CBF80F3088880F309888A
:1002900000B504F0FDF85DF804EB4EF0040E704775
:1002A00020420020943F00209C3F002004ED00E00D
:1002B00020ED00E00000FFFF08ED00E010B5431C5A
:1002C00002E010F8011B71B18107FAD14FF0013241
:1002D00002C88C1A8C4314EAC211F9D0C01A0A065B
:1002E00003D0C01E10BDC01A10BD0A0401D0801E6C
:1002F00010BD0902FCD0401E10BD40EA010370B5DC
:100300009B072ED14FF00136042A2AD308C810C902
:100310009D1B9D43121F15EAC61517D0D8B2E1B236
:10032000401A50EA056110D198B2A1B2401A50EAC1
:1003300005410AD123F07F4024F07F41401A50EA62
:10034000052102D1180EA0EB146070BDA342DBD0D2
:1003500018BA21BA884201D9012070BD4FF0FF3090
:1003600070BD0AB9002070BD10F8013B11F8014BB7
:1003700063B1A3420AD1521E08D010F8013B11F814
:10038000014B1BB1A34201D1521EEDD1181B70BD10
:1003900002F0FF0343EA032242EA024200F002B8FD
:1003A0004FF000020429C0F0128010F0030C00F09E
:1003B0001B80CCF1040CBCF1020F18BF00F8012B1C
:1003C000A8BF20F8022BA1EB0C0100F00DB85FEAEA
:1003D000C17C24BF00F8012B00F8012B48BF00F8B6
:1003E000012B70474FF0000200B513469446964625
:1003F000203922BFA0E80C50A0E80C50B1F1200138
:10040000BFF4F7AF090728BFA0E80C5048BF0CC0E5
:100410005DF804EB890028BF40F8042B08BF704743
:1004200048BF20F8022B11F0804F18BF00F8012BB5
:10043000704710B5044610F0030F08BF11F0030F0A
:1004400040F015804FF0013E121FC0F20E8051F8AF
:10045000043BA3EB0E0C2CEA030C1CEACE1C08BFD9
:1004600040F8043BF0D0A1F1040102F10402521E55
:1004700008DB11F8013B00F8013B002BF7D11146D6
:10048000FFF78EFF204610BD7047704770477546D6
:1004900000F02CF8AE4605006946534620F00700F0
:1004A000854618B020B5FFF77DFEBDE820404FF02F
:1004B00000064FF000074FF000084FF0000BAC466D
:1004C000ACE8C009ACE8C009ACE8C009ACE8C009B8
:1004D00021F007018D46704710B50446AFF3008048
:1004E0002046BDE81040FFF748BE000000487047B6
:1004F0005000002001491820ABBEFEE72600020094
:100500007047000080B582B0FFF75EFE03F05CFF2D
:1005100004F000FE04F0C4FF04F014FF0A20009071
:1005200046F66F4043F221614FF0140CC0F6000014
:10053000C0F6000100224FF48063CDF804C004F03F
:10054000B9FF05F04BF904F0B3FF05F069F804F0CA
:100550008FFF002002B080BDFEE700007047000062
:10056000EFF3108072B600BFFEE70000014690F87E
:100570002100022816D10868D1E90FC3026822F0D1
:100580000E020260026822F001020260012000FAFD
:1005900003F2CCF8042081F821000020002281F829
:1005A00020207047042088630120002281F8202049
:1005B0007047000080B590F82110022924D102680C
:1005C000116821F00E0111602F211368C4F202019D
:1005D0008A4240F20401C4F2020123F001031360D5
:1005E00016DD3023C4F202039A421DD04423C4F224
:1005F00002039A421CD05823C4F202039A421DD12E
:100600004FF4803322E000BF04218163012080BDCC
:100610000823C4F202039A420ED01C23C4F2020340
:100620009A420BD1102311E04FF480730EE000BF0B
:100630004FF480530AE000BF012307E001F1680C8A
:100640004FF08073624508BF4FF480130B600121A7
:1006500080F82110426B002180F820100AB19047E9
:100660000021084680BD00002DE9F04F82B041F224
:100670000042C4F201020E680423904208BF032323
:10068000002E009300F0F68040F2004C4FF6FF7E03
:100690000022C4F2010C0124C1F2100E4FF0000A36
:1006A0004FF0000947E000BF012502F00C040F27BE
:1006B000A7402BEA070705FA04F43C4343F8264019
:1006C000D1F804B040F20C455FEACB23DCF80830E7
:1006D00054BF23EA080343EA0803C4F20105CCF837
:1006E00008302B685FEA8B2454BF23EA080343EAEF
:1006F00008032B605FEA8B34DCF8043054BF23EA34
:10070000080343EA08035FEACB34CCF80430DCF892
:1007100000304FF0010454BF23EA080343EA080302
:10072000CCF800300E680AF1010A36FA0AF302F139
:10073000040200F09F8004FA0AF816EA080FF1D0CC
:100740004B68734512DC122B56D8DFE803F0350BEB
:100750004549555555555555555555555555554D6D
:10076000510000BFD1F80C9046E000BF4FF6FF7576
:10077000C1F22105AB420FDC0025C1F21105AB42ED
:100780001AD00025C1F21205AB4215D00025C1F2E6
:100790002105AB4210D02FE00025C1F22205AB426B
:1007A0000AD00025C1F23105AB4205D00025C1F2C7
:1007B0003205AB4220D100BF8B684BB1012B14BF77
:1007C000C0F81480C0F810804FF0080914E000BF92
:1007D0004FF0040910E000BFCB6803F108090BE0FB
:1007E0004FF0000908E000BFCB6803F1040903E003
:1007F000CB6803F10C0900BF13460546BAF1080F98
:1008000024BF203B04352E680F279F40BE4309FAC2
:1008100003F333432B60CB79DB067FF583AF41F2E3
:100820001804C4F2020423684FEA9A0643F0010355
:100830002360236840F6000403F001030193019B49
:10084000ACF57E7353F826B0C4F20104A0420FD079
:1008500040F60044C4F20104A0423FF425AF41F247
:100860000004C4F20104009DA04208BF02251CE759
:1008700000251AE702B0BDE8F08F0000002A08BF8B
:10088000090401617047000044F22820C2F2000010
:100890000068704780B542F20000C4F202000168AF
:1008A00041F010010160032000F08AF8002000F000
:1008B00005F800F027F8002080BD000070B540F278
:1008C0001006C2F2000640F218013278C2F20001AE
:1008D0004FF47A730968B3FBF2F20446B1FBF2F10C
:1008E000084600F065FB0F2C4FF0010508D838B919
:1008F0004FF0FF3021460022002500F035F87460EB
:10090000284670BD82B041F21800C4F202000168AE
:10091000022241F001010160016801F00101019131
:100920000199416841F080514160406800F0805079
:10093000009000980420C4F20100016862F31A617B
:10094000016002B070470000002848BF704700F007
:100950001F01012202FA01F14EF200124009CEF20B
:10096000000242F82010704710B54EF60C5CCEF233
:10097000000CDCF80030C3F3022E8EF00704042CC8
:1009800028BF0424BEF103034FF0FF3E0EFA04F427
:1009900038BF0023A14399400EFA03F39A43114351
:1009A00000F00F02043A624409010C3200F1604386
:1009B000B0F1FF3FC8BF03F56442117010BD0000E5
:1009C0004EF60C51CEF200010A684FF6FF031A40B2
:1009D00060F30A2242F0806040F0FD7008607047CA
:1009E0002DE9F04381B0002800F0858042F2000834
:1009F000C4F202080446D8F800000D4600F00700D3
:100A000088420CD2D8F8000020F007002843C8F82C
:100A10000000D8F8000000F00700A8426BD1206861
:100A200041F204098107C4F2020917D5410705D52F
:100A3000D9F8001041F4E061C9F80010010705D5AC
:100A4000D9F8001041F46051C9F80010D9F800102D
:100A5000A26821F0F0011143C9F80010C00741D18C
:100A6000D8F8000000F00700A8420CD9D8F8000020
:100A700020F007002843C8F80000D8F8000000F074
:100A80000700A84237D12068410707D5D9F80010E0
:100A9000E26821F4E0611143C9F80010000708D5AD
:100AA000D9F80000216920F4605040EAC100C9F87B
:100AB0000000D9F8002002F00C00082841F20020C4
:100AC000C0F27A0050D146F61423C2F38341C0F637
:100AD0000003595CD2033BD440F60010C0F23D0045
:100AE000484341E0606802280AD001282AD159F819
:100AF000041C890308D4012001B0BDE8F08300BFC5
:100B000059F8041C8901F6D5D9F8001021F0030129
:100B10000843C9F80000FFF7B7FE064641F28837E0
:100B2000D9F80000616800F00C00B0EB810F97D09D
:100B3000FFF7AAFE801BB842F2D9032001B0BDE83E
:100B4000F08300BF59F8041C8907D4D5DCE700BF47
:100B5000D9F8002046F61213C2F34042C0F6000353
:100B60009A5C4843B0FBF2F0D9F8001046F6FA025E
:100B7000C1F30311C0F60002515C40F2180220FAE2
:100B800001F140F21400C2F200000068C2F200025B
:100B90001160FFF793FE002001B0BDE8F083000074
:100BA00040F21800C2F200000068704740F21800DE
:100BB00041F20401C2F20000C4F2020100680968B7
:100BC00046F60A12C1F30221C0F60002515CC84089
:100BD0007047000040F2180041F20401C2F2000028
:100BE000C4F202010068096846F60A12C1F3C22184
:100BF000C0F60002515CC840704700002DE9F0418A
:100C000082B0002868D00446007841F20006C00790
:100C1000C4F2020625D0706800F00C0004281BD036
:100C2000706800F00C00082802D17068C00313D46B
:100C30006068002800F06881B0F5A02F00F07C818A
:100C4000B0F5803F00F07C81306820F48030306067
:100C5000306820F4802076E13068800301D5606838
:100C6000D0B32078800718D5706810F00C0F07D02B
:100C7000706800F00C0008286ED17068C0036BD457
:100C80003068800702D52069012825D13068616964
:100C900020F0F80040EAC1003060207800071FD43F
:100CA0002078400732D4E56995B1706800F00C00F7
:100CB000082840F08F80012D0ED07068216A00F462
:100CC00080328A4208D1616A00F47010884203D1F0
:100CD000002002B0BDE8F081012002B0BDE8F08143
:100CE000A069002862D00020C4F242200121C0F88F
:100CF0008014FFF7C9FD0546706A800700F18C80FB
:100D0000FFF7C2FD401B0228F6D92AE1F06910F076
:100D1000805808D1F06940F08050F061F06900F02F
:100D200080500090009847F20007C4F2000738682E
:100D3000C00529D4386840F480703860FFF7A4FDFE
:100D4000054600BF3868C0051ED4FFF79DFD401B57
:100D50006428F7D905E100BF2069002840F20000AF
:100D6000C4F2422000F0828001210160FFF78CFD77
:100D7000054600BF306880073FF588AFFFF784FD68
:100D8000401B0228F6D9ECE0E068002800F08080E3
:100D9000052800F09780012800F09880306A20F044
:100DA00001003062306A20F0040092E00020C4F2BA
:100DB00042200021C0F88014FFF766FD054600BF01
:100DC000706A80077FF56CAFFFF75EFD401B02285D
:100DD000F6D9C6E00027C4F2422700203866FFF7A4
:100DE00053FD022D05460BD13068800140F1BE80D5
:100DF000FFF74AFD401B02284FF00300F4D968E7D3
:100E0000306880017FF564AFFFF73EFD401B02288C
:100E10004FF00300F4D95CE740F21800C2F2000082
:100E2000006844F6D351C1F26201A0FB0101480AF7
:100E3000019000BF00BF0198411E002801913FF4BE
:100E40002FAF00BF0198411E002801913FF428AF49
:100E500000BF0198411E002801913FF421AF00BF5F
:100E60000198411E00280191E4D119E70021016099
:100E7000FFF70AFD054600BF306880077FF50DAF1C
:100E8000FFF702FD401B02284FF00300F4D920E7D2
:100E9000306A20F001003062306A20F004003062D5
:100EA000FFF7F2FC054641F2883700BF306A800741
:100EB00020D5FFF7E9FC401BB8424FF00300F5D9FD
:100EC00007E700BF306A40F004003062306A40F04B
:100ED00001003062FFF7D8FC054641F2883700BFB9
:100EE000306A800706D4FFF7CFFC401BB842F7D921
:100EF00037E000BFB8F1000F7FF4D5AEF06920F005
:100F00008050F061CFE600BF306820F48030306060
:100F1000306820F480203060FFF7B6FC054600BF43
:100F2000306880037FF59DAEFFF7AEFC401B642860
:100F30004FF00300F4D9CCE6306840F480203060F4
:100F4000306840F480303060FFF79EFC054600BFFB
:100F5000306880033FF585AEFFF796FC401B6428A0
:100F6000F6D9032002B0BDE8F08100BF206AB0F5D9
:100F7000803F05D17168A26821F40031114371608E
:100F80007168626A21F47411104308437060012093
:100F90003866FFF779FC0446306880013FF598AE6B
:100FA000FFF772FC001B02284FF00300F4D990E613
:100FB000411E0020B0EB116F1CBF012070474EF2A4
:100FC0001002CEF2000251604EF62351CEF2000123
:100FD000F0230B70072190601160704710B590F8F6
:100FE0003C20012A4FF0020233D080F83D200268F5
:100FF000D2F804E0D2F808C00C682EF07003234346
:1010000040F2FF74C4F20004A24253600ADCB2F161
:10101000804F13D040F20043C4F200039A420DD037
:1010200011E000BF42F60043C4F201039A4205D02A
:1010300040F60003C4F200039A4204D149682CF040
:101040008003194391600121002280F83D1080F84F
:101050003C20104610BD000070B586B0006840F21C
:101060000041C4F2000188424FF00001CDE90411B3
:10107000CDE9021140D0B0F1804F6AD141F21800A1
:10108000C4F20200016840F6000441F0040101606E
:101090000168C4F2010401F00401019101990168A1
:1010A00002AD41F0080101600068022600F008006E
:1010B0000190019803200290204629460396059648
:1010C000FFF7D2FA4FF44060CDE9020604F58060E4
:1010D00029460596FFF7C8FA0420C4F2010001680A
:1010E0004FF6FF42CFF6FF02114041F0E06141F4BC
:1010F0000071016006B070BD41F21800C4F2020038
:10110000016840F6000441F0040101600168C4F286
:10111000010401F0040101910199016802AD41F05F
:10112000080101600068022600F0080001900198A3
:10113000C02002902046294603960596FFF794FAB0
:101140000320CDE9020604F5806029460596FFF7E5
:101150008BFA06B070BD00002DE9F04390F83C30EA
:10116000012B04BF0220BDE8F0834FEAB202032A3C
:101170003CD8DFE802F003437FB900BF036842F6C2
:1011800000461D6A1A6AC4F2010622F001021A62C0
:101190001A465C6852F818CFB3428E68D1F800E066
:1011A00025F0020545EA06050CD1CE68D1E905789F
:1011B00024F4407425F00C0526F004063C43354326
:1011C00044EA08042CF0730747EA0E075C609F614D
:1011D0004F6809695F631D629F6947F008079F6157
:1011E0009F6927F004079F61AEE000BF0121002244
:1011F00080F83C200846BDE8F08300BF036842F653
:1012000000461D6A1A6AC4F2010622F010021A6230
:101210001A46D3F804C052F8184FB3428E68D1F87A
:1012200000E025F0200545EA06150FD1CE68D1E98A
:1012300005986FF0400707EA06162CF4406725F082
:10124000C00547EA8907354347EA880C24F4E64499
:1012500044EA0E27C3F804C09F614F6809699F6381
:101260001D629F6947F400679F619F6927F480674B
:101270009F6168E0036842F600461D6A1A6AC4F27C
:10128000010622F480721A621A46D3F804C052F89A
:101290001CEFB3428E680C6825F4007545EA0625FC
:1012A0000FD1CE68D1E90598360240F2FF47BE4320
:1012B0002CF4405725F4406547EA0917354347EABF
:1012C000081C2EF073072743C3F804C0DF614F6882
:1012D0000969DF631D62DF6947F00807DF61DF69C5
:1012E00027F00407DF612FE0036842F60047D3F8D8
:1012F00020C01A6AC4F2010722F480521A621A4608
:101300005C6852F81C5FD1F800E08E68BB4204D1E3
:101310004F6924F4804444EA87142CF4005747EAC8
:10132000063725F4E64646EA0E265C60DE614E6826
:1013300009691E641F62DF6947F40067DF61DF69C6
:1013400027F48067DF6109021368194311600021E7
:10135000002280F83C200846BDE8F083002804BF46
:101360000120704710B5044690F83D0028B90020D0
:1013700084F83C00204600F067F8022084F83D0025
:10138000206840F2FF730268C4F2000342F6004C8A
:101390009842C4F2010C15DCB0F1804F1AD040F233
:1013A0000041C4F20001884214D0984218DCB0F128
:1013B000804F1DD040F20041C4F20001884217D096
:1013C0001AE000BF604505D040F60001C4F20001FC
:1013D0008842EAD1A16822F070020A439842E6DD11
:1013E000604505D040F60001C4F20001884203D1F7
:1013F000216922F440720A43A36922F08001D4F8E3
:1014000004E0E268194360450160C262C0F828E068
:1014100002D16169CCF8301001214161002084F8CB
:10142000461084F83E1084F83F1084F8401084F889
:10143000411084F8421084F8431084F8441084F872
:10144000451084F83D1010BD82B0006840F20041A4
:10145000C4F20001884211D0B0F1804F1BD141F29B
:101460001C00C4F20200016841F001010160006843
:1014700000F001000190019802B0704741F21C0099
:10148000C4F20200016841F002010160006800F04E
:1014900002000090009802B07047000041B1082996
:1014A00010D0042914BF00F1410200F13F020BE00B
:1014B00090F83E20012A1CBF01207047022280F8CC
:1014C0003E2013E000F140021278012A1CBF0120E7
:1014D00070470222082907D0042914BF80F8412050
:1014E00080F83F2002E000BF80F84020006801F053
:1014F0001F010122036A8A4023EA02010162036A92
:1015000042F64441C4F201011A43A1F14403984256
:1015100002620FD040F2FF71C4F20001884213DC76
:10152000B0F1804F1CD040F20041C4F2000188426B
:1015300016D01CE00A6842F400420A6040F2FF71D3
:10154000C4F200018842EBDD42F60041C4F2010121
:10155000884205D040F60001C4F20001884206D15D
:10156000816801F00701062904BF00207047016867
:1015700041F0010101600020704700007047000049
:1015800070470000B0B582B0044600680168C368C7
:10159000426901F02F05202D03F0200506D12DB161
:1015A000204602B0BDE8B04000F0D0BE5FEA017C4A
:1015B0001EBF02F0010E03F4907212EB0E0255D121
:1015C000226B012A05D111F0100218BF13F010028E
:1015D00036D10A0622D513F080021FD094F84110AC
:1015E000212941D1A168B1F5805F03D1216900298A
:1015F00000F07282216A4A1C226209784160E18C03
:1016000001390A04E1842FD1C16821F08001C16051
:10161000C16841F04001C16002B0B0BD490623D5A8
:1016200013F0400120D0C16821F04001C1602021A9
:10163000204684F8411002B0BDE8B04000F0C8BCBC
:10164000002101910168019141680191019941696D
:10165000490600F18F80A18DE28DE38D002B1CBF28
:10166000891A5FEA01420CD102B0B0BDCA0718BFA7
:1016700013F4807240F038814A0700F13B8140E169
:10168000206850E8030F226820F4907042E80303BA
:10169000DBB1206850E8030F226820F4907042E824
:1016A000030393B1206850E8030F226820F4907080
:1016B00042E803034BB1206850E8030F226820F48E
:1016C000907042E80303002BDAD1206850E8050F40
:1016D000226820F0010042E80503DBB1206850E8F1
:1016E000050F226820F0010042E8050393B120684D
:1016F00050E8050F226820F0010042E805034BB1D5
:10170000206850E8050F226820F0010042E8050338
:10171000002BDAD1202084F84200002020632068CA
:1017200050E8030F226820F0100042E80303DBB109
:10173000206850E8030F226820F0100042E80303FD
:1017400093B1206850E8030F226820F0100042E8AF
:1017500003034BB1206850E8030F226820F010000B
:1017600042E80303002BDAD1022289B220466263E9
:10177000B4E000BFE16B0A68526893B2002B3FF4FB
:1017800073AFA58DAB42BFF46FAFE28589692029A5
:1017900000F09D8050E8030F216820F4807041E83C
:1017A0000302EAB1206850E8030F216820F480703A
:1017B00041E80302A2B1206850E8030F216820F439
:1017C000807041E803025AB1206850E8030F216895
:1017D00020F4807041E8030212B12068DAE700BF0C
:1017E000206850E8050F216820F0010041E805025B
:1017F000DAB1206850E8050F216820F0010041E8C7
:10180000050292B1206850E8050F216820F0010020
:1018100041E805024AB1206850E8050F216820F030
:10182000010041E80502002ADAD1206850E8050FDE
:10183000216820F0400041E80502DAB1206850E854
:10184000050F216820F0400041E8050292B12068B0
:1018500050E8050F216820F0400041E805024AB138
:10186000206850E8050F216820F0400041E805029B
:10187000002ADAD1202084F842000020206320686A
:1018800050E8030F216820F0100041E80302DAB1AC
:10189000206850E8030F216820F0100041E803029F
:1018A00092B1206850E8030F216820F0100041E851
:1018B00003024AB1206850E8030F216820F01000AD
:1018C00041E80302002ADAD1E06BFEF74FFE022066
:1018D0006063A08DE18D401A81B2204602B0BDE860
:1018E000B040FFF74BBE00BF626C42F00102626481
:1018F0004A0706D5BEF1000F03D0626C42F0020227
:1019000062648A0706D5BEF1000F03D0626C42F014
:1019100004026264BCF1000F06D555EA0E0203D042
:10192000626C42F008026264626C002A3FF49CAE72
:1019300011F0200118BF002D03D0204600F006FD55
:1019400020684169626C01F0400102F008028918C8
:1019500000F0A28050E8030F216820F4907041E865
:101960000302C2B3206850E8030F216820F490708E
:1019700041E803027AB3206850E8030F216820F49D
:10198000907041E8030232B3206850E8030F2168E9
:1019900020F4907041E80302EAB12068DAE700BF62
:1019A000206850E8050F216820F0010041E8050299
:1019B000DAB1206850E8050F216820F0010041E805
:1019C000050292B1206850E8050F216820F001005F
:1019D00041E805024AB1206850E8050F216820F06F
:1019E000010041E80502002ADAD1206B012824D148
:1019F000206850E8030F216820F0100041E803023E
:101A0000DAB1206850E8030F216820F0100041E8A7
:101A1000030292B1206850E8030F216820F0100003
:101A200041E803024AB1206850E8030F216820F022
:101A3000100041E80302002ADAD1202084F8420095
:101A4000002020632068416949063FD550E8050F12
:101A5000216820F0400041E805022AB3206850E8E0
:101A6000050F216820F0400041E80502E2B120683E
:101A700050E8050F216820F0400041E805029AB1C6
:101A8000206850E8050F216820F0400041E8050279
:101A900052B12068DAE700BF2046FFF771FD002051
:101AA000606402B0B0BD00BFE06B78B142F241317A
:101AB000C0F600014163FEF77DFD00283FF4D4AD80
:101AC000E06B416B02B0BDE8B0400847204602B071
:101AD000BDE8B040FFF754BD216A31F8022B6FF327
:101AE0005F22426021628AE5002804BF012070471E
:101AF00010B5044690F8410028B9002084F8400051
:101B0000204600F061F8242084F841002068D4E9E0
:101B10000212C36823F40053C360036923F44053E3
:101B20001A430261D4E904231143C268194341F204
:101B30000C639A431143C1604169A26921F4407169
:101B4000114343F60002C4F201029042416103D006
:101B5000FFF72CF802E000BFFFF73CF8626819219C
:101B600048439100B0FBF1F048F21F51C5F2EB1170
:101B7000A0FB01235A096FF0630302FB0300322329
:101B800003EB0010A0FB0101F02303EA51132068CE
:101B900003EB0212C1F3431111448160016921F486
:101BA00090410161416921F02A014161C16841F41C
:101BB0000051C16000202021606484F8411084F845
:101BC0004210606310BD000070B586B0006844F23A
:101BD0000041C4F20001002688420596CDE9036663
:101BE00002963FD043F60001C4F20101884266D15B
:101BF00041F21800C4F20200016840F6000441F40A
:101C0000804101600168C4F2010401F48041019146
:101C10000199016802AD41F00401016000682946A4
:101C200000F00400019001984FF40070029002202F
:101C30000390032005902046FEF716FD4FF48060C8
:101C400002900020CDE9030020462946FEF70CFD56
:101C5000252000210022FEF787FE2520FEF774FED6
:101C600006B070BD41F21800C4F20200416840F6AF
:101C7000000441F4003141604168C4F2010401F400
:101C8000003101910199016802AD41F00401016048
:101C90000068294600F00400019001980420029099
:101CA00002200390032005902046FEF7DDFC08206B
:101CB000CDE90206204629460496FEF7D5FC06B07B
:101CC00070BD000090F84230202B1CBF02207047EE
:101CD00000294FF0010318BF002A01D118467047B0
:101CE00000230363816222218285C285436480F8D8
:101CF00042100169006819B1C16841F48071C16086
:101D00004169002341F001014161C16841F02001B6
:101D1000C16018467047000040F28821C2F20001FD
:101D2000884218BF7047B0B540F27014C2F2000488
:101D300021780BA002F0FCFD2078A0F1300509A06D
:101D4000294602F0F5FD284604F0C8FB40F2882041
:101D5000C2F2000021460122BDE8B040FFF7B2BF49
:101D600025630A0025640A002DE9F04381B004468A
:101D700090F84100202840F0B1800F4600294FF034
:101D8000010000F0D0801646002A00F0CC804FF011
:101D9000000821201D46C4F8448084F84100FEF765
:101DA00073FDA684E684A1680646B1F5805F05D17F
:101DB0002069002814BF3846B8460746E18C2068E1
:101DC000002900F08F8005F101090AE047B317F8F8
:101DD000011B4160E18C0139E184E18C002900F0B4
:101DE000818001680906F1D4B9F1000F0AD0EDB184
:101DF000FEF74AFD801BA84218D820680168090632
:101E0000F6D5E3E701680906E0D4016809065CBF7E
:101E100001685FEA0161D9D401680906F2D5D5E706
:101E200038F8021B00276FF35F21D2E7206850E8E3
:101E3000030F216820F4D07041E80302BAB3206890
:101E400050E8030F216820F4D07041E8030272B318
:101E5000206850E8030F216820F4D07041E80302A5
:101E60002AB3206850E8030F216820F4D07041E8BD
:101E70000302002ADAD11AE0206850E8050F216831
:101E800020F0010041E80502DAB1206850E8050FB2
:101E9000216820F0010041E8050292B1206850E875
:101EA000050F216820F0010041E805024AB12068D1
:101EB00050E8050F216820F0010041E80502002AE2
:101EC000DAD1202084F8410084F84200002084F810
:101ED0004000032001B0BDE8F08300BF022001B044
:101EE000BDE8F0830168490619D4FDB1691C0DD124
:101EF0000168490613D4016849065CBF01685FEABE
:101F000041610CD401684906F2D508E0FEF7BCFC3B
:101F1000801BA8420AD8206800684006F6D5202019
:101F200084F84100002001B0BDE8F083206850E84B
:101F3000030F216820F4D07041E80302E2B3206867
:101F400050E8030F216820F4D07041E803029AB3EF
:101F5000206850E8030F216820F4D07041E80302A4
:101F600052B3206850E8030F216820F4D07041E894
:101F70000302002ADAD11FE0206850E8050F21682B
:101F800020F0010041E80502002A9AD0206850E8BC
:101F9000050F216820F0010041E80502002A3FF406
:101FA00090AF206850E8050F216820F0010041E85B
:101FB0000502002A3FF485AF206850E8050F21682C
:101FC00020F0010041E80502002AD5D179E70000A0
:101FD0007047000070B584B041F21800C4F20200EE
:101FE000016840F6004441F0200101600168C4F23C
:101FF000010401F02001009100990168002241F0E4
:102000000401016001684FF4405501F004010091A2
:1020100000990168002641F00801016000684FF452
:10202000405100F00800009000982046FEF726FC82
:102030000120CDE901060220039069462046009563
:10204000FEF712FB04B070BD80B58AB040F2F81004
:102050000021C2F200004FF080424FF6FF73CDE93D
:102060000811CDE90611CDE90411C0E90021C0E94C
:10207000021301618161FFF771F9002818BFFEF7B3
:102080006FFA40F2F810C2F2000008A9FEF7A6FFAE
:10209000002818BFFEF764FA602001900020CDE907
:1020A0000200059040F2F810C2F2000001A90022DF
:1020B000FFF752F8002818BFFEF752FA40F2F81066
:1020C000C2F2000001A90422FFF746F8002818BF59
:1020D000FEF746FA40F2F810C2F2000001A9082209
:1020E000FFF73AF8002818BFFEF73AFA40F2F81066
:1020F000C2F2000001A90C22FFF72EF8002818BF39
:10210000FEF72EFA40F2F810C2F20000FEF7A4FF2C
:102110000AB080BD80B58AB040F2402040F2004253
:102120000021C2F20000C4F200024FF6FF73CDE9B5
:102130000811CDE90611CDE90411C0E90021C0E97B
:10214000021301618161FFF709F9002818BFFEF74A
:1021500007FA40F24020C2F2000008A9FEF73EFF55
:10216000002818BFFEF7FCF9602001900020CDE99F
:102170000200059040F24020C2F2000001A90022B6
:10218000FEF7EAFF002818BFFEF7EAF940F2402008
:10219000C2F2000001A90422FEF7DEFF002818BFEA
:1021A000FEF7DEF940F24020C2F2000001A9082249
:1021B000FEF7D2FF002818BFFEF7D2F940F2402008
:1021C000C2F2000001A90C22FEF7C6FF002818BFCA
:1021D000FEF7C6F940F24020C2F20000FEF73CFFD5
:1021E0000AB080BD80B540F2882043F60001C2F2FB
:1021F0000000C4F2010100234FF00C0C4FF4E13257
:1022000080E80E00C0E90333C0E905C3C361FFF7EE
:102210006BFC002808BF80BDBDE88040FEF7A0B978
:1022200080B540F2D02044F20041C2F20000C4F276
:10223000000100234FF00C0C4FF4E13280E80E0057
:10224000C0E90333C0E905C3C361FFF74DFC0028B3
:1022500008BF80BDBDE88040FEF782B9FEE7000000
:10226000FEE7000080B502F047FB03F06DFBBDE820
:10227000804002F04FBB0000B0B590B006AC201D0E
:102280002421FEF7AFF80220069001200A901020CA
:102290000B90002520460D95FEF7B0FC20B1EFF322
:1022A000108072B6FEE700BF0F20CDE9010501A83E
:1022B0000021CDE903550595FEF792FB20B1EFF320
:1022C000108072B6FEE700BF10B0B0BD41F204004E
:1022D000C4F20200016801F00C01082941F200215A
:1022E000C0F27A0119D102680368C2F38342DB03AA
:1022F00002F1020206D440F60011C0F23D01514342
:102300000BE000BF03689B0302D4514305E000BF0C
:1023100040F60011C0F23D01514340F21802C2F2F2
:1023200000021160006846F6FA03C0F30310C0F61D
:102330000003185C21FA00F010607047704700003D
:10234000406A0021C185C184FFF71AB981B090F8B5
:102350004210222920D18368B3F5805F08D101693A
:10236000002965D000F128010A6803685B680AE06B
:10237000014651F8282F13B90369002BF5D00368E3
:102380005B6803F07F0313700A6801320A60C18D35
:1023900001390A04C18501D001B070470168CA68DB
:1023A00022F02002CA60CA6822F48072CA604A69B8
:1023B00022F001024A61202280F84220002242637A
:1023C000036B012B3ED1026351E8031F026821F029
:1023D000100142E803130168DBB151E8031F0268F2
:1023E00021F0100142E80313016893B151E8031F83
:1023F000026821F0100142E8031301684BB151E873
:10240000031F026821F0100142E803130168002B4A
:10241000DAD10A68D20606D5002200920A68009234
:10242000496800910099818D01B0FFF7A7B800BFFE
:102430000168826A49686FF35F2122F8021B826299
:10244000A5E700BF01B0FFF767BC000040F288209D
:10245000C2F20000FFF796B8FEE70000002804BFB4
:1024600000207047C1B209B101200CE010F47F4197
:1024700002D0090A092006E010F47F0107BF010E0F
:102480001920090C112046F61412C0F60002515C06
:102490000844704780B500F007FB002080BD0000B5
:1024A00080B500F06DFC002080BD000070B582B0EA
:1024B00040F2081646F60C7046F6B471C2F20006F9
:1024C000C0F60000C0F60001C6E900010120782135
:1024D00001F05AFE706128B30A201521CDE90010E1
:1024E00042F25D5113A0C0F6000100224FF4806358
:1024F000002402F0DFFF7269054610A11046002299
:10250000002302F04FFD706990F8211041F00201A4
:1025100080F821101DB1284603F060F90024204600
:1025200002B070BD07A002F003FA4FF0FF3420465E
:1025300002B070BD747368656C6C0000736872786B
:10254000000000006E6F206D656D6F727920666F00
:1025500072207368656C6C0A0000000040F2081A73
:10256000C2F2000ADAF8140040F2741490F8211054
:10257000C2F2000441F0010280F82120880703D450
:102580000020207026E000BFDAF8101041B140F2C0
:102590007410C2F200008022FDF74BFF1AE000BF6A
:1025A00001F06CFB30B10020207147F26D30C2F2B7
:1025B000680009E046F67300C0F22000C4F803008A
:1025C00046F66610C7F26E3020602046FDF776FEB4
:1025D0003E212152204602F0ABF946F6EC664FF060
:1025E000010B4FF00008C0F60006022702E000BF12
:1025F00080F820B001F008FF8146DAF81400B9F144
:102600001B0FF5D090F82010022909D0012940F0C5
:102610007580B9F15B0F40F06F8080F82070E9E7BA
:10262000A9F14101022980F82080E3D3B9F1440FD8
:1026300000F29280DFE819F04600970097009700BB
:102640009700970097009700A000E00070009700A7
:1026500097007000970097009700970097009700E9
:1026600097009700970097009700970097009700B2
:1026700097009700970097009700970097009700A2
:102680009700970097009700970097009700970092
:102690009700970097009700970097009700970082
:1026A0009700970097009700970097009700970072
:1026B00097009700970097009700970097004800B1
:1026C000840100BF96E700BFB0F87410B0F8722024
:1026D0009142BFF48FAF084490F8221046F6EE60A6
:1026E000C0F6000002F024F9DAF81400B0F8741013
:1026F0000131A0F874107DE780F82080B9F10D0F4A
:102700002AD8DFE809F007303030303030303979FE
:10271000093030096EE700BF01F0B0FA012812D18C
:10272000DAF8140090F82110C90707D046F66D407A
:10273000C0F6000002F0FCF8DAF81400B0F87210ED
:10274000223001F049F8DAF8140090F821008007EF
:1027500078D484F800801DE1B9F17F0F0CD0B9F175
:10276000FF0F3FF447AFB0F87220502A74D3002215
:10277000A0F87220A4E000BFB0F8741000293FF464
:1027800039AFB0F872200139531E9AB2A0F87230F6
:102790008BB29A42A0F8741040F2B480C11801F1D3
:1027A00022002331D21A02F0BFF9DAF81400B0F88F
:1027B0007210084480F82280DAF81400B0F874101F
:1027C000084400F1220189A002F0B2F8DAF81410EE
:1027D000B1F87400B1F8721088423FF60BAF451E95
:1027E000304602F0A5F8DAF814000135B0F87200AE
:1027F0008542F5D3FEE600BFB0F8741051B1002554
:10280000304602F095F8DAF814000135B0F874108B
:102810008D42F5D300F1220546F66D40C0F600006A
:1028200002F086F801F02AFA012802D1284600F0C9
:1028300011FFDAF8140090F8210080076ED484F8B4
:102840000080C1E0DAF8101000296FD02046802205
:10285000FDF7EFFD9EE000BFB0F874309A422FD92B
:10286000C11801F123002231D21A02F05DF9DAF821
:102870001400B0F87410084480F82290DAF81400BC
:1028800090F82110C90709D0B0F87410084400F17D
:1028900022015AA002F04CF8DAF81400B0F8745093
:1028A000B0F872108D421DD2304602F041F8DAF8CD
:1028B00014000135B0F872108D42F5D312E000BF5C
:1028C000104480F82290DAF8140090F82110C9071B
:1028D00008D046F6EE60C0F60000494602F028F83F
:1028E000DAF81400B0F87210B0F874200131A0F8D2
:1028F000721089B201325029A0F8742028BFC0F8A4
:10290000728077E638A002F013F8DAF81400B0F815
:102910007210084480F822806CE600BFDAF81010CC
:10292000F1B120468022FDF784FD4DE001F0A6F9CB
:1029300000B347F26D3084F80480C2F2680023E0EF
:10294000B0F8740000283FF455AE304601F0F0FFB7
:10295000DAF81400B0F874100139A0F8741049E6E0
:1029600001F08CF900B347F26D3084F80480C2F2B4
:10297000680023E046F67300C0F22000C4F80300AC
:1029800046F66610C7F26E3020602046FDF796FCD2
:102990003E212152204601F0CBFFDAF814005421E9
:1029A0002230FDF7FDFC25E646F67300C0F220005C
:1029B000C4F8030046F66610C7F26E302060204669
:1029C000FDF77CFC3E2121520AA021462A4601F057
:1029D000AFFFDAF8145005F12200FDF76FFCA5F8FF
:1029E0007200A5F8740005E6082008000825732089
:1029F00020080000257325730000000025730000E7
:102A000080B502A001F094FF002080BD48656C6C89
:102A10006F2052542D546872656164210A000000D1
:102A20002DE9F04381B016A001F082FF40F20810BA
:102A300040F20C19C2F20000C2F200090768D9F88E
:102A40000050AF4218D213A40FF24C0803E000BFAD
:102A50000C37AF4210D23E68214630460222FDF7C5
:102A60004CFC0028F4D07A684046314601F060FF03
:102A7000D9F80050ECE700BF002001B0BDE8F083BA
:102A80002D2D46756E6374696F6E204C6973743AB0
:102A90000A0000005F5F0000252D313673202D2DC8
:102AA0002025730A0000000010B540F2B004C2F205
:102AB0000004216806A001F03BFF216909A001F094
:102AC00037FF61690CA0BDE8104001F031BF00BFC5
:102AD000746F74616C206D656D6F72793A20256436
:102AE0000A00000075736564206D656D6F72792052
:102AF0003A2025640A0000006D6178696D756D20CB
:102B0000616C6C6F6361746564206D656D6F727963
:102B10003A2025640A0000002DE9F04F8DB0022014
:102B200002F056F900F104087AA081A2082101F010
:102B3000FFFE46F6AA64C0F60004204601F0F8FE47
:102B4000204601F0F5FE204601F0F2FE204601F09D
:102B5000EFFE204601F0ECFE204601F0E9FE2046A3
:102B600001F0E6FE204601F0E3FE74A001F0E0FE75
:102B700000260DF1140B7BA77BA4CDF80C8005E09B
:102B8000049EDDF80C80002E00F0C0803546002E3B
:102B900008BF4546FDF718FB36B115F8041C01F0D7
:102BA0007F01022940F0B0802968414500F0AC80E7
:102BB0000A68059142451DD01168069241451DD015
:102BC0000A68079142451DD01168089241451DD001
:102BD0000A68099142451DD011680A9241451DD0ED
:102BE0000A680B9142451DD04FF008081146049227
:102BF0000C921BE04FF0010816E000BF4FF00208F6
:102C000012E000BF4FF003080EE000BF4FF00408D1
:102C10000AE000BF4FF0050806E000BF4FF00608CD
:102C200002E000BF4FF007080021049150A5FDF716
:102C3000CFFA4FF0000905E0FDF7CAFA09F10109E2
:102C4000C1459DD05BF829A0FDF7BEFA1AF8041C17
:102C500001F07F010229EFD1FDF7BAFA5AF8081FF7
:102C60000026BAF808005145AAF1140351460FD0C6
:102C7000096851451FD00968514519D00968514567
:102C800018D0096804365145F2D1013E13E000BF67
:102C9000096851452FD00968514529D00968514527
:102CA00028D0096804365145F2D1013E23E000BF27
:102CB000013600E00236009026A008210822019685
:102CC00001F036FEDAF8006056450DD0A6F1140189
:102CD000384601F02DFE3068504505D0204601F001
:102CE00027FE36685645F1D120A001F021FEA5E768
:102CF000013600E00236009028460821082201969D
:102D000001F016FE9AE700BFFDF762FA00200DB051
:102D1000BDE8F08F252D2A2E732076202020737594
:102D20007370656E64207468726561640A000000E7
:102D300073656D6170686F7265000000202D2D2D28
:102D4000202D2D2D2D2D2D2D2D2D2D2D2D2D2D0AE3
:102D500000000000252D2A2E2A7320253033642000
:102D600025643A00257300002F0000000A000000CF
:102D7000252D2A2E2A7320253033642025640A004D
:102D80002DE9F04F8DB0012002F022F8051D46F626
:102D90003560C0F6000073A2082101F0C9FD46F6B7
:102DA000AA64C0F60004204601F0C2FD204601F0EE
:102DB000BFFD204601F0BCFD204601F0B9FD2046D4
:102DC00001F0B6FD204601F0B3FD204601F0B0FD54
:102DD000204601F0ADFD65A001F0AAFD00240DF133
:102DE000140A039505E000BF049C039D002C00F02D
:102DF000B5802646002C08BF2E46FDF7E5F934B114
:102E000016F8041C01F07F01012940F0A58031680B
:102E1000A94200F0A1800A680591AA421ED011685B
:102E20000692A9421ED00A680791AA421ED01168D4
:102E30000892A9421ED00A680991AA421ED01168C0
:102E40000A92A9421ED00A680B91AA421ED04FF0E6
:102E50000808114604920C921CE000BF4FF00108D4
:102E600016E000BF4FF0020812E000BF4FF0030869
:102E70000EE000BF4FF004080AE000BF4FF0050865
:102E800006E000BF4FF0060802E000BF4FF0070861
:102E900000210491FDF79CF94FF0000906E000BF06
:102EA000FDF796F909F10109C1459DD05AF829B0FD
:102EB000FDF78AF91BF8041C01F07F010129EFD10D
:102EC000ABF10C06FDF784F99BF8294037A00821E7
:102ED00008223346009401F02BFD9BF8280000F0F7
:102EE0000F00042804D834A151F8200001F020FD7F
:102EF000DBF81C00C11C00BF11F8032C232A0DD1E4
:102F000011F8022C232A0BD111F8012C232A09D104
:102F100011F8042B232AEFD0043904E0033902E02E
:102F2000023900E00139DBE90824DBF810601718EA
:102F3000401A104464214843DBF83450B0FBF2F3EC
:102F4000B91B22A00095019401F0F2FC09F10109DE
:102F5000C145ABD148E700BFFDF73AF900200DB0FD
:102F6000BDE8F08F7468726561640000202D2D2D1E
:102F700020202D2D2D2D2D2D2D202D2D2D2D2D2DA8
:102F80002D2D2D2D202D2D2D2D2D2D2D2D2D2D208B
:102F9000202D2D2D2D2D2D20202D2D2D2D2D2D2D88
:102FA0002D2D2D202D2D2D0A00000000252D2A2E3F
:102FB0002A73202533642000796E00088B6E000888
:102FC000AC6E0008B56E0008826E000820307825CF
:102FD000303878203078253038782020202025306F
:102FE000326425252020203078253038782025307F
:102FF00033640A002DE9F04F8FB00A2001F0E8FE9B
:1030000000F104090FF2B0400FF2D442082101F0A0
:103010008FFC46F6AA64C0F60004204601F088FC46
:10302000204601F085FC204601F082FC204601F09C
:103030007FFC204601F07CFC204601F079FC204614
:1030400001F076FC204601F073FC0FF29C4001F089
:103050006FFC002623E000BFA4F10C07FDF7B8F8D1
:10306000D4E906050821009046F69460C0F60000F9
:1030700008223B46019501F05BFC14F8030CC007E5
:1030800007BF46F62860C0F6000046F62A60C0F684
:10309000000001F04DFC00BF002E00F0038234461A
:1030A000002E08BF4C46FDF78FF836B114F8041C0B
:1030B00001F07F010A2940F0F3812168494500F0C1
:1030C000EF810A6807914A4520D011680892494566
:1030D00022D00A6809914A4500F0C28011680A921C
:1030E000494500F0F9800A680B914A4500F03281A9
:1030F00011680C92494500F039810E680D914E45DA
:1031000000F0768100240E9602E000BF0026012424
:103110004FF0000B04E000BF4FF0010B002600242D
:103120004FF0000A00210691002105910021049131
:1031300000210391FDF74CF8DDF81C80FDF744F801
:1031400018F8041C01F07F010A2923D1A8F10C070B
:10315000FDF73EF8D8E906050821009046F6946090
:10316000C0F6000008223B46019501F0E1FB18F88B
:10317000030CC00707BF46F62860C0F6000046F6FD
:103180002A60C0F6000001F0D3FB002C7FF484AF6E
:1031900005E000BFFDF71CF8002C7FF47DAF089C14
:1031A000FDF712F814F8041C01F07F010A2923D15D
:1031B000A4F10C07FDF70CF8D4E9060508210090EE
:1031C00046F69460C0F6000008223B46019501F0E7
:1031D000AFFB14F8030CC00707BF46F62860C0F623
:1031E000000046F62A60C0F6000001F0A1FBBBF12A
:1031F000000F7FF451AF05E0FCF7EAFFBBF1000FD1
:103200007FF44AAF099CFCF7DFFF14F8041C01F0BF
:103210007F010A292CD1A4F10C07FCF7D9FFD4E9CE
:1032200006050821009046F69460C0F600000822CA
:103230003B46019501F07CFB14F8030CC00707BF67
:1032400046F62860C0F6000046F62A60C0F6000088
:1032500001F06EFBBAF1000F7FF41EAF0EE000BF6D
:103260004FF0010A002600244FF0000B5AE700BF80
:10327000FCF7AEFFBAF1000F7FF40EAF0A9CFCF72B
:10328000A3FF14F8041C01F07F010A292ED1A4F138
:103290000C07FCF79DFFD4E906050821009046F6CF
:1032A0009460C0F6000008223B46019501F040FB07
:1032B00014F8030CC00707BF46F62860C0F60000EC
:1032C00046F62A60C0F6000001F032FB069800289E
:1032D0007FF4E2AE10E000BF012106910026002439
:1032E0004FF0000B4FF0000A1EE700BFFCF770FF25
:1032F000069800287FF4D0AE0B9CFCF765FF14F80D
:10330000041C01F07F010A293ED1A4F10C07FCF74F
:103310005FFFD4E906050821009046F69460C0F6E8
:10332000000008223B46019501F002FB14F8030C53
:10333000C00707BF46F62860C0F6000046F62A60C0
:10334000C0F6000001F0F4FA059800287FF4A4AE5E
:1033500020E000BF012105910021002600244FF04C
:10336000000B4FF0000A0691E0E600BF0121049136
:10337000002106910021002600244FF0000B4FF0A1
:10338000000A0591D4E600BFFCF722FF059800284B
:103390007FF482AE0C9CFCF717FF14F8041C01F0BC
:1033A0007F010A2934D1A4F10C07FCF711FFD4E9FD
:1033B00006050821009046F69460C0F60000082239
:1033C0003B46019501F0B4FA14F8030CC00707BF9F
:1033D00046F62860C0F6000046F62A60C0F60000F7
:1033E00001F0A6FA049800287FF456AE16E000BF5C
:1033F0000121039100210691002105910021002661
:1034000000244FF0000B4FF0000A049192E600BF39
:10341000FCF7DEFE049800287FF43EAE0D9CFCF71E
:10342000D3FE14F8041C01F07F010A2924D1A4F171
:103430000C07FCF7CDFED4E906050821009046F6FE
:103440009460C0F6000008223B46019501F070FA36
:1034500014F8030CC00707BF46F62860C0F600004A
:1034600046F62A60C0F6000001F062FA03980028D0
:103470007FF412AE06E000BFFCF7AAFE0398002816
:103480007FF40AAE0E9CFCF79FFE14F8041C01F0BA
:103490007F010A293FF4E0ADFCF79AFEFCE500BF8E
:1034A000FCF796FE02F04AFA014618A001F040FA35
:1034B00000200FB0BDE8F08F252D2A2E732020703C
:1034C0006572696F64696320202074696D656F752A
:1034D0007420202020202020666C61670A000000F4
:1034E00074696D6572000000202D2D2D2D2D2D2D60
:1034F0002D2D2D202D2D2D2D2D2D2D2D2D2D202D16
:103500002D2D2D2D2D2D2D2D2D2D0A006375727233
:10351000656E74207469636B3A3078253038780AA8
:103520000000000090B0FDF7B5F906AC201D242185
:10353000FCF758FF0220069001200A9010200B9003
:10354000002520460D95FDF759FB28B1EFF31080BB
:1035500072B600BFFEE700BF0F20CDE9010501A84C
:103560000021CDE903550595FDF73AFA20B1EFF3B7
:10357000108072B6FEE700BFFEF72CFDFEF764FD7B
:10358000FEF7C8FDFEF72EFEFEF74AFE40F60044A9
:10359000C4F2010420464FF400510122FDF76EF9F8
:1035A00020464FF480510122FDF768F940F2F814EB
:1035B000C2F2000420460021FDF770FF20460421DE
:1035C000FDF76CFF20460821FDF768FF20460C211F
:1035D000FDF764FF40F24024C2F2000420460021BF
:1035E000FDF75CFF20460421FDF758FF2046082127
:1035F000FDF754FF20460C21FDF750FF40F28820D4
:1036000040F27011C2F20000C2F200010122FEF786
:1036100059FB00BF4FF47A7002F072F8FAE700002D
:10362000B0B546F6087446F60070C0F60004C0F661
:103630000000A04209D246F60075C0F6000500BFA2
:1036400055F8040B8047A542FAD3BDE8B040FFF718
:1036500069BF00002DE9F04F81B083460078A8B122
:1036600040F20810C2F20000056840F20C10C2F2ED
:103670000000D0F80080454580F0A88046F6E56956
:103680004FF0000AC0F6000900264CE046F6BE6086
:10369000C0F6000001F04CF940F2081040F20C199D
:1036A000C2F20000C2F200090768D9F80050AF4228
:1036B0001CD246F6E56446F6D968C0F60004C0F6AA
:1036C000000802E00C37AF4210D23E682146304677
:1036D0000622FCF712FE0028F4D17A68B11D40469C
:1036E00001F026F9D9F80050ECE700BF46F66D402E
:1036F000C0F6000001B0BDE8F04F01F019B900BFFD
:10370000481C801B5045B8BF824632A0394601F0A4
:103710000FF940F20C10C2F20000D0F8008000BF98
:103720000C35454548D22F68494638460622FCF7F5
:10373000E4FD0028F4D158460637FCF7BFFD0246E9
:1037400058463946FCF7D9FD0028E9D1BAF1000FF7
:1037500004D03178304651B9D3E700BF3846FCF782
:10376000ADFD82463E46317830460029C9D0002062
:103770003A5CDAB1914219D131184B78002BBFD0A5
:103780003A185478002CBBD0A342B9D18B787BB1C6
:1037900094786CB1A3420BD1CB785BB1D2784AB1AB
:1037A000934207D1097904300029E1D13044A8E7D8
:1037B000881CA6E7C81CA4E746B1584631465246C5
:1037C00001B0BDE8F04F01F01FBD00BF01B0BDE882
:1037D000F08F00BF25730A002DE9F04F8BB069B35D
:1037E0000D464A420023834607E000BF04330BF135
:1037F000040BD118A5F1040520D0C15C202901D00B
:10380000092926D1D618711C18D2C7187978202911
:1038100001D0092916D1B11C10D0B978202901D0C6
:10382000092913D1F11C09D0F9782029DED0092902
:10383000DCD0033D07F1030B0BE000BF00200BB011
:10384000BDE8F08F0BF1010B013D02E00BF1020B23
:10385000023D68426A1E4FF00009C9B2092933D0FF
:10386000202931D04D4521D00BEB09014B78092B94
:1038700022D0202B20D04A4518D08B78092B21D07C
:10388000202B1FD000EB09039F1C0FD0CF78092FEE
:1038900000F04281202F00F03F81033306D00979E8
:1038A00009F10409C9B20929DAD10DE0A946B9F133
:1038B000000F0DD136E100BF09F10109B9F1000F88
:1038C00006D12FE109F10209B9F1000F00F02A81B8
:1038D00040F20810C2F20000066840F20C10C2F27A
:1038E00000000468A64280F01D8146F6E56809F1F3
:1038F000060AC0F6000803E00C36A64280F01281EA
:103900003768414638460622FCF7F7FC0028F3D119
:10391000B81D59464A46FCF7F0FC0028ECD117F8D0
:103920000A000028E8D1B0680028009000F0FA8072
:103930004FF0000C4FF0000800275A46CDE909CCA3
:10394000CDE907CCCDE905CCCDE903CC2946CDF8AE
:103950000880AF4288BF39467B1A03F10108002076
:1039600096460197165C202E01D0092E46D113EB06
:10397000000A2FD002EB000999F8016002F800C09C
:10398000202E01D0092E3BD118EB000C26D099F83F
:1039900002604FF0000C202E89F801C001D0092EE2
:1039A00032D11AF1020421D099F8036089F802C0DB
:1039B000202E01D0092E2BD11AF103041AD089F838
:1039C00003C00EF1040E04370430165C202ECCD157
:1039D000CDE700BF02EB000E1FE000BFDDF808805E
:1039E00009F1010E4FF0000C19E000BF09F1020EC1
:1039F00013E000BF0EF1030E0FE000BF39460CE0EC
:103A00000EF1010E791C08E00EF1020EB91C04E063
:103A1000019909F1030E0844C11CDDF80880B8F1D2
:103A2000080F80F0B180A94280F0C280222E21D1FF
:103A30000EF1010203A840F828209EF80170481CEE
:103A400004E000BF12F8017F01460130A8424FF0A8
:103A5000000338BF0123222F44D0A84242D25C2F5A
:103A6000F0D1134613F8017F222F04BF1A46881C99
:103A7000E8E700BF03A840F828E02846A94288BF2D
:103A800008460A1A08F10108541C00201EF80070AC
:103A9000092F22D0202F20D0171800F08C800EEB99
:103AA00000067378092B25D0202B23D0231800F093
:103AB0008280B378092B21D0202B1FD0BB1C00F0B3
:103AC0007A80F378092B1DD0202B1BD0FB1C72D0E1
:103AD00004301EF80070092FDCD10EEB00020F1825
:103AE00013E000BF002B08F1010864D002F801CBFD
:103AF0008F1C0CE00844721C471C06E00844B21CF2
:103B0000871C02E00844F21CC71CAF4253D2AF42EC
:103B1000FFF41CAF4FE000BF09F10309B9F1000F3A
:103B20007FF4D6AE00201BF8001041F020012029C0
:103B300017D00BEB00014A7842F02002202A13D064
:103B40008A7842F02002202A10D0CA7842F020025F
:103B5000202A0DD004301BF8001041F0200120294C
:103B6000E7D1584405E000BF481C02E0881C00E093
:103B7000C81C002101701CA0594600F0D9FE4FF06E
:103B8000FF300BB0BDE8F08F0EA000F0D1FE03A80F
:103B9000041F14A5464654F8041F284600F0C8FE2A
:103BA000013EF8D146F66D40C0F6000000F0C0FEC0
:103BB000B8F1000FB6D0009A03A9404690470BB069
:103BC000BDE8F08F546F6F206D616E792061726770
:103BD000732021205765206F6E6C79205573653AEC
:103BE0000A0000002573200025733A20636F6D6D75
:103BF000616E64206E6F7420666F756E642E0A00AD
:103C00002DE9F04381B046F6BE60C0F6000000F03A
:103C10008FFE40F2081040F20C19C2F20000C2F20E
:103C200000090768D9F80050AF421DD246F6E56496
:103C300046F6D968C0F60004C0F6000803E000BFED
:103C40000C37AF4210D23E68214630460622FCF7C0
:103C500054FB0028F4D17A68B11D404600F068FE9C
:103C6000D9F80050ECE700BF46F66D40C0F6000002
:103C700000F05EFE002001B0BDE8F0830120704737
:103C80002DE9F04F8AB0059115990FF2D4464F06F1
:103C90000FF2E04858BFB046CE06DDE9134948BFF1
:103CA00021F00101CE074FF0300A08BF4FF0200A83
:103CB0008E070DD400270197002701250097002AC1
:103CC00000F09A80CDE90251CDF810A013E000BFBA
:103CD000B2F1FF3F06DD4E0700F186800E07E9D501
:103CE000202782E001270197002702972D27CDE9A1
:103CF000031A524200974CF6CD494FF0000BCCF618
:103D0000CC490DF1180A00BFA2FB09561409F508A9
:103D100002F00F0705EB850C25460A2B04BFF508BA
:103D2000A2EB4C0718F80770002D0AF80B7049D069
:103D3000A5FB097C04F00F07140ACE464FEADC0607
:103D4000A14606EB86060A2B04BF4FEADC09A5EB69
:103D5000460718F807500AEB0B0CB9F1000F59464B
:103D60008CF8015032D0A9FB0E5604F00F05140B4D
:103D70005146F708A24607EB87070A2B04BF4FEA14
:103D8000D60AA9EB470518F80550BAF1000F8CF8D0
:103D900002501FD0AAFB0E5604F00F04120CF508B7
:103DA00005EB85050A2B04BFF208AAEB450418F8B9
:103DB0000440F1460BF1040B002A8A468CF80340BC
:103DC000A2D109E00BF1010B06E000BF0BF1020BE1
:103DD00002E000BF0BF1030BDDF810A0DDE902519A
:103DE000DDE913490DE000BF2B27009700250127CF
:103DF0000197002A7FF466AF30228DF818204FF02B
:103E0000010BDDF814E0CB454B46C8BF5B4611F013
:103E1000110FA4EB03025FD006462DB976453CBFD7
:103E200000983070013A0136C80631D4551EC0F2F0
:103E30008D8012F0030700F09580764538BF86F834
:103E400000A0012F06F1010040F09680023A0646DC
:103E5000032DC0F08B80101D764506F1010238BF9E
:103E600086F800A0724538BF82F800A0B21C7245E7
:103E700038BF82F800A0F21C7245A0F1040038BFE0
:103E800082F800A0032806F10406E5DC4FF0FF32BB
:103E90003046CB455EDAA3EB0B076FEA0B0617F053
:103EA000030703EB060C57D070453CBF3024047069
:103EB0005D1E012F00F1010409D07445A3F1020534
:103EC0003CBF30262670022F00F102046CD1204640
:103ED000BCF1030F73D28BE00027002AC8BF012773
:103EE000019E3740D71B7A1E96DB17F0030C51D08A
:103EF00070453CBF20240470BCF1010F00F10106A5
:103F000040F00481023F3046032A46D33A1D202662
:103F1000704500F1010738BF0670774538BF3E7025
:103F2000871C774538BF3E70C71C7745A2F1040255
:103F300038BF3E70032A00F10400E9DC4FF0FF3285
:103F40000646002D3FF46AAF6EE700BF30462A46B2
:103F5000CB45A0DB04464BE01D46BCF1030F2ED23F
:103F600046E000BF2A46032DBFF475AF4FF0FF3285
:103F7000CB45FFF690AFEDE7704538BF80F800A065
:103F8000022F06F1020040F0D180033A0646032DCD
:103F9000ECD360E71746032AB8D24FF0FF32002D6A
:103FA0003FF43CAF40E700BF03307445A3F1030585
:103FB0003CBF302323700446BCF1030F18D33023D9
:103FC000044600BF744504F1010038BF23707045FA
:103FD00038BF0370A01C704538BF0370E01C7045EB
:103FE000A5F1040538BF0370AB4504F10404E9DB17
:103FF000B9F1000F35D006A8023807E0ABF1040B89
:104000000BF10403042B04F104042AD9744503D2F0
:1040100000EB0B035B782370BBF1020F04F101038B
:104020001EDB73453CBF10F80B701F70BBF1030F14
:1040300004F1020314D3734504D200EB0B0717F805
:10404000017C1F70BBF1040F04F1030308D3734517
:10405000D4D200EB0B0717F8027C1F70CEE700BF2D
:104060001C46012A12DB12F00307A2F1010311D052
:1040700074453CBF20202070012F04F101000DD1B8
:104080001A460446032B3ED322E000BF20460AB066
:10409000BDE8F08F032B36D31AE000BF7045A2F1C4
:1040A00002063CBF20250570022F04F1020005D155
:1040B00032460446032B26D30AE000BF0334704582
:1040C000A2F103023CBF202707702046032B1AD31E
:1040D000013A2023204600BF704500F1010738BF98
:1040E0000370774538BF3B70871C774538BF3B70FE
:1040F000C71C7745A2F1040238BF3B7012F1020FD2
:1041000000F10400E8D30AB0BDE8F08F76453CBF6B
:1041100020243470BCF1020F00F1020612D1033FDB
:104120003046032AFFF439AFF0E600BF033670458E
:1041300038BF80F800A0043A3046032DBFF48BAEA0
:1041400014E700BF764503D22C462025357025465E
:104150000330043F0646032ABFF4D8AE1DE700BF74
:1041600030313233343536373839616263646566ED
:1041700000000000303132333435363738394142AF
:104180004344454600000000B0B501FB00F4204662
:1041900000F0E8FB054620B128460021224600F049
:1041A00039FD2846B0BD0000B0B546F6007446F6AD
:1041B000F860C0F60004C0F60000A04228BFB0BD01
:1041C00046F6F865C0F6000555F8040B8047A54291
:1041D000FAD3B0BD80B5FBF7F7FF40F2E801C2F2B9
:1041E00000014A8801324A80BDE88040FBF7F0BFF9
:1041F000B0B5FBF7E9FF40F2E805C2F200056988B7
:104200000446481E01B20029688005DD2046BDE84D
:10421000B040FBF7DDBF00BF002068802046FBF701
:10422000D7FF6868002808BFB0BDFBF7CDFF6988DD
:1042300004460029EAD1A868FEF710F9421E44F2AC
:104240002000C2F2000050F832106868A1F1140397
:104250009842DBD02A7043F698726B60C2F200027B
:1042600012781C3001F1080132B1FBF7B4FF20468F
:10427000BDE8B040FBF7ACBFFBF7ADFF2046BDE8A3
:10428000B040FBF7A5BF00002DE9F041002857D052
:1042900040F2B007C2F2000704467868A0424FD847
:1042A000B868A04298BFBDE8F08107F11808404601
:1042B0004FF0FF31A4F10C0600F0AEFE34F80A0C0A
:1042C00018B13088B0F5F55F0AD025A000F030FBBA
:1042D00034F80A2C34F80C3C28A0314600F028FBB6
:1042E0004FF4F55044F80C0CD7F80CC0B44584BF1B
:1042F000FE60B44654F8082C78683D691318F11A2A
:10430000294439610FD0598869B9B9688B420AD0FC
:104310009C4504BFFE60B4465A6844F8082C5968AE
:10432000331A01448B6054F8043CC518B54201D0DF
:10433000698839B14046BDE8F04100F043BE00BF96
:10434000BDE8F081B44508BFFD606A6054F8081C00
:10435000084483604046BDE8F04100F033BE00BF32
:10436000746F2066726565206120626164206461FB
:10437000746120626C6F636B3A0A00006D656D3A80
:10438000203078253038782C207573656420666C71
:1043900061673A2025642C206D6167696320636F33
:1043A00064653A203078253034780A0040F2943041
:1043B000C2F200007047000040F29430C2F20000E8
:1043C00000F570507047000010B5FCF763FAFDF778
:1043D00053FFFDF77BFFFCF7E3FB44F6D351C1F23B
:1043E0006201A0FB01018809FCF7E2FDFFF7DCFE9A
:1043F000FFF7DCFF0446FFF7DFFF01462046BDE87C
:10440000104000F045BF000080B540F22810C2F215
:10441000000000680168890606D40A2001F070F9DE
:10442000FF20C0B280BD00BF4068C0B280BD0000A8
:10443000F0B581B004460D208DF8030040F228103D
:10444000C2F20000002180F84010204600F0BEFEBD
:10445000E0B140F228160546C2F200060DF103074E
:104460000AE000BF3046214601220123FDF77CFC13
:10447000013D04F1010409D020780A28F2D1304628
:10448000394601220123FDF76FFCEBE701B0F0BDD7
:1044900010B540F29031C2F200010968044621B122
:1044A00020468847002808BF10BD216C46F66250A0
:1044B000C0F6000000F03CFA616A46F62150C0F6F2
:1044C000000000F035FAA16A46F62E50C0F6000052
:1044D00000F02EFAE16A46F63B50C0F6000000F00C
:1044E00027FA216B46F64850C0F6000000F020FA8B
:1044F000616846F65550C0F6000000F019FAA16850
:10450000C4A000F015FAE168C6A000F011FA216914
:10451000C8A000F00DFA6169CAA000F009FAA1690B
:10452000CCA000F005FAE169CEA000F001FA216A02
:10453000D0A000F0FDF9616BD2A000F0F9F9A16BF9
:10454000D4A000F0F5F9E16BD6A000F0F1F92078E5
:10455000400707D446F67B40C0F6000000F0E8F9BB
:104560000BE000BF01F0F8F8014646F69540C0F6B2
:10457000000000F0DDF9FEF703FC4EF62954CEF200
:104580000004D4F80300800705D546F6FF40C0F6C6
:10459000000000F0CDF9D4F80300400040F1F880AD
:1045A000207830B346F6D340C0F6000000F0C0F9E2
:1045B000217846F6E650C0F6000000F0B9F9207800
:1045C000C00745D1207880074BD42078400751D4CC
:1045D0002078000757D42078C0065DD494F90000F5
:1045E000B0F1FF3F60DD46F66D40C0F6000000F020
:1045F0009FF914F8010C002800F0958046F6B240AF
:10460000C0F6000000F094F914F8011C46F6FC50C6
:10461000C0F6000000F08CF914F8010CC00751D16D
:1046200014F8010C800757D414F8010C00075DD46E
:1046300014F8010CC00663D414F9010CB0F1FF3F6B
:1046400069DD46F66D40C0F6000000F071F96AE0E1
:1046500046F6D150C0F6000000F06AF920788007D5
:10466000B3D546F6C650C0F6000000F061F92078D8
:104670004007ADD546F6C450C0F6000000F058F92A
:1046800020780007A7D546F6BA50C0F6000000F023
:104690004FF92078C006A1D586A000F049F994F919
:1046A0000000B0F1FF3F9EDCD4F80F1046F6DF406B
:1046B000C0F6000000F03CF914F8010C00289DD170
:1046C00031E000BF46F69550C0F6000000F030F92A
:1046D00014F8010C8007A7D546F68B50C0F60000F1
:1046E00000F026F914F8010C0007A1D546F6B950E0
:1046F000C0F6000000F01CF914F8010CC0069BD5B0
:1047000046F6B050C0F6000000F012F914F9010CA2
:10471000B0F1FF3F95DCD4F80B1046F6EF40C0F641
:10472000000000F005F9B4F8010088B346F6C54072
:10473000C0F6000000F0FCF8B4F8011046F6126074
:10474000C0F6000000F0F4F8B4F80100C0072DD165
:10475000B4F80100800733D4B4F80100400739D41D
:10476000B4F8010000073FD4B4F80100C00545D4F7
:10477000B4F80100800505D546F69F50C0F600004C
:1047800000F0D6F846F66D40C0F6000000F0D0F814
:10479000D4F80300B0F1FF3F06DC46F61450C0F633
:1047A000000000F0C5F800BFFEE700BF46F6DA5093
:1047B000C0F6000000F0BCF8B4F801008007CBD5CB
:1047C00046F68150C0F6000000F0B2F8B4F80100DF
:1047D0004007C5D546F66F50C0F6000000F0A8F8B7
:1047E000B4F801000007BFD546F6AA50C0F6000095
:1047F00000F09EF8B4F80100C005B9D546F6765031
:10480000C0F6000000F094F8B4F801008005B3D4BD
:10481000B8E700BF7230353A203078253038780A52
:10482000000000007230363A203078253038780A9F
:10483000000000007230373A203078253038780A8E
:10484000000000007230383A203078253038780A7D
:10485000000000007230393A203078253038780A6C
:10486000000000007231303A203078253038780A64
:10487000000000007231313A203078253038780A53
:10488000000000007231323A203078253038780A42
:1048900000000000206C723A203078253038780A09
:1048A000000000002070633A203078253038780A04
:1048B0000000000053544B455252200004324BF686
:1048C000EF6C22F00702CDF6AD6C42F840CDC2E9A4
:1048D00001CCC2E903CCC2E905CCC2E907C1002181
:1048E0004FF0807CC2E90D301046C2E90911C2E9DF
:1048F0000B11C2F83CC0704780B5FBF765FC43F66E
:104900009871C2F200010A7801320A70BDE8804055
:10491000FBF75EBC80B5FBF757FC43F69871C2F21B
:1049200000010A78013A0A70BDE88040FBF750BCEC
:1049300083B010B581B043F6A074844603A8C2F2D8
:1049400000040EC003AB20467F216246009301F0B5
:10495000A9F92046FFF76CFD01B0BDE8104003B097
:10496000704700002DE9F04F81B0002800F08380EF
:1049700040F2B009C2F200090330D9F8001020F06B
:104980000308884577D809F1180B58464FF0FF31D6
:10499000B8F10C0F98BF4FF00C0800F03DFBD9F8B0
:1049A0000CE0D9E900CAAEEB0A02ACEB0807BA4248
:1049B0005ED20AEB02052B4633F8020F2E4656F85C
:1049C000044F20B902F10C00211A414558D2BC42D3
:1049D0004ED20AEB04052B4633F8020F2E4656F84A
:1049E000042F20B904F10C00111A414520D2BA421B
:1049F0003ED20AEB02052B4633F8020F2E4656F83C
:104A0000044F20B902F10C00211A414538D2BC42B2
:104A10002ED20AEB04052B4633F8020F2E4656F829
:104A2000042F0028C3D104F10C00111A4145BED354
:104A3000CDF800B0A346144608F11802914226D3DF
:104A400040440AEB00024FF4F5574AF80070C2E9FF
:104A5000014B3060526801240CF10C07BA421C80F3
:104A60001CBF52449060D9F8100008F10C0114E00A
:104A7000584600F0A7FA002001B0BDE8F08F00BF53
:104A8000CDF800B0934608F118029142D8D2012027
:104A9000D9F810101880A4EB0B00D9F814200144A9
:104AA0008A420098C9F8101038BFC9F814104FF4A2
:104AB000F551AE45298030D1BEF8021069B3D9F85E
:104AC0000820724529D0DEF804100AEB010EBEF86A
:104AD0000210002918BF72451DD0DEF804100AEB41
:104AE000010EBEF80210002918BF724513D0DEF87F
:104AF00004100AEB010EBEF80210002918BF72451F
:104B000009D0DEF804100AEB010EBEF802100029ED
:104B100018BF7245D7D1C9F80CE000F053FA05F17F
:104B20000C0001B0BDE8F08FB0B5814214D28B18F3
:104B3000834211D9002A47D000EB020E12F0030184
:104B4000A2F1010C4FD013F8014D01290EF8014DCF
:104B50003CD1624647E000BFB2B312F00304A2F1B9
:104B6000010C09D08E461EF8015B0346012C03F8A8
:104B7000015B05D1624613E08E46034610E000BF9C
:104B80004B78022C437005D1023A01F1020E831CCE
:104B900006E000BF01F1030E8978033AC31C81705F
:104BA000BCF1030F38BFB0BDAEF10401043B00BF40
:104BB00011F8045F043A03F8045F4D785D708D7856
:104BC0009D70CD78DD70F3D1B0BD00BF13F8014DFD
:104BD00002290EF8014D01D1023A04E013F8011D3B
:104BE000033A0EF8011DBCF1030FEDD3AEF1040141
:104BF000023B00BF5C78043ACC701C788C7013F8D0
:104C0000014C4C7013F8024CA3F1040301F8044961
:104C1000F0D1D9E770B5042A06461BD316F003007D
:104C200018D1C8B24FF00133102A00FB03F313D39D
:104C3000A2F1100C012000EB1C1010F003000DD0AD
:104C40000128C6E90033B360F36009D106F1100012
:104C5000624616E0304650E030462EE0304610E026
:104C60000228C6E90433B361F36103D106F12000E1
:104C7000203A06E006F13000303AC6E90833C6E9CA
:104C80000A33BCF1300F16D300F14004403AC0E9BA
:104C90000033C0E90233C0E90433C0E90633C0E998
:104CA0000833C0E90A33C0E90C33C0E90E330F2AD8
:104CB0002046E9D82046042A1FD30446151F042D98
:104CC00040F8043B18D3A2F10805042D63600DD30E
:104CD000A2F10C05042DA3600CD304F11000103ACE
:104CE000E360032A0446E9D807E000BF04F10800A6
:104CF00002E000BF04F10C002A4622B1CBB21146FB
:104D00001A46FBF745FB304670BD00002DE9F04127
:104D1000884640F21C01C2F200010A780546824230
:104D20000C460AD00C4614F8100FA84205D011F812
:104D3000200FA84218BF00210C46E068FFF712FEC2
:104D40004FF00007C0B1E26800210646FFF762FF9E
:104D50003046414608223572777200F055FAFBF76B
:104D600033FA54F8041F324642F80C1F4A6022609E
:104D70003461FBF72DFA37463846BDE8F081000074
:104D800010B5044600202072FBF71EFA2246216966
:104D900052F80C3F5960216922610B601260FBF7E9
:104DA00017FA2046BDE81040FFF76EBA10B504466A
:104DB00000202072FBF708FA54F80C1F62684A6062
:104DC00062681160C4E90044BDE81040FBF700BA16
:104DD00040F21C02C2F200021178814211460AD050
:104DE000114611F8103F834205D012F8201F81426E
:104DF00018BF00221146084670470000F0B581B088
:104E00000E4640F21C01C2F2000115460A78044623
:104E1000B2420F460AD00F4617F8100FB04205D025
:104E200011F8200FB04218BF00210F46FFF7D2F94A
:104E3000043738460068B84208D00068B84205D048
:104E40000068B84202D00068B842F3D1FFF7D0F949
:104E500046F08000207220462946082200F0D4F94E
:104E6000FBF7B2F9396844F80C1F4C603C6067608E
:104E700001B0BDE8F040FBF7ABB90000007AC00913
:104E800070470000B0B5FBF79FF940F2E805C2F2A9
:104E900000056988044629B12046BDE8B040FBF70B
:104EA00097B900BFA868FDF7D9FA44F2200101388C
:104EB000C2F2000151F830106A68A1F114039A425D
:104EC000EAD0287043F698706B60C2F20000037855
:104ED00002F11C0001F1080133B1FBF77CF9204617
:104EE000BDE8B040FBF774B9FBF775F92046BDE8A3
:104EF000B040FBF76DB9000010B50446FBF764F94C
:104F000094F8341094F8352001F0F001013184F860
:104F1000341044F22001C2F2000101EBC2014A68E0
:104F200040F2E80C04F11403C2F2000C1360A26119
:104F30004B60A26BDCF80830616143EA0201CCF8F7
:104F40000810BDE81040FBF743B90000B0B50546B6
:104F5000FBF73AF9294651F8142F4B6853604B6818
:104F600049601A6091F8212044F220030960C2F2DE
:104F7000000353F8324003EBC202944204D0BDE870
:104F8000B040FBF725B900BF40F2E802C2F20002D0
:104F9000A96B936823EA01019160BDE8B040FBF77B
:104FA00017B9000070B515460A4602211C46064690
:104FB000FFF724FF06F11400C6E905000020B583C1
:104FC000747270BDB0B50546FBF7FEF82A4652F87C
:104FD000141F044691420BD0A1F1140000F098FB7D
:104FE0002046FBF7F5F8FFF74DFF0020B0BD00BFEE
:104FF000A88B4FF6FF71884206D12046FBF7E8F8F0
:105000006FF00200B0BD00BF0130A8832046FBF75F
:10501000DFF80020B0BD00002DE9F04381B08946E3
:1050200007460091FBF7D0F8B98B804641B1481E86
:10503000B8834046FBF7CCF8002001B0BDE8F08310
:10504000B9F1000F3ED000F087FB05460020286331
:105050007E7A284607F1140400F0EEFBD6B3012E49
:105060003FD120460068A04234D095F8351090F822
:10507000212091421AD30068A0422BD095F8351018
:1050800090F82120914211D30068A04222D095F8D7
:10509000351090F82120914208D30068A04219D021
:1050A00095F8351090F821209142DBD214388269AE
:1050B00000F1140105F114031360AA6183616961B1
:1050C0000FE000BF4046FBF783F86FF0010001B02E
:1050D000BDE8F083B86905F114010160A861B96108
:1050E0006C61B9F1010F09DB05F144066A463046EF
:1050F000002100F0EFFC304600F052FD4046FBF787
:1051000067F8FFF7BFFE286B002808BF002001B03A
:10511000BDE8F08380B582B00AA0FFF709FC0CA0BF
:10512000FFF706FC0FF24C0C15A00321012205230A
:10513000CDF800C0FFF7FCFB19A002B0BDE880402D
:10514000FFF7F6BB0A205C207C202F0A000000003D
:105150002D205254202D202020202054687265617B
:1051600064204F7065726174696E6720537973743F
:10517000656D0A004A756E203234203230323400B8
:10518000202F207C205C202020202025642E2564D8
:105190002E2564206275696C642025730A00000066
:1051A0002032303036202D203230323020436F70A4
:1051B0007972696768742062792072742D746872DC
:1051C000656164207465616D0A000000C11C00BF48
:1051D00011F8032C62B111F8022C6AB111F8012CFC
:1051E00072B111F8042B002AF2D10439081A704761
:1051F0000339081A704700BF0239081A704700BF08
:105200000139081A704700002DE9F0418046DAB3F1
:10521000C2F1000C00234446CF5C08F80370DFB1F4
:105220000CEB0306771C2FD2CF18787808EB030518
:105230006870A8B1B01C27D0B878A870B0B1F01CC5
:1052400022D0F878E870D8B1043304341CEB0300A2
:10525000A2F10402E0D117E0601C511E0AD113E054
:10526000A01C013A511E05D10EE000BFE01C023A1D
:10527000511E09D0FBF794F84046BDE8F08100BF0D
:10528000033A281D511EF5D14046BDE8F0810000CB
:1052900021F003038C46192B01462DD3C81C20F0A6
:1052A0000300A3F11802824226D310B5191A40F266
:1052B000B004A1F11802C2F20004C4E900204FF4C6
:1052C000F5520C394FF0000CC0E90021C0F808C0BD
:1052D00041F6A060C0F201001A4642F80C0DA2602F
:1052E00043E9021104F1180005A101220023FFF790
:1052F00059FE6068E06010BD03A06246FFF718BB6E
:1053000068656170000000006D656D20696E6974EC
:105310002C206572726F7220626567696E2061640D
:10532000647265737320307825782C20616E642058
:10533000656E6420616464726573732030782578CB
:105340000A00000010B544F22002C2F2000202F18D
:105350001800C2E9060002F1200002F1080302F180
:105360001001C2E9080002F14000C2E90233C2E9BB
:10537000041102F1280102F1300302F13804C2E9FC
:10538000100002F16000C2E90A11C2E90C33C2E95F
:105390000E4402F1480102F1500302F15804C2E93F
:1053A000180002F18000C2E91211C2E91433C2E907
:1053B000164402F1680102F1700302F17804C2E9B7
:1053C000200002F1A000C2E91A11C2E91C33C2E9AF
:1053D0001E4402F1880102F1900302F19804C2E92F
:1053E000280002F1C00040F2E80EC2E92211C2E931
:1053F0002433C2E9264402F1A80102F1B00302F10C
:10540000B804C2E9300002F1E000C2F2000EC2E9C5
:105410002A11C2E92C33C2E92E4402F1C80102F17B
:10542000D00302F1D804C2E938001F204FF0000C6D
:10543000C2E93211C2E93433C2E9364402F1E8016B
:1054400002F1F00302F1F8048EF800000EF10C00F6
:10545000AEF802C0C2E90022C2E93A11C2E93C3307
:10546000C2E93E44CEE901CCCEE9030010BD000004
:1054700010B540F2E804C2F20004A068FCF7EEFFA9
:1054800044F22001C2F2000101EBC00050F8080C08
:10549000A0F1140108306160BDE81040FAF7C9BE00
:1054A00040F2FC00C2F20000011DC0E9011170478A
:1054B000704700002DE9F04383B00F4601460120FC
:1054C0001D461646FFF722FC00283DD0044628461C
:1054D000FFF748FA00283DD004F11401DDE90A98ED
:1054E000C4E9051123212A46C4E90876C4E90A055E
:1054F000FFF790FB04F120030FCB1A4445F26553EC
:10550000043AC0F60003FFF7D9F945F67D02E061E1
:10551000002704F14400C0F600022146234684F827
:10552000369084F83590C4E90E78C4F8408027633B
:1055300084F83470C4E91C770097019700F016FBDB
:10554000204603B0BDE8F0830024204603B0BDE848
:10555000F08300BF2046FFF713FC0024204603B071
:10556000BDE8F08370B540F2EC00C2F200000568BF
:10557000FAF72AFE0446FAF727FE296F064609B114
:10558000284688473046FAF723FE2846FFF7DEFC18
:10559000042085F8340005F1440000F0CFFA2846D5
:1055A000FFF76CFC012809D12846FFF7FFFBFFF746
:1055B00069FC2046BDE87040FAF70ABE40F2F400EC
:1055C000C2F20000016845F8141F4D600560686074
:1055D000FFF758FC2046BDE87040FAF7F9BD00001F
:1055E00040F2F406C2F2000603E000BF2046FAF7DC
:1055F000EFFDFAF7E9FD31680446B142F6D0D1E992
:105600000020A1F1140550604B6848691A60C1E997
:105610000011FEF739FE2846FFF7B2FBE6E700006F
:1056200010B584B044F220124FF48071C2F200022F
:1056300040F218341F20CDE90021C2F2000445F2E7
:10564000E1524FF0200C029007A1C0F60002204664
:105650000023CDF80CC000F00BF8204604B0BDE8E4
:10566000104000F0BBB800BF7469646C65000000B6
:105670002DE9F04782B00DF1280A16460A46DDF8FA
:1056800034909AE8800501211D460446FFF7B6FBD9
:1056900004F11400C4E90500384623214246C4E958
:1056A0000865C4E90A78FFF7B5FA04F120030FCBC7
:1056B0001A4445F26553043AC0F60003FFF7FEF8BA
:1056C00045F67D02E061002704F14400C0F60002C7
:1056D0002146234684F836A084F835A0C4E90E7923
:1056E000C4F84090276384F83470C4E91C770097AD
:1056F000019700F03BFA002002B0BDE8F0870000FF
:1057000080B500F001F900F02DF8002080BD000008
:10571000B0B5044690F8340000F00F0002281CBF1A
:105720004FF0FF30B0BDFAF74FFD2246A16952F8A5
:10573000143F05465960A16904F144000B60A26161
:10574000126000F093FA2846FAF742FD2046FFF770
:10575000D3FB0020B0BD000040F2EC00C2F200001C
:1057600000687047F0B581B00090FAF72DFD40F267
:10577000EC01C2F200010C68054694F8341001F007
:105780000F01012913D1FAF71FFD06462046FFF746
:10579000DDFB94F8340000F0F000023084F83400AF
:1057A00004F1440000F062FA3046FAF711FD04F10A
:1057B00044066A4630460021002700F08BF9304647
:1057C00000F0EEF92846FAF703FDFFF75BFB206BCC
:1057D000023008BF2763002001B0F0BDB0B5044619
:1057E00090F83600012184F8350001FA00F0A0633A
:1057F000022084F83400FAF7E7FC2246A16952F847
:10580000143F05465960A16904F144000B60A26190
:10581000126000F02BFA2846FAF7DAFC2046FFF770
:105820006BFB40F2EC00C2F200000068002818BFD9
:10583000FFF728FB0020B0BDB0B5044690F8340057
:1058400000F00F0001281CBF4FF0FF30B0BDFAF789
:10585000BBFC05462046FFF779FB94F8340000F0C6
:10586000F000023084F8340004F1440000F0FEF946
:105870002846FAF7ADFC0020B0BD000080B5024616
:10588000816952F8143F6FF0010C59608169C0F8CA
:1058900030C00B6082611260FFF72EFBBDE88040D4
:1058A000FFF7F0BA10B5FAF78FFC40F2EC01C2F244
:1058B0000001096891F8342002F00F02012A1FD17B
:1058C0000A4652F814CF53689C4519D0CCF80430DE
:1058D00091F835E044F22003C2F2000303EBCE035B
:1058E000D1F818E08A615C68CEF800C022608C6153
:1058F0005A604B61FAF76CFCFFF7C4FA002010BD48
:10590000FAF766FC002010BD002844BF4FF0FF30BE
:10591000704744F6D351C1F26201A0FB01239A09FA
:105920004FF47A7302FB1300584300F2E730A0FBF8
:10593000010102FB03F000EB9110704744F22420B8
:10594000C2F200000068704780B544F22420C2F221
:105950000000016801310160FFF7FEFE016C0139B2
:10596000016403D0BDE8804000F008B8C16B016459
:10597000FFF798FFBDE88040AFF300802DE9F04FBE
:1059800083B00DF1040BCDE901BBFFF7D7FF05464E
:10599000FAF71AFC40F2FC08C2F20008414651F83E
:1059A000047F00908F4200F08F804FF6FE76C7F69E
:1059B000FF7608F1040A18E05046D8F80010026893
:1059C0000131C8F8001017F80B1C57603A600760E7
:1059D000786041F0010007F80B0C4846FAF7F8FB35
:1059E000404650F8047F87426ED07869281AB0424A
:1059F0006AD8D7E9001048607A6817F80B0C116074
:105A000081073F605CBF00F0FE0007F80B0C0198B7
:105A100047603860D7E902100197C7F804B088479B
:105A2000FFF78CFF019905465945D9D0D7E9000108
:105A3000416079687F60086017F80B0C3F6000F0E8
:105A400003010329CCD100F0FE0007F80B0CFAF794
:105A5000BBFBD7E9001281464A6017F80B0C7A6845
:105A600000F0FE0011603F607F6007F80B0CFFF74D
:105A700065FF3A69D8F808101044514578619BD009
:105A8000C243504603685C691444B44295D39942BA
:105A900015D0186844691444B44213D381420ED01F
:105AA00003685C691444B442FFF487AF994206D09E
:105AB000186844691444B44204D38142E2D10846D0
:105AC0007BE700BF184678E70098FAF781FB03B040
:105AD000BDE8F08F70B514460E460546FAF774FB24
